{"@erc725/smart-contracts-v8/contracts/ERC725Y.sol":{"ERC725Y":{"abi":[{"inputs":[{"internalType":"address","name":"initialOwner","type":"address"}],"stateMutability":"payable","type":"constructor"},{"inputs":[],"name":"ERC725Y_DataKeysValuesEmptyArray","type":"error"},{"inputs":[],"name":"ERC725Y_DataKeysValuesLengthMismatch","type":"error"},{"inputs":[],"name":"ERC725Y_MsgValueDisallowed","type":"error"},{"inputs":[],"name":"OwnableCannotSetZeroAddressAsOwner","type":"error"},{"anonymous":false,"inputs":[{"indexed":true,"internalType":"bytes32","name":"dataKey","type":"bytes32"},{"indexed":false,"internalType":"bytes","name":"dataValue","type":"bytes"}],"name":"DataChanged","type":"event"},{"anonymous":false,"inputs":[{"indexed":true,"internalType":"address","name":"previousOwner","type":"address"},{"indexed":true,"internalType":"address","name":"newOwner","type":"address"}],"name":"OwnershipTransferred","type":"event"},{"inputs":[{"internalType":"bytes32","name":"dataKey","type":"bytes32"}],"name":"getData","outputs":[{"internalType":"bytes","name":"dataValue","type":"bytes"}],"stateMutability":"view","type":"function"},{"inputs":[{"internalType":"bytes32[]","name":"dataKeys","type":"bytes32[]"}],"name":"getDataBatch","outputs":[{"internalType":"bytes[]","name":"dataValues","type":"bytes[]"}],"stateMutability":"view","type":"function"},{"inputs":[],"name":"owner","outputs":[{"internalType":"address","name":"","type":"address"}],"stateMutability":"view","type":"function"},{"inputs":[],"name":"renounceOwnership","outputs":[],"stateMutability":"nonpayable","type":"function"},{"inputs":[{"internalType":"bytes32","name":"dataKey","type":"bytes32"},{"internalType":"bytes","name":"dataValue","type":"bytes"}],"name":"setData","outputs":[],"stateMutability":"payable","type":"function"},{"inputs":[{"internalType":"bytes32[]","name":"dataKeys","type":"bytes32[]"},{"internalType":"bytes[]","name":"dataValues","type":"bytes[]"}],"name":"setDataBatch","outputs":[],"stateMutability":"payable","type":"function"},{"inputs":[{"internalType":"bytes4","name":"interfaceId","type":"bytes4"}],"name":"supportsInterface","outputs":[{"internalType":"bool","name":"","type":"bool"}],"stateMutability":"view","type":"function"},{"inputs":[{"internalType":"address","name":"newOwner","type":"address"}],"name":"transferOwnership","outputs":[],"stateMutability":"nonpayable","type":"function"}],"evm":{"bytecode":{"linkReferences":{},"object":"6080601f610a5f38819003918201601f19168301916001600160401b038311848410176100885780849260209460405283398101031261008357516001600160a01b038116808203610083576100543361009e565b15610071576100629061009e565b60405161097990816100e68239f35b6040516306b620db60e21b8152600490fd5b600080fd5b634e487b7160e01b600052604160045260246000fd5b600080546001600160a01b039283166001600160a01b03198216811783559216907f8be0079c531659141344cd1fd0a4f28419497f9722a3daafe3b4186f6b6457e09080a356fe608060408181526004908136101561001657600080fd5b600092833560e01c90816301ffc9a7146104b35750806354f6127f1461047b578063715018a61461041e5780637f23690c146103c65780638da5cb5b1461039e5780639790242114610261578063dedff9c6146101485763f2fde38b1461007c57600080fd5b34610144576020366003190112610144576001600160a01b03823581811693919290849003610140576100ad610766565b83156100ee57505082546001600160a01b0319811683178455167f8be0079c531659141344cd1fd0a4f28419497f9722a3daafe3b4186f6b6457e08380a380f35b906020608492519162461bcd60e51b8352820152602660248201527f4f776e61626c653a206e6577206f776e657220697320746865207a65726f206160448201526564647265737360d01b6064820152fd5b8480fd5b8280fd5b5091903461025d57602090816003193601126101445780356001600160401b0381116102595761017a913691016105f0565b9283519161019f61018a846105d9565b9361019784519586610547565b8085526105d9565b601f190181855b82811061024957505050835b85518110156101ed57806101d16101cb60019389610702565b51610650565b6101db8287610702565b526101e68186610702565b50016101b2565b50828483519280840190808552835180925280868601968360051b870101940192955b82871061021d5785850386f35b909192938280610239600193603f198a82030186528851610507565b9601920196019592919092610210565b60608282880101520182906101a6565b8380fd5b5080fd5b5080839160031936011261025d576001600160401b039280358481116102595761028e90369083016105f0565b91602480359580871161039a573660238801121561039a57868401356102b3816105d9565b976102c08551998a610547565b818952602093602460208b019360051b830101933685116103965760248301935b85851061036c57505050505050506102f7610766565b3461035f57825185510361035257825115610345575050815b8151811015610341578061033b61032960019385610702565b516103348388610702565b51906107be565b01610310565b8280f35b516397da5f9560e01b8152fd5b51633bcc897960e01b8152fd5b5163f36ba73760e01b8152fd5b8435828111610392578791610387839286369189010161057e565b8152019401936102e1565b8b80fd5b8980fd5b8580fd5b83823461025d578160031936011261025d57905490516001600160a01b039091168152602090f35b5080839160031936011261025d576024356001600160401b038111610144576103f2903690850161057e565b906103fb610766565b3461040f575061040c9192356107be565b80f35b5163f36ba73760e01b81528390fd5b8334610478578060031936011261047857610437610766565b80546001600160a01b03198116825581906001600160a01b03167f8be0079c531659141344cd1fd0a4f28419497f9722a3daafe3b4186f6b6457e08280a380f35b80fd5b508234610478576020366003190112610478575061049c6104af9235610650565b9051918291602083526020830190610507565b0390f35b84908434610144576020366003190112610144573563ffffffff60e01b811680910361014457602092506318a6a9a560e21b81149081156104f6575b5015158152f35b6301ffc9a760e01b149050836104ef565b919082519283825260005b848110610533575050826000602080949584010152601f8019910116010190565b602081830181015184830182015201610512565b90601f801991011681019081106001600160401b0382111761056857604052565b634e487b7160e01b600052604160045260246000fd5b81601f820112156105d4578035906001600160401b03821161056857604051926105b2601f8401601f191660200185610547565b828452602083830101116105d457816000926020809301838601378301015290565b600080fd5b6001600160401b0381116105685760051b60200190565b9080601f830112156105d457602090823561060a816105d9565b936106186040519586610547565b81855260208086019260051b8201019283116105d457602001905b828210610641575050505090565b81358152908301908301610633565b60009081526001602090600182526040832092604051938492828254926106768461072c565b80875293600181169081156106de57506001146106a1575b5050505061069e92500382610547565b90565b815285812095935091905b8183106106c657505061069e93508201013880808061068e565b855487840185015294850194869450918301916106ac565b935050505061069e94925060ff191682840152151560051b8201013880808061068e565b80518210156107165760209160051b010190565b634e487b7160e01b600052603260045260246000fd5b90600182811c9216801561075c575b602083101461074657565b634e487b7160e01b600052602260045260246000fd5b91607f169161073b565b6000546001600160a01b0316330361077a57565b606460405162461bcd60e51b815260206004820152602060248201527f4f776e61626c653a2063616c6c6572206973206e6f7420746865206f776e65726044820152fd5b919091600092818452600160209080825260408620908351906001600160401b03821161092f576107ef835461072c565b601f81116108e9575b508397601f83116001146108695782917fece574603820d07bc9b91f2a932baadf4628aabcb8afba49776529c14a6104b297989983929361085e575b501b916000199060031b1c19161790555b610859604051928284938452830190610507565b0390a2565b870151925038610834565b97601f929192198216848a52858a20995b8181106108d4575090827fece574603820d07bc9b91f2a932baadf4628aabcb8afba49776529c14a6104b298999a92106108bb575b5050811b019055610845565b86015160001960f88460031b161c1916905538806108af565b878301518b559984019991860191860161087a565b838952848920601f840160051c810191868510610925575b601f0160051c019082905b82811061091a5750506107f8565b8a815501829061090c565b9091508190610901565b634e487b7160e01b88526041600452602488fdfea264697066735822122043556f736412ac82d9aa12dc9944f41ca0df6719158eb18a3fdd21b1be2d9d8064736f6c63430008180033","opcodes":"PUSH1 0x80 PUSH1 0x1F PUSH2 0xA5F CODESIZE DUP2 SWAP1 SUB SWAP2 DUP3 ADD PUSH1 0x1F NOT AND DUP4 ADD SWAP2 PUSH1 0x1 PUSH1 0x1 PUSH1 0x40 SHL SUB DUP4 GT DUP5 DUP5 LT OR PUSH2 0x88 JUMPI DUP1 DUP5 SWAP3 PUSH1 0x20 SWAP5 PUSH1 0x40 MSTORE DUP4 CODECOPY DUP2 ADD SUB SLT PUSH2 0x83 JUMPI MLOAD PUSH1 0x1 PUSH1 0x1 PUSH1 0xA0 SHL SUB DUP2 AND DUP1 DUP3 SUB PUSH2 0x83 JUMPI PUSH2 0x54 CALLER PUSH2 0x9E JUMP JUMPDEST ISZERO PUSH2 0x71 JUMPI PUSH2 0x62 SWAP1 PUSH2 0x9E JUMP JUMPDEST PUSH1 0x40 MLOAD PUSH2 0x979 SWAP1 DUP2 PUSH2 0xE6 DUP3 CODECOPY RETURN JUMPDEST PUSH1 0x40 MLOAD PUSH4 0x6B620DB PUSH1 0xE2 SHL DUP2 MSTORE PUSH1 0x4 SWAP1 REVERT JUMPDEST PUSH1 0x0 DUP1 REVERT JUMPDEST PUSH4 0x4E487B71 PUSH1 0xE0 SHL PUSH1 0x0 MSTORE PUSH1 0x41 PUSH1 0x4 MSTORE PUSH1 0x24 PUSH1 0x0 REVERT JUMPDEST PUSH1 0x0 DUP1 SLOAD PUSH1 0x1 PUSH1 0x1 PUSH1 0xA0 SHL SUB SWAP3 DUP4 AND PUSH1 0x1 PUSH1 0x1 PUSH1 0xA0 SHL SUB NOT DUP3 AND DUP2 OR DUP4 SSTORE SWAP3 AND SWAP1 PUSH32 0x8BE0079C531659141344CD1FD0A4F28419497F9722A3DAAFE3B4186F6B6457E0 SWAP1 DUP1 LOG3 JUMP INVALID PUSH1 0x80 PUSH1 0x40 DUP2 DUP2 MSTORE PUSH1 0x4 SWAP1 DUP2 CALLDATASIZE LT ISZERO PUSH2 0x16 JUMPI PUSH1 0x0 DUP1 REVERT JUMPDEST PUSH1 0x0 SWAP3 DUP4 CALLDATALOAD PUSH1 0xE0 SHR SWAP1 DUP2 PUSH4 0x1FFC9A7 EQ PUSH2 0x4B3 JUMPI POP DUP1 PUSH4 0x54F6127F EQ PUSH2 0x47B JUMPI DUP1 PUSH4 0x715018A6 EQ PUSH2 0x41E JUMPI DUP1 PUSH4 0x7F23690C EQ PUSH2 0x3C6 JUMPI DUP1 PUSH4 0x8DA5CB5B EQ PUSH2 0x39E JUMPI DUP1 PUSH4 0x97902421 EQ PUSH2 0x261 JUMPI DUP1 PUSH4 0xDEDFF9C6 EQ PUSH2 0x148 JUMPI PUSH4 0xF2FDE38B EQ PUSH2 0x7C JUMPI PUSH1 0x0 DUP1 REVERT JUMPDEST CALLVALUE PUSH2 0x144 JUMPI PUSH1 0x20 CALLDATASIZE PUSH1 0x3 NOT ADD SLT PUSH2 0x144 JUMPI PUSH1 0x1 PUSH1 0x1 PUSH1 0xA0 SHL SUB DUP3 CALLDATALOAD DUP2 DUP2 AND SWAP4 SWAP2 SWAP3 SWAP1 DUP5 SWAP1 SUB PUSH2 0x140 JUMPI PUSH2 0xAD PUSH2 0x766 JUMP JUMPDEST DUP4 ISZERO PUSH2 0xEE JUMPI POP POP DUP3 SLOAD PUSH1 0x1 PUSH1 0x1 PUSH1 0xA0 SHL SUB NOT DUP2 AND DUP4 OR DUP5 SSTORE AND PUSH32 0x8BE0079C531659141344CD1FD0A4F28419497F9722A3DAAFE3B4186F6B6457E0 DUP4 DUP1 LOG3 DUP1 RETURN JUMPDEST SWAP1 PUSH1 0x20 PUSH1 0x84 SWAP3 MLOAD SWAP2 PUSH3 0x461BCD PUSH1 0xE5 SHL DUP4 MSTORE DUP3 ADD MSTORE PUSH1 0x26 PUSH1 0x24 DUP3 ADD MSTORE PUSH32 0x4F776E61626C653A206E6577206F776E657220697320746865207A65726F2061 PUSH1 0x44 DUP3 ADD MSTORE PUSH6 0x646472657373 PUSH1 0xD0 SHL PUSH1 0x64 DUP3 ADD MSTORE REVERT JUMPDEST DUP5 DUP1 REVERT JUMPDEST DUP3 DUP1 REVERT JUMPDEST POP SWAP2 SWAP1 CALLVALUE PUSH2 0x25D JUMPI PUSH1 0x20 SWAP1 DUP2 PUSH1 0x3 NOT CALLDATASIZE ADD SLT PUSH2 0x144 JUMPI DUP1 CALLDATALOAD PUSH1 0x1 PUSH1 0x1 PUSH1 0x40 SHL SUB DUP2 GT PUSH2 0x259 JUMPI PUSH2 0x17A SWAP2 CALLDATASIZE SWAP2 ADD PUSH2 0x5F0 JUMP JUMPDEST SWAP3 DUP4 MLOAD SWAP2 PUSH2 0x19F PUSH2 0x18A DUP5 PUSH2 0x5D9 JUMP JUMPDEST SWAP4 PUSH2 0x197 DUP5 MLOAD SWAP6 DUP7 PUSH2 0x547 JUMP JUMPDEST DUP1 DUP6 MSTORE PUSH2 0x5D9 JUMP JUMPDEST PUSH1 0x1F NOT ADD DUP2 DUP6 JUMPDEST DUP3 DUP2 LT PUSH2 0x249 JUMPI POP POP POP DUP4 JUMPDEST DUP6 MLOAD DUP2 LT ISZERO PUSH2 0x1ED JUMPI DUP1 PUSH2 0x1D1 PUSH2 0x1CB PUSH1 0x1 SWAP4 DUP10 PUSH2 0x702 JUMP JUMPDEST MLOAD PUSH2 0x650 JUMP JUMPDEST PUSH2 0x1DB DUP3 DUP8 PUSH2 0x702 JUMP JUMPDEST MSTORE PUSH2 0x1E6 DUP2 DUP7 PUSH2 0x702 JUMP JUMPDEST POP ADD PUSH2 0x1B2 JUMP JUMPDEST POP DUP3 DUP5 DUP4 MLOAD SWAP3 DUP1 DUP5 ADD SWAP1 DUP1 DUP6 MSTORE DUP4 MLOAD DUP1 SWAP3 MSTORE DUP1 DUP7 DUP7 ADD SWAP7 DUP4 PUSH1 0x5 SHL DUP8 ADD ADD SWAP5 ADD SWAP3 SWAP6 JUMPDEST DUP3 DUP8 LT PUSH2 0x21D JUMPI DUP6 DUP6 SUB DUP7 RETURN JUMPDEST SWAP1 SWAP2 SWAP3 SWAP4 DUP3 DUP1 PUSH2 0x239 PUSH1 0x1 SWAP4 PUSH1 0x3F NOT DUP11 DUP3 SUB ADD DUP7 MSTORE DUP9 MLOAD PUSH2 0x507 JUMP JUMPDEST SWAP7 ADD SWAP3 ADD SWAP7 ADD SWAP6 SWAP3 SWAP2 SWAP1 SWAP3 PUSH2 0x210 JUMP JUMPDEST PUSH1 0x60 DUP3 DUP3 DUP9 ADD ADD MSTORE ADD DUP3 SWAP1 PUSH2 0x1A6 JUMP JUMPDEST DUP4 DUP1 REVERT JUMPDEST POP DUP1 REVERT JUMPDEST POP DUP1 DUP4 SWAP2 PUSH1 0x3 NOT CALLDATASIZE ADD SLT PUSH2 0x25D JUMPI PUSH1 0x1 PUSH1 0x1 PUSH1 0x40 SHL SUB SWAP3 DUP1 CALLDATALOAD DUP5 DUP2 GT PUSH2 0x259 JUMPI PUSH2 0x28E SWAP1 CALLDATASIZE SWAP1 DUP4 ADD PUSH2 0x5F0 JUMP JUMPDEST SWAP2 PUSH1 0x24 DUP1 CALLDATALOAD SWAP6 DUP1 DUP8 GT PUSH2 0x39A JUMPI CALLDATASIZE PUSH1 0x23 DUP9 ADD SLT ISZERO PUSH2 0x39A JUMPI DUP7 DUP5 ADD CALLDATALOAD PUSH2 0x2B3 DUP2 PUSH2 0x5D9 JUMP JUMPDEST SWAP8 PUSH2 0x2C0 DUP6 MLOAD SWAP10 DUP11 PUSH2 0x547 JUMP JUMPDEST DUP2 DUP10 MSTORE PUSH1 0x20 SWAP4 PUSH1 0x24 PUSH1 0x20 DUP12 ADD SWAP4 PUSH1 0x5 SHL DUP4 ADD ADD SWAP4 CALLDATASIZE DUP6 GT PUSH2 0x396 JUMPI PUSH1 0x24 DUP4 ADD SWAP4 JUMPDEST DUP6 DUP6 LT PUSH2 0x36C JUMPI POP POP POP POP POP POP POP PUSH2 0x2F7 PUSH2 0x766 JUMP JUMPDEST CALLVALUE PUSH2 0x35F JUMPI DUP3 MLOAD DUP6 MLOAD SUB PUSH2 0x352 JUMPI DUP3 MLOAD ISZERO PUSH2 0x345 JUMPI POP POP DUP2 JUMPDEST DUP2 MLOAD DUP2 LT ISZERO PUSH2 0x341 JUMPI DUP1 PUSH2 0x33B PUSH2 0x329 PUSH1 0x1 SWAP4 DUP6 PUSH2 0x702 JUMP JUMPDEST MLOAD PUSH2 0x334 DUP4 DUP9 PUSH2 0x702 JUMP JUMPDEST MLOAD SWAP1 PUSH2 0x7BE JUMP JUMPDEST ADD PUSH2 0x310 JUMP JUMPDEST DUP3 DUP1 RETURN JUMPDEST MLOAD PUSH4 0x97DA5F95 PUSH1 0xE0 SHL DUP2 MSTORE REVERT JUMPDEST MLOAD PUSH4 0x3BCC8979 PUSH1 0xE0 SHL DUP2 MSTORE REVERT JUMPDEST MLOAD PUSH4 0xF36BA737 PUSH1 0xE0 SHL DUP2 MSTORE REVERT JUMPDEST DUP5 CALLDATALOAD DUP3 DUP2 GT PUSH2 0x392 JUMPI DUP8 SWAP2 PUSH2 0x387 DUP4 SWAP3 DUP7 CALLDATASIZE SWAP2 DUP10 ADD ADD PUSH2 0x57E JUMP JUMPDEST DUP2 MSTORE ADD SWAP5 ADD SWAP4 PUSH2 0x2E1 JUMP JUMPDEST DUP12 DUP1 REVERT JUMPDEST DUP10 DUP1 REVERT JUMPDEST DUP6 DUP1 REVERT JUMPDEST DUP4 DUP3 CALLVALUE PUSH2 0x25D JUMPI DUP2 PUSH1 0x3 NOT CALLDATASIZE ADD SLT PUSH2 0x25D JUMPI SWAP1 SLOAD SWAP1 MLOAD PUSH1 0x1 PUSH1 0x1 PUSH1 0xA0 SHL SUB SWAP1 SWAP2 AND DUP2 MSTORE PUSH1 0x20 SWAP1 RETURN JUMPDEST POP DUP1 DUP4 SWAP2 PUSH1 0x3 NOT CALLDATASIZE ADD SLT PUSH2 0x25D JUMPI PUSH1 0x24 CALLDATALOAD PUSH1 0x1 PUSH1 0x1 PUSH1 0x40 SHL SUB DUP2 GT PUSH2 0x144 JUMPI PUSH2 0x3F2 SWAP1 CALLDATASIZE SWAP1 DUP6 ADD PUSH2 0x57E JUMP JUMPDEST SWAP1 PUSH2 0x3FB PUSH2 0x766 JUMP JUMPDEST CALLVALUE PUSH2 0x40F JUMPI POP PUSH2 0x40C SWAP2 SWAP3 CALLDATALOAD PUSH2 0x7BE JUMP JUMPDEST DUP1 RETURN JUMPDEST MLOAD PUSH4 0xF36BA737 PUSH1 0xE0 SHL DUP2 MSTORE DUP4 SWAP1 REVERT JUMPDEST DUP4 CALLVALUE PUSH2 0x478 JUMPI DUP1 PUSH1 0x3 NOT CALLDATASIZE ADD SLT PUSH2 0x478 JUMPI PUSH2 0x437 PUSH2 0x766 JUMP JUMPDEST DUP1 SLOAD PUSH1 0x1 PUSH1 0x1 PUSH1 0xA0 SHL SUB NOT DUP2 AND DUP3 SSTORE DUP2 SWAP1 PUSH1 0x1 PUSH1 0x1 PUSH1 0xA0 SHL SUB AND PUSH32 0x8BE0079C531659141344CD1FD0A4F28419497F9722A3DAAFE3B4186F6B6457E0 DUP3 DUP1 LOG3 DUP1 RETURN JUMPDEST DUP1 REVERT JUMPDEST POP DUP3 CALLVALUE PUSH2 0x478 JUMPI PUSH1 0x20 CALLDATASIZE PUSH1 0x3 NOT ADD SLT PUSH2 0x478 JUMPI POP PUSH2 0x49C PUSH2 0x4AF SWAP3 CALLDATALOAD PUSH2 0x650 JUMP JUMPDEST SWAP1 MLOAD SWAP2 DUP3 SWAP2 PUSH1 0x20 DUP4 MSTORE PUSH1 0x20 DUP4 ADD SWAP1 PUSH2 0x507 JUMP JUMPDEST SUB SWAP1 RETURN JUMPDEST DUP5 SWAP1 DUP5 CALLVALUE PUSH2 0x144 JUMPI PUSH1 0x20 CALLDATASIZE PUSH1 0x3 NOT ADD SLT PUSH2 0x144 JUMPI CALLDATALOAD PUSH4 0xFFFFFFFF PUSH1 0xE0 SHL DUP2 AND DUP1 SWAP2 SUB PUSH2 0x144 JUMPI PUSH1 0x20 SWAP3 POP PUSH4 0x18A6A9A5 PUSH1 0xE2 SHL DUP2 EQ SWAP1 DUP2 ISZERO PUSH2 0x4F6 JUMPI JUMPDEST POP ISZERO ISZERO DUP2 MSTORE RETURN JUMPDEST PUSH4 0x1FFC9A7 PUSH1 0xE0 SHL EQ SWAP1 POP DUP4 PUSH2 0x4EF JUMP JUMPDEST SWAP2 SWAP1 DUP3 MLOAD SWAP3 DUP4 DUP3 MSTORE PUSH1 0x0 JUMPDEST DUP5 DUP2 LT PUSH2 0x533 JUMPI POP POP DUP3 PUSH1 0x0 PUSH1 0x20 DUP1 SWAP5 SWAP6 DUP5 ADD ADD MSTORE PUSH1 0x1F DUP1 NOT SWAP2 ADD AND ADD ADD SWAP1 JUMP JUMPDEST PUSH1 0x20 DUP2 DUP4 ADD DUP2 ADD MLOAD DUP5 DUP4 ADD DUP3 ADD MSTORE ADD PUSH2 0x512 JUMP JUMPDEST SWAP1 PUSH1 0x1F DUP1 NOT SWAP2 ADD AND DUP2 ADD SWAP1 DUP2 LT PUSH1 0x1 PUSH1 0x1 PUSH1 0x40 SHL SUB DUP3 GT OR PUSH2 0x568 JUMPI PUSH1 0x40 MSTORE JUMP JUMPDEST PUSH4 0x4E487B71 PUSH1 0xE0 SHL PUSH1 0x0 MSTORE PUSH1 0x41 PUSH1 0x4 MSTORE PUSH1 0x24 PUSH1 0x0 REVERT JUMPDEST DUP2 PUSH1 0x1F DUP3 ADD SLT ISZERO PUSH2 0x5D4 JUMPI DUP1 CALLDATALOAD SWAP1 PUSH1 0x1 PUSH1 0x1 PUSH1 0x40 SHL SUB DUP3 GT PUSH2 0x568 JUMPI PUSH1 0x40 MLOAD SWAP3 PUSH2 0x5B2 PUSH1 0x1F DUP5 ADD PUSH1 0x1F NOT AND PUSH1 0x20 ADD DUP6 PUSH2 0x547 JUMP JUMPDEST DUP3 DUP5 MSTORE PUSH1 0x20 DUP4 DUP4 ADD ADD GT PUSH2 0x5D4 JUMPI DUP2 PUSH1 0x0 SWAP3 PUSH1 0x20 DUP1 SWAP4 ADD DUP4 DUP7 ADD CALLDATACOPY DUP4 ADD ADD MSTORE SWAP1 JUMP JUMPDEST PUSH1 0x0 DUP1 REVERT JUMPDEST PUSH1 0x1 PUSH1 0x1 PUSH1 0x40 SHL SUB DUP2 GT PUSH2 0x568 JUMPI PUSH1 0x5 SHL PUSH1 0x20 ADD SWAP1 JUMP JUMPDEST SWAP1 DUP1 PUSH1 0x1F DUP4 ADD SLT ISZERO PUSH2 0x5D4 JUMPI PUSH1 0x20 SWAP1 DUP3 CALLDATALOAD PUSH2 0x60A DUP2 PUSH2 0x5D9 JUMP JUMPDEST SWAP4 PUSH2 0x618 PUSH1 0x40 MLOAD SWAP6 DUP7 PUSH2 0x547 JUMP JUMPDEST DUP2 DUP6 MSTORE PUSH1 0x20 DUP1 DUP7 ADD SWAP3 PUSH1 0x5 SHL DUP3 ADD ADD SWAP3 DUP4 GT PUSH2 0x5D4 JUMPI PUSH1 0x20 ADD SWAP1 JUMPDEST DUP3 DUP3 LT PUSH2 0x641 JUMPI POP POP POP POP SWAP1 JUMP JUMPDEST DUP2 CALLDATALOAD DUP2 MSTORE SWAP1 DUP4 ADD SWAP1 DUP4 ADD PUSH2 0x633 JUMP JUMPDEST PUSH1 0x0 SWAP1 DUP2 MSTORE PUSH1 0x1 PUSH1 0x20 SWAP1 PUSH1 0x1 DUP3 MSTORE PUSH1 0x40 DUP4 KECCAK256 SWAP3 PUSH1 0x40 MLOAD SWAP4 DUP5 SWAP3 DUP3 DUP3 SLOAD SWAP3 PUSH2 0x676 DUP5 PUSH2 0x72C JUMP JUMPDEST DUP1 DUP8 MSTORE SWAP4 PUSH1 0x1 DUP2 AND SWAP1 DUP2 ISZERO PUSH2 0x6DE JUMPI POP PUSH1 0x1 EQ PUSH2 0x6A1 JUMPI JUMPDEST POP POP POP POP PUSH2 0x69E SWAP3 POP SUB DUP3 PUSH2 0x547 JUMP JUMPDEST SWAP1 JUMP JUMPDEST DUP2 MSTORE DUP6 DUP2 KECCAK256 SWAP6 SWAP4 POP SWAP2 SWAP1 JUMPDEST DUP2 DUP4 LT PUSH2 0x6C6 JUMPI POP POP PUSH2 0x69E SWAP4 POP DUP3 ADD ADD CODESIZE DUP1 DUP1 DUP1 PUSH2 0x68E JUMP JUMPDEST DUP6 SLOAD DUP8 DUP5 ADD DUP6 ADD MSTORE SWAP5 DUP6 ADD SWAP5 DUP7 SWAP5 POP SWAP2 DUP4 ADD SWAP2 PUSH2 0x6AC JUMP JUMPDEST SWAP4 POP POP POP POP PUSH2 0x69E SWAP5 SWAP3 POP PUSH1 0xFF NOT AND DUP3 DUP5 ADD MSTORE ISZERO ISZERO PUSH1 0x5 SHL DUP3 ADD ADD CODESIZE DUP1 DUP1 DUP1 PUSH2 0x68E JUMP JUMPDEST DUP1 MLOAD DUP3 LT ISZERO PUSH2 0x716 JUMPI PUSH1 0x20 SWAP2 PUSH1 0x5 SHL ADD ADD SWAP1 JUMP JUMPDEST PUSH4 0x4E487B71 PUSH1 0xE0 SHL PUSH1 0x0 MSTORE PUSH1 0x32 PUSH1 0x4 MSTORE PUSH1 0x24 PUSH1 0x0 REVERT JUMPDEST SWAP1 PUSH1 0x1 DUP3 DUP2 SHR SWAP3 AND DUP1 ISZERO PUSH2 0x75C JUMPI JUMPDEST PUSH1 0x20 DUP4 LT EQ PUSH2 0x746 JUMPI JUMP JUMPDEST PUSH4 0x4E487B71 PUSH1 0xE0 SHL PUSH1 0x0 MSTORE PUSH1 0x22 PUSH1 0x4 MSTORE PUSH1 0x24 PUSH1 0x0 REVERT JUMPDEST SWAP2 PUSH1 0x7F AND SWAP2 PUSH2 0x73B JUMP JUMPDEST PUSH1 0x0 SLOAD PUSH1 0x1 PUSH1 0x1 PUSH1 0xA0 SHL SUB AND CALLER SUB PUSH2 0x77A JUMPI JUMP JUMPDEST PUSH1 0x64 PUSH1 0x40 MLOAD PUSH3 0x461BCD PUSH1 0xE5 SHL DUP2 MSTORE PUSH1 0x20 PUSH1 0x4 DUP3 ADD MSTORE PUSH1 0x20 PUSH1 0x24 DUP3 ADD MSTORE PUSH32 0x4F776E61626C653A2063616C6C6572206973206E6F7420746865206F776E6572 PUSH1 0x44 DUP3 ADD MSTORE REVERT JUMPDEST SWAP2 SWAP1 SWAP2 PUSH1 0x0 SWAP3 DUP2 DUP5 MSTORE PUSH1 0x1 PUSH1 0x20 SWAP1 DUP1 DUP3 MSTORE PUSH1 0x40 DUP7 KECCAK256 SWAP1 DUP4 MLOAD SWAP1 PUSH1 0x1 PUSH1 0x1 PUSH1 0x40 SHL SUB DUP3 GT PUSH2 0x92F JUMPI PUSH2 0x7EF DUP4 SLOAD PUSH2 0x72C JUMP JUMPDEST PUSH1 0x1F DUP2 GT PUSH2 0x8E9 JUMPI JUMPDEST POP DUP4 SWAP8 PUSH1 0x1F DUP4 GT PUSH1 0x1 EQ PUSH2 0x869 JUMPI DUP3 SWAP2 PUSH32 0xECE574603820D07BC9B91F2A932BAADF4628AABCB8AFBA49776529C14A6104B2 SWAP8 SWAP9 SWAP10 DUP4 SWAP3 SWAP4 PUSH2 0x85E JUMPI JUMPDEST POP SHL SWAP2 PUSH1 0x0 NOT SWAP1 PUSH1 0x3 SHL SHR NOT AND OR SWAP1 SSTORE JUMPDEST PUSH2 0x859 PUSH1 0x40 MLOAD SWAP3 DUP3 DUP5 SWAP4 DUP5 MSTORE DUP4 ADD SWAP1 PUSH2 0x507 JUMP JUMPDEST SUB SWAP1 LOG2 JUMP JUMPDEST DUP8 ADD MLOAD SWAP3 POP CODESIZE PUSH2 0x834 JUMP JUMPDEST SWAP8 PUSH1 0x1F SWAP3 SWAP2 SWAP3 NOT DUP3 AND DUP5 DUP11 MSTORE DUP6 DUP11 KECCAK256 SWAP10 JUMPDEST DUP2 DUP2 LT PUSH2 0x8D4 JUMPI POP SWAP1 DUP3 PUSH32 0xECE574603820D07BC9B91F2A932BAADF4628AABCB8AFBA49776529C14A6104B2 SWAP9 SWAP10 SWAP11 SWAP3 LT PUSH2 0x8BB JUMPI JUMPDEST POP POP DUP2 SHL ADD SWAP1 SSTORE PUSH2 0x845 JUMP JUMPDEST DUP7 ADD MLOAD PUSH1 0x0 NOT PUSH1 0xF8 DUP5 PUSH1 0x3 SHL AND SHR NOT AND SWAP1 SSTORE CODESIZE DUP1 PUSH2 0x8AF JUMP JUMPDEST DUP8 DUP4 ADD MLOAD DUP12 SSTORE SWAP10 DUP5 ADD SWAP10 SWAP2 DUP7 ADD SWAP2 DUP7 ADD PUSH2 0x87A JUMP JUMPDEST DUP4 DUP10 MSTORE DUP5 DUP10 KECCAK256 PUSH1 0x1F DUP5 ADD PUSH1 0x5 SHR DUP2 ADD SWAP2 DUP7 DUP6 LT PUSH2 0x925 JUMPI JUMPDEST PUSH1 0x1F ADD PUSH1 0x5 SHR ADD SWAP1 DUP3 SWAP1 JUMPDEST DUP3 DUP2 LT PUSH2 0x91A JUMPI POP POP PUSH2 0x7F8 JUMP JUMPDEST DUP11 DUP2 SSTORE ADD DUP3 SWAP1 PUSH2 0x90C JUMP JUMPDEST SWAP1 SWAP2 POP DUP2 SWAP1 PUSH2 0x901 JUMP JUMPDEST PUSH4 0x4E487B71 PUSH1 0xE0 SHL DUP9 MSTORE PUSH1 0x41 PUSH1 0x4 MSTORE PUSH1 0x24 DUP9 REVERT INVALID LOG2 PUSH5 0x6970667358 0x22 SLT KECCAK256 NUMBER SSTORE PUSH16 0x736412AC82D9AA12DC9944F41CA0DF67 NOT ISZERO DUP15 0xB1 DUP11 EXTCODEHASH 0xDD 0x21 0xB1 0xBE 0x2D SWAP14 DUP1 PUSH5 0x736F6C6343 STOP ADDMOD XOR STOP CALLER "},"methodIdentifiers":{"getData(bytes32)":"54f6127f","getDataBatch(bytes32[])":"dedff9c6","owner()":"8da5cb5b","renounceOwnership()":"715018a6","setData(bytes32,bytes)":"7f23690c","setDataBatch(bytes32[],bytes[])":"97902421","supportsInterface(bytes4)":"01ffc9a7","transferOwnership(address)":"f2fde38b"}}}}}