{"contracts_vehicle/VehiclePassport.sol":{"VehiclePassportRegistry":{"abi":[{"inputs":[{"internalType":"address","name":"chainIntegrateOwner","type":"address"}],"stateMutability":"nonpayable","type":"constructor"},{"inputs":[],"name":"AuthorizationExpired","type":"error"},{"inputs":[],"name":"AuthorizationInactive","type":"error"},{"inputs":[],"name":"AuthorizationNotFound","type":"error"},{"inputs":[],"name":"AuthorizationNotStarted","type":"error"},{"inputs":[],"name":"AuthorizationOwnerMismatch","type":"error"},{"inputs":[],"name":"AuthorizationWrongEpoch","type":"error"},{"inputs":[],"name":"AuthorizationWrongOperator","type":"error"},{"inputs":[],"name":"ERC725Y_DataKeysValuesEmptyArray","type":"error"},{"inputs":[],"name":"ERC725Y_DataKeysValuesLengthMismatch","type":"error"},{"inputs":[],"name":"ERC725Y_MsgValueDisallowed","type":"error"},{"inputs":[{"internalType":"bytes","name":"storedData","type":"bytes"}],"name":"InvalidExtensionAddress","type":"error"},{"inputs":[],"name":"InvalidFirstOwner","type":"error"},{"inputs":[{"internalType":"bytes","name":"data","type":"bytes"}],"name":"InvalidFunctionSelector","type":"error"},{"inputs":[],"name":"InvalidIssuer","type":"error"},{"inputs":[],"name":"InvalidOperator","type":"error"},{"inputs":[],"name":"InvalidValidityRange","type":"error"},{"inputs":[],"name":"InvalidWorkDates","type":"error"},{"inputs":[],"name":"LSP4TokenNameNotEditable","type":"error"},{"inputs":[],"name":"LSP4TokenSymbolNotEditable","type":"error"},{"inputs":[],"name":"LSP4TokenTypeNotEditable","type":"error"},{"inputs":[{"internalType":"uint256","name":"callIndex","type":"uint256"}],"name":"LSP8BatchCallFailed","type":"error"},{"inputs":[],"name":"LSP8CannotSendToAddressZero","type":"error"},{"inputs":[],"name":"LSP8CannotUseAddressZeroAsOperator","type":"error"},{"inputs":[],"name":"LSP8InvalidTransferBatch","type":"error"},{"inputs":[{"internalType":"bytes32","name":"tokenId","type":"bytes32"}],"name":"LSP8NonExistentTokenId","type":"error"},{"inputs":[{"internalType":"address","name":"operator","type":"address"},{"internalType":"bytes32","name":"tokenId","type":"bytes32"}],"name":"LSP8NonExistingOperator","type":"error"},{"inputs":[{"internalType":"bytes32","name":"tokenId","type":"bytes32"},{"internalType":"address","name":"caller","type":"address"}],"name":"LSP8NotTokenOperator","type":"error"},{"inputs":[{"internalType":"address","name":"tokenOwner","type":"address"},{"internalType":"bytes32","name":"tokenId","type":"bytes32"},{"internalType":"address","name":"caller","type":"address"}],"name":"LSP8NotTokenOwner","type":"error"},{"inputs":[{"internalType":"address","name":"tokenReceiver","type":"address"}],"name":"LSP8NotifyTokenReceiverContractMissingLSP1Interface","type":"error"},{"inputs":[{"internalType":"address","name":"tokenReceiver","type":"address"}],"name":"LSP8NotifyTokenReceiverIsEOA","type":"error"},{"inputs":[{"internalType":"address","name":"operator","type":"address"},{"internalType":"bytes32","name":"tokenId","type":"bytes32"}],"name":"LSP8OperatorAlreadyAuthorized","type":"error"},{"inputs":[{"internalType":"address","name":"caller","type":"address"},{"internalType":"address","name":"tokenOwner","type":"address"},{"internalType":"bytes32","name":"tokenId","type":"bytes32"}],"name":"LSP8RevokeOperatorNotAuthorized","type":"error"},{"inputs":[],"name":"LSP8TokenContractCannotHoldValue","type":"error"},{"inputs":[{"internalType":"bytes32","name":"tokenId","type":"bytes32"}],"name":"LSP8TokenIdAlreadyMinted","type":"error"},{"inputs":[],"name":"LSP8TokenIdFormatNotEditable","type":"error"},{"inputs":[],"name":"LSP8TokenIdsDataEmptyArray","type":"error"},{"inputs":[],"name":"LSP8TokenIdsDataLengthMismatch","type":"error"},{"inputs":[],"name":"LSP8TokenOwnerCannotBeOperator","type":"error"},{"inputs":[{"internalType":"bytes32","name":"tokenId","type":"bytes32"},{"internalType":"address","name":"oldOwner","type":"address"},{"internalType":"address","name":"newOwner","type":"address"}],"name":"LSP8TokenOwnerChanged","type":"error"},{"inputs":[{"internalType":"bytes4","name":"functionSelector","type":"bytes4"}],"name":"NoExtensionFoundForFunctionSelector","type":"error"},{"inputs":[],"name":"NotAuthorizedIssuer","type":"error"},{"inputs":[],"name":"NotTokenOwner","type":"error"},{"inputs":[],"name":"OriginMetadataAlreadyFrozen","type":"error"},{"inputs":[],"name":"OriginMetadataNotWritableByCaller","type":"error"},{"inputs":[],"name":"OwnableCannotSetZeroAddressAsOwner","type":"error"},{"inputs":[],"name":"OwnershipTransferManualRecordForbidden","type":"error"},{"inputs":[],"name":"PassportAlreadyExists","type":"error"},{"inputs":[],"name":"PassportDoesNotExist","type":"error"},{"inputs":[],"name":"SupersededRecordNotFound","type":"error"},{"inputs":[],"name":"SupersededRecordWrongVehicle","type":"error"},{"inputs":[],"name":"WorkCompletionInFuture","type":"error"},{"anonymous":false,"inputs":[{"indexed":true,"internalType":"bytes32","name":"dataKey","type":"bytes32"},{"indexed":false,"internalType":"bytes","name":"dataValue","type":"bytes"}],"name":"DataChanged","type":"event"},{"anonymous":false,"inputs":[{"indexed":true,"internalType":"address","name":"issuer","type":"address"}],"name":"IssuerAuthorized","type":"event"},{"anonymous":false,"inputs":[{"indexed":true,"internalType":"address","name":"issuer","type":"address"}],"name":"IssuerRevoked","type":"event"},{"anonymous":false,"inputs":[{"indexed":true,"internalType":"address","name":"operator","type":"address"},{"indexed":true,"internalType":"address","name":"tokenOwner","type":"address"},{"indexed":true,"internalType":"bytes32","name":"tokenId","type":"bytes32"},{"indexed":false,"internalType":"bytes","name":"operatorNotificationData","type":"bytes"}],"name":"OperatorAuthorizationChanged","type":"event"},{"anonymous":false,"inputs":[{"indexed":true,"internalType":"address","name":"operator","type":"address"},{"indexed":true,"internalType":"address","name":"tokenOwner","type":"address"},{"indexed":true,"internalType":"bytes32","name":"tokenId","type":"bytes32"},{"indexed":false,"internalType":"bool","name":"notified","type":"bool"},{"indexed":false,"internalType":"bytes","name":"operatorNotificationData","type":"bytes"}],"name":"OperatorRevoked","type":"event"},{"anonymous":false,"inputs":[{"indexed":true,"internalType":"bytes32","name":"tokenId","type":"bytes32"},{"indexed":true,"internalType":"address","name":"writer","type":"address"}],"name":"OriginMetadataFrozen","type":"event"},{"anonymous":false,"inputs":[{"indexed":true,"internalType":"bytes32","name":"tokenId","type":"bytes32"},{"indexed":true,"internalType":"address","name":"writer","type":"address"},{"indexed":false,"internalType":"string","name":"metadataURI","type":"string"},{"indexed":false,"internalType":"bytes32","name":"metadataHash","type":"bytes32"}],"name":"OriginMetadataUpdated","type":"event"},{"anonymous":false,"inputs":[{"indexed":true,"internalType":"uint256","name":"recordId","type":"uint256"},{"indexed":true,"internalType":"bytes32","name":"tokenId","type":"bytes32"},{"indexed":true,"internalType":"address","name":"from","type":"address"},{"indexed":false,"internalType":"address","name":"to","type":"address"}],"name":"OwnershipTransferRecordCreated","type":"event"},{"anonymous":false,"inputs":[{"indexed":true,"internalType":"address","name":"previousOwner","type":"address"},{"indexed":true,"internalType":"address","name":"newOwner","type":"address"}],"name":"OwnershipTransferred","type":"event"},{"anonymous":false,"inputs":[{"indexed":true,"internalType":"bytes32","name":"tokenId","type":"bytes32"},{"indexed":false,"internalType":"enum VehiclePassportRegistry.PassportStatus","name":"newStatus","type":"uint8"}],"name":"PassportStatusUpdated","type":"event"},{"anonymous":false,"inputs":[{"indexed":true,"internalType":"uint256","name":"recordId","type":"uint256"},{"indexed":true,"internalType":"bytes32","name":"tokenId","type":"bytes32"},{"indexed":true,"internalType":"uint256","name":"authorizationId","type":"uint256"},{"indexed":false,"internalType":"address","name":"writer","type":"address"},{"indexed":false,"internalType":"enum VehiclePassportRegistry.RecordCategory","name":"category","type":"uint8"},{"indexed":false,"internalType":"enum VehiclePassportRegistry.RecordCause","name":"cause","type":"uint8"}],"name":"ServiceRecordCreated","type":"event"},{"anonymous":false,"inputs":[{"indexed":true,"internalType":"bytes32","name":"tokenId","type":"bytes32"},{"indexed":true,"internalType":"bytes32","name":"dataKey","type":"bytes32"},{"indexed":false,"internalType":"bytes","name":"dataValue","type":"bytes"}],"name":"TokenIdDataChanged","type":"event"},{"anonymous":false,"inputs":[{"indexed":false,"internalType":"address","name":"operator","type":"address"},{"indexed":true,"internalType":"address","name":"from","type":"address"},{"indexed":true,"internalType":"address","name":"to","type":"address"},{"indexed":true,"internalType":"bytes32","name":"tokenId","type":"bytes32"},{"indexed":false,"internalType":"bool","name":"force","type":"bool"},{"indexed":false,"internalType":"bytes","name":"data","type":"bytes"}],"name":"Transfer","type":"event"},{"anonymous":false,"inputs":[{"indexed":true,"internalType":"bytes32","name":"tokenId","type":"bytes32"},{"indexed":false,"internalType":"uint256","name":"newEpoch","type":"uint256"}],"name":"VehicleAuthorizationEpochIncremented","type":"event"},{"anonymous":false,"inputs":[{"indexed":true,"internalType":"bytes32","name":"tokenId","type":"bytes32"},{"indexed":true,"internalType":"address","name":"issuer","type":"address"},{"indexed":true,"internalType":"address","name":"firstOwner","type":"address"}],"name":"VehiclePassportMinted","type":"event"},{"anonymous":false,"inputs":[{"indexed":true,"internalType":"uint256","name":"authorizationId","type":"uint256"},{"indexed":true,"internalType":"bytes32","name":"tokenId","type":"bytes32"},{"indexed":true,"internalType":"address","name":"grantedBy","type":"address"},{"indexed":false,"internalType":"address","name":"operator","type":"address"},{"indexed":false,"internalType":"enum VehiclePassportRegistry.RecordCategory","name":"category","type":"uint8"},{"indexed":false,"internalType":"enum VehiclePassportRegistry.AuthorizationMode","name":"mode","type":"uint8"},{"indexed":false,"internalType":"uint256","name":"epoch","type":"uint256"}],"name":"WriteAuthorizationGranted","type":"event"},{"anonymous":false,"inputs":[{"indexed":true,"internalType":"uint256","name":"authorizationId","type":"uint256"},{"indexed":true,"internalType":"bytes32","name":"tokenId","type":"bytes32"},{"indexed":true,"internalType":"address","name":"revokedBy","type":"address"}],"name":"WriteAuthorizationRevoked","type":"event"},{"stateMutability":"payable","type":"fallback"},{"inputs":[],"name":"ORIGIN_METADATA_FROZEN_KEY","outputs":[{"internalType":"bytes32","name":"","type":"bytes32"}],"stateMutability":"view","type":"function"},{"inputs":[],"name":"ORIGIN_METADATA_HASH_KEY","outputs":[{"internalType":"bytes32","name":"","type":"bytes32"}],"stateMutability":"view","type":"function"},{"inputs":[],"name":"ORIGIN_METADATA_URI_KEY","outputs":[{"internalType":"bytes32","name":"","type":"bytes32"}],"stateMutability":"view","type":"function"},{"inputs":[{"internalType":"address","name":"issuer","type":"address"}],"name":"authorizeIssuer","outputs":[],"stateMutability":"nonpayable","type":"function"},{"inputs":[{"internalType":"address","name":"operator","type":"address"},{"internalType":"bytes32","name":"tokenId","type":"bytes32"},{"internalType":"bytes","name":"operatorNotificationData","type":"bytes"}],"name":"authorizeOperator","outputs":[],"stateMutability":"nonpayable","type":"function"},{"inputs":[{"internalType":"address","name":"","type":"address"}],"name":"authorizedIssuers","outputs":[{"internalType":"bool","name":"","type":"bool"}],"stateMutability":"view","type":"function"},{"inputs":[{"internalType":"address","name":"tokenOwner","type":"address"}],"name":"balanceOf","outputs":[{"internalType":"uint256","name":"","type":"uint256"}],"stateMutability":"view","type":"function"},{"inputs":[{"internalType":"bytes[]","name":"data","type":"bytes[]"}],"name":"batchCalls","outputs":[{"internalType":"bytes[]","name":"results","type":"bytes[]"}],"stateMutability":"nonpayable","type":"function"},{"inputs":[{"internalType":"string","name":"normalizedVIN","type":"string"}],"name":"computeTokenIdFromVIN","outputs":[{"internalType":"bytes32","name":"","type":"bytes32"}],"stateMutability":"pure","type":"function"},{"inputs":[{"internalType":"uint256","name":"authorizationId","type":"uint256"},{"components":[{"internalType":"uint64","name":"workStartedAt","type":"uint64"},{"internalType":"uint64","name":"workCompletedAt","type":"uint64"},{"internalType":"uint32","name":"odometerKm","type":"uint32"},{"internalType":"string","name":"recordURI","type":"string"},{"internalType":"bytes32","name":"recordHash","type":"bytes32"},{"internalType":"enum VehiclePassportRegistry.RecordCause","name":"cause","type":"uint8"},{"internalType":"uint256","name":"supersedesRecordId","type":"uint256"}],"internalType":"struct VehiclePassportRegistry.CreateServiceRecordInput","name":"input","type":"tuple"}],"name":"createServiceRecord","outputs":[{"internalType":"uint256","name":"recordId","type":"uint256"}],"stateMutability":"nonpayable","type":"function"},{"inputs":[{"internalType":"bytes32","name":"tokenId","type":"bytes32"}],"name":"freezeOriginMetadata","outputs":[],"stateMutability":"nonpayable","type":"function"},{"inputs":[{"internalType":"uint256","name":"authorizationId","type":"uint256"}],"name":"getAuthorization","outputs":[{"internalType":"bool","name":"active","type":"bool"},{"internalType":"uint256","name":"authId","type":"uint256"},{"internalType":"bytes32","name":"tokenId","type":"bytes32"},{"internalType":"address","name":"grantedBy","type":"address"},{"internalType":"address","name":"operator","type":"address"},{"internalType":"enum VehiclePassportRegistry.RecordCategory","name":"category","type":"uint8"},{"internalType":"enum VehiclePassportRegistry.AuthorizationMode","name":"mode","type":"uint8"},{"internalType":"uint64","name":"validFrom","type":"uint64"},{"internalType":"uint64","name":"validUntil","type":"uint64"},{"internalType":"uint256","name":"epoch","type":"uint256"}],"stateMutability":"view","type":"function"},{"inputs":[{"internalType":"bytes32","name":"tokenId","type":"bytes32"}],"name":"getAuthorizationIdsByVehicle","outputs":[{"internalType":"uint256[]","name":"","type":"uint256[]"}],"stateMutability":"view","type":"function"},{"inputs":[{"internalType":"bytes32","name":"tokenId","type":"bytes32"}],"name":"getCurrentOwner","outputs":[{"internalType":"address","name":"","type":"address"}],"stateMutability":"view","type":"function"},{"inputs":[{"internalType":"bytes32","name":"dataKey","type":"bytes32"}],"name":"getData","outputs":[{"internalType":"bytes","name":"dataValue","type":"bytes"}],"stateMutability":"view","type":"function"},{"inputs":[{"internalType":"bytes32[]","name":"dataKeys","type":"bytes32[]"}],"name":"getDataBatch","outputs":[{"internalType":"bytes[]","name":"dataValues","type":"bytes[]"}],"stateMutability":"view","type":"function"},{"inputs":[{"internalType":"bytes32[]","name":"tokenIds","type":"bytes32[]"},{"internalType":"bytes32[]","name":"dataKeys","type":"bytes32[]"}],"name":"getDataBatchForTokenIds","outputs":[{"internalType":"bytes[]","name":"dataValues","type":"bytes[]"}],"stateMutability":"view","type":"function"},{"inputs":[{"internalType":"bytes32","name":"tokenId","type":"bytes32"},{"internalType":"bytes32","name":"dataKey","type":"bytes32"}],"name":"getDataForTokenId","outputs":[{"internalType":"bytes","name":"dataValue","type":"bytes"}],"stateMutability":"view","type":"function"},{"inputs":[{"internalType":"bytes32","name":"tokenId","type":"bytes32"}],"name":"getOperatorsOf","outputs":[{"internalType":"address[]","name":"","type":"address[]"}],"stateMutability":"view","type":"function"},{"inputs":[{"internalType":"bytes32","name":"tokenId","type":"bytes32"}],"name":"getOriginMetadata","outputs":[{"internalType":"string","name":"metadataURI","type":"string"},{"internalType":"bytes32","name":"metadataHash","type":"bytes32"},{"internalType":"bool","name":"frozen","type":"bool"},{"internalType":"address","name":"writtenBy","type":"address"},{"internalType":"uint64","name":"updatedAt","type":"uint64"}],"stateMutability":"view","type":"function"},{"inputs":[{"internalType":"uint256","name":"recordId","type":"uint256"}],"name":"getRecordContent","outputs":[{"internalType":"string","name":"recordURI","type":"string"},{"internalType":"bytes32","name":"recordHash","type":"bytes32"}],"stateMutability":"view","type":"function"},{"inputs":[{"internalType":"uint256","name":"recordId","type":"uint256"}],"name":"getRecordHeader","outputs":[{"internalType":"bool","name":"exists","type":"bool"},{"internalType":"uint256","name":"id","type":"uint256"},{"internalType":"bytes32","name":"tokenId","type":"bytes32"},{"internalType":"uint256","name":"authorizationId","type":"uint256"},{"internalType":"enum VehiclePassportRegistry.RecordCategory","name":"category","type":"uint8"},{"internalType":"enum VehiclePassportRegistry.RecordCause","name":"cause","type":"uint8"},{"internalType":"address","name":"writer","type":"address"},{"internalType":"uint64","name":"createdAt","type":"uint64"},{"internalType":"uint64","name":"workStartedAt","type":"uint64"},{"internalType":"uint64","name":"workCompletedAt","type":"uint64"},{"internalType":"uint32","name":"odometerKm","type":"uint32"},{"internalType":"bool","name":"frozen","type":"bool"},{"internalType":"uint256","name":"supersedesRecordId","type":"uint256"},{"internalType":"bool","name":"systemGenerated","type":"bool"}],"stateMutability":"view","type":"function"},{"inputs":[{"internalType":"bytes32","name":"tokenId","type":"bytes32"}],"name":"getRecordIdsByVehicle","outputs":[{"internalType":"uint256[]","name":"","type":"uint256[]"}],"stateMutability":"view","type":"function"},{"inputs":[{"internalType":"bytes32","name":"tokenId","type":"bytes32"},{"internalType":"address","name":"operator","type":"address"},{"internalType":"enum VehiclePassportRegistry.RecordCategory","name":"category","type":"uint8"},{"internalType":"enum VehiclePassportRegistry.AuthorizationMode","name":"mode","type":"uint8"},{"internalType":"uint64","name":"validFrom","type":"uint64"},{"internalType":"uint64","name":"validUntil","type":"uint64"}],"name":"grantWriteAuthorization","outputs":[{"internalType":"uint256","name":"authorizationId","type":"uint256"}],"stateMutability":"nonpayable","type":"function"},{"inputs":[{"internalType":"uint256","name":"authorizationId","type":"uint256"}],"name":"isAuthorizationCurrentlyUsable","outputs":[{"internalType":"bool","name":"","type":"bool"}],"stateMutability":"view","type":"function"},{"inputs":[{"internalType":"address","name":"operator","type":"address"},{"internalType":"bytes32","name":"tokenId","type":"bytes32"}],"name":"isOperatorFor","outputs":[{"internalType":"bool","name":"","type":"bool"}],"stateMutability":"view","type":"function"},{"inputs":[{"internalType":"bytes32","name":"tokenId","type":"bytes32"},{"internalType":"address","name":"firstOwner","type":"address"},{"internalType":"string","name":"originMetadataURI","type":"string"},{"internalType":"bytes32","name":"originMetadataHash","type":"bytes32"}],"name":"mintVehiclePassport","outputs":[{"internalType":"bytes32","name":"","type":"bytes32"}],"stateMutability":"nonpayable","type":"function"},{"inputs":[{"internalType":"string","name":"normalizedVIN","type":"string"},{"internalType":"address","name":"firstOwner","type":"address"},{"internalType":"string","name":"originMetadataURI","type":"string"},{"internalType":"bytes32","name":"originMetadataHash","type":"bytes32"}],"name":"mintVehiclePassportFromVIN","outputs":[{"internalType":"bytes32","name":"tokenId","type":"bytes32"}],"stateMutability":"nonpayable","type":"function"},{"inputs":[],"name":"nextAuthorizationId","outputs":[{"internalType":"uint256","name":"","type":"uint256"}],"stateMutability":"view","type":"function"},{"inputs":[],"name":"nextRecordId","outputs":[{"internalType":"uint256","name":"","type":"uint256"}],"stateMutability":"view","type":"function"},{"inputs":[{"internalType":"bytes32","name":"","type":"bytes32"}],"name":"originMetadataControls","outputs":[{"internalType":"address","name":"writtenBy","type":"address"},{"internalType":"uint64","name":"updatedAt","type":"uint64"},{"internalType":"bool","name":"frozen","type":"bool"}],"stateMutability":"view","type":"function"},{"inputs":[],"name":"owner","outputs":[{"internalType":"address","name":"","type":"address"}],"stateMutability":"view","type":"function"},{"inputs":[{"internalType":"bytes32","name":"","type":"bytes32"}],"name":"passports","outputs":[{"internalType":"bool","name":"exists","type":"bool"},{"internalType":"address","name":"issuer","type":"address"},{"internalType":"enum VehiclePassportRegistry.PassportStatus","name":"status","type":"uint8"},{"internalType":"uint64","name":"createdAt","type":"uint64"},{"internalType":"uint64","name":"lastOwnershipChangeAt","type":"uint64"}],"stateMutability":"view","type":"function"},{"inputs":[],"name":"renounceOwnership","outputs":[],"stateMutability":"nonpayable","type":"function"},{"inputs":[{"internalType":"address","name":"issuer","type":"address"}],"name":"revokeIssuer","outputs":[],"stateMutability":"nonpayable","type":"function"},{"inputs":[{"internalType":"address","name":"operator","type":"address"},{"internalType":"bytes32","name":"tokenId","type":"bytes32"},{"internalType":"bool","name":"notify","type":"bool"},{"internalType":"bytes","name":"operatorNotificationData","type":"bytes"}],"name":"revokeOperator","outputs":[],"stateMutability":"nonpayable","type":"function"},{"inputs":[{"internalType":"uint256","name":"authorizationId","type":"uint256"}],"name":"revokeWriteAuthorization","outputs":[],"stateMutability":"nonpayable","type":"function"},{"inputs":[{"internalType":"bytes32","name":"dataKey","type":"bytes32"},{"internalType":"bytes","name":"dataValue","type":"bytes"}],"name":"setData","outputs":[],"stateMutability":"payable","type":"function"},{"inputs":[{"internalType":"bytes32[]","name":"dataKeys","type":"bytes32[]"},{"internalType":"bytes[]","name":"dataValues","type":"bytes[]"}],"name":"setDataBatch","outputs":[],"stateMutability":"payable","type":"function"},{"inputs":[{"internalType":"bytes32[]","name":"tokenIds","type":"bytes32[]"},{"internalType":"bytes32[]","name":"dataKeys","type":"bytes32[]"},{"internalType":"bytes[]","name":"dataValues","type":"bytes[]"}],"name":"setDataBatchForTokenIds","outputs":[],"stateMutability":"nonpayable","type":"function"},{"inputs":[{"internalType":"bytes32","name":"tokenId","type":"bytes32"},{"internalType":"bytes32","name":"dataKey","type":"bytes32"},{"internalType":"bytes","name":"dataValue","type":"bytes"}],"name":"setDataForTokenId","outputs":[],"stateMutability":"nonpayable","type":"function"},{"inputs":[{"internalType":"bytes32","name":"tokenId","type":"bytes32"},{"internalType":"enum VehiclePassportRegistry.PassportStatus","name":"newStatus","type":"uint8"}],"name":"setPassportStatus","outputs":[],"stateMutability":"nonpayable","type":"function"},{"inputs":[{"internalType":"bytes4","name":"interfaceId","type":"bytes4"}],"name":"supportsInterface","outputs":[{"internalType":"bool","name":"","type":"bool"}],"stateMutability":"view","type":"function"},{"inputs":[{"internalType":"address","name":"tokenOwner","type":"address"}],"name":"tokenIdsOf","outputs":[{"internalType":"bytes32[]","name":"","type":"bytes32[]"}],"stateMutability":"view","type":"function"},{"inputs":[{"internalType":"bytes32","name":"tokenId","type":"bytes32"}],"name":"tokenOwnerOf","outputs":[{"internalType":"address","name":"","type":"address"}],"stateMutability":"view","type":"function"},{"inputs":[],"name":"totalSupply","outputs":[{"internalType":"uint256","name":"","type":"uint256"}],"stateMutability":"view","type":"function"},{"inputs":[{"internalType":"address","name":"from","type":"address"},{"internalType":"address","name":"to","type":"address"},{"internalType":"bytes32","name":"tokenId","type":"bytes32"},{"internalType":"bool","name":"force","type":"bool"},{"internalType":"bytes","name":"data","type":"bytes"}],"name":"transfer","outputs":[],"stateMutability":"nonpayable","type":"function"},{"inputs":[{"internalType":"address[]","name":"from","type":"address[]"},{"internalType":"address[]","name":"to","type":"address[]"},{"internalType":"bytes32[]","name":"tokenId","type":"bytes32[]"},{"internalType":"bool[]","name":"force","type":"bool[]"},{"internalType":"bytes[]","name":"data","type":"bytes[]"}],"name":"transferBatch","outputs":[],"stateMutability":"nonpayable","type":"function"},{"inputs":[{"internalType":"address","name":"newOwner","type":"address"}],"name":"transferOwnership","outputs":[],"stateMutability":"nonpayable","type":"function"},{"inputs":[{"internalType":"bytes32","name":"tokenId","type":"bytes32"},{"internalType":"string","name":"newMetadataURI","type":"string"},{"internalType":"bytes32","name":"newMetadataHash","type":"bytes32"}],"name":"updateOriginMetadata","outputs":[],"stateMutability":"nonpayable","type":"function"},{"inputs":[{"internalType":"bytes32","name":"","type":"bytes32"}],"name":"vehicleAuthorizationEpoch","outputs":[{"internalType":"uint256","name":"","type":"uint256"}],"stateMutability":"view","type":"function"},{"stateMutability":"payable","type":"receive"}],"evm":{"bytecode":{"linkReferences":{},"object":"6080346200098057601f62005d3838819003918201601f19168301916001600160401b0383118484101762000630578084926020946040528339810103126200098057516001600160a01b038116808203620009805760405191620000648362000985565b601083526f15995a1a58db194814185cdcdc1bdc9d60821b602084015260405191620000908362000985565b6005835264565041535360d81b6020840152620000ad33620009ec565b156200096e57620000be90620009ec565b604051620000cc8162000985565b60048152632936598960e21b60208201527feafec4d89fa9619884b60000a4d96624a38f7ac2d8d9a604ecf07c12c77e480c908160005260016020526040600020815160018060401b03811162000630578154600181811c9116801562000963575b60208210146200060f57601f811162000916575b506020601f8211600114620008af57918160008051602062005d188339815191529492620001949460009162000536575b508160011b916000199060031b1c19161790555b60405191829182620009a1565b0390a260008051602062005cb883398151915260005260016020528151917f2a367ae1ac46d529739aa27ac74856f860e70af05d3642d18ba60fd5d32a069a6001600160401b03841162000630578054600181811c91168015620008a4575b60208210146200060f57601f81116200085b575b50602093601f8111600114620007e4579162000269918360008051602062005d188339815191529460008051602062005cb883398151915296976000916200053657508160011b916000199060031b1c191617905560405191829182620009a1565b0390a260008051602062005cf8833981519152600052600160205280517f83b322886c7b7e25779e5d38e06e005c9e7aba1e1267ce9210cf24e31833535a906001600160401b03811162000630578154600181811c91168015620007d9575b60208210146200060f57601f81116200078c575b506020601f821160011462000715579260008051602062005d1883398151915292826200033c9360008051602062005cf8833981519152966000916200053657508160011b916000199060031b1c191617905560405191829182620009a1565b0390a26040516002602082015260208152620003588162000985565b60008051602062005cd8833981519152600052600160205280517ff73b01b344a9bb3b96525b0cb731f6b14cde20ce6cecea8459266944490b411f906001600160401b03811162000630578154600181811c911680156200070a575b60208210146200060f57601f8111620006bd575b506020601f821160011462000646579260008051602062005d188339815191529282620004289360008051602062005cd8833981519152966000916200053657508160011b916000199060031b1c191617905560405191829182620009a1565b0390a26040516004602082015260208152620004448162000985565b7ff675e9361af1c1664c1868cfa3eb97672d6b1a513aa5b81dec34c9ee330e818d600081905260016020528151917f01f5eb934e794ddcc86b89a579078013860f8fe92140885511742594f219ad0b6001600160401b03841162000630578054600181811c9116801562000625575b60208210146200060f57601f8111620005c2575b50602093601f81116001146200054257908162000519939260008051602062005d1883398151915295966000916200053657508160011b916000199060031b1c191617905560405191829182620009a1565b0390a260016009556001600c55604051615284908162000a348239f35b90508301513862000173565b601f1981168260005260206000209060005b818110620005a957509160019160008051602062005d1883398151915296978262000519979695106200058f575b5050811b01905562000187565b85015160001960f88460031b161c19169055388062000582565b8588015183556020978801976001909301920162000554565b816000526020600020601f860160051c8101916020871062000604575b601f0160051c01905b818110620005f75750620004c7565b60008155600101620005e8565b9091508190620005df565b634e487b7160e01b600052602260045260246000fd5b90607f1690620004b3565b634e487b7160e01b600052604160045260246000fd5b8260005260206000209060005b601f1984168110620006a457509260018360008051602062005cd8833981519152969360008051602062005d18833981519152966200042896601f198116106200058f575050811b01905562000187565b9091602060018192858901518155019301910162000653565b826000526020600020601f830160051c81019160208410620006ff575b601f0160051c01905b818110620006f25750620003c8565b60008155600101620006e3565b9091508190620006da565b90607f1690620003b4565b8260005260206000209060005b601f19841681106200077357509260018360008051602062005cf8833981519152969360008051602062005d18833981519152966200033c96601f198116106200058f575050811b01905562000187565b9091602060018192858901518155019301910162000722565b826000526020600020601f830160051c81019160208410620007ce575b601f0160051c01905b818110620007c15750620002dc565b60008155600101620007b2565b9091508190620007a9565b90607f1690620002c8565b81600052602060002060005b601f198316811062000842575091600182620002699460008051602062005cb8833981519152979860008051602062005d188339815191529795601f198116106200058f575050811b01905562000187565b84870151825560209687019660019092019101620007f0565b816000526020600020601f860160051c8101602087106200089c575b601f830160051c820181106200088f57505062000207565b6000815560010162000877565b508062000877565b90607f1690620001f3565b8260005260206000209060005b601f1984168110620008fd57508262000194949260019260008051602062005d188339815191529795601f198116106200058f575050811b01905562000187565b90916020600181928589015181550193019101620008bc565b826000526020600020601f830160051c8101916020841062000958575b601f0160051c01905b8181106200094b575062000142565b600081556001016200093c565b909150819062000933565b90607f16906200012e565b6040516306b620db60e21b8152600490fd5b600080fd5b604081019081106001600160401b038211176200063057604052565b6020808252825181830181905290939260005b828110620009d757505060409293506000838284010152601f8019910116010190565b818101860151848201604001528501620009b4565b600080546001600160a01b039283166001600160a01b03198216811783559216907f8be0079c531659141344cd1fd0a4f28419497f9722a3daafe3b4186f6b6457e09080a356fe6080604052600436101561002a575b36156100255761001d366136c6565b602081519101f35b613688565b60003560e01c80626296791461035357806296ed681461034e57806301ffc9a71461034957806307e478321461034457806309b1b0e11461033f57806316e023b31461033a57806318160ddd146103355780631d26fce614610330578063217b22701461031c578063260c2ff01461032b5780632a3654a4146103265780632ce6b459146103215780633aea18cc1461031c5780633b514ea2146103175780633c5e4df9146103125780633f0f9a971461030d578063436693d51461030857806349a6078d146103035780634bf07b16146102fe578063511b6952146102f957806352ac4732146102f457806354f6127f146102ef578063550598d5146102ea5780635fe20ec8146102e55780636963d438146102e057806370a08231146102db578063715018a6146102d6578063739319cc146102d15780637651d1c6146102cc5780637b7babba146102c75780637e87632c146102c25780637f23690c146102bd57806386a10ddd146102b85780638da5cb5b146102b35780639613ded2146102ae57806397902421146102a9578063a3b261f2146102a4578063b226bb651461029f578063baa93ec91461029a578063bd17cf0a14610295578063bd2c0f6514610290578063be9f0e6f1461028b578063cdabaf8314610286578063d6c1407c14610281578063db8c96631461027c578063dbde207d14610277578063dedff9c614610272578063e20c32361461026d578063f2fde38b14610268578063f731fa0f146102635763fb51ed4e0361000e57612704565b6126b8565b6125db565b612529565b6124a2565b612484565b6123af565b612369565b61233d565b61224e565b6121ad565b611f47565b611df0565b611dab565b611d24565b611c24565b611bb7565b611b8e565b611a3c565b6119e6565b61194d565b6117aa565b611619565b61134e565b6112e2565b6112a8565b611243565b611173565b61114a565b61112b565b610ffc565b610f5c565b610f14565b610e75565b610dbf565b610d6c565b610c2e565b610c05565b610ad1565b610be7565b610bb6565b610b3d565b610a08565b610816565b6107e0565b6106e8565b610600565b61045d565b610409565b610389565b600435906001600160a01b038216820361036e57565b600080fd5b602435906001600160a01b038216820361036e57565b3461036e57602036600319011261036e576103a2610358565b6103aa613712565b6001600160a01b031680156103f7576000818152600660205260408120805460ff19169055907f95a4c2ae425bb769549aa1a911911ff57c17ae811ae8c8962d0b9746fcb153978280a280f35b604051635edff10b60e11b8152600490fd5b3461036e57602036600319011261036e576004356000526008602052606060406000205460ff6040519160018060a01b03811683526001600160401b038160a01c16602084015260e01c1615156040820152f35b3461036e57602036600319011261036e576004356001600160e01b0319811680820361036e576104b491631d138b8360e11b82149182156104c8575b5081156104b8575b5060405190151581529081906020820190565b0390f35b6104c2915061376a565b386104a1565b90915063a918fa6b60e01b81149081156104e5575b509038610499565b6318a6a9a560e21b8114915081156104ff575b50386104dd565b6301ffc9a760e01b149050386104f8565b634e487b7160e01b600052602160045260246000fd5b6009111561053057565b610510565b9060098210156105305752565b6008111561053057565b9060088210156105305752565b9b99979593919e9d9c9a98969492909e6101c08d019f15158d5260208d015260408c015260608b015260808a0161058f91610535565b60a0890161059c9161054c565b6001600160a01b031660c08801526001600160401b031660e08701526001600160401b03166101008601526001600160401b031661012085015263ffffffff1661014084015215156101608301526101808201526101a0016105fe9115159052565b565b3461036e57602036600319011261036e5761062f61062a600435600052600d602052604060002090565b61287d565b805115156104b46020830151926040810151906060810151608082015161065581610526565b60a083015161066381610542565b60c08401516001600160a01b031660e08501516001600160401b03166101008601516001600160401b0316916106a46101208801516001600160401b031690565b936106b761014089015163ffffffff1690565b956106c66101a08a0151151590565b976106db6101e06101c08c01519b0151151590565b9a6040519e8f9e8f610559565b3461036e57604036600319011261036e5760043560243590600482101561036e57610711613712565b600091818352600760205260ff604084205416156107725760207f551db307dc86cb870468f304dd1a7709022989ee71af181e69cfc314307f3ed19183855260078252610761816040872061299c565b61076e60405180926126f7565ba280f35b604051634ded8ea560e01b8152600490fd5b60005b8381106107975750506000910152565b8181015183820152602001610787565b906020916107c081518092818552858086019101610784565b601f01601f1916010190565b9060206107dd9281815201906107a7565b90565b3461036e57604036600319011261036e576104b4610802602435600435613925565b6040519182916020835260208301906107a7565b3461036e57600036600319011261036e576020600254604051908152f35b634e487b7160e01b600052604160045260246000fd5b606081019081106001600160401b0382111761086557604052565b610834565b602081019081106001600160401b0382111761086557604052565b604081019081106001600160401b0382111761086557604052565b90601f801991011681019081106001600160401b0382111761086557604052565b6040519061014082018281106001600160401b0382111761086557604052565b6040519061020082018281106001600160401b0382111761086557604052565b6040519060a082018281106001600160401b0382111761086557604052565b604051906105fe8261084a565b6001600160401b0381116108655760051b60200190565b9080601f8301121561036e57602090823561095e8161092d565b9361096c60405195866108a0565b81855260208086019260051b82010192831161036e57602001905b828210610995575050505090565b81358152908301908301610987565b6020808201906020835283518092526040830192602060408460051b8301019501936000915b8483106109da5750505050505090565b90919293949584806109f8600193603f198682030187528a516107a7565b98019301930191949392906109ca565b3461036e57604036600319011261036e576001600160401b0360043581811161036e57610a39903690600401610944565b9060243590811161036e57610a52903690600401610944565b908051825103610abf57610a6681516129c4565b9160005b8251811015610ab15780610a95610a8360019386612a24565b51610a8e8386612a24565b5190613925565b610a9f8287612a24565b52610aaa8186612a24565b5001610a6a565b604051806104b486826109a4565b6040516317d38eff60e11b8152600490fd5b3461036e57602036600319011261036e576020610aef600435612a3d565b6040516001600160a01b039091168152f35b602090602060408183019282815285518094520193019160005b828110610b29575050505090565b835185529381019392810192600101610b1b565b3461036e5760208060031936011261036e57600435600052600b6020526040600020906040519081602084549182815201936000526020600020916000905b828210610b9f576104b485610b93818903826108a0565b60405191829182610b01565b835486529485019460019384019390910190610b7c565b3461036e57604036600319011261036e576020610bdd610bd4610358565b60243590613955565b6040519015158152f35b3461036e57600036600319011261036e576020600954604051908152f35b3461036e57600036600319011261036e5760206040516000805160206151ef8339815191528152f35b3461036e57602036600319011261036e57600435600090808252600760205260ff6040832054161561077257610c6e816000526008602052604060002090565b805460ff8160e01c16610d0857336001600160a01b0390911603610cf657805460ff60e01b1916600160e01b179055610ccd604051610cc781610cb960208201906001602083019252565b03601f1981018352826108a0565b82613acc565b33907f06fee831d841e6ffb21192ddcaf3c97100890eb9ddc88e5a56ef875b936de8998380a380f35b604051631c42cdd560e01b8152600490fd5b604051633e181f1760e21b8152600490fd5b6001600160401b03811161086557601f01601f191660200190565b929192610d4182610d1a565b91610d4f60405193846108a0565b82948184528183011161036e578281602093846000960137010152565b3461036e57602036600319011261036e576004356001600160401b03811161036e573660238201121561036e57610db7610db26020923690602481600401359101610d35565b612a60565b604051908152f35b3461036e57602036600319011261036e57610dd8610358565b610de0613712565b6001600160a01b031680156103f7576000818152600660205260408120805460ff19166001179055907f8b4006ca14f23d4e7aa8d120d1ab7c3761d650eefac1a5d6732dbea94b54ea248280a280f35b602090602060408183019282815285518094520193019160005b828110610e58575050505090565b83516001600160a01b031685529381019392810192600101610e4a565b3461036e5760208060031936011261036e57600435610e9381614ad4565b15610efc5760005260056020526040600020906040519081602084549182815201936000526020600020916000905b828210610ee5576104b485610ed9818903826108a0565b60405191829182610e30565b835486529485019460019384019390910190610ec2565b60249060405190635747cd1b60e11b82526004820152fd5b3461036e57602036600319011261036e576020610bdd600435612b72565b60443590811515820361036e57565b9080601f8301121561036e578160206107dd93359101610d35565b3461036e5760a036600319011261036e57610f75610358565b610f7d610373565b606435801515810361036e57608435926001600160401b03841161036e57610fac610fb6943690600401610f41565b9260443591612ca2565b005b93608093610fd96001600160401b039498979360a0885260a08801906107a7565b6020870198909852151560408601526001600160a01b0316606085015216910152565b3461036e5760208060031936011261036e576004359061101b826138ad565b90611025836138fa565b91805160009080156000146110d4575050506104b490611043612e63565b925b81815180156000146110ac5750505061107261106d6000956000526008602052604060002090565b612e85565b61109f6110826040830151151590565b82519093906001600160a01b03169201516001600160401b031690565b9160405195869586610fb8565b828261106d936110c3936110729601019101612e76565b956000526008602052604060002090565b82019183818185019403126111275783810151906001600160401b03821161112357019082603f83011215611120575082918160406104b49561111a9401519101612e2e565b92611045565b80fd5b8280fd5b5080fd5b3461036e57602036600319011261036e576104b4610802600435612ecd565b3461036e57600036600319011261036e57602060405160008051602061522f8339815191528152f35b3461036e57602036600319011261036e5760043561119b81600052600a602052604060002090565b6001810154156112315760028101906111b48254612a3d565b336001600160a01b039091160361121f576111d76111d3825460ff1690565b1590565b61120d57805460ff191690555433917fa5e591f0c7a2373156e02a51536ca76339bf6592f17cc08f23ebb2fff551751c600080a4005b60405163ee55c70160e01b8152600490fd5b6040516359dc379f60e01b8152600490fd5b6040516333df5f9960e11b8152600490fd5b3461036e57602036600319011261036e576001600160401b0360043581811161036e573660238201121561036e57806004013591821161036e573660248360051b8301011161036e576104b491602461129c9201612f7e565b604051918291826109a4565b3461036e57602036600319011261036e576001600160a01b036112c9610358565b1660005260046020526020604060002054604051908152f35b3461036e57600080600319360112611120576112fc613712565b80546001600160a01b03198116825581906001600160a01b03167f8be0079c531659141344cd1fd0a4f28419497f9722a3daafe3b4186f6b6457e08280a380f35b6001600160401b0381160361036e57565b3461036e5760c036600319011261036e57600480359061136c610373565b91604435600981101561036e57606435600281101561036e57608435916113928361133d565b60a4359261139f8461133d565b84600052600760205260409560ff87600020541615611587576113c186612a3d565b6001600160a01b039033908216036115785788161561156a576001600160401b03808616801515918261155e575b5050611550576113fe83610526565b60088314611542576104b46114d0888a89897f678bbd520571967a4d735b038cc5ce8f971a4d6bc165e9d619dfb051668968148a8a6114ef878c6009549a8b9761144f61144a8a613032565b600955565b6114bf6114668b600052600f602052604060002090565b54938b6114716108c1565b6001815296602088018d90528701523360608701526001600160a01b038d1660808701526114a28860a0880161277a565b6114af8960c08801612a90565b6001600160401b031660e0860152565b6001600160401b0316610100840152565b6101208201526114ea86600052600a602052604060002090565b6130f3565b61150c8461150787600052600b602052604060002090565b613205565b61153161152386600052600f602052604060002090565b54885193849333998561323e565b0390a4519081529081906020820190565b865163053679d360e11b8152fd5b86516304fd87e960e31b8152fd5b841611905038806113ef565b865163ccea9e6f60e01b8152fd5b5086516359dc379f60e01b8152fd5b8651634ded8ea560e01b8152fd5b6002111561053057565b9060028210156105305752565b9692936101209896919b9a99956115fe956115f4946101408b019e15158b5260208b015260408a015260018060a01b0380921660608a015216608088015260a0870190610535565b60c085019061159f565b6001600160401b0380921660e0840152166101008201520152565b3461036e57602036600319011261036e57600435600052600a60205260406000206116426108c1565b90805461164f9060ff1690565b1515825260018101546020830190815260028201546040840190815260038301549092906001600160a01b03166001600160a01b0316606085019081529360048201546001600160a01b03811660808301908152929060a083018160a01c60ff166116ba908261277a565b60c08401908260a81c60ff166116d09083612a90565b60e085019260b01c6001600160401b03166116f49084906001600160401b03169052565b60058401546001600160401b03166001600160401b0316610100860190815293600601546101208601908152945115159651975198516001600160a01b031695516001600160a01b031690519161174a83610526565b519261175584611595565b516001600160401b031693516001600160401b0316945195604051998a996104b4998b6115ac565b9181601f8401121561036e578235916001600160401b03831161036e576020838186019501011161036e57565b3461036e57608036600319011261036e576117c3610373565b6044356001600160401b03811161036e576020916117e8610db792369060040161177d565b9060643592600435613276565b9080601f8301121561036e57602090823561180f8161092d565b9361181d60405195866108a0565b81855260208086019260051b82010192831161036e57602001905b828210611846575050505090565b81356001600160a01b038116810361036e578152908301908301611838565b9080601f8301121561036e57602090823561187f8161092d565b9361188d60405195866108a0565b81855260208086019260051b82010192831161036e57602001905b8282106118b6575050505090565b8135801515810361036e5781529083019083016118a8565b81601f8201121561036e578035916020916118e88461092d565b936118f660405195866108a0565b808552838086019160051b8301019280841161036e57848301915b8483106119215750505050505090565b82356001600160401b03811161036e57869161194284848094890101610f41565b815201920191611911565b3461036e5760a036600319011261036e5760046001600160401b03813581811161036e5761197e90369084016117f5565b9060243581811161036e5761199690369085016117f5565b60443582811161036e576119ad9036908601610944565b9060643583811161036e576119c59036908701611865565b9260843590811161036e57610fb6956119e0913691016118ce565b936134dc565b604036600319011261036e576024356001600160401b03811161036e57611a11903690600401610f41565b611a19613712565b34611a2a57610fb690600435614284565b60405163f36ba73760e01b8152600490fd5b3461036e57606036600319011261036e57611a55610358565b602435906044356001600160401b03811161036e57611a78903690600401610f41565b90611a8283612a3d565b6001600160a01b0381811691338303611b6f575082168015611b5d57808214611b4b57611ac56111d384611ac0886000526005602052604060002090565b6143b0565b611b2b579380611b2692610fb6967f1b1b58aa2ec0cec2228b2d37124556d41f5a1f7b12f089171f896cc23667121560405180611b028a826107cc565b0390a4611b1860405194859233602085016135ea565b03601f1981018452836108a0565b614e67565b6040516314ec4d6d60e31b815280611b478786600484016135cf565b0390fd5b6040516344fed6b160e11b8152600490fd5b604051639577b8b360e01b8152600490fd5b85611b47604051928392632d938f5160e11b84523391600485016135ac565b3461036e57600036600319011261036e576000546040516001600160a01b039091168152602090f35b3461036e5760208060031936011261036e57600435600052600e6020526040600020906040519081602084549182815201936000526020600020916000905b828210611c0d576104b485610b93818903826108a0565b835486529485019460019384019390910190611bf6565b604036600319011261036e5760046001600160401b03813581811161036e57611c509036908401610944565b9060243590811161036e57611c6890369084016118ce565b91611c71613712565b34611cd9578151835103611cca57815115611cbb575060005b8151811015610fb65780611cb5611ca360019385612a24565b51611cae8387612a24565b5190614284565b01611c8a565b6040516397da5f9560e01b8152fd5b604051633bcc897960e01b8152fd5b60405163f36ba73760e01b8152fd5b602090602060408183019282815285518094520193019160005b828110611d10575050505090565b835185529381019392810192600101611d02565b3461036e5760208060031936011261036e576001600160a01b03611d46610358565b1660005260046020526040600020906040519081602084549182815201936000526020600020916000905b828210611d94576104b485611d88818903826108a0565b60405191829182611ce8565b835486529485019460019384019390910190611d71565b3461036e57600036600319011261036e57602060405160008051602061520f8339815191528152f35b929190611deb6020916040865260408601906107a7565b930152565b3461036e57602036600319011261036e57600435600052600d6020526040600020611e196108e1565b611e2d611e27835460ff1690565b15158252565b600182015460208201526002820154604082015260038201546060820152611ed163ffffffff6004840154611e6860ff82166080860161277a565b611e7b60ff8260081c1660a08601612786565b601081901c6001600160a01b031660c085015260b01c6001600160401b0390811660e08501526005850154808216610100860152604081901c90911661012085015260801c1661014083019063ffffffff169052565b611f34611ee060068401612862565b9161016081019283526101e0611f2d600a6007870154966101808501978852611f1a611f10600883015460ff1690565b15156101a0870152565b60098101546101c0860152015460ff1690565b1515910152565b519051906104b460405192839283611dd4565b3461036e576003196040368201811361036e5760048035926024356001600160401b039182821161036e5760e082850191833603011261036e5785600052600a6020528460002060018101541561219d57611fa66111d3825460ff1690565b61218d57808501805490956001600160a01b0391338382160361217e576002840196875493611fdf85600052600f602052604060002090565b5460068701540361216e57611ff385612a3d565b6003870154909190612015906001600160a01b03165b6001600160a01b031690565b91160361215e578160b01c168015159081612154575b506121455761205361204760058601546001600160401b031690565b6001600160401b031690565b801515908161213b575b5061212c5760ff60089160a01c1661207481610526565b1461211e5750879361210e60a46120f7866120dd6104b49c9a976120d87fed3cacd729477d0f36a74c7acff952351130177a2dadc2566addbc94bdea9cbd986120c06121079f9c613640565b6120cc60248b01613640565b9060c48b0135926143c3565b614482565b865433908a6120f18b5460ff9060a01c1690565b91614734565b98899554965460ff9060a01c1690565b920161364a565b9061153187519283923384613657565b875163053679d360e11b8152fd5b508751630f05f5bf60e01b8152fd5b905042113861205d565b5087516334c749c760e01b8152fd5b905042103861202b565b89516367bc669960e11b81528390fd5b8a516369c40ebd60e11b81528490fd5b5087516374d3b8c160e01b8152fd5b855163ee55c70160e01b81528590fd5b85516333df5f9960e11b81528590fd5b3461036e57606036600319011261036e576004356001600160401b0360243581811161036e576121e190369060040161177d565b91600093808552600760205260ff604086205416156107725780855260086020526040852092835460ff8160e01c16610d0857336001600160a01b0390911603610cf65761224b946122439261223d3393604435933691610d35565b9061408b565b421690613464565b80f35b3461036e57606036600319011261036e5760046001600160401b03813581811161036e5761227f9036908401610944565b60243582811161036e576122969036908501610944565b9160443590811161036e576122ae90369085016118ce565b926122b7613712565b8151835180911490811591612331575b5061232257815115612313575060005b8151811015610fb6578061230d6122f060019385612a24565b516122fb8387612a24565b516123068489612a24565b5191613e0c565b016122d7565b6040516380c9830560e01b8152fd5b6040516317d38eff60e11b8152fd5b905084511415386122c7565b3461036e57602036600319011261036e57600435600052600f6020526020604060002054604051908152f35b3461036e57606036600319011261036e576044356001600160401b03811161036e5761239c610fb6913690600401610f41565b6123a4613712565b602435600435613e0c565b3461036e57608036600319011261036e576123c8610358565b6024356123d3610f32565b916064356001600160401b03811161036e576123f3903690600401610f41565b6123fc83612a3d565b936001600160a01b03808616903382900361244d575b8416908115611b5d5714611b4b5761242d828286888761487e565b61243357005b610fb693611b18611b269260405195869360208501613615565b84811633146124125760405163760b5acd60e01b81523360048201526001600160a01b038816602482015260448101879052606490fd5b3461036e57600036600319011261036e576020600c54604051908152f35b3461036e57602036600319011261036e576004356001600160401b03811161036e576124d2903690600401610944565b6124dc81516129c4565b9060005b815181101561251b57806124ff6124f960019385612a24565b51612ecd565b6125098286612a24565b526125148185612a24565b50016124e0565b604051806104b485826109a4565b3461036e57608036600319011261036e576001600160401b0360043581811161036e5761255a90369060040161177d565b612565929192610373565b9160443590811161036e5761257e90369060040161177d565b92909233600052600660205260ff60406000205416156125c9576125ad610db26104b4966125b8953691610d35565b936064359285613276565b506040519081529081906020820190565b6040516306aaf4f160e31b8152600490fd5b3461036e57602036600319011261036e576125f4610358565b6125fc613712565b6001600160a01b03908116801561264a57600080546001600160a01b03198116831782559092167f8be0079c531659141344cd1fd0a4f28419497f9722a3daafe3b4186f6b6457e08380a380f35b60405162461bcd60e51b815260206004820152602660248201527f4f776e61626c653a206e6577206f776e657220697320746865207a65726f206160448201526564647265737360d01b6064820152608490fd5b6001600160a01b0316600090815260046020526040902090565b3461036e57602036600319011261036e576001600160a01b036126d9610358565b166000526006602052602060ff604060002054166040519015158152f35b9060048210156105305752565b3461036e57602036600319011261036e57600435600052600760205260a0604060002060018154916001600160401b03918291015416906040519260ff811615158452600180861b038160081c16602085015261276a6040850160ff8360a81c166126f7565b60b01c1660608301526080820152f35b60098210156105305752565b60088210156105305752565b90600182811c921680156127c2575b60208310146127ac57565b634e487b7160e01b600052602260045260246000fd5b91607f16916127a1565b8054600093926127db82612792565b918282526020936001916001811690816000146128435750600114612802575b5050505050565b90939495506000929192528360002092846000945b83861061282f575050505001019038808080806127fb565b805485870183015294019385908201612817565b60ff19168685015250505090151560051b0101915038808080806127fb565b906105fe61287692604051938480926127cc565b03836108a0565b906105fe612992600a61288e6108e1565b946128a361289d825460ff1690565b15158752565b60018101546020870152600281015460408701526003810154606087015261294763ffffffff60048301546128de60ff821660808b0161277a565b6128f160ff8260081c1660a08b01612786565b601081901c6001600160a01b031660c08a015260b01c6001600160401b0390811660e08a015260058401548082166101008b0152604081901c9091166101208a015260801c1661014088019063ffffffff169052565b61295360068201612862565b610160870152600781015461018087015261297f612975600883015460ff1690565b15156101a0880152565b60098101546101c0870152015460ff1690565b15156101e0840152565b90600481101561053057815460ff60a81b191660a89190911b60ff60a81b16179055565b9055565b906129ce8261092d565b6129db60405191826108a0565b82815280926129ec601f199161092d565b019060005b8281106129fd57505050565b8060606020809385010152016129f1565b634e487b7160e01b600052603260045260246000fd5b8051821015612a385760209160051b010190565b612a0e565b6000818152600360205260409020546001600160a01b0316908115610efc575090565b604051612a8a60208281612a7d8183019687815193849201610784565b81010380845201826108a0565b51902090565b60028210156105305752565b906006612aa76108c1565b92612abc612ab6825460ff1690565b15158552565b600181015460208501526002810154604085015260038101546001600160a01b0316606085015260048101546001600160a01b0381166080860152612b40906001600160401b0390612b1760ff8260a01c1660a0890161277a565b612b2a60ff8260a81c1660c08901612a90565b60b01c1660e08601906001600160401b03169052565b612b68612b5760058301546001600160401b031690565b6001600160401b0316610100860152565b0154610120830152565b612b89612b8e91600052600a602052604060002090565b612a9c565b602081015115612c8b57612ba56111d38251151590565b612c8b5760408101612bcf6111d3612bc883516000526007602052604060002090565b5460ff1690565b612c9b57612be88151600052600f602052604060002090565b5461012083015103612c9b57612bfe9051612a3d565b6060820151612c15906001600160a01b0316612009565b6001600160a01b0390911603612c8b576001600160401b03612c4160e08301516001600160401b031690565b168015159081612c91575b50612c8b576101000151612c68906001600160401b0316612047565b8015159081612c81575b50612c7c57600190565b600090565b9050421138612c72565b50600090565b9050421038612c4c565b5050600090565b90929391612cb08133613955565b15612e1057612cbe81612a3d565b6001600160a01b038181169184821691828403612df357808816938415612de157612ce886612a3d565b91821603612db157505092612da783806105fe999794611b189997612d10612dac9887614af1565b612d2283612d1d8861269e565b614f92565b50612d3583612d308b61269e565b614e17565b50612d5389612d4e856000526003602052604060002090565b613046565b6040517fb333c813a7426a7a11e2b190cad52c44119421594b47f6f32ace6d8c7207b2bf9080612d858a8e3384613f17565b0390a4612d93818785614bc8565b604051978894859288863360208701613f79565b614ecb565b614d8b565b604051635a9c31d360e01b8152600481018690526001600160a01b03928316602482015291166044820152606490fd5b6040516324ecef4d60e01b8152600490fd5b604051632d938f5160e11b815280611b47888886600485016135ac565b60449060405190631294d2a960e01b82526004820152336024820152fd5b90929192612e3b81610d1a565b91612e4960405193846108a0565b82948284528282011161036e5760206105fe930190610784565b60405190612e708261086a565b60008252565b9081602091031261036e575190565b90604051606081016001600160401b0390828110828211176108655760409160ff9183528395549060018060a01b03821685528160a01c16602085015260e01c161515910152565b6000526001602052612eec6107dd6040600020604051928380926127cc565b03826108a0565b903590601e198136030182121561036e57018035906001600160401b03821161036e5760200191813603831361036e57565b90821015612a3857612f3c9160051b810190612ef3565b9091565b908092918237016000815290565b3d15612f79573d90612f5f82610d1a565b91612f6d60405193846108a0565b82523d6000602084013e565b606090565b9190612f89816129c4565b9260009160005b818110612f9d5750505050565b8380612faa838587612f25565b60409391612fbc855180938193612f40565b0390305af490612fca612f4e565b9115612ff1575090600191612fdf8289612a24565b52612fea8188612a24565b5001612f90565b81519192911561300357825160208401fd5b5163234eb81960e01b8152600481019190915260249150fd5b634e487b7160e01b600052601160045260246000fd5b60001981146130415760010190565b61301c565b80546001600160a01b0319166001600160a01b03909216919091179055565b90600981101561053057815460ff60a01b191660a09190911b60ff60a01b16179055565b90600281101561053057815460ff60a81b191660a89190911b60ff60a81b16179055565b805467ffffffffffffffff60b01b191660b09290921b67ffffffffffffffff60b01b16919091179055565b906001600160401b03166001600160401b0319825416179055565b906101206006916131196131078251151590565b859060ff801983541691151516179055565b60208101516001850155604081015160028501556060810151613148906001600160a01b031660038601613046565b60808101516131ab906004860190613169906001600160a01b031682613046565b61318060a084015161317a81610526565b82613065565b61319760c084015161319181611595565b82613089565b60e08301516001600160401b0316906130ad565b6131cc6131c36101008301516001600160401b031690565b600586016130d8565b0151910155565b8054821015612a385760005260206000200190600090565b916129c09183549060031b91821b91600019901b19161790565b805490600160401b82101561086557816132279160016129c0940181556131d3565b819391549060031b91821b91600019901b19161790565b6001600160a01b039091168152608081019493926060926132729190613268906020850190610535565b604083019061159f565b0152565b939290926000923384526006602052604060ff8186205416156133d3576001600160a01b0386169586156133c2576132bb612bc8896000526007602052604060002090565b6133b15791613379613382926132df6133889796958b6132d9612e63565b91613fb3565b876001600160401b0342169161333e8c6133396132fa610901565b60018152913360208401528285018690526001600160401b03871660608401526001600160401b03871660808401526000526007602052604060002090565b6133e3565b61335d613349610920565b338152936001600160401b03166020850152565b8201526133748a6000526008602052604060002090565b61348f565b33933691610d35565b8661408b565b827fc8b1ba5eac5171dfc2289486e8acda47091bc825817bf2ba6db22dfc5cdf5aae339280a490565b8151635bebc7ad60e11b8152600490fd5b8151638690be2760e01b8152600490fd5b516306aaf4f160e31b8152600490fd5b6133fc82511515829060ff801983541691151516179055565b60208201518154610100600160a81b03191660089190911b610100600160a81b031617815560408201516004811015610530576105fe9261343f6001928461299c565b60806001600160401b039161345a83606083015116866130ad565b01511691016130d8565b805467ffffffffffffffff60a01b191660a09290921b67ffffffffffffffff60a01b16919091179055565b815190916040916134a9906001600160a01b031684613046565b6134c06001600160401b0360208301511684613464565b0151815460ff60e01b191690151560e01b60ff60e01b16179055565b9493909192855193835185148015906135a1575b8015613596575b801561358b575b6135795760005b858110613516575050505050509050565b806135736135366135296001948c612a24565b516001600160a01b031690565b613543613529848a612a24565b61354d8487612a24565b5161356161355b868a612a24565b51151590565b9161356c868b612a24565b5193612ca2565b01613505565b6040516393a8311960e01b8152600490fd5b5082518514156134fe565b5081518514156134f7565b5080518514156134f0565b6001600160a01b0391821681526020810192909252909116604082015260600190565b6001600160a01b039091168152602081019190915260400190565b6107dd939260809260018060a01b0316825260208201526001604082015281606082015201906107a7565b6107dd939260809260018060a01b0316825260208201526000604082015281606082015201906107a7565b356107dd8161133d565b35600881101561036e5790565b6001600160a01b0390911681526060810193926105fe929091604091613681906020830190610535565b019061054c565b34156136a0576040516330fa4a2160e11b8152600490fd5b606460405163e5099ee360e01b8152602060048201526004602482015260006044820152fd5b600436106136d7576107dd9061493b565b6044604051809263e5099ee360e01b825260206004830152806024830152806000848401376000828201840152601f01601f19168101030190fd5b6000546001600160a01b0316330361372657565b606460405162461bcd60e51b815260206004820152602060248201527f4f776e61626c653a2063616c6c6572206973206e6f7420746865206f776e65726044820152fd5b6137b16137ac604051696773c5a04a6d4300884b60b11b60208201526000602a8201526301ffc9a760e01b602c820152602081526137a781610885565b614f2f565b612ecd565b805160148114159081613805575b506137e0576137cd90614a10565b60601c908115612c9b576107dd91614aa2565b6040516342bfe79f60e01b815260206004820152908190611b479060248301906107a7565b90501515386137bf565b9060405191602083015260008051602061520f8339815191526040830152604082526105fe8261084a565b906040519160208301526000805160206151ef8339815191526040830152604082526105fe8261084a565b9060405191602083015260008051602061522f8339815191526040830152604082526105fe8261084a565b91906040519260208401526040830152604082526105fe8261084a565b604051602081019182526000805160206151ef8339815191526040820152604081526138d88161084a565b5190206000526001602052612eec6107dd6040600020604051928380926127cc565b6040516020810191825260008051602061522f8339815191526040820152604081526138d88161084a565b9061392f91613890565b602081519101206000526001602052612eec6107dd6040600020604051928380926127cc565b6001600160a01b038061396784612a3d565b16911690811491821561397957505090565b6107dd92506000526005602052604060002060019160005201602052604060002054151590565b90601f81116139ae57505050565b6000916000526020600020906020601f850160051c830194106139ec575b601f0160051c01915b8281106139e157505050565b8181556001016139d5565b90925082906139cc565b8160011b916000199060031b1c19161790565b91909182516001600160401b03811161086557613a3081613a2a8454612792565b846139a0565b602080601f8311600114613a61575081906129c0939495600092613a56575b50506139f6565b015190503880613a4f565b90601f19831695613a7785600052602060002090565b926000905b888210613ab457505083600195969710613a9b575b505050811b019055565b015160001960f88460031b161c19169055388080613a91565b80600185968294968601518155019501930190613a7c565b90613ad68261380f565b80516020809201206000526001806020526040600020918351916001600160401b03831161086557613b1283613b0c8654612792565b866139a0565b602091601f8411600114613b79575050926000805160206151cf83398151915292613b5a83613b699460008051602061520f8339815191529897600091613b6e575b506139f6565b90555b604051918291826107cc565b0390a3565b905084015138613b54565b9190601f19841690613b9086600052602060002090565b936000915b838310613bf5575050508360008051602061520f8339815191529796936000805160206151cf8339815191529693613b699660019410613bdc575b5050811b019055613b5d565b85015160001960f88460031b161c191690553880613bd0565b888501518655948501949381019391810191613b95565b90613c1682613865565b80516020809201206000526001806020526040600020918351916001600160401b03831161086557613c4c83613b0c8654612792565b602091601f8411600114613c93575050926000805160206151cf83398151915292613b5a83613b699460008051602061522f8339815191529897600091613b6e57506139f6565b9190601f19841690613caa86600052602060002090565b936000915b838310613cf5575050508360008051602061522f8339815191529796936000805160206151cf8339815191529693613b699660019410613bdc575050811b019055613b5d565b888501518655948501949381019391810191613caf565b90613d168261380f565b80516020809201206000526001806020526040600020918351916001600160401b03831161086557613d4c83613b0c8654612792565b602091601f8411600114613d93575050926000805160206151cf83398151915292613b5a83613b699460008051602061520f8339815191529897600091613b6e57506139f6565b9190601f19841690613daa86600052602060002090565b936000915b838310613df5575050508360008051602061520f8339815191529796936000805160206151cf8339815191529693613b699660019410613bdc575050811b019055613b5d565b888501518655948501949381019391810191613daf565b9091613e188383613890565b80516020809201206000526001806020526040600020918351916001600160401b03831161086557613e4e83613b0c8654612792565b602091601f8411600114613e8557505091613b5a826000805160206151cf8339815191529593613b6995600091613b6e57506139f6565b9190601f19841690613e9c86600052602060002090565b936000915b838310613ed75750505092613b699492600192826000805160206151cf833981519152989610613bdc575050811b019055613b5d565b888501518655948501949381019391810191613ea1565b6001600160a01b039091168152600160208201526060604082018190526107dd929101906107a7565b6001600160a01b03909116815290151560208201526060604082018190526107dd929101906107a7565b6001600160a01b0391821681526000602082015291166040820152606081019190915260a0608082018190526107dd929101906107a7565b6001600160a01b03918216815291811660208301529091166040820152606081019190915260a0608082018190526107dd929101906107a7565b909291906001600160a01b0381168015612de157613fd085614ad4565b61407257613fdd85614ad4565b61407257846105fe949561406d92613ffe613ff9600254613032565b600255565b61400b82612d308761269e565b5061402485612d4e846000526003602052604060002090565b60007fb333c813a7426a7a11e2b190cad52c44119421594b47f6f32ace6d8c7207b2bf604051806140568a3383613eee565b0390a4611b18604051948592853360208601613f41565b614d15565b6040516334c7b51160e01b815260048101869052602490fd5b9190926040805160208080830152816140a6848201896107a7565b036140b9601f19918281018552846108a0565b6140c28761383a565b82815191012092600093845260019160018452858520908251906001600160401b038211610865578a946140fa83613b0c8654612792565b8691601f84116001146141c7575050936000805160206151cf83398151915261417988957f12dab994b8a0b3a65a7a61edf404ecf300e5be96edd6f3fcaa76dc5e7c26ef089c9b9a989561416b866000805160206151ef833981519152976141b09b613b699e91613b6e57506139f6565b90555b8851918291826107cc565b0390a36141988451888382015282815261419281610885565b8a613c0c565b8351918183015281526141aa81610885565b87613d0c565b516001600160a01b03909216959192839283611dd4565b83929192166141db85600052602060002090565b9289905b82821061426a575050613b6998957f12dab994b8a0b3a65a7a61edf404ecf300e5be96edd6f3fcaa76dc5e7c26ef089c9b9a98956001866141b09a966000805160206151cf833981519152966000805160206151ef833981519152996141799710614251575b5050811b01905561416e565b85015160001960f88460031b161c191690553880614245565b8784015185558e98509384019392890192908901906141df565b907ff675e9361af1c1664c1868cfa3eb97672d6b1a513aa5b81dec34c9ee330e818d821461439e577fdeba1e292f8ba88238e10ab3c7f88bd4be4fac56cad5194b6ecceaf653468af182036142e5576040516385c169bd60e01b8152600490fd5b7f2f0a68ab07768e01943a599e73362a0e17a63a72e94dd2e384d2c1d4db932756820361431e57604051630eceab6760e31b8152600490fd5b7fe0261fa95db2eb3b5439bd033cda66d56b96f92f243a8228fd87550ed7bdfdb3820361435757604051634ef6d7fb60e01b8152600490fd5b61439981613b5d7fece574603820d07bc9b91f2a932baadf4628aabcb8afba49776529c14a6104b293614394866000526001602052604060002090565b613a09565b0390a2565b604051631b32400560e11b8152600490fd5b6107dd916001600160a01b031690614e17565b9291906001600160401b038091168015908115614476575b50614464574291161161445257806143f1575050565b61440b6111d3612bc883600052600d602052604060002090565b61444057614425600291600052600d602052604060002090565b01540361442e57565b60405163d1426e7f60e01b8152600490fd5b60405163051274cb60e01b8152600490fd5b6040516305f1f14160e31b8152600490fd5b604051634d4ae4d360e01b8152600490fd5b905081831610386143db565b60ff600482015460a81c166002811015610530571561449e5750565b805460ff19169055565b3563ffffffff8116810361036e5790565b9060098110156105305760ff80198354169116179055565b9060088110156105305761ff0082549160081b169061ff001916179055565b91909182516001600160401b0381116108655761451181613a2a8454612792565b602080601f8311600114614536575081906129c0939495600092613a565750506139f6565b90601f1983169561454c85600052602060002090565b926000905b88821061456f57505083600195969710613a9b57505050811b019055565b80600185968294968601518155019501930190614551565b600a6147216101e06105fe946145b26145a08251151590565b869060ff801983541691151516179055565b60208101516001860155604081015160028601556060810151600386015561463b600486016145ee60808401516145e881610526565b826144b9565b61460560a08401516145ff81610542565b826144d1565b60c0830151613197906001600160a01b0316825462010000600160b01b03191660109190911b62010000600160b01b0316178255565b6146cc6005860161466061465a6101008501516001600160401b031690565b826130d8565b6146a06146786101208501516001600160401b031690565b825467ffffffffffffffff60401b191660409190911b67ffffffffffffffff60401b16178255565b61014083015163ffffffff16815463ffffffff60801b191660809190911b63ffffffff60801b16179055565b6146de610160820151600687016144f0565b610180810151600786015561470f6146fa6101a0830151151590565b600887019060ff801983541691151516179055565b6101c081015160098601550151151590565b91019060ff801983541691151516179055565b91929493600c549361474585613032565b600c55849660a083016147579061364a565b9061476184613640565b61476d60208601613640565b9061477a604087016144a8565b926147886060880188612ef3565b9590966147936108e1565b60018152998c60208c01528b60408c015260608b015260808a01906147b79161277a565b6147c49060a08a01612786565b6001600160a01b031660c08801526001600160401b03421660e08801526001600160401b03166101008701526001600160401b031661012086015263ffffffff16610140850152369061481692610d35565b610160830152608081013561018083015260016101a083015260c001356101c08201526101e081016000905261485683600052600d602052604060002090565b9061486091614587565b61487490600052600e602052604060002090565b906105fe91613205565b91939284600052600560205260406000209260018060a01b03906148a58282168096614f92565b156148f45750906148ef7fc78cd419d6136f9f1c1c6aec1d3fae098cffaf8bc86314a8f2685e32fe574e3c93926040519384931515845260406020850152169560408301906107a7565b0390a4565b6040516312a8c6a360e21b8152908190611b47908990600484016135cf565b9060349391816000823760609390931b6001600160601b031916920191825260148201520190565b63ffffffff60e01b600035169061497e6137ac604051696773c5a04a6d4300884b60b11b60208201526000602a82015284602c820152602081526137a781610885565b805160148114159081614a06575b506137e05761499a90614a10565b60601c9182156149e2575060009182916040516149c381610cb960208201943490339087614913565b519134905af16149d1612f4e565b90156149da5790565b602081519101fd5b60405163bb370b2b60e01b81526001600160e01b0319919091166004820152602490fd5b905015153861498c565b80516020909101516001600160601b0319808216939290919060148110614a3657505050565b60140360031b82901b16169150565b6000602091604051838101906301ffc9a760e01b8252631aed5a8560e21b602482015260248152614a758161084a565b5191617530fa6000513d82614a96575b5081614a8f575090565b9050151590565b60201115915038614a85565b600090602092604051848101916301ffc9a760e01b835263ffffffff60e01b16602482015260248152614a758161084a565b6000908152600360205260409020546001600160a01b0316151590565b90600090808252600591602093600560205260409182812094855495825b878110614b2157505050505050505050565b815415612a38578184528884205486516001600160a01b0391821691614b468261086a565b868252898752858c52614b5b838a8920614f92565b15614bad57600193927fc78cd419d6136f9f1c1c6aec1d3fae098cffaf8bc86314a8f2685e32fe574e3c8d89614ba48e968e968e888051968796875286015216968301906107a7565b0390a401614b0f565b88516312a8c6a360e21b815280611b478c86600484016135cf565b6001600160a01b038181168015908115614c90575b50614c8a57821615614c8557826000526007602052614c0c6001600160401b03421660016040600020016130d8565b614c2083600052600f602052604060002090565b92835460018101809111613041576105fe9455807f68a9605af782a78794bf10267dbe75939ae6fec1fe3a7b7dd51c4924f4575859614c7d614c6c83600052600f602052604060002090565b546040519081529081906020820190565b0390a2615047565b505050565b50505050565b90508184161438614bdd565b60208183031261036e578051906001600160401b03821161036e57019080601f8301121561036e5781516107dd92602001612e2e565b9060406107dd927f0b084a55ebf70fd3c06fd755269dac2212c4d3f0f4d09079780bfa50c1b2984d815281602082015201906107a7565b6040513d6000823e3d90fd5b614d1e81614a45565b15614d8757604051631aed5a8560e21b8152916000918391829084908290614d499060048301614cd2565b03926001600160a01b03165af18015614d8257614d635750565b614d7f903d806000833e614d7781836108a0565b810190614c9c565b50565b614d09565b5050565b9190614d9683614a45565b15614dc05750614d496000928392604051948580948193631aed5a8560e21b835260048301614cd2565b905015614dca5750565b803b15614df457604051634349776d60e01b81526001600160a01b03919091166004820152602490fd5b604051630317313760e01b81526001600160a01b03919091166004820152602490fd5b6000828152600182016020526040902054612c9b57805490600160401b8210156108655782614e506132278460018096018555846131d3565b905580549260005201602052604060002055600190565b614e7081614a45565b614e78575050565b614d49600092918392604051948580948193631aed5a8560e21b83527f8a1c15a8799f71b547e08e2bcb2e85257e81b0a07eee2ce6712549eef1f0097060048401526040602484015260448301906107a7565b614ed481614a45565b614edc575050565b614d49600092918392604051948580948193631aed5a8560e21b83527fb23eae7e6d1564b295b4c3e3be402d9a2f0776c57bdf365903496f6fa481ab0060048401526040602484015260448301906107a7565b602081519101519060208110614f43575090565b6000199060200360031b1b1690565b8054908115614f7c5760001991820191614f6c83836131d3565b909182549160031b1b1916905555565b634e487b7160e01b600052603160045260246000fd5b600181019180600052826020526040600020549283151560001461503e576000199284840190858211613041578054948501948511613041576000958583614fe694614ff59803614ffb575b505050614f52565b90600052602052604060002090565b55600190565b61502561501f9161500f61503594876131d3565b90549060031b1c928391876131d3565b906131eb565b8590600052602052604060002090565b55388080614fde565b50505050600090565b907fb0e61a071c1f78b584caf7677cc3ec1c59622cabd30507b0aa47086483762ff56148ef6001600160401b03421692600c549361508c61508786613032565b600c55565b6151536150976108e1565b600181528660208201528760408201526150fb6000938460608401526150c06080840160089052565b8460a08401528460c08401526150e28160e08501906001600160401b03169052565b6001600160401b03166101008301819052610120830152565b8261014082015261510a612e63565b610160820152826101808201526151256101a0820160019052565b826101c082015261513a6101e0820160019052565b61514e87600052600d602052604060002090565b614587565b61516b8561150788600052600e602052604060002090565b85857fed3cacd729477d0f36a74c7acff952351130177a2dadc2566addbc94bdea9cbd604051806151ae8190600060406060840193828152600860208201520152565b0390a46040516001600160a01b039687168152951694908190602082019056fea6e4251f855f750545fe414f120db91c76b88def14d120969e5bb2d3f05debbb4a575305803ae25e5c97a34a769c64aa4adee9a001d3e057d35a7015ca2d1badde95a1341942668b37dff0e3cc61025dd74e03d6a0fb54c8e877df964dcb87934caf511a2ec83ba577d4ef5a0f72cf12c5524ba5e0f0fbba1894b96079ecf9b5a2646970667358221220931ee5b8e9fa9e3c0a9eabf16a5355565b7eca1f6b466d2f9f49648dadfe380564736f6c63430008180033deba1e292f8ba88238e10ab3c7f88bd4be4fac56cad5194b6ecceaf653468af1e0261fa95db2eb3b5439bd033cda66d56b96f92f243a8228fd87550ed7bdfdb32f0a68ab07768e01943a599e73362a0e17a63a72e94dd2e384d2c1d4db932756ece574603820d07bc9b91f2a932baadf4628aabcb8afba49776529c14a6104b2","opcodes":"PUSH1 0x80 CALLVALUE PUSH3 0x980 JUMPI PUSH1 0x1F PUSH3 0x5D38 CODESIZE DUP2 SWAP1 SUB SWAP2 DUP3 ADD PUSH1 0x1F NOT AND DUP4 ADD SWAP2 PUSH1 0x1 PUSH1 0x1 PUSH1 0x40 SHL SUB DUP4 GT DUP5 DUP5 LT OR PUSH3 0x630 JUMPI DUP1 DUP5 SWAP3 PUSH1 0x20 SWAP5 PUSH1 0x40 MSTORE DUP4 CODECOPY DUP2 ADD SUB SLT PUSH3 0x980 JUMPI MLOAD PUSH1 0x1 PUSH1 0x1 PUSH1 0xA0 SHL SUB DUP2 AND DUP1 DUP3 SUB PUSH3 0x980 JUMPI PUSH1 0x40 MLOAD SWAP2 PUSH3 0x64 DUP4 PUSH3 0x985 JUMP JUMPDEST PUSH1 0x10 DUP4 MSTORE PUSH16 0x15995A1A58DB194814185CDCDC1BDC9D PUSH1 0x82 SHL PUSH1 0x20 DUP5 ADD MSTORE PUSH1 0x40 MLOAD SWAP2 PUSH3 0x90 DUP4 PUSH3 0x985 JUMP JUMPDEST PUSH1 0x5 DUP4 MSTORE PUSH5 0x5650415353 PUSH1 0xD8 SHL PUSH1 0x20 DUP5 ADD MSTORE PUSH3 0xAD CALLER PUSH3 0x9EC JUMP JUMPDEST ISZERO PUSH3 0x96E JUMPI PUSH3 0xBE SWAP1 PUSH3 0x9EC JUMP JUMPDEST PUSH1 0x40 MLOAD PUSH3 0xCC DUP2 PUSH3 0x985 JUMP JUMPDEST PUSH1 0x4 DUP2 MSTORE PUSH4 0x29365989 PUSH1 0xE2 SHL PUSH1 0x20 DUP3 ADD MSTORE PUSH32 0xEAFEC4D89FA9619884B60000A4D96624A38F7AC2D8D9A604ECF07C12C77E480C SWAP1 DUP2 PUSH1 0x0 MSTORE PUSH1 0x1 PUSH1 0x20 MSTORE PUSH1 0x40 PUSH1 0x0 KECCAK256 DUP2 MLOAD PUSH1 0x1 DUP1 PUSH1 0x40 SHL SUB DUP2 GT PUSH3 0x630 JUMPI DUP2 SLOAD PUSH1 0x1 DUP2 DUP2 SHR SWAP2 AND DUP1 ISZERO PUSH3 0x963 JUMPI JUMPDEST PUSH1 0x20 DUP3 LT EQ PUSH3 0x60F JUMPI PUSH1 0x1F DUP2 GT PUSH3 0x916 JUMPI JUMPDEST POP PUSH1 0x20 PUSH1 0x1F DUP3 GT PUSH1 0x1 EQ PUSH3 0x8AF JUMPI SWAP2 DUP2 PUSH1 0x0 DUP1 MLOAD PUSH1 0x20 PUSH3 0x5D18 DUP4 CODECOPY DUP2 MLOAD SWAP2 MSTORE SWAP5 SWAP3 PUSH3 0x194 SWAP5 PUSH1 0x0 SWAP2 PUSH3 0x536 JUMPI JUMPDEST POP DUP2 PUSH1 0x1 SHL SWAP2 PUSH1 0x0 NOT SWAP1 PUSH1 0x3 SHL SHR NOT AND OR SWAP1 SSTORE JUMPDEST PUSH1 0x40 MLOAD SWAP2 DUP3 SWAP2 DUP3 PUSH3 0x9A1 JUMP JUMPDEST SUB SWAP1 LOG2 PUSH1 0x0 DUP1 MLOAD PUSH1 0x20 PUSH3 0x5CB8 DUP4 CODECOPY DUP2 MLOAD SWAP2 MSTORE PUSH1 0x0 MSTORE PUSH1 0x1 PUSH1 0x20 MSTORE DUP2 MLOAD SWAP2 PUSH32 0x2A367AE1AC46D529739AA27AC74856F860E70AF05D3642D18BA60FD5D32A069A PUSH1 0x1 PUSH1 0x1 PUSH1 0x40 SHL SUB DUP5 GT PUSH3 0x630 JUMPI DUP1 SLOAD PUSH1 0x1 DUP2 DUP2 SHR SWAP2 AND DUP1 ISZERO PUSH3 0x8A4 JUMPI JUMPDEST PUSH1 0x20 DUP3 LT EQ PUSH3 0x60F JUMPI PUSH1 0x1F DUP2 GT PUSH3 0x85B JUMPI JUMPDEST POP PUSH1 0x20 SWAP4 PUSH1 0x1F DUP2 GT PUSH1 0x1 EQ PUSH3 0x7E4 JUMPI SWAP2 PUSH3 0x269 SWAP2 DUP4 PUSH1 0x0 DUP1 MLOAD PUSH1 0x20 PUSH3 0x5D18 DUP4 CODECOPY DUP2 MLOAD SWAP2 MSTORE SWAP5 PUSH1 0x0 DUP1 MLOAD PUSH1 0x20 PUSH3 0x5CB8 DUP4 CODECOPY DUP2 MLOAD SWAP2 MSTORE SWAP7 SWAP8 PUSH1 0x0 SWAP2 PUSH3 0x536 JUMPI POP DUP2 PUSH1 0x1 SHL SWAP2 PUSH1 0x0 NOT SWAP1 PUSH1 0x3 SHL SHR NOT AND OR SWAP1 SSTORE PUSH1 0x40 MLOAD SWAP2 DUP3 SWAP2 DUP3 PUSH3 0x9A1 JUMP JUMPDEST SUB SWAP1 LOG2 PUSH1 0x0 DUP1 MLOAD PUSH1 0x20 PUSH3 0x5CF8 DUP4 CODECOPY DUP2 MLOAD SWAP2 MSTORE PUSH1 0x0 MSTORE PUSH1 0x1 PUSH1 0x20 MSTORE DUP1 MLOAD PUSH32 0x83B322886C7B7E25779E5D38E06E005C9E7ABA1E1267CE9210CF24E31833535A SWAP1 PUSH1 0x1 PUSH1 0x1 PUSH1 0x40 SHL SUB DUP2 GT PUSH3 0x630 JUMPI DUP2 SLOAD PUSH1 0x1 DUP2 DUP2 SHR SWAP2 AND DUP1 ISZERO PUSH3 0x7D9 JUMPI JUMPDEST PUSH1 0x20 DUP3 LT EQ PUSH3 0x60F JUMPI PUSH1 0x1F DUP2 GT PUSH3 0x78C JUMPI JUMPDEST POP PUSH1 0x20 PUSH1 0x1F DUP3 GT PUSH1 0x1 EQ PUSH3 0x715 JUMPI SWAP3 PUSH1 0x0 DUP1 MLOAD PUSH1 0x20 PUSH3 0x5D18 DUP4 CODECOPY DUP2 MLOAD SWAP2 MSTORE SWAP3 DUP3 PUSH3 0x33C SWAP4 PUSH1 0x0 DUP1 MLOAD PUSH1 0x20 PUSH3 0x5CF8 DUP4 CODECOPY DUP2 MLOAD SWAP2 MSTORE SWAP7 PUSH1 0x0 SWAP2 PUSH3 0x536 JUMPI POP DUP2 PUSH1 0x1 SHL SWAP2 PUSH1 0x0 NOT SWAP1 PUSH1 0x3 SHL SHR NOT AND OR SWAP1 SSTORE PUSH1 0x40 MLOAD SWAP2 DUP3 SWAP2 DUP3 PUSH3 0x9A1 JUMP JUMPDEST SUB SWAP1 LOG2 PUSH1 0x40 MLOAD PUSH1 0x2 PUSH1 0x20 DUP3 ADD MSTORE PUSH1 0x20 DUP2 MSTORE PUSH3 0x358 DUP2 PUSH3 0x985 JUMP JUMPDEST PUSH1 0x0 DUP1 MLOAD PUSH1 0x20 PUSH3 0x5CD8 DUP4 CODECOPY DUP2 MLOAD SWAP2 MSTORE PUSH1 0x0 MSTORE PUSH1 0x1 PUSH1 0x20 MSTORE DUP1 MLOAD PUSH32 0xF73B01B344A9BB3B96525B0CB731F6B14CDE20CE6CECEA8459266944490B411F SWAP1 PUSH1 0x1 PUSH1 0x1 PUSH1 0x40 SHL SUB DUP2 GT PUSH3 0x630 JUMPI DUP2 SLOAD PUSH1 0x1 DUP2 DUP2 SHR SWAP2 AND DUP1 ISZERO PUSH3 0x70A JUMPI JUMPDEST PUSH1 0x20 DUP3 LT EQ PUSH3 0x60F JUMPI PUSH1 0x1F DUP2 GT PUSH3 0x6BD JUMPI JUMPDEST POP PUSH1 0x20 PUSH1 0x1F DUP3 GT PUSH1 0x1 EQ PUSH3 0x646 JUMPI SWAP3 PUSH1 0x0 DUP1 MLOAD PUSH1 0x20 PUSH3 0x5D18 DUP4 CODECOPY DUP2 MLOAD SWAP2 MSTORE SWAP3 DUP3 PUSH3 0x428 SWAP4 PUSH1 0x0 DUP1 MLOAD PUSH1 0x20 PUSH3 0x5CD8 DUP4 CODECOPY DUP2 MLOAD SWAP2 MSTORE SWAP7 PUSH1 0x0 SWAP2 PUSH3 0x536 JUMPI POP DUP2 PUSH1 0x1 SHL SWAP2 PUSH1 0x0 NOT SWAP1 PUSH1 0x3 SHL SHR NOT AND OR SWAP1 SSTORE PUSH1 0x40 MLOAD SWAP2 DUP3 SWAP2 DUP3 PUSH3 0x9A1 JUMP JUMPDEST SUB SWAP1 LOG2 PUSH1 0x40 MLOAD PUSH1 0x4 PUSH1 0x20 DUP3 ADD MSTORE PUSH1 0x20 DUP2 MSTORE PUSH3 0x444 DUP2 PUSH3 0x985 JUMP JUMPDEST PUSH32 0xF675E9361AF1C1664C1868CFA3EB97672D6B1A513AA5B81DEC34C9EE330E818D PUSH1 0x0 DUP2 SWAP1 MSTORE PUSH1 0x1 PUSH1 0x20 MSTORE DUP2 MLOAD SWAP2 PUSH32 0x1F5EB934E794DDCC86B89A579078013860F8FE92140885511742594F219AD0B PUSH1 0x1 PUSH1 0x1 PUSH1 0x40 SHL SUB DUP5 GT PUSH3 0x630 JUMPI DUP1 SLOAD PUSH1 0x1 DUP2 DUP2 SHR SWAP2 AND DUP1 ISZERO PUSH3 0x625 JUMPI JUMPDEST PUSH1 0x20 DUP3 LT EQ PUSH3 0x60F JUMPI PUSH1 0x1F DUP2 GT PUSH3 0x5C2 JUMPI JUMPDEST POP PUSH1 0x20 SWAP4 PUSH1 0x1F DUP2 GT PUSH1 0x1 EQ PUSH3 0x542 JUMPI SWAP1 DUP2 PUSH3 0x519 SWAP4 SWAP3 PUSH1 0x0 DUP1 MLOAD PUSH1 0x20 PUSH3 0x5D18 DUP4 CODECOPY DUP2 MLOAD SWAP2 MSTORE SWAP6 SWAP7 PUSH1 0x0 SWAP2 PUSH3 0x536 JUMPI POP DUP2 PUSH1 0x1 SHL SWAP2 PUSH1 0x0 NOT SWAP1 PUSH1 0x3 SHL SHR NOT AND OR SWAP1 SSTORE PUSH1 0x40 MLOAD SWAP2 DUP3 SWAP2 DUP3 PUSH3 0x9A1 JUMP JUMPDEST SUB SWAP1 LOG2 PUSH1 0x1 PUSH1 0x9 SSTORE PUSH1 0x1 PUSH1 0xC SSTORE PUSH1 0x40 MLOAD PUSH2 0x5284 SWAP1 DUP2 PUSH3 0xA34 DUP3 CODECOPY RETURN JUMPDEST SWAP1 POP DUP4 ADD MLOAD CODESIZE PUSH3 0x173 JUMP JUMPDEST PUSH1 0x1F NOT DUP2 AND DUP3 PUSH1 0x0 MSTORE PUSH1 0x20 PUSH1 0x0 KECCAK256 SWAP1 PUSH1 0x0 JUMPDEST DUP2 DUP2 LT PUSH3 0x5A9 JUMPI POP SWAP2 PUSH1 0x1 SWAP2 PUSH1 0x0 DUP1 MLOAD PUSH1 0x20 PUSH3 0x5D18 DUP4 CODECOPY DUP2 MLOAD SWAP2 MSTORE SWAP7 SWAP8 DUP3 PUSH3 0x519 SWAP8 SWAP7 SWAP6 LT PUSH3 0x58F JUMPI JUMPDEST POP POP DUP2 SHL ADD SWAP1 SSTORE PUSH3 0x187 JUMP JUMPDEST DUP6 ADD MLOAD PUSH1 0x0 NOT PUSH1 0xF8 DUP5 PUSH1 0x3 SHL AND SHR NOT AND SWAP1 SSTORE CODESIZE DUP1 PUSH3 0x582 JUMP JUMPDEST DUP6 DUP9 ADD MLOAD DUP4 SSTORE PUSH1 0x20 SWAP8 DUP9 ADD SWAP8 PUSH1 0x1 SWAP1 SWAP4 ADD SWAP3 ADD PUSH3 0x554 JUMP JUMPDEST DUP2 PUSH1 0x0 MSTORE PUSH1 0x20 PUSH1 0x0 KECCAK256 PUSH1 0x1F DUP7 ADD PUSH1 0x5 SHR DUP2 ADD SWAP2 PUSH1 0x20 DUP8 LT PUSH3 0x604 JUMPI JUMPDEST PUSH1 0x1F ADD PUSH1 0x5 SHR ADD SWAP1 JUMPDEST DUP2 DUP2 LT PUSH3 0x5F7 JUMPI POP PUSH3 0x4C7 JUMP JUMPDEST PUSH1 0x0 DUP2 SSTORE PUSH1 0x1 ADD PUSH3 0x5E8 JUMP JUMPDEST SWAP1 SWAP2 POP DUP2 SWAP1 PUSH3 0x5DF JUMP JUMPDEST PUSH4 0x4E487B71 PUSH1 0xE0 SHL PUSH1 0x0 MSTORE PUSH1 0x22 PUSH1 0x4 MSTORE PUSH1 0x24 PUSH1 0x0 REVERT JUMPDEST SWAP1 PUSH1 0x7F AND SWAP1 PUSH3 0x4B3 JUMP JUMPDEST PUSH4 0x4E487B71 PUSH1 0xE0 SHL PUSH1 0x0 MSTORE PUSH1 0x41 PUSH1 0x4 MSTORE PUSH1 0x24 PUSH1 0x0 REVERT JUMPDEST DUP3 PUSH1 0x0 MSTORE PUSH1 0x20 PUSH1 0x0 KECCAK256 SWAP1 PUSH1 0x0 JUMPDEST PUSH1 0x1F NOT DUP5 AND DUP2 LT PUSH3 0x6A4 JUMPI POP SWAP3 PUSH1 0x1 DUP4 PUSH1 0x0 DUP1 MLOAD PUSH1 0x20 PUSH3 0x5CD8 DUP4 CODECOPY DUP2 MLOAD SWAP2 MSTORE SWAP7 SWAP4 PUSH1 0x0 DUP1 MLOAD PUSH1 0x20 PUSH3 0x5D18 DUP4 CODECOPY DUP2 MLOAD SWAP2 MSTORE SWAP7 PUSH3 0x428 SWAP7 PUSH1 0x1F NOT DUP2 AND LT PUSH3 0x58F JUMPI POP POP DUP2 SHL ADD SWAP1 SSTORE PUSH3 0x187 JUMP JUMPDEST SWAP1 SWAP2 PUSH1 0x20 PUSH1 0x1 DUP2 SWAP3 DUP6 DUP10 ADD MLOAD DUP2 SSTORE ADD SWAP4 ADD SWAP2 ADD PUSH3 0x653 JUMP JUMPDEST DUP3 PUSH1 0x0 MSTORE PUSH1 0x20 PUSH1 0x0 KECCAK256 PUSH1 0x1F DUP4 ADD PUSH1 0x5 SHR DUP2 ADD SWAP2 PUSH1 0x20 DUP5 LT PUSH3 0x6FF JUMPI JUMPDEST PUSH1 0x1F ADD PUSH1 0x5 SHR ADD SWAP1 JUMPDEST DUP2 DUP2 LT PUSH3 0x6F2 JUMPI POP PUSH3 0x3C8 JUMP JUMPDEST PUSH1 0x0 DUP2 SSTORE PUSH1 0x1 ADD PUSH3 0x6E3 JUMP JUMPDEST SWAP1 SWAP2 POP DUP2 SWAP1 PUSH3 0x6DA JUMP JUMPDEST SWAP1 PUSH1 0x7F AND SWAP1 PUSH3 0x3B4 JUMP JUMPDEST DUP3 PUSH1 0x0 MSTORE PUSH1 0x20 PUSH1 0x0 KECCAK256 SWAP1 PUSH1 0x0 JUMPDEST PUSH1 0x1F NOT DUP5 AND DUP2 LT PUSH3 0x773 JUMPI POP SWAP3 PUSH1 0x1 DUP4 PUSH1 0x0 DUP1 MLOAD PUSH1 0x20 PUSH3 0x5CF8 DUP4 CODECOPY DUP2 MLOAD SWAP2 MSTORE SWAP7 SWAP4 PUSH1 0x0 DUP1 MLOAD PUSH1 0x20 PUSH3 0x5D18 DUP4 CODECOPY DUP2 MLOAD SWAP2 MSTORE SWAP7 PUSH3 0x33C SWAP7 PUSH1 0x1F NOT DUP2 AND LT PUSH3 0x58F JUMPI POP POP DUP2 SHL ADD SWAP1 SSTORE PUSH3 0x187 JUMP JUMPDEST SWAP1 SWAP2 PUSH1 0x20 PUSH1 0x1 DUP2 SWAP3 DUP6 DUP10 ADD MLOAD DUP2 SSTORE ADD SWAP4 ADD SWAP2 ADD PUSH3 0x722 JUMP JUMPDEST DUP3 PUSH1 0x0 MSTORE PUSH1 0x20 PUSH1 0x0 KECCAK256 PUSH1 0x1F DUP4 ADD PUSH1 0x5 SHR DUP2 ADD SWAP2 PUSH1 0x20 DUP5 LT PUSH3 0x7CE JUMPI JUMPDEST PUSH1 0x1F ADD PUSH1 0x5 SHR ADD SWAP1 JUMPDEST DUP2 DUP2 LT PUSH3 0x7C1 JUMPI POP PUSH3 0x2DC JUMP JUMPDEST PUSH1 0x0 DUP2 SSTORE PUSH1 0x1 ADD PUSH3 0x7B2 JUMP JUMPDEST SWAP1 SWAP2 POP DUP2 SWAP1 PUSH3 0x7A9 JUMP JUMPDEST SWAP1 PUSH1 0x7F AND SWAP1 PUSH3 0x2C8 JUMP JUMPDEST DUP2 PUSH1 0x0 MSTORE PUSH1 0x20 PUSH1 0x0 KECCAK256 PUSH1 0x0 JUMPDEST PUSH1 0x1F NOT DUP4 AND DUP2 LT PUSH3 0x842 JUMPI POP SWAP2 PUSH1 0x1 DUP3 PUSH3 0x269 SWAP5 PUSH1 0x0 DUP1 MLOAD PUSH1 0x20 PUSH3 0x5CB8 DUP4 CODECOPY DUP2 MLOAD SWAP2 MSTORE SWAP8 SWAP9 PUSH1 0x0 DUP1 MLOAD PUSH1 0x20 PUSH3 0x5D18 DUP4 CODECOPY DUP2 MLOAD SWAP2 MSTORE SWAP8 SWAP6 PUSH1 0x1F NOT DUP2 AND LT PUSH3 0x58F JUMPI POP POP DUP2 SHL ADD SWAP1 SSTORE PUSH3 0x187 JUMP JUMPDEST DUP5 DUP8 ADD MLOAD DUP3 SSTORE PUSH1 0x20 SWAP7 DUP8 ADD SWAP7 PUSH1 0x1 SWAP1 SWAP3 ADD SWAP2 ADD PUSH3 0x7F0 JUMP JUMPDEST DUP2 PUSH1 0x0 MSTORE PUSH1 0x20 PUSH1 0x0 KECCAK256 PUSH1 0x1F DUP7 ADD PUSH1 0x5 SHR DUP2 ADD PUSH1 0x20 DUP8 LT PUSH3 0x89C JUMPI JUMPDEST PUSH1 0x1F DUP4 ADD PUSH1 0x5 SHR DUP3 ADD DUP2 LT PUSH3 0x88F JUMPI POP POP PUSH3 0x207 JUMP JUMPDEST PUSH1 0x0 DUP2 SSTORE PUSH1 0x1 ADD PUSH3 0x877 JUMP JUMPDEST POP DUP1 PUSH3 0x877 JUMP JUMPDEST SWAP1 PUSH1 0x7F AND SWAP1 PUSH3 0x1F3 JUMP JUMPDEST DUP3 PUSH1 0x0 MSTORE PUSH1 0x20 PUSH1 0x0 KECCAK256 SWAP1 PUSH1 0x0 JUMPDEST PUSH1 0x1F NOT DUP5 AND DUP2 LT PUSH3 0x8FD JUMPI POP DUP3 PUSH3 0x194 SWAP5 SWAP3 PUSH1 0x1 SWAP3 PUSH1 0x0 DUP1 MLOAD PUSH1 0x20 PUSH3 0x5D18 DUP4 CODECOPY DUP2 MLOAD SWAP2 MSTORE SWAP8 SWAP6 PUSH1 0x1F NOT DUP2 AND LT PUSH3 0x58F JUMPI POP POP DUP2 SHL ADD SWAP1 SSTORE PUSH3 0x187 JUMP JUMPDEST SWAP1 SWAP2 PUSH1 0x20 PUSH1 0x1 DUP2 SWAP3 DUP6 DUP10 ADD MLOAD DUP2 SSTORE ADD SWAP4 ADD SWAP2 ADD PUSH3 0x8BC JUMP JUMPDEST DUP3 PUSH1 0x0 MSTORE PUSH1 0x20 PUSH1 0x0 KECCAK256 PUSH1 0x1F DUP4 ADD PUSH1 0x5 SHR DUP2 ADD SWAP2 PUSH1 0x20 DUP5 LT PUSH3 0x958 JUMPI JUMPDEST PUSH1 0x1F ADD PUSH1 0x5 SHR ADD SWAP1 JUMPDEST DUP2 DUP2 LT PUSH3 0x94B JUMPI POP PUSH3 0x142 JUMP JUMPDEST PUSH1 0x0 DUP2 SSTORE PUSH1 0x1 ADD PUSH3 0x93C JUMP JUMPDEST SWAP1 SWAP2 POP DUP2 SWAP1 PUSH3 0x933 JUMP JUMPDEST SWAP1 PUSH1 0x7F AND SWAP1 PUSH3 0x12E JUMP JUMPDEST PUSH1 0x40 MLOAD PUSH4 0x6B620DB PUSH1 0xE2 SHL DUP2 MSTORE PUSH1 0x4 SWAP1 REVERT JUMPDEST PUSH1 0x0 DUP1 REVERT JUMPDEST PUSH1 0x40 DUP2 ADD SWAP1 DUP2 LT PUSH1 0x1 PUSH1 0x1 PUSH1 0x40 SHL SUB DUP3 GT OR PUSH3 0x630 JUMPI PUSH1 0x40 MSTORE JUMP JUMPDEST PUSH1 0x20 DUP1 DUP3 MSTORE DUP3 MLOAD DUP2 DUP4 ADD DUP2 SWAP1 MSTORE SWAP1 SWAP4 SWAP3 PUSH1 0x0 JUMPDEST DUP3 DUP2 LT PUSH3 0x9D7 JUMPI POP POP PUSH1 0x40 SWAP3 SWAP4 POP PUSH1 0x0 DUP4 DUP3 DUP5 ADD ADD MSTORE PUSH1 0x1F DUP1 NOT SWAP2 ADD AND ADD ADD SWAP1 JUMP JUMPDEST DUP2 DUP2 ADD DUP7 ADD MLOAD DUP5 DUP3 ADD PUSH1 0x40 ADD MSTORE DUP6 ADD PUSH3 0x9B4 JUMP JUMPDEST PUSH1 0x0 DUP1 SLOAD PUSH1 0x1 PUSH1 0x1 PUSH1 0xA0 SHL SUB SWAP3 DUP4 AND PUSH1 0x1 PUSH1 0x1 PUSH1 0xA0 SHL SUB NOT DUP3 AND DUP2 OR DUP4 SSTORE SWAP3 AND SWAP1 PUSH32 0x8BE0079C531659141344CD1FD0A4F28419497F9722A3DAAFE3B4186F6B6457E0 SWAP1 DUP1 LOG3 JUMP INVALID PUSH1 0x80 PUSH1 0x40 MSTORE PUSH1 0x4 CALLDATASIZE LT ISZERO PUSH2 0x2A JUMPI JUMPDEST CALLDATASIZE ISZERO PUSH2 0x25 JUMPI PUSH2 0x1D CALLDATASIZE PUSH2 0x36C6 JUMP JUMPDEST PUSH1 0x20 DUP2 MLOAD SWAP2 ADD RETURN JUMPDEST PUSH2 0x3688 JUMP JUMPDEST PUSH1 0x0 CALLDATALOAD PUSH1 0xE0 SHR DUP1 PUSH3 0x629679 EQ PUSH2 0x353 JUMPI DUP1 PUSH3 0x96ED68 EQ PUSH2 0x34E JUMPI DUP1 PUSH4 0x1FFC9A7 EQ PUSH2 0x349 JUMPI DUP1 PUSH4 0x7E47832 EQ PUSH2 0x344 JUMPI DUP1 PUSH4 0x9B1B0E1 EQ PUSH2 0x33F JUMPI DUP1 PUSH4 0x16E023B3 EQ PUSH2 0x33A JUMPI DUP1 PUSH4 0x18160DDD EQ PUSH2 0x335 JUMPI DUP1 PUSH4 0x1D26FCE6 EQ PUSH2 0x330 JUMPI DUP1 PUSH4 0x217B2270 EQ PUSH2 0x31C JUMPI DUP1 PUSH4 0x260C2FF0 EQ PUSH2 0x32B JUMPI DUP1 PUSH4 0x2A3654A4 EQ PUSH2 0x326 JUMPI DUP1 PUSH4 0x2CE6B459 EQ PUSH2 0x321 JUMPI DUP1 PUSH4 0x3AEA18CC EQ PUSH2 0x31C JUMPI DUP1 PUSH4 0x3B514EA2 EQ PUSH2 0x317 JUMPI DUP1 PUSH4 0x3C5E4DF9 EQ PUSH2 0x312 JUMPI DUP1 PUSH4 0x3F0F9A97 EQ PUSH2 0x30D JUMPI DUP1 PUSH4 0x436693D5 EQ PUSH2 0x308 JUMPI DUP1 PUSH4 0x49A6078D EQ PUSH2 0x303 JUMPI DUP1 PUSH4 0x4BF07B16 EQ PUSH2 0x2FE JUMPI DUP1 PUSH4 0x511B6952 EQ PUSH2 0x2F9 JUMPI DUP1 PUSH4 0x52AC4732 EQ PUSH2 0x2F4 JUMPI DUP1 PUSH4 0x54F6127F EQ PUSH2 0x2EF JUMPI DUP1 PUSH4 0x550598D5 EQ PUSH2 0x2EA JUMPI DUP1 PUSH4 0x5FE20EC8 EQ PUSH2 0x2E5 JUMPI DUP1 PUSH4 0x6963D438 EQ PUSH2 0x2E0 JUMPI DUP1 PUSH4 0x70A08231 EQ PUSH2 0x2DB JUMPI DUP1 PUSH4 0x715018A6 EQ PUSH2 0x2D6 JUMPI DUP1 PUSH4 0x739319CC EQ PUSH2 0x2D1 JUMPI DUP1 PUSH4 0x7651D1C6 EQ PUSH2 0x2CC JUMPI DUP1 PUSH4 0x7B7BABBA EQ PUSH2 0x2C7 JUMPI DUP1 PUSH4 0x7E87632C EQ PUSH2 0x2C2 JUMPI DUP1 PUSH4 0x7F23690C EQ PUSH2 0x2BD JUMPI DUP1 PUSH4 0x86A10DDD EQ PUSH2 0x2B8 JUMPI DUP1 PUSH4 0x8DA5CB5B EQ PUSH2 0x2B3 JUMPI DUP1 PUSH4 0x9613DED2 EQ PUSH2 0x2AE JUMPI DUP1 PUSH4 0x97902421 EQ PUSH2 0x2A9 JUMPI DUP1 PUSH4 0xA3B261F2 EQ PUSH2 0x2A4 JUMPI DUP1 PUSH4 0xB226BB65 EQ PUSH2 0x29F JUMPI DUP1 PUSH4 0xBAA93EC9 EQ PUSH2 0x29A JUMPI DUP1 PUSH4 0xBD17CF0A EQ PUSH2 0x295 JUMPI DUP1 PUSH4 0xBD2C0F65 EQ PUSH2 0x290 JUMPI DUP1 PUSH4 0xBE9F0E6F EQ PUSH2 0x28B JUMPI DUP1 PUSH4 0xCDABAF83 EQ PUSH2 0x286 JUMPI DUP1 PUSH4 0xD6C1407C EQ PUSH2 0x281 JUMPI DUP1 PUSH4 0xDB8C9663 EQ PUSH2 0x27C JUMPI DUP1 PUSH4 0xDBDE207D EQ PUSH2 0x277 JUMPI DUP1 PUSH4 0xDEDFF9C6 EQ PUSH2 0x272 JUMPI DUP1 PUSH4 0xE20C3236 EQ PUSH2 0x26D JUMPI DUP1 PUSH4 0xF2FDE38B EQ PUSH2 0x268 JUMPI DUP1 PUSH4 0xF731FA0F EQ PUSH2 0x263 JUMPI PUSH4 0xFB51ED4E SUB PUSH2 0xE JUMPI PUSH2 0x2704 JUMP JUMPDEST PUSH2 0x26B8 JUMP JUMPDEST PUSH2 0x25DB JUMP JUMPDEST PUSH2 0x2529 JUMP JUMPDEST PUSH2 0x24A2 JUMP JUMPDEST PUSH2 0x2484 JUMP JUMPDEST PUSH2 0x23AF JUMP JUMPDEST PUSH2 0x2369 JUMP JUMPDEST PUSH2 0x233D JUMP JUMPDEST PUSH2 0x224E JUMP JUMPDEST PUSH2 0x21AD JUMP JUMPDEST PUSH2 0x1F47 JUMP JUMPDEST PUSH2 0x1DF0 JUMP JUMPDEST PUSH2 0x1DAB JUMP JUMPDEST PUSH2 0x1D24 JUMP JUMPDEST PUSH2 0x1C24 JUMP JUMPDEST PUSH2 0x1BB7 JUMP JUMPDEST PUSH2 0x1B8E JUMP JUMPDEST PUSH2 0x1A3C JUMP JUMPDEST PUSH2 0x19E6 JUMP JUMPDEST PUSH2 0x194D JUMP JUMPDEST PUSH2 0x17AA JUMP JUMPDEST PUSH2 0x1619 JUMP JUMPDEST PUSH2 0x134E JUMP JUMPDEST PUSH2 0x12E2 JUMP JUMPDEST PUSH2 0x12A8 JUMP JUMPDEST PUSH2 0x1243 JUMP JUMPDEST PUSH2 0x1173 JUMP JUMPDEST PUSH2 0x114A JUMP JUMPDEST PUSH2 0x112B JUMP JUMPDEST PUSH2 0xFFC JUMP JUMPDEST PUSH2 0xF5C JUMP JUMPDEST PUSH2 0xF14 JUMP JUMPDEST PUSH2 0xE75 JUMP JUMPDEST PUSH2 0xDBF JUMP JUMPDEST PUSH2 0xD6C JUMP JUMPDEST PUSH2 0xC2E JUMP JUMPDEST PUSH2 0xC05 JUMP JUMPDEST PUSH2 0xAD1 JUMP JUMPDEST PUSH2 0xBE7 JUMP JUMPDEST PUSH2 0xBB6 JUMP JUMPDEST PUSH2 0xB3D JUMP JUMPDEST PUSH2 0xA08 JUMP JUMPDEST PUSH2 0x816 JUMP JUMPDEST PUSH2 0x7E0 JUMP JUMPDEST PUSH2 0x6E8 JUMP JUMPDEST PUSH2 0x600 JUMP JUMPDEST PUSH2 0x45D JUMP JUMPDEST PUSH2 0x409 JUMP JUMPDEST PUSH2 0x389 JUMP JUMPDEST PUSH1 0x4 CALLDATALOAD SWAP1 PUSH1 0x1 PUSH1 0x1 PUSH1 0xA0 SHL SUB DUP3 AND DUP3 SUB PUSH2 0x36E JUMPI JUMP JUMPDEST PUSH1 0x0 DUP1 REVERT JUMPDEST PUSH1 0x24 CALLDATALOAD SWAP1 PUSH1 0x1 PUSH1 0x1 PUSH1 0xA0 SHL SUB DUP3 AND DUP3 SUB PUSH2 0x36E JUMPI JUMP JUMPDEST CALLVALUE PUSH2 0x36E JUMPI PUSH1 0x20 CALLDATASIZE PUSH1 0x3 NOT ADD SLT PUSH2 0x36E JUMPI PUSH2 0x3A2 PUSH2 0x358 JUMP JUMPDEST PUSH2 0x3AA PUSH2 0x3712 JUMP JUMPDEST PUSH1 0x1 PUSH1 0x1 PUSH1 0xA0 SHL SUB AND DUP1 ISZERO PUSH2 0x3F7 JUMPI PUSH1 0x0 DUP2 DUP2 MSTORE PUSH1 0x6 PUSH1 0x20 MSTORE PUSH1 0x40 DUP2 KECCAK256 DUP1 SLOAD PUSH1 0xFF NOT AND SWAP1 SSTORE SWAP1 PUSH32 0x95A4C2AE425BB769549AA1A911911FF57C17AE811AE8C8962D0B9746FCB15397 DUP3 DUP1 LOG2 DUP1 RETURN JUMPDEST PUSH1 0x40 MLOAD PUSH4 0x5EDFF10B PUSH1 0xE1 SHL DUP2 MSTORE PUSH1 0x4 SWAP1 REVERT JUMPDEST CALLVALUE PUSH2 0x36E JUMPI PUSH1 0x20 CALLDATASIZE PUSH1 0x3 NOT ADD SLT PUSH2 0x36E JUMPI PUSH1 0x4 CALLDATALOAD PUSH1 0x0 MSTORE PUSH1 0x8 PUSH1 0x20 MSTORE PUSH1 0x60 PUSH1 0x40 PUSH1 0x0 KECCAK256 SLOAD PUSH1 0xFF PUSH1 0x40 MLOAD SWAP2 PUSH1 0x1 DUP1 PUSH1 0xA0 SHL SUB DUP2 AND DUP4 MSTORE PUSH1 0x1 PUSH1 0x1 PUSH1 0x40 SHL SUB DUP2 PUSH1 0xA0 SHR AND PUSH1 0x20 DUP5 ADD MSTORE PUSH1 0xE0 SHR AND ISZERO ISZERO PUSH1 0x40 DUP3 ADD MSTORE RETURN JUMPDEST CALLVALUE PUSH2 0x36E JUMPI PUSH1 0x20 CALLDATASIZE PUSH1 0x3 NOT ADD SLT PUSH2 0x36E JUMPI PUSH1 0x4 CALLDATALOAD PUSH1 0x1 PUSH1 0x1 PUSH1 0xE0 SHL SUB NOT DUP2 AND DUP1 DUP3 SUB PUSH2 0x36E JUMPI PUSH2 0x4B4 SWAP2 PUSH4 0x1D138B83 PUSH1 0xE1 SHL DUP3 EQ SWAP2 DUP3 ISZERO PUSH2 0x4C8 JUMPI JUMPDEST POP DUP2 ISZERO PUSH2 0x4B8 JUMPI JUMPDEST POP PUSH1 0x40 MLOAD SWAP1 ISZERO ISZERO DUP2 MSTORE SWAP1 DUP2 SWAP1 PUSH1 0x20 DUP3 ADD SWAP1 JUMP JUMPDEST SUB SWAP1 RETURN JUMPDEST PUSH2 0x4C2 SWAP2 POP PUSH2 0x376A JUMP JUMPDEST CODESIZE PUSH2 0x4A1 JUMP JUMPDEST SWAP1 SWAP2 POP PUSH4 0xA918FA6B PUSH1 0xE0 SHL DUP2 EQ SWAP1 DUP2 ISZERO PUSH2 0x4E5 JUMPI JUMPDEST POP SWAP1 CODESIZE PUSH2 0x499 JUMP JUMPDEST PUSH4 0x18A6A9A5 PUSH1 0xE2 SHL DUP2 EQ SWAP2 POP DUP2 ISZERO PUSH2 0x4FF JUMPI JUMPDEST POP CODESIZE PUSH2 0x4DD JUMP JUMPDEST PUSH4 0x1FFC9A7 PUSH1 0xE0 SHL EQ SWAP1 POP CODESIZE PUSH2 0x4F8 JUMP JUMPDEST PUSH4 0x4E487B71 PUSH1 0xE0 SHL PUSH1 0x0 MSTORE PUSH1 0x21 PUSH1 0x4 MSTORE PUSH1 0x24 PUSH1 0x0 REVERT JUMPDEST PUSH1 0x9 GT ISZERO PUSH2 0x530 JUMPI JUMP JUMPDEST PUSH2 0x510 JUMP JUMPDEST SWAP1 PUSH1 0x9 DUP3 LT ISZERO PUSH2 0x530 JUMPI MSTORE JUMP JUMPDEST PUSH1 0x8 GT ISZERO PUSH2 0x530 JUMPI JUMP JUMPDEST SWAP1 PUSH1 0x8 DUP3 LT ISZERO PUSH2 0x530 JUMPI MSTORE JUMP JUMPDEST SWAP12 SWAP10 SWAP8 SWAP6 SWAP4 SWAP2 SWAP15 SWAP14 SWAP13 SWAP11 SWAP9 SWAP7 SWAP5 SWAP3 SWAP1 SWAP15 PUSH2 0x1C0 DUP14 ADD SWAP16 ISZERO ISZERO DUP14 MSTORE PUSH1 0x20 DUP14 ADD MSTORE PUSH1 0x40 DUP13 ADD MSTORE PUSH1 0x60 DUP12 ADD MSTORE PUSH1 0x80 DUP11 ADD PUSH2 0x58F SWAP2 PUSH2 0x535 JUMP JUMPDEST PUSH1 0xA0 DUP10 ADD PUSH2 0x59C SWAP2 PUSH2 0x54C JUMP JUMPDEST PUSH1 0x1 PUSH1 0x1 PUSH1 0xA0 SHL SUB AND PUSH1 0xC0 DUP9 ADD MSTORE PUSH1 0x1 PUSH1 0x1 PUSH1 0x40 SHL SUB AND PUSH1 0xE0 DUP8 ADD MSTORE PUSH1 0x1 PUSH1 0x1 PUSH1 0x40 SHL SUB AND PUSH2 0x100 DUP7 ADD MSTORE PUSH1 0x1 PUSH1 0x1 PUSH1 0x40 SHL SUB AND PUSH2 0x120 DUP6 ADD MSTORE PUSH4 0xFFFFFFFF AND PUSH2 0x140 DUP5 ADD MSTORE ISZERO ISZERO PUSH2 0x160 DUP4 ADD MSTORE PUSH2 0x180 DUP3 ADD MSTORE PUSH2 0x1A0 ADD PUSH2 0x5FE SWAP2 ISZERO ISZERO SWAP1 MSTORE JUMP JUMPDEST JUMP JUMPDEST CALLVALUE PUSH2 0x36E JUMPI PUSH1 0x20 CALLDATASIZE PUSH1 0x3 NOT ADD SLT PUSH2 0x36E JUMPI PUSH2 0x62F PUSH2 0x62A PUSH1 0x4 CALLDATALOAD PUSH1 0x0 MSTORE PUSH1 0xD PUSH1 0x20 MSTORE PUSH1 0x40 PUSH1 0x0 KECCAK256 SWAP1 JUMP JUMPDEST PUSH2 0x287D JUMP JUMPDEST DUP1 MLOAD ISZERO ISZERO PUSH2 0x4B4 PUSH1 0x20 DUP4 ADD MLOAD SWAP3 PUSH1 0x40 DUP2 ADD MLOAD SWAP1 PUSH1 0x60 DUP2 ADD MLOAD PUSH1 0x80 DUP3 ADD MLOAD PUSH2 0x655 DUP2 PUSH2 0x526 JUMP JUMPDEST PUSH1 0xA0 DUP4 ADD MLOAD PUSH2 0x663 DUP2 PUSH2 0x542 JUMP JUMPDEST PUSH1 0xC0 DUP5 ADD MLOAD PUSH1 0x1 PUSH1 0x1 PUSH1 0xA0 SHL SUB AND PUSH1 0xE0 DUP6 ADD MLOAD PUSH1 0x1 PUSH1 0x1 PUSH1 0x40 SHL SUB AND PUSH2 0x100 DUP7 ADD MLOAD PUSH1 0x1 PUSH1 0x1 PUSH1 0x40 SHL SUB AND SWAP2 PUSH2 0x6A4 PUSH2 0x120 DUP9 ADD MLOAD PUSH1 0x1 PUSH1 0x1 PUSH1 0x40 SHL SUB AND SWAP1 JUMP JUMPDEST SWAP4 PUSH2 0x6B7 PUSH2 0x140 DUP10 ADD MLOAD PUSH4 0xFFFFFFFF AND SWAP1 JUMP JUMPDEST SWAP6 PUSH2 0x6C6 PUSH2 0x1A0 DUP11 ADD MLOAD ISZERO ISZERO SWAP1 JUMP JUMPDEST SWAP8 PUSH2 0x6DB PUSH2 0x1E0 PUSH2 0x1C0 DUP13 ADD MLOAD SWAP12 ADD MLOAD ISZERO ISZERO SWAP1 JUMP JUMPDEST SWAP11 PUSH1 0x40 MLOAD SWAP15 DUP16 SWAP15 DUP16 PUSH2 0x559 JUMP JUMPDEST CALLVALUE PUSH2 0x36E JUMPI PUSH1 0x40 CALLDATASIZE PUSH1 0x3 NOT ADD SLT PUSH2 0x36E JUMPI PUSH1 0x4 CALLDATALOAD PUSH1 0x24 CALLDATALOAD SWAP1 PUSH1 0x4 DUP3 LT ISZERO PUSH2 0x36E JUMPI PUSH2 0x711 PUSH2 0x3712 JUMP JUMPDEST PUSH1 0x0 SWAP2 DUP2 DUP4 MSTORE PUSH1 0x7 PUSH1 0x20 MSTORE PUSH1 0xFF PUSH1 0x40 DUP5 KECCAK256 SLOAD AND ISZERO PUSH2 0x772 JUMPI PUSH1 0x20 PUSH32 0x551DB307DC86CB870468F304DD1A7709022989EE71AF181E69CFC314307F3ED1 SWAP2 DUP4 DUP6 MSTORE PUSH1 0x7 DUP3 MSTORE PUSH2 0x761 DUP2 PUSH1 0x40 DUP8 KECCAK256 PUSH2 0x299C JUMP JUMPDEST PUSH2 0x76E PUSH1 0x40 MLOAD DUP1 SWAP3 PUSH2 0x26F7 JUMP JUMPDEST LOG2 DUP1 RETURN JUMPDEST PUSH1 0x40 MLOAD PUSH4 0x4DED8EA5 PUSH1 0xE0 SHL DUP2 MSTORE PUSH1 0x4 SWAP1 REVERT JUMPDEST PUSH1 0x0 JUMPDEST DUP4 DUP2 LT PUSH2 0x797 JUMPI POP POP PUSH1 0x0 SWAP2 ADD MSTORE JUMP JUMPDEST DUP2 DUP2 ADD MLOAD DUP4 DUP3 ADD MSTORE PUSH1 0x20 ADD PUSH2 0x787 JUMP JUMPDEST SWAP1 PUSH1 0x20 SWAP2 PUSH2 0x7C0 DUP2 MLOAD DUP1 SWAP3 DUP2 DUP6 MSTORE DUP6 DUP1 DUP7 ADD SWAP2 ADD PUSH2 0x784 JUMP JUMPDEST PUSH1 0x1F ADD PUSH1 0x1F NOT AND ADD ADD SWAP1 JUMP JUMPDEST SWAP1 PUSH1 0x20 PUSH2 0x7DD SWAP3 DUP2 DUP2 MSTORE ADD SWAP1 PUSH2 0x7A7 JUMP JUMPDEST SWAP1 JUMP JUMPDEST CALLVALUE PUSH2 0x36E JUMPI PUSH1 0x40 CALLDATASIZE PUSH1 0x3 NOT ADD SLT PUSH2 0x36E JUMPI PUSH2 0x4B4 PUSH2 0x802 PUSH1 0x24 CALLDATALOAD PUSH1 0x4 CALLDATALOAD PUSH2 0x3925 JUMP JUMPDEST PUSH1 0x40 MLOAD SWAP2 DUP3 SWAP2 PUSH1 0x20 DUP4 MSTORE PUSH1 0x20 DUP4 ADD SWAP1 PUSH2 0x7A7 JUMP JUMPDEST CALLVALUE PUSH2 0x36E JUMPI PUSH1 0x0 CALLDATASIZE PUSH1 0x3 NOT ADD SLT PUSH2 0x36E JUMPI PUSH1 0x20 PUSH1 0x2 SLOAD PUSH1 0x40 MLOAD SWAP1 DUP2 MSTORE RETURN JUMPDEST PUSH4 0x4E487B71 PUSH1 0xE0 SHL PUSH1 0x0 MSTORE PUSH1 0x41 PUSH1 0x4 MSTORE PUSH1 0x24 PUSH1 0x0 REVERT JUMPDEST PUSH1 0x60 DUP2 ADD SWAP1 DUP2 LT PUSH1 0x1 PUSH1 0x1 PUSH1 0x40 SHL SUB DUP3 GT OR PUSH2 0x865 JUMPI PUSH1 0x40 MSTORE JUMP JUMPDEST PUSH2 0x834 JUMP JUMPDEST PUSH1 0x20 DUP2 ADD SWAP1 DUP2 LT PUSH1 0x1 PUSH1 0x1 PUSH1 0x40 SHL SUB DUP3 GT OR PUSH2 0x865 JUMPI PUSH1 0x40 MSTORE JUMP JUMPDEST PUSH1 0x40 DUP2 ADD SWAP1 DUP2 LT PUSH1 0x1 PUSH1 0x1 PUSH1 0x40 SHL SUB DUP3 GT OR PUSH2 0x865 JUMPI PUSH1 0x40 MSTORE JUMP JUMPDEST SWAP1 PUSH1 0x1F DUP1 NOT SWAP2 ADD AND DUP2 ADD SWAP1 DUP2 LT PUSH1 0x1 PUSH1 0x1 PUSH1 0x40 SHL SUB DUP3 GT OR PUSH2 0x865 JUMPI PUSH1 0x40 MSTORE JUMP JUMPDEST PUSH1 0x40 MLOAD SWAP1 PUSH2 0x140 DUP3 ADD DUP3 DUP2 LT PUSH1 0x1 PUSH1 0x1 PUSH1 0x40 SHL SUB DUP3 GT OR PUSH2 0x865 JUMPI PUSH1 0x40 MSTORE JUMP JUMPDEST PUSH1 0x40 MLOAD SWAP1 PUSH2 0x200 DUP3 ADD DUP3 DUP2 LT PUSH1 0x1 PUSH1 0x1 PUSH1 0x40 SHL SUB DUP3 GT OR PUSH2 0x865 JUMPI PUSH1 0x40 MSTORE JUMP JUMPDEST PUSH1 0x40 MLOAD SWAP1 PUSH1 0xA0 DUP3 ADD DUP3 DUP2 LT PUSH1 0x1 PUSH1 0x1 PUSH1 0x40 SHL SUB DUP3 GT OR PUSH2 0x865 JUMPI PUSH1 0x40 MSTORE JUMP JUMPDEST PUSH1 0x40 MLOAD SWAP1 PUSH2 0x5FE DUP3 PUSH2 0x84A JUMP JUMPDEST PUSH1 0x1 PUSH1 0x1 PUSH1 0x40 SHL SUB DUP2 GT PUSH2 0x865 JUMPI PUSH1 0x5 SHL PUSH1 0x20 ADD SWAP1 JUMP JUMPDEST SWAP1 DUP1 PUSH1 0x1F DUP4 ADD SLT ISZERO PUSH2 0x36E JUMPI PUSH1 0x20 SWAP1 DUP3 CALLDATALOAD PUSH2 0x95E DUP2 PUSH2 0x92D JUMP JUMPDEST SWAP4 PUSH2 0x96C PUSH1 0x40 MLOAD SWAP6 DUP7 PUSH2 0x8A0 JUMP JUMPDEST DUP2 DUP6 MSTORE PUSH1 0x20 DUP1 DUP7 ADD SWAP3 PUSH1 0x5 SHL DUP3 ADD ADD SWAP3 DUP4 GT PUSH2 0x36E JUMPI PUSH1 0x20 ADD SWAP1 JUMPDEST DUP3 DUP3 LT PUSH2 0x995 JUMPI POP POP POP POP SWAP1 JUMP JUMPDEST DUP2 CALLDATALOAD DUP2 MSTORE SWAP1 DUP4 ADD SWAP1 DUP4 ADD PUSH2 0x987 JUMP JUMPDEST PUSH1 0x20 DUP1 DUP3 ADD SWAP1 PUSH1 0x20 DUP4 MSTORE DUP4 MLOAD DUP1 SWAP3 MSTORE PUSH1 0x40 DUP4 ADD SWAP3 PUSH1 0x20 PUSH1 0x40 DUP5 PUSH1 0x5 SHL DUP4 ADD ADD SWAP6 ADD SWAP4 PUSH1 0x0 SWAP2 JUMPDEST DUP5 DUP4 LT PUSH2 0x9DA JUMPI POP POP POP POP POP POP SWAP1 JUMP JUMPDEST SWAP1 SWAP2 SWAP3 SWAP4 SWAP5 SWAP6 DUP5 DUP1 PUSH2 0x9F8 PUSH1 0x1 SWAP4 PUSH1 0x3F NOT DUP7 DUP3 SUB ADD DUP8 MSTORE DUP11 MLOAD PUSH2 0x7A7 JUMP JUMPDEST SWAP9 ADD SWAP4 ADD SWAP4 ADD SWAP2 SWAP5 SWAP4 SWAP3 SWAP1 PUSH2 0x9CA JUMP JUMPDEST CALLVALUE PUSH2 0x36E JUMPI PUSH1 0x40 CALLDATASIZE PUSH1 0x3 NOT ADD SLT PUSH2 0x36E JUMPI PUSH1 0x1 PUSH1 0x1 PUSH1 0x40 SHL SUB PUSH1 0x4 CALLDATALOAD DUP2 DUP2 GT PUSH2 0x36E JUMPI PUSH2 0xA39 SWAP1 CALLDATASIZE SWAP1 PUSH1 0x4 ADD PUSH2 0x944 JUMP JUMPDEST SWAP1 PUSH1 0x24 CALLDATALOAD SWAP1 DUP2 GT PUSH2 0x36E JUMPI PUSH2 0xA52 SWAP1 CALLDATASIZE SWAP1 PUSH1 0x4 ADD PUSH2 0x944 JUMP JUMPDEST SWAP1 DUP1 MLOAD DUP3 MLOAD SUB PUSH2 0xABF JUMPI PUSH2 0xA66 DUP2 MLOAD PUSH2 0x29C4 JUMP JUMPDEST SWAP2 PUSH1 0x0 JUMPDEST DUP3 MLOAD DUP2 LT ISZERO PUSH2 0xAB1 JUMPI DUP1 PUSH2 0xA95 PUSH2 0xA83 PUSH1 0x1 SWAP4 DUP7 PUSH2 0x2A24 JUMP JUMPDEST MLOAD PUSH2 0xA8E DUP4 DUP7 PUSH2 0x2A24 JUMP JUMPDEST MLOAD SWAP1 PUSH2 0x3925 JUMP JUMPDEST PUSH2 0xA9F DUP3 DUP8 PUSH2 0x2A24 JUMP JUMPDEST MSTORE PUSH2 0xAAA DUP2 DUP7 PUSH2 0x2A24 JUMP JUMPDEST POP ADD PUSH2 0xA6A JUMP JUMPDEST PUSH1 0x40 MLOAD DUP1 PUSH2 0x4B4 DUP7 DUP3 PUSH2 0x9A4 JUMP JUMPDEST PUSH1 0x40 MLOAD PUSH4 0x17D38EFF PUSH1 0xE1 SHL DUP2 MSTORE PUSH1 0x4 SWAP1 REVERT JUMPDEST CALLVALUE PUSH2 0x36E JUMPI PUSH1 0x20 CALLDATASIZE PUSH1 0x3 NOT ADD SLT PUSH2 0x36E JUMPI PUSH1 0x20 PUSH2 0xAEF PUSH1 0x4 CALLDATALOAD PUSH2 0x2A3D JUMP JUMPDEST PUSH1 0x40 MLOAD PUSH1 0x1 PUSH1 0x1 PUSH1 0xA0 SHL SUB SWAP1 SWAP2 AND DUP2 MSTORE RETURN JUMPDEST PUSH1 0x20 SWAP1 PUSH1 0x20 PUSH1 0x40 DUP2 DUP4 ADD SWAP3 DUP3 DUP2 MSTORE DUP6 MLOAD DUP1 SWAP5 MSTORE ADD SWAP4 ADD SWAP2 PUSH1 0x0 JUMPDEST DUP3 DUP2 LT PUSH2 0xB29 JUMPI POP POP POP POP SWAP1 JUMP JUMPDEST DUP4 MLOAD DUP6 MSTORE SWAP4 DUP2 ADD SWAP4 SWAP3 DUP2 ADD SWAP3 PUSH1 0x1 ADD PUSH2 0xB1B JUMP JUMPDEST CALLVALUE PUSH2 0x36E JUMPI PUSH1 0x20 DUP1 PUSH1 0x3 NOT CALLDATASIZE ADD SLT PUSH2 0x36E JUMPI PUSH1 0x4 CALLDATALOAD PUSH1 0x0 MSTORE PUSH1 0xB PUSH1 0x20 MSTORE PUSH1 0x40 PUSH1 0x0 KECCAK256 SWAP1 PUSH1 0x40 MLOAD SWAP1 DUP2 PUSH1 0x20 DUP5 SLOAD SWAP2 DUP3 DUP2 MSTORE ADD SWAP4 PUSH1 0x0 MSTORE PUSH1 0x20 PUSH1 0x0 KECCAK256 SWAP2 PUSH1 0x0 SWAP1 JUMPDEST DUP3 DUP3 LT PUSH2 0xB9F JUMPI PUSH2 0x4B4 DUP6 PUSH2 0xB93 DUP2 DUP10 SUB DUP3 PUSH2 0x8A0 JUMP JUMPDEST PUSH1 0x40 MLOAD SWAP2 DUP3 SWAP2 DUP3 PUSH2 0xB01 JUMP JUMPDEST DUP4 SLOAD DUP7 MSTORE SWAP5 DUP6 ADD SWAP5 PUSH1 0x1 SWAP4 DUP5 ADD SWAP4 SWAP1 SWAP2 ADD SWAP1 PUSH2 0xB7C JUMP JUMPDEST CALLVALUE PUSH2 0x36E JUMPI PUSH1 0x40 CALLDATASIZE PUSH1 0x3 NOT ADD SLT PUSH2 0x36E JUMPI PUSH1 0x20 PUSH2 0xBDD PUSH2 0xBD4 PUSH2 0x358 JUMP JUMPDEST PUSH1 0x24 CALLDATALOAD SWAP1 PUSH2 0x3955 JUMP JUMPDEST PUSH1 0x40 MLOAD SWAP1 ISZERO ISZERO DUP2 MSTORE RETURN JUMPDEST CALLVALUE PUSH2 0x36E JUMPI PUSH1 0x0 CALLDATASIZE PUSH1 0x3 NOT ADD SLT PUSH2 0x36E JUMPI PUSH1 0x20 PUSH1 0x9 SLOAD PUSH1 0x40 MLOAD SWAP1 DUP2 MSTORE RETURN JUMPDEST CALLVALUE PUSH2 0x36E JUMPI PUSH1 0x0 CALLDATASIZE PUSH1 0x3 NOT ADD SLT PUSH2 0x36E JUMPI PUSH1 0x20 PUSH1 0x40 MLOAD PUSH1 0x0 DUP1 MLOAD PUSH1 0x20 PUSH2 0x51EF DUP4 CODECOPY DUP2 MLOAD SWAP2 MSTORE DUP2 MSTORE RETURN JUMPDEST CALLVALUE PUSH2 0x36E JUMPI PUSH1 0x20 CALLDATASIZE PUSH1 0x3 NOT ADD SLT PUSH2 0x36E JUMPI PUSH1 0x4 CALLDATALOAD PUSH1 0x0 SWAP1 DUP1 DUP3 MSTORE PUSH1 0x7 PUSH1 0x20 MSTORE PUSH1 0xFF PUSH1 0x40 DUP4 KECCAK256 SLOAD AND ISZERO PUSH2 0x772 JUMPI PUSH2 0xC6E DUP2 PUSH1 0x0 MSTORE PUSH1 0x8 PUSH1 0x20 MSTORE PUSH1 0x40 PUSH1 0x0 KECCAK256 SWAP1 JUMP JUMPDEST DUP1 SLOAD PUSH1 0xFF DUP2 PUSH1 0xE0 SHR AND PUSH2 0xD08 JUMPI CALLER PUSH1 0x1 PUSH1 0x1 PUSH1 0xA0 SHL SUB SWAP1 SWAP2 AND SUB PUSH2 0xCF6 JUMPI DUP1 SLOAD PUSH1 0xFF PUSH1 0xE0 SHL NOT AND PUSH1 0x1 PUSH1 0xE0 SHL OR SWAP1 SSTORE PUSH2 0xCCD PUSH1 0x40 MLOAD PUSH2 0xCC7 DUP2 PUSH2 0xCB9 PUSH1 0x20 DUP3 ADD SWAP1 PUSH1 0x1 PUSH1 0x20 DUP4 ADD SWAP3 MSTORE JUMP JUMPDEST SUB PUSH1 0x1F NOT DUP2 ADD DUP4 MSTORE DUP3 PUSH2 0x8A0 JUMP JUMPDEST DUP3 PUSH2 0x3ACC JUMP JUMPDEST CALLER SWAP1 PUSH32 0x6FEE831D841E6FFB21192DDCAF3C97100890EB9DDC88E5A56EF875B936DE899 DUP4 DUP1 LOG3 DUP1 RETURN JUMPDEST PUSH1 0x40 MLOAD PUSH4 0x1C42CDD5 PUSH1 0xE0 SHL DUP2 MSTORE PUSH1 0x4 SWAP1 REVERT JUMPDEST PUSH1 0x40 MLOAD PUSH4 0x3E181F17 PUSH1 0xE2 SHL DUP2 MSTORE PUSH1 0x4 SWAP1 REVERT JUMPDEST PUSH1 0x1 PUSH1 0x1 PUSH1 0x40 SHL SUB DUP2 GT PUSH2 0x865 JUMPI PUSH1 0x1F ADD PUSH1 0x1F NOT AND PUSH1 0x20 ADD SWAP1 JUMP JUMPDEST SWAP3 SWAP2 SWAP3 PUSH2 0xD41 DUP3 PUSH2 0xD1A JUMP JUMPDEST SWAP2 PUSH2 0xD4F PUSH1 0x40 MLOAD SWAP4 DUP5 PUSH2 0x8A0 JUMP JUMPDEST DUP3 SWAP5 DUP2 DUP5 MSTORE DUP2 DUP4 ADD GT PUSH2 0x36E JUMPI DUP3 DUP2 PUSH1 0x20 SWAP4 DUP5 PUSH1 0x0 SWAP7 ADD CALLDATACOPY ADD ADD MSTORE JUMP JUMPDEST CALLVALUE PUSH2 0x36E JUMPI PUSH1 0x20 CALLDATASIZE PUSH1 0x3 NOT ADD SLT PUSH2 0x36E JUMPI PUSH1 0x4 CALLDATALOAD PUSH1 0x1 PUSH1 0x1 PUSH1 0x40 SHL SUB DUP2 GT PUSH2 0x36E JUMPI CALLDATASIZE PUSH1 0x23 DUP3 ADD SLT ISZERO PUSH2 0x36E JUMPI PUSH2 0xDB7 PUSH2 0xDB2 PUSH1 0x20 SWAP3 CALLDATASIZE SWAP1 PUSH1 0x24 DUP2 PUSH1 0x4 ADD CALLDATALOAD SWAP2 ADD PUSH2 0xD35 JUMP JUMPDEST PUSH2 0x2A60 JUMP JUMPDEST PUSH1 0x40 MLOAD SWAP1 DUP2 MSTORE RETURN JUMPDEST CALLVALUE PUSH2 0x36E JUMPI PUSH1 0x20 CALLDATASIZE PUSH1 0x3 NOT ADD SLT PUSH2 0x36E JUMPI PUSH2 0xDD8 PUSH2 0x358 JUMP JUMPDEST PUSH2 0xDE0 PUSH2 0x3712 JUMP JUMPDEST PUSH1 0x1 PUSH1 0x1 PUSH1 0xA0 SHL SUB AND DUP1 ISZERO PUSH2 0x3F7 JUMPI PUSH1 0x0 DUP2 DUP2 MSTORE PUSH1 0x6 PUSH1 0x20 MSTORE PUSH1 0x40 DUP2 KECCAK256 DUP1 SLOAD PUSH1 0xFF NOT AND PUSH1 0x1 OR SWAP1 SSTORE SWAP1 PUSH32 0x8B4006CA14F23D4E7AA8D120D1AB7C3761D650EEFAC1A5D6732DBEA94B54EA24 DUP3 DUP1 LOG2 DUP1 RETURN JUMPDEST PUSH1 0x20 SWAP1 PUSH1 0x20 PUSH1 0x40 DUP2 DUP4 ADD SWAP3 DUP3 DUP2 MSTORE DUP6 MLOAD DUP1 SWAP5 MSTORE ADD SWAP4 ADD SWAP2 PUSH1 0x0 JUMPDEST DUP3 DUP2 LT PUSH2 0xE58 JUMPI POP POP POP POP SWAP1 JUMP JUMPDEST DUP4 MLOAD PUSH1 0x1 PUSH1 0x1 PUSH1 0xA0 SHL SUB AND DUP6 MSTORE SWAP4 DUP2 ADD SWAP4 SWAP3 DUP2 ADD SWAP3 PUSH1 0x1 ADD PUSH2 0xE4A JUMP JUMPDEST CALLVALUE PUSH2 0x36E JUMPI PUSH1 0x20 DUP1 PUSH1 0x3 NOT CALLDATASIZE ADD SLT PUSH2 0x36E JUMPI PUSH1 0x4 CALLDATALOAD PUSH2 0xE93 DUP2 PUSH2 0x4AD4 JUMP JUMPDEST ISZERO PUSH2 0xEFC JUMPI PUSH1 0x0 MSTORE PUSH1 0x5 PUSH1 0x20 MSTORE PUSH1 0x40 PUSH1 0x0 KECCAK256 SWAP1 PUSH1 0x40 MLOAD SWAP1 DUP2 PUSH1 0x20 DUP5 SLOAD SWAP2 DUP3 DUP2 MSTORE ADD SWAP4 PUSH1 0x0 MSTORE PUSH1 0x20 PUSH1 0x0 KECCAK256 SWAP2 PUSH1 0x0 SWAP1 JUMPDEST DUP3 DUP3 LT PUSH2 0xEE5 JUMPI PUSH2 0x4B4 DUP6 PUSH2 0xED9 DUP2 DUP10 SUB DUP3 PUSH2 0x8A0 JUMP JUMPDEST PUSH1 0x40 MLOAD SWAP2 DUP3 SWAP2 DUP3 PUSH2 0xE30 JUMP JUMPDEST DUP4 SLOAD DUP7 MSTORE SWAP5 DUP6 ADD SWAP5 PUSH1 0x1 SWAP4 DUP5 ADD SWAP4 SWAP1 SWAP2 ADD SWAP1 PUSH2 0xEC2 JUMP JUMPDEST PUSH1 0x24 SWAP1 PUSH1 0x40 MLOAD SWAP1 PUSH4 0x5747CD1B PUSH1 0xE1 SHL DUP3 MSTORE PUSH1 0x4 DUP3 ADD MSTORE REVERT JUMPDEST CALLVALUE PUSH2 0x36E JUMPI PUSH1 0x20 CALLDATASIZE PUSH1 0x3 NOT ADD SLT PUSH2 0x36E JUMPI PUSH1 0x20 PUSH2 0xBDD PUSH1 0x4 CALLDATALOAD PUSH2 0x2B72 JUMP JUMPDEST PUSH1 0x44 CALLDATALOAD SWAP1 DUP2 ISZERO ISZERO DUP3 SUB PUSH2 0x36E JUMPI JUMP JUMPDEST SWAP1 DUP1 PUSH1 0x1F DUP4 ADD SLT ISZERO PUSH2 0x36E JUMPI DUP2 PUSH1 0x20 PUSH2 0x7DD SWAP4 CALLDATALOAD SWAP2 ADD PUSH2 0xD35 JUMP JUMPDEST CALLVALUE PUSH2 0x36E JUMPI PUSH1 0xA0 CALLDATASIZE PUSH1 0x3 NOT ADD SLT PUSH2 0x36E JUMPI PUSH2 0xF75 PUSH2 0x358 JUMP JUMPDEST PUSH2 0xF7D PUSH2 0x373 JUMP JUMPDEST PUSH1 0x64 CALLDATALOAD DUP1 ISZERO ISZERO DUP2 SUB PUSH2 0x36E JUMPI PUSH1 0x84 CALLDATALOAD SWAP3 PUSH1 0x1 PUSH1 0x1 PUSH1 0x40 SHL SUB DUP5 GT PUSH2 0x36E JUMPI PUSH2 0xFAC PUSH2 0xFB6 SWAP5 CALLDATASIZE SWAP1 PUSH1 0x4 ADD PUSH2 0xF41 JUMP JUMPDEST SWAP3 PUSH1 0x44 CALLDATALOAD SWAP2 PUSH2 0x2CA2 JUMP JUMPDEST STOP JUMPDEST SWAP4 PUSH1 0x80 SWAP4 PUSH2 0xFD9 PUSH1 0x1 PUSH1 0x1 PUSH1 0x40 SHL SUB SWAP5 SWAP9 SWAP8 SWAP4 PUSH1 0xA0 DUP9 MSTORE PUSH1 0xA0 DUP9 ADD SWAP1 PUSH2 0x7A7 JUMP JUMPDEST PUSH1 0x20 DUP8 ADD SWAP9 SWAP1 SWAP9 MSTORE ISZERO ISZERO PUSH1 0x40 DUP7 ADD MSTORE PUSH1 0x1 PUSH1 0x1 PUSH1 0xA0 SHL SUB AND PUSH1 0x60 DUP6 ADD MSTORE AND SWAP2 ADD MSTORE JUMP JUMPDEST CALLVALUE PUSH2 0x36E JUMPI PUSH1 0x20 DUP1 PUSH1 0x3 NOT CALLDATASIZE ADD SLT PUSH2 0x36E JUMPI PUSH1 0x4 CALLDATALOAD SWAP1 PUSH2 0x101B DUP3 PUSH2 0x38AD JUMP JUMPDEST SWAP1 PUSH2 0x1025 DUP4 PUSH2 0x38FA JUMP JUMPDEST SWAP2 DUP1 MLOAD PUSH1 0x0 SWAP1 DUP1 ISZERO PUSH1 0x0 EQ PUSH2 0x10D4 JUMPI POP POP POP PUSH2 0x4B4 SWAP1 PUSH2 0x1043 PUSH2 0x2E63 JUMP JUMPDEST SWAP3 JUMPDEST DUP2 DUP2 MLOAD DUP1 ISZERO PUSH1 0x0 EQ PUSH2 0x10AC JUMPI POP POP POP PUSH2 0x1072 PUSH2 0x106D PUSH1 0x0 SWAP6 PUSH1 0x0 MSTORE PUSH1 0x8 PUSH1 0x20 MSTORE PUSH1 0x40 PUSH1 0x0 KECCAK256 SWAP1 JUMP JUMPDEST PUSH2 0x2E85 JUMP JUMPDEST PUSH2 0x109F PUSH2 0x1082 PUSH1 0x40 DUP4 ADD MLOAD ISZERO ISZERO SWAP1 JUMP JUMPDEST DUP3 MLOAD SWAP1 SWAP4 SWAP1 PUSH1 0x1 PUSH1 0x1 PUSH1 0xA0 SHL SUB AND SWAP3 ADD MLOAD PUSH1 0x1 PUSH1 0x1 PUSH1 0x40 SHL SUB AND SWAP1 JUMP JUMPDEST SWAP2 PUSH1 0x40 MLOAD SWAP6 DUP7 SWAP6 DUP7 PUSH2 0xFB8 JUMP JUMPDEST DUP3 DUP3 PUSH2 0x106D SWAP4 PUSH2 0x10C3 SWAP4 PUSH2 0x1072 SWAP7 ADD ADD SWAP2 ADD PUSH2 0x2E76 JUMP JUMPDEST SWAP6 PUSH1 0x0 MSTORE PUSH1 0x8 PUSH1 0x20 MSTORE PUSH1 0x40 PUSH1 0x0 KECCAK256 SWAP1 JUMP JUMPDEST DUP3 ADD SWAP2 DUP4 DUP2 DUP2 DUP6 ADD SWAP5 SUB SLT PUSH2 0x1127 JUMPI DUP4 DUP2 ADD MLOAD SWAP1 PUSH1 0x1 PUSH1 0x1 PUSH1 0x40 SHL SUB DUP3 GT PUSH2 0x1123 JUMPI ADD SWAP1 DUP3 PUSH1 0x3F DUP4 ADD SLT ISZERO PUSH2 0x1120 JUMPI POP DUP3 SWAP2 DUP2 PUSH1 0x40 PUSH2 0x4B4 SWAP6 PUSH2 0x111A SWAP5 ADD MLOAD SWAP2 ADD PUSH2 0x2E2E JUMP JUMPDEST SWAP3 PUSH2 0x1045 JUMP JUMPDEST DUP1 REVERT JUMPDEST DUP3 DUP1 REVERT JUMPDEST POP DUP1 REVERT JUMPDEST CALLVALUE PUSH2 0x36E JUMPI PUSH1 0x20 CALLDATASIZE PUSH1 0x3 NOT ADD SLT PUSH2 0x36E JUMPI PUSH2 0x4B4 PUSH2 0x802 PUSH1 0x4 CALLDATALOAD PUSH2 0x2ECD JUMP JUMPDEST CALLVALUE PUSH2 0x36E JUMPI PUSH1 0x0 CALLDATASIZE PUSH1 0x3 NOT ADD SLT PUSH2 0x36E JUMPI PUSH1 0x20 PUSH1 0x40 MLOAD PUSH1 0x0 DUP1 MLOAD PUSH1 0x20 PUSH2 0x522F DUP4 CODECOPY DUP2 MLOAD SWAP2 MSTORE DUP2 MSTORE RETURN JUMPDEST CALLVALUE PUSH2 0x36E JUMPI PUSH1 0x20 CALLDATASIZE PUSH1 0x3 NOT ADD SLT PUSH2 0x36E JUMPI PUSH1 0x4 CALLDATALOAD PUSH2 0x119B DUP2 PUSH1 0x0 MSTORE PUSH1 0xA PUSH1 0x20 MSTORE PUSH1 0x40 PUSH1 0x0 KECCAK256 SWAP1 JUMP JUMPDEST PUSH1 0x1 DUP2 ADD SLOAD ISZERO PUSH2 0x1231 JUMPI PUSH1 0x2 DUP2 ADD SWAP1 PUSH2 0x11B4 DUP3 SLOAD PUSH2 0x2A3D JUMP JUMPDEST CALLER PUSH1 0x1 PUSH1 0x1 PUSH1 0xA0 SHL SUB SWAP1 SWAP2 AND SUB PUSH2 0x121F JUMPI PUSH2 0x11D7 PUSH2 0x11D3 DUP3 SLOAD PUSH1 0xFF AND SWAP1 JUMP JUMPDEST ISZERO SWAP1 JUMP JUMPDEST PUSH2 0x120D JUMPI DUP1 SLOAD PUSH1 0xFF NOT AND SWAP1 SSTORE SLOAD CALLER SWAP2 PUSH32 0xA5E591F0C7A2373156E02A51536CA76339BF6592F17CC08F23EBB2FFF551751C PUSH1 0x0 DUP1 LOG4 STOP JUMPDEST PUSH1 0x40 MLOAD PUSH4 0xEE55C701 PUSH1 0xE0 SHL DUP2 MSTORE PUSH1 0x4 SWAP1 REVERT JUMPDEST PUSH1 0x40 MLOAD PUSH4 0x59DC379F PUSH1 0xE0 SHL DUP2 MSTORE PUSH1 0x4 SWAP1 REVERT JUMPDEST PUSH1 0x40 MLOAD PUSH4 0x33DF5F99 PUSH1 0xE1 SHL DUP2 MSTORE PUSH1 0x4 SWAP1 REVERT JUMPDEST CALLVALUE PUSH2 0x36E JUMPI PUSH1 0x20 CALLDATASIZE PUSH1 0x3 NOT ADD SLT PUSH2 0x36E JUMPI PUSH1 0x1 PUSH1 0x1 PUSH1 0x40 SHL SUB PUSH1 0x4 CALLDATALOAD DUP2 DUP2 GT PUSH2 0x36E JUMPI CALLDATASIZE PUSH1 0x23 DUP3 ADD SLT ISZERO PUSH2 0x36E JUMPI DUP1 PUSH1 0x4 ADD CALLDATALOAD SWAP2 DUP3 GT PUSH2 0x36E JUMPI CALLDATASIZE PUSH1 0x24 DUP4 PUSH1 0x5 SHL DUP4 ADD ADD GT PUSH2 0x36E JUMPI PUSH2 0x4B4 SWAP2 PUSH1 0x24 PUSH2 0x129C SWAP3 ADD PUSH2 0x2F7E JUMP JUMPDEST PUSH1 0x40 MLOAD SWAP2 DUP3 SWAP2 DUP3 PUSH2 0x9A4 JUMP JUMPDEST CALLVALUE PUSH2 0x36E JUMPI PUSH1 0x20 CALLDATASIZE PUSH1 0x3 NOT ADD SLT PUSH2 0x36E JUMPI PUSH1 0x1 PUSH1 0x1 PUSH1 0xA0 SHL SUB PUSH2 0x12C9 PUSH2 0x358 JUMP JUMPDEST AND PUSH1 0x0 MSTORE PUSH1 0x4 PUSH1 0x20 MSTORE PUSH1 0x20 PUSH1 0x40 PUSH1 0x0 KECCAK256 SLOAD PUSH1 0x40 MLOAD SWAP1 DUP2 MSTORE RETURN JUMPDEST CALLVALUE PUSH2 0x36E JUMPI PUSH1 0x0 DUP1 PUSH1 0x3 NOT CALLDATASIZE ADD SLT PUSH2 0x1120 JUMPI PUSH2 0x12FC PUSH2 0x3712 JUMP JUMPDEST DUP1 SLOAD PUSH1 0x1 PUSH1 0x1 PUSH1 0xA0 SHL SUB NOT DUP2 AND DUP3 SSTORE DUP2 SWAP1 PUSH1 0x1 PUSH1 0x1 PUSH1 0xA0 SHL SUB AND PUSH32 0x8BE0079C531659141344CD1FD0A4F28419497F9722A3DAAFE3B4186F6B6457E0 DUP3 DUP1 LOG3 DUP1 RETURN JUMPDEST PUSH1 0x1 PUSH1 0x1 PUSH1 0x40 SHL SUB DUP2 AND SUB PUSH2 0x36E JUMPI JUMP JUMPDEST CALLVALUE PUSH2 0x36E JUMPI PUSH1 0xC0 CALLDATASIZE PUSH1 0x3 NOT ADD SLT PUSH2 0x36E JUMPI PUSH1 0x4 DUP1 CALLDATALOAD SWAP1 PUSH2 0x136C PUSH2 0x373 JUMP JUMPDEST SWAP2 PUSH1 0x44 CALLDATALOAD PUSH1 0x9 DUP2 LT ISZERO PUSH2 0x36E JUMPI PUSH1 0x64 CALLDATALOAD PUSH1 0x2 DUP2 LT ISZERO PUSH2 0x36E JUMPI PUSH1 0x84 CALLDATALOAD SWAP2 PUSH2 0x1392 DUP4 PUSH2 0x133D JUMP JUMPDEST PUSH1 0xA4 CALLDATALOAD SWAP3 PUSH2 0x139F DUP5 PUSH2 0x133D JUMP JUMPDEST DUP5 PUSH1 0x0 MSTORE PUSH1 0x7 PUSH1 0x20 MSTORE PUSH1 0x40 SWAP6 PUSH1 0xFF DUP8 PUSH1 0x0 KECCAK256 SLOAD AND ISZERO PUSH2 0x1587 JUMPI PUSH2 0x13C1 DUP7 PUSH2 0x2A3D JUMP JUMPDEST PUSH1 0x1 PUSH1 0x1 PUSH1 0xA0 SHL SUB SWAP1 CALLER SWAP1 DUP3 AND SUB PUSH2 0x1578 JUMPI DUP9 AND ISZERO PUSH2 0x156A JUMPI PUSH1 0x1 PUSH1 0x1 PUSH1 0x40 SHL SUB DUP1 DUP7 AND DUP1 ISZERO ISZERO SWAP2 DUP3 PUSH2 0x155E JUMPI JUMPDEST POP POP PUSH2 0x1550 JUMPI PUSH2 0x13FE DUP4 PUSH2 0x526 JUMP JUMPDEST PUSH1 0x8 DUP4 EQ PUSH2 0x1542 JUMPI PUSH2 0x4B4 PUSH2 0x14D0 DUP9 DUP11 DUP10 DUP10 PUSH32 0x678BBD520571967A4D735B038CC5CE8F971A4D6BC165E9D619DFB05166896814 DUP11 DUP11 PUSH2 0x14EF DUP8 DUP13 PUSH1 0x9 SLOAD SWAP11 DUP12 SWAP8 PUSH2 0x144F PUSH2 0x144A DUP11 PUSH2 0x3032 JUMP JUMPDEST PUSH1 0x9 SSTORE JUMP JUMPDEST PUSH2 0x14BF PUSH2 0x1466 DUP12 PUSH1 0x0 MSTORE PUSH1 0xF PUSH1 0x20 MSTORE PUSH1 0x40 PUSH1 0x0 KECCAK256 SWAP1 JUMP JUMPDEST SLOAD SWAP4 DUP12 PUSH2 0x1471 PUSH2 0x8C1 JUMP JUMPDEST PUSH1 0x1 DUP2 MSTORE SWAP7 PUSH1 0x20 DUP9 ADD DUP14 SWAP1 MSTORE DUP8 ADD MSTORE CALLER PUSH1 0x60 DUP8 ADD MSTORE PUSH1 0x1 PUSH1 0x1 PUSH1 0xA0 SHL SUB DUP14 AND PUSH1 0x80 DUP8 ADD MSTORE PUSH2 0x14A2 DUP9 PUSH1 0xA0 DUP9 ADD PUSH2 0x277A JUMP JUMPDEST PUSH2 0x14AF DUP10 PUSH1 0xC0 DUP9 ADD PUSH2 0x2A90 JUMP JUMPDEST PUSH1 0x1 PUSH1 0x1 PUSH1 0x40 SHL SUB AND PUSH1 0xE0 DUP7 ADD MSTORE JUMP JUMPDEST PUSH1 0x1 PUSH1 0x1 PUSH1 0x40 SHL SUB AND PUSH2 0x100 DUP5 ADD MSTORE JUMP JUMPDEST PUSH2 0x120 DUP3 ADD MSTORE PUSH2 0x14EA DUP7 PUSH1 0x0 MSTORE PUSH1 0xA PUSH1 0x20 MSTORE PUSH1 0x40 PUSH1 0x0 KECCAK256 SWAP1 JUMP JUMPDEST PUSH2 0x30F3 JUMP JUMPDEST PUSH2 0x150C DUP5 PUSH2 0x1507 DUP8 PUSH1 0x0 MSTORE PUSH1 0xB PUSH1 0x20 MSTORE PUSH1 0x40 PUSH1 0x0 KECCAK256 SWAP1 JUMP JUMPDEST PUSH2 0x3205 JUMP JUMPDEST PUSH2 0x1531 PUSH2 0x1523 DUP7 PUSH1 0x0 MSTORE PUSH1 0xF PUSH1 0x20 MSTORE PUSH1 0x40 PUSH1 0x0 KECCAK256 SWAP1 JUMP JUMPDEST SLOAD DUP9 MLOAD SWAP4 DUP5 SWAP4 CALLER SWAP10 DUP6 PUSH2 0x323E JUMP JUMPDEST SUB SWAP1 LOG4 MLOAD SWAP1 DUP2 MSTORE SWAP1 DUP2 SWAP1 PUSH1 0x20 DUP3 ADD SWAP1 JUMP JUMPDEST DUP7 MLOAD PUSH4 0x53679D3 PUSH1 0xE1 SHL DUP2 MSTORE REVERT JUMPDEST DUP7 MLOAD PUSH4 0x4FD87E9 PUSH1 0xE3 SHL DUP2 MSTORE REVERT JUMPDEST DUP5 AND GT SWAP1 POP CODESIZE DUP1 PUSH2 0x13EF JUMP JUMPDEST DUP7 MLOAD PUSH4 0xCCEA9E6F PUSH1 0xE0 SHL DUP2 MSTORE REVERT JUMPDEST POP DUP7 MLOAD PUSH4 0x59DC379F PUSH1 0xE0 SHL DUP2 MSTORE REVERT JUMPDEST DUP7 MLOAD PUSH4 0x4DED8EA5 PUSH1 0xE0 SHL DUP2 MSTORE REVERT JUMPDEST PUSH1 0x2 GT ISZERO PUSH2 0x530 JUMPI JUMP JUMPDEST SWAP1 PUSH1 0x2 DUP3 LT ISZERO PUSH2 0x530 JUMPI MSTORE JUMP JUMPDEST SWAP7 SWAP3 SWAP4 PUSH2 0x120 SWAP9 SWAP7 SWAP2 SWAP12 SWAP11 SWAP10 SWAP6 PUSH2 0x15FE SWAP6 PUSH2 0x15F4 SWAP5 PUSH2 0x140 DUP12 ADD SWAP15 ISZERO ISZERO DUP12 MSTORE PUSH1 0x20 DUP12 ADD MSTORE PUSH1 0x40 DUP11 ADD MSTORE PUSH1 0x1 DUP1 PUSH1 0xA0 SHL SUB DUP1 SWAP3 AND PUSH1 0x60 DUP11 ADD MSTORE AND PUSH1 0x80 DUP9 ADD MSTORE PUSH1 0xA0 DUP8 ADD SWAP1 PUSH2 0x535 JUMP JUMPDEST PUSH1 0xC0 DUP6 ADD SWAP1 PUSH2 0x159F JUMP JUMPDEST PUSH1 0x1 PUSH1 0x1 PUSH1 0x40 SHL SUB DUP1 SWAP3 AND PUSH1 0xE0 DUP5 ADD MSTORE AND PUSH2 0x100 DUP3 ADD MSTORE ADD MSTORE JUMP JUMPDEST CALLVALUE PUSH2 0x36E JUMPI PUSH1 0x20 CALLDATASIZE PUSH1 0x3 NOT ADD SLT PUSH2 0x36E JUMPI PUSH1 0x4 CALLDATALOAD PUSH1 0x0 MSTORE PUSH1 0xA PUSH1 0x20 MSTORE PUSH1 0x40 PUSH1 0x0 KECCAK256 PUSH2 0x1642 PUSH2 0x8C1 JUMP JUMPDEST SWAP1 DUP1 SLOAD PUSH2 0x164F SWAP1 PUSH1 0xFF AND SWAP1 JUMP JUMPDEST ISZERO ISZERO DUP3 MSTORE PUSH1 0x1 DUP2 ADD SLOAD PUSH1 0x20 DUP4 ADD SWAP1 DUP2 MSTORE PUSH1 0x2 DUP3 ADD SLOAD PUSH1 0x40 DUP5 ADD SWAP1 DUP2 MSTORE PUSH1 0x3 DUP4 ADD SLOAD SWAP1 SWAP3 SWAP1 PUSH1 0x1 PUSH1 0x1 PUSH1 0xA0 SHL SUB AND PUSH1 0x1 PUSH1 0x1 PUSH1 0xA0 SHL SUB AND PUSH1 0x60 DUP6 ADD SWAP1 DUP2 MSTORE SWAP4 PUSH1 0x4 DUP3 ADD SLOAD PUSH1 0x1 PUSH1 0x1 PUSH1 0xA0 SHL SUB DUP2 AND PUSH1 0x80 DUP4 ADD SWAP1 DUP2 MSTORE SWAP3 SWAP1 PUSH1 0xA0 DUP4 ADD DUP2 PUSH1 0xA0 SHR PUSH1 0xFF AND PUSH2 0x16BA SWAP1 DUP3 PUSH2 0x277A JUMP JUMPDEST PUSH1 0xC0 DUP5 ADD SWAP1 DUP3 PUSH1 0xA8 SHR PUSH1 0xFF AND PUSH2 0x16D0 SWAP1 DUP4 PUSH2 0x2A90 JUMP JUMPDEST PUSH1 0xE0 DUP6 ADD SWAP3 PUSH1 0xB0 SHR PUSH1 0x1 PUSH1 0x1 PUSH1 0x40 SHL SUB AND PUSH2 0x16F4 SWAP1 DUP5 SWAP1 PUSH1 0x1 PUSH1 0x1 PUSH1 0x40 SHL SUB AND SWAP1 MSTORE JUMP JUMPDEST PUSH1 0x5 DUP5 ADD SLOAD PUSH1 0x1 PUSH1 0x1 PUSH1 0x40 SHL SUB AND PUSH1 0x1 PUSH1 0x1 PUSH1 0x40 SHL SUB AND PUSH2 0x100 DUP7 ADD SWAP1 DUP2 MSTORE SWAP4 PUSH1 0x6 ADD SLOAD PUSH2 0x120 DUP7 ADD SWAP1 DUP2 MSTORE SWAP5 MLOAD ISZERO ISZERO SWAP7 MLOAD SWAP8 MLOAD SWAP9 MLOAD PUSH1 0x1 PUSH1 0x1 PUSH1 0xA0 SHL SUB AND SWAP6 MLOAD PUSH1 0x1 PUSH1 0x1 PUSH1 0xA0 SHL SUB AND SWAP1 MLOAD SWAP2 PUSH2 0x174A DUP4 PUSH2 0x526 JUMP JUMPDEST MLOAD SWAP3 PUSH2 0x1755 DUP5 PUSH2 0x1595 JUMP JUMPDEST MLOAD PUSH1 0x1 PUSH1 0x1 PUSH1 0x40 SHL SUB AND SWAP4 MLOAD PUSH1 0x1 PUSH1 0x1 PUSH1 0x40 SHL SUB AND SWAP5 MLOAD SWAP6 PUSH1 0x40 MLOAD SWAP10 DUP11 SWAP10 PUSH2 0x4B4 SWAP10 DUP12 PUSH2 0x15AC JUMP JUMPDEST SWAP2 DUP2 PUSH1 0x1F DUP5 ADD SLT ISZERO PUSH2 0x36E JUMPI DUP3 CALLDATALOAD SWAP2 PUSH1 0x1 PUSH1 0x1 PUSH1 0x40 SHL SUB DUP4 GT PUSH2 0x36E JUMPI PUSH1 0x20 DUP4 DUP2 DUP7 ADD SWAP6 ADD ADD GT PUSH2 0x36E JUMPI JUMP JUMPDEST CALLVALUE PUSH2 0x36E JUMPI PUSH1 0x80 CALLDATASIZE PUSH1 0x3 NOT ADD SLT PUSH2 0x36E JUMPI PUSH2 0x17C3 PUSH2 0x373 JUMP JUMPDEST PUSH1 0x44 CALLDATALOAD PUSH1 0x1 PUSH1 0x1 PUSH1 0x40 SHL SUB DUP2 GT PUSH2 0x36E JUMPI PUSH1 0x20 SWAP2 PUSH2 0x17E8 PUSH2 0xDB7 SWAP3 CALLDATASIZE SWAP1 PUSH1 0x4 ADD PUSH2 0x177D JUMP JUMPDEST SWAP1 PUSH1 0x64 CALLDATALOAD SWAP3 PUSH1 0x4 CALLDATALOAD PUSH2 0x3276 JUMP JUMPDEST SWAP1 DUP1 PUSH1 0x1F DUP4 ADD SLT ISZERO PUSH2 0x36E JUMPI PUSH1 0x20 SWAP1 DUP3 CALLDATALOAD PUSH2 0x180F DUP2 PUSH2 0x92D JUMP JUMPDEST SWAP4 PUSH2 0x181D PUSH1 0x40 MLOAD SWAP6 DUP7 PUSH2 0x8A0 JUMP JUMPDEST DUP2 DUP6 MSTORE PUSH1 0x20 DUP1 DUP7 ADD SWAP3 PUSH1 0x5 SHL DUP3 ADD ADD SWAP3 DUP4 GT PUSH2 0x36E JUMPI PUSH1 0x20 ADD SWAP1 JUMPDEST DUP3 DUP3 LT PUSH2 0x1846 JUMPI POP POP POP POP SWAP1 JUMP JUMPDEST DUP2 CALLDATALOAD PUSH1 0x1 PUSH1 0x1 PUSH1 0xA0 SHL SUB DUP2 AND DUP2 SUB PUSH2 0x36E JUMPI DUP2 MSTORE SWAP1 DUP4 ADD SWAP1 DUP4 ADD PUSH2 0x1838 JUMP JUMPDEST SWAP1 DUP1 PUSH1 0x1F DUP4 ADD SLT ISZERO PUSH2 0x36E JUMPI PUSH1 0x20 SWAP1 DUP3 CALLDATALOAD PUSH2 0x187F DUP2 PUSH2 0x92D JUMP JUMPDEST SWAP4 PUSH2 0x188D PUSH1 0x40 MLOAD SWAP6 DUP7 PUSH2 0x8A0 JUMP JUMPDEST DUP2 DUP6 MSTORE PUSH1 0x20 DUP1 DUP7 ADD SWAP3 PUSH1 0x5 SHL DUP3 ADD ADD SWAP3 DUP4 GT PUSH2 0x36E JUMPI PUSH1 0x20 ADD SWAP1 JUMPDEST DUP3 DUP3 LT PUSH2 0x18B6 JUMPI POP POP POP POP SWAP1 JUMP JUMPDEST DUP2 CALLDATALOAD DUP1 ISZERO ISZERO DUP2 SUB PUSH2 0x36E JUMPI DUP2 MSTORE SWAP1 DUP4 ADD SWAP1 DUP4 ADD PUSH2 0x18A8 JUMP JUMPDEST DUP2 PUSH1 0x1F DUP3 ADD SLT ISZERO PUSH2 0x36E JUMPI DUP1 CALLDATALOAD SWAP2 PUSH1 0x20 SWAP2 PUSH2 0x18E8 DUP5 PUSH2 0x92D JUMP JUMPDEST SWAP4 PUSH2 0x18F6 PUSH1 0x40 MLOAD SWAP6 DUP7 PUSH2 0x8A0 JUMP JUMPDEST DUP1 DUP6 MSTORE DUP4 DUP1 DUP7 ADD SWAP2 PUSH1 0x5 SHL DUP4 ADD ADD SWAP3 DUP1 DUP5 GT PUSH2 0x36E JUMPI DUP5 DUP4 ADD SWAP2 JUMPDEST DUP5 DUP4 LT PUSH2 0x1921 JUMPI POP POP POP POP POP POP SWAP1 JUMP JUMPDEST DUP3 CALLDATALOAD PUSH1 0x1 PUSH1 0x1 PUSH1 0x40 SHL SUB DUP2 GT PUSH2 0x36E JUMPI DUP7 SWAP2 PUSH2 0x1942 DUP5 DUP5 DUP1 SWAP5 DUP10 ADD ADD PUSH2 0xF41 JUMP JUMPDEST DUP2 MSTORE ADD SWAP3 ADD SWAP2 PUSH2 0x1911 JUMP JUMPDEST CALLVALUE PUSH2 0x36E JUMPI PUSH1 0xA0 CALLDATASIZE PUSH1 0x3 NOT ADD SLT PUSH2 0x36E JUMPI PUSH1 0x4 PUSH1 0x1 PUSH1 0x1 PUSH1 0x40 SHL SUB DUP2 CALLDATALOAD DUP2 DUP2 GT PUSH2 0x36E JUMPI PUSH2 0x197E SWAP1 CALLDATASIZE SWAP1 DUP5 ADD PUSH2 0x17F5 JUMP JUMPDEST SWAP1 PUSH1 0x24 CALLDATALOAD DUP2 DUP2 GT PUSH2 0x36E JUMPI PUSH2 0x1996 SWAP1 CALLDATASIZE SWAP1 DUP6 ADD PUSH2 0x17F5 JUMP JUMPDEST PUSH1 0x44 CALLDATALOAD DUP3 DUP2 GT PUSH2 0x36E JUMPI PUSH2 0x19AD SWAP1 CALLDATASIZE SWAP1 DUP7 ADD PUSH2 0x944 JUMP JUMPDEST SWAP1 PUSH1 0x64 CALLDATALOAD DUP4 DUP2 GT PUSH2 0x36E JUMPI PUSH2 0x19C5 SWAP1 CALLDATASIZE SWAP1 DUP8 ADD PUSH2 0x1865 JUMP JUMPDEST SWAP3 PUSH1 0x84 CALLDATALOAD SWAP1 DUP2 GT PUSH2 0x36E JUMPI PUSH2 0xFB6 SWAP6 PUSH2 0x19E0 SWAP2 CALLDATASIZE SWAP2 ADD PUSH2 0x18CE JUMP JUMPDEST SWAP4 PUSH2 0x34DC JUMP JUMPDEST PUSH1 0x40 CALLDATASIZE PUSH1 0x3 NOT ADD SLT PUSH2 0x36E JUMPI PUSH1 0x24 CALLDATALOAD PUSH1 0x1 PUSH1 0x1 PUSH1 0x40 SHL SUB DUP2 GT PUSH2 0x36E JUMPI PUSH2 0x1A11 SWAP1 CALLDATASIZE SWAP1 PUSH1 0x4 ADD PUSH2 0xF41 JUMP JUMPDEST PUSH2 0x1A19 PUSH2 0x3712 JUMP JUMPDEST CALLVALUE PUSH2 0x1A2A JUMPI PUSH2 0xFB6 SWAP1 PUSH1 0x4 CALLDATALOAD PUSH2 0x4284 JUMP JUMPDEST PUSH1 0x40 MLOAD PUSH4 0xF36BA737 PUSH1 0xE0 SHL DUP2 MSTORE PUSH1 0x4 SWAP1 REVERT JUMPDEST CALLVALUE PUSH2 0x36E JUMPI PUSH1 0x60 CALLDATASIZE PUSH1 0x3 NOT ADD SLT PUSH2 0x36E JUMPI PUSH2 0x1A55 PUSH2 0x358 JUMP JUMPDEST PUSH1 0x24 CALLDATALOAD SWAP1 PUSH1 0x44 CALLDATALOAD PUSH1 0x1 PUSH1 0x1 PUSH1 0x40 SHL SUB DUP2 GT PUSH2 0x36E JUMPI PUSH2 0x1A78 SWAP1 CALLDATASIZE SWAP1 PUSH1 0x4 ADD PUSH2 0xF41 JUMP JUMPDEST SWAP1 PUSH2 0x1A82 DUP4 PUSH2 0x2A3D JUMP JUMPDEST PUSH1 0x1 PUSH1 0x1 PUSH1 0xA0 SHL SUB DUP2 DUP2 AND SWAP2 CALLER DUP4 SUB PUSH2 0x1B6F JUMPI POP DUP3 AND DUP1 ISZERO PUSH2 0x1B5D JUMPI DUP1 DUP3 EQ PUSH2 0x1B4B JUMPI PUSH2 0x1AC5 PUSH2 0x11D3 DUP5 PUSH2 0x1AC0 DUP9 PUSH1 0x0 MSTORE PUSH1 0x5 PUSH1 0x20 MSTORE PUSH1 0x40 PUSH1 0x0 KECCAK256 SWAP1 JUMP JUMPDEST PUSH2 0x43B0 JUMP JUMPDEST PUSH2 0x1B2B JUMPI SWAP4 DUP1 PUSH2 0x1B26 SWAP3 PUSH2 0xFB6 SWAP7 PUSH32 0x1B1B58AA2EC0CEC2228B2D37124556D41F5A1F7B12F089171F896CC236671215 PUSH1 0x40 MLOAD DUP1 PUSH2 0x1B02 DUP11 DUP3 PUSH2 0x7CC JUMP JUMPDEST SUB SWAP1 LOG4 PUSH2 0x1B18 PUSH1 0x40 MLOAD SWAP5 DUP6 SWAP3 CALLER PUSH1 0x20 DUP6 ADD PUSH2 0x35EA JUMP JUMPDEST SUB PUSH1 0x1F NOT DUP2 ADD DUP5 MSTORE DUP4 PUSH2 0x8A0 JUMP JUMPDEST PUSH2 0x4E67 JUMP JUMPDEST PUSH1 0x40 MLOAD PUSH4 0x14EC4D6D PUSH1 0xE3 SHL DUP2 MSTORE DUP1 PUSH2 0x1B47 DUP8 DUP7 PUSH1 0x4 DUP5 ADD PUSH2 0x35CF JUMP JUMPDEST SUB SWAP1 REVERT JUMPDEST PUSH1 0x40 MLOAD PUSH4 0x44FED6B1 PUSH1 0xE1 SHL DUP2 MSTORE PUSH1 0x4 SWAP1 REVERT JUMPDEST PUSH1 0x40 MLOAD PUSH4 0x9577B8B3 PUSH1 0xE0 SHL DUP2 MSTORE PUSH1 0x4 SWAP1 REVERT JUMPDEST DUP6 PUSH2 0x1B47 PUSH1 0x40 MLOAD SWAP3 DUP4 SWAP3 PUSH4 0x2D938F51 PUSH1 0xE1 SHL DUP5 MSTORE CALLER SWAP2 PUSH1 0x4 DUP6 ADD PUSH2 0x35AC JUMP JUMPDEST CALLVALUE PUSH2 0x36E JUMPI PUSH1 0x0 CALLDATASIZE PUSH1 0x3 NOT ADD SLT PUSH2 0x36E JUMPI PUSH1 0x0 SLOAD PUSH1 0x40 MLOAD PUSH1 0x1 PUSH1 0x1 PUSH1 0xA0 SHL SUB SWAP1 SWAP2 AND DUP2 MSTORE PUSH1 0x20 SWAP1 RETURN JUMPDEST CALLVALUE PUSH2 0x36E JUMPI PUSH1 0x20 DUP1 PUSH1 0x3 NOT CALLDATASIZE ADD SLT PUSH2 0x36E JUMPI PUSH1 0x4 CALLDATALOAD PUSH1 0x0 MSTORE PUSH1 0xE PUSH1 0x20 MSTORE PUSH1 0x40 PUSH1 0x0 KECCAK256 SWAP1 PUSH1 0x40 MLOAD SWAP1 DUP2 PUSH1 0x20 DUP5 SLOAD SWAP2 DUP3 DUP2 MSTORE ADD SWAP4 PUSH1 0x0 MSTORE PUSH1 0x20 PUSH1 0x0 KECCAK256 SWAP2 PUSH1 0x0 SWAP1 JUMPDEST DUP3 DUP3 LT PUSH2 0x1C0D JUMPI PUSH2 0x4B4 DUP6 PUSH2 0xB93 DUP2 DUP10 SUB DUP3 PUSH2 0x8A0 JUMP JUMPDEST DUP4 SLOAD DUP7 MSTORE SWAP5 DUP6 ADD SWAP5 PUSH1 0x1 SWAP4 DUP5 ADD SWAP4 SWAP1 SWAP2 ADD SWAP1 PUSH2 0x1BF6 JUMP JUMPDEST PUSH1 0x40 CALLDATASIZE PUSH1 0x3 NOT ADD SLT PUSH2 0x36E JUMPI PUSH1 0x4 PUSH1 0x1 PUSH1 0x1 PUSH1 0x40 SHL SUB DUP2 CALLDATALOAD DUP2 DUP2 GT PUSH2 0x36E JUMPI PUSH2 0x1C50 SWAP1 CALLDATASIZE SWAP1 DUP5 ADD PUSH2 0x944 JUMP JUMPDEST SWAP1 PUSH1 0x24 CALLDATALOAD SWAP1 DUP2 GT PUSH2 0x36E JUMPI PUSH2 0x1C68 SWAP1 CALLDATASIZE SWAP1 DUP5 ADD PUSH2 0x18CE JUMP JUMPDEST SWAP2 PUSH2 0x1C71 PUSH2 0x3712 JUMP JUMPDEST CALLVALUE PUSH2 0x1CD9 JUMPI DUP2 MLOAD DUP4 MLOAD SUB PUSH2 0x1CCA JUMPI DUP2 MLOAD ISZERO PUSH2 0x1CBB JUMPI POP PUSH1 0x0 JUMPDEST DUP2 MLOAD DUP2 LT ISZERO PUSH2 0xFB6 JUMPI DUP1 PUSH2 0x1CB5 PUSH2 0x1CA3 PUSH1 0x1 SWAP4 DUP6 PUSH2 0x2A24 JUMP JUMPDEST MLOAD PUSH2 0x1CAE DUP4 DUP8 PUSH2 0x2A24 JUMP JUMPDEST MLOAD SWAP1 PUSH2 0x4284 JUMP JUMPDEST ADD PUSH2 0x1C8A JUMP JUMPDEST PUSH1 0x40 MLOAD PUSH4 0x97DA5F95 PUSH1 0xE0 SHL DUP2 MSTORE REVERT JUMPDEST PUSH1 0x40 MLOAD PUSH4 0x3BCC8979 PUSH1 0xE0 SHL DUP2 MSTORE REVERT JUMPDEST PUSH1 0x40 MLOAD PUSH4 0xF36BA737 PUSH1 0xE0 SHL DUP2 MSTORE REVERT JUMPDEST PUSH1 0x20 SWAP1 PUSH1 0x20 PUSH1 0x40 DUP2 DUP4 ADD SWAP3 DUP3 DUP2 MSTORE DUP6 MLOAD DUP1 SWAP5 MSTORE ADD SWAP4 ADD SWAP2 PUSH1 0x0 JUMPDEST DUP3 DUP2 LT PUSH2 0x1D10 JUMPI POP POP POP POP SWAP1 JUMP JUMPDEST DUP4 MLOAD DUP6 MSTORE SWAP4 DUP2 ADD SWAP4 SWAP3 DUP2 ADD SWAP3 PUSH1 0x1 ADD PUSH2 0x1D02 JUMP JUMPDEST CALLVALUE PUSH2 0x36E JUMPI PUSH1 0x20 DUP1 PUSH1 0x3 NOT CALLDATASIZE ADD SLT PUSH2 0x36E JUMPI PUSH1 0x1 PUSH1 0x1 PUSH1 0xA0 SHL SUB PUSH2 0x1D46 PUSH2 0x358 JUMP JUMPDEST AND PUSH1 0x0 MSTORE PUSH1 0x4 PUSH1 0x20 MSTORE PUSH1 0x40 PUSH1 0x0 KECCAK256 SWAP1 PUSH1 0x40 MLOAD SWAP1 DUP2 PUSH1 0x20 DUP5 SLOAD SWAP2 DUP3 DUP2 MSTORE ADD SWAP4 PUSH1 0x0 MSTORE PUSH1 0x20 PUSH1 0x0 KECCAK256 SWAP2 PUSH1 0x0 SWAP1 JUMPDEST DUP3 DUP3 LT PUSH2 0x1D94 JUMPI PUSH2 0x4B4 DUP6 PUSH2 0x1D88 DUP2 DUP10 SUB DUP3 PUSH2 0x8A0 JUMP JUMPDEST PUSH1 0x40 MLOAD SWAP2 DUP3 SWAP2 DUP3 PUSH2 0x1CE8 JUMP JUMPDEST DUP4 SLOAD DUP7 MSTORE SWAP5 DUP6 ADD SWAP5 PUSH1 0x1 SWAP4 DUP5 ADD SWAP4 SWAP1 SWAP2 ADD SWAP1 PUSH2 0x1D71 JUMP JUMPDEST CALLVALUE PUSH2 0x36E JUMPI PUSH1 0x0 CALLDATASIZE PUSH1 0x3 NOT ADD SLT PUSH2 0x36E JUMPI PUSH1 0x20 PUSH1 0x40 MLOAD PUSH1 0x0 DUP1 MLOAD PUSH1 0x20 PUSH2 0x520F DUP4 CODECOPY DUP2 MLOAD SWAP2 MSTORE DUP2 MSTORE RETURN JUMPDEST SWAP3 SWAP2 SWAP1 PUSH2 0x1DEB PUSH1 0x20 SWAP2 PUSH1 0x40 DUP7 MSTORE PUSH1 0x40 DUP7 ADD SWAP1 PUSH2 0x7A7 JUMP JUMPDEST SWAP4 ADD MSTORE JUMP JUMPDEST CALLVALUE PUSH2 0x36E JUMPI PUSH1 0x20 CALLDATASIZE PUSH1 0x3 NOT ADD SLT PUSH2 0x36E JUMPI PUSH1 0x4 CALLDATALOAD PUSH1 0x0 MSTORE PUSH1 0xD PUSH1 0x20 MSTORE PUSH1 0x40 PUSH1 0x0 KECCAK256 PUSH2 0x1E19 PUSH2 0x8E1 JUMP JUMPDEST PUSH2 0x1E2D PUSH2 0x1E27 DUP4 SLOAD PUSH1 0xFF AND SWAP1 JUMP JUMPDEST ISZERO ISZERO DUP3 MSTORE JUMP JUMPDEST PUSH1 0x1 DUP3 ADD SLOAD PUSH1 0x20 DUP3 ADD MSTORE PUSH1 0x2 DUP3 ADD SLOAD PUSH1 0x40 DUP3 ADD MSTORE PUSH1 0x3 DUP3 ADD SLOAD PUSH1 0x60 DUP3 ADD MSTORE PUSH2 0x1ED1 PUSH4 0xFFFFFFFF PUSH1 0x4 DUP5 ADD SLOAD PUSH2 0x1E68 PUSH1 0xFF DUP3 AND PUSH1 0x80 DUP7 ADD PUSH2 0x277A JUMP JUMPDEST PUSH2 0x1E7B PUSH1 0xFF DUP3 PUSH1 0x8 SHR AND PUSH1 0xA0 DUP7 ADD PUSH2 0x2786 JUMP JUMPDEST PUSH1 0x10 DUP2 SWAP1 SHR PUSH1 0x1 PUSH1 0x1 PUSH1 0xA0 SHL SUB AND PUSH1 0xC0 DUP6 ADD MSTORE PUSH1 0xB0 SHR PUSH1 0x1 PUSH1 0x1 PUSH1 0x40 SHL SUB SWAP1 DUP2 AND PUSH1 0xE0 DUP6 ADD MSTORE PUSH1 0x5 DUP6 ADD SLOAD DUP1 DUP3 AND PUSH2 0x100 DUP7 ADD MSTORE PUSH1 0x40 DUP2 SWAP1 SHR SWAP1 SWAP2 AND PUSH2 0x120 DUP6 ADD MSTORE PUSH1 0x80 SHR AND PUSH2 0x140 DUP4 ADD SWAP1 PUSH4 0xFFFFFFFF AND SWAP1 MSTORE JUMP JUMPDEST PUSH2 0x1F34 PUSH2 0x1EE0 PUSH1 0x6 DUP5 ADD PUSH2 0x2862 JUMP JUMPDEST SWAP2 PUSH2 0x160 DUP2 ADD SWAP3 DUP4 MSTORE PUSH2 0x1E0 PUSH2 0x1F2D PUSH1 0xA PUSH1 0x7 DUP8 ADD SLOAD SWAP7 PUSH2 0x180 DUP6 ADD SWAP8 DUP9 MSTORE PUSH2 0x1F1A PUSH2 0x1F10 PUSH1 0x8 DUP4 ADD SLOAD PUSH1 0xFF AND SWAP1 JUMP JUMPDEST ISZERO ISZERO PUSH2 0x1A0 DUP8 ADD MSTORE JUMP JUMPDEST PUSH1 0x9 DUP2 ADD SLOAD PUSH2 0x1C0 DUP7 ADD MSTORE ADD SLOAD PUSH1 0xFF AND SWAP1 JUMP JUMPDEST ISZERO ISZERO SWAP2 ADD MSTORE JUMP JUMPDEST MLOAD SWAP1 MLOAD SWAP1 PUSH2 0x4B4 PUSH1 0x40 MLOAD SWAP3 DUP4 SWAP3 DUP4 PUSH2 0x1DD4 JUMP JUMPDEST CALLVALUE PUSH2 0x36E JUMPI PUSH1 0x3 NOT PUSH1 0x40 CALLDATASIZE DUP3 ADD DUP2 SGT PUSH2 0x36E JUMPI PUSH1 0x4 DUP1 CALLDATALOAD SWAP3 PUSH1 0x24 CALLDATALOAD PUSH1 0x1 PUSH1 0x1 PUSH1 0x40 SHL SUB SWAP2 DUP3 DUP3 GT PUSH2 0x36E JUMPI PUSH1 0xE0 DUP3 DUP6 ADD SWAP2 DUP4 CALLDATASIZE SUB ADD SLT PUSH2 0x36E JUMPI DUP6 PUSH1 0x0 MSTORE PUSH1 0xA PUSH1 0x20 MSTORE DUP5 PUSH1 0x0 KECCAK256 PUSH1 0x1 DUP2 ADD SLOAD ISZERO PUSH2 0x219D JUMPI PUSH2 0x1FA6 PUSH2 0x11D3 DUP3 SLOAD PUSH1 0xFF AND SWAP1 JUMP JUMPDEST PUSH2 0x218D JUMPI DUP1 DUP6 ADD DUP1 SLOAD SWAP1 SWAP6 PUSH1 0x1 PUSH1 0x1 PUSH1 0xA0 SHL SUB SWAP2 CALLER DUP4 DUP3 AND SUB PUSH2 0x217E JUMPI PUSH1 0x2 DUP5 ADD SWAP7 DUP8 SLOAD SWAP4 PUSH2 0x1FDF DUP6 PUSH1 0x0 MSTORE PUSH1 0xF PUSH1 0x20 MSTORE PUSH1 0x40 PUSH1 0x0 KECCAK256 SWAP1 JUMP JUMPDEST SLOAD PUSH1 0x6 DUP8 ADD SLOAD SUB PUSH2 0x216E JUMPI PUSH2 0x1FF3 DUP6 PUSH2 0x2A3D JUMP JUMPDEST PUSH1 0x3 DUP8 ADD SLOAD SWAP1 SWAP2 SWAP1 PUSH2 0x2015 SWAP1 PUSH1 0x1 PUSH1 0x1 PUSH1 0xA0 SHL SUB AND JUMPDEST PUSH1 0x1 PUSH1 0x1 PUSH1 0xA0 SHL SUB AND SWAP1 JUMP JUMPDEST SWAP2 AND SUB PUSH2 0x215E JUMPI DUP2 PUSH1 0xB0 SHR AND DUP1 ISZERO ISZERO SWAP1 DUP2 PUSH2 0x2154 JUMPI JUMPDEST POP PUSH2 0x2145 JUMPI PUSH2 0x2053 PUSH2 0x2047 PUSH1 0x5 DUP7 ADD SLOAD PUSH1 0x1 PUSH1 0x1 PUSH1 0x40 SHL SUB AND SWAP1 JUMP JUMPDEST PUSH1 0x1 PUSH1 0x1 PUSH1 0x40 SHL SUB AND SWAP1 JUMP JUMPDEST DUP1 ISZERO ISZERO SWAP1 DUP2 PUSH2 0x213B JUMPI JUMPDEST POP PUSH2 0x212C JUMPI PUSH1 0xFF PUSH1 0x8 SWAP2 PUSH1 0xA0 SHR AND PUSH2 0x2074 DUP2 PUSH2 0x526 JUMP JUMPDEST EQ PUSH2 0x211E JUMPI POP DUP8 SWAP4 PUSH2 0x210E PUSH1 0xA4 PUSH2 0x20F7 DUP7 PUSH2 0x20DD PUSH2 0x4B4 SWAP13 SWAP11 SWAP8 PUSH2 0x20D8 PUSH32 0xED3CACD729477D0F36A74C7ACFF952351130177A2DADC2566ADDBC94BDEA9CBD SWAP9 PUSH2 0x20C0 PUSH2 0x2107 SWAP16 SWAP13 PUSH2 0x3640 JUMP JUMPDEST PUSH2 0x20CC PUSH1 0x24 DUP12 ADD PUSH2 0x3640 JUMP JUMPDEST SWAP1 PUSH1 0xC4 DUP12 ADD CALLDATALOAD SWAP3 PUSH2 0x43C3 JUMP JUMPDEST PUSH2 0x4482 JUMP JUMPDEST DUP7 SLOAD CALLER SWAP1 DUP11 PUSH2 0x20F1 DUP12 SLOAD PUSH1 0xFF SWAP1 PUSH1 0xA0 SHR AND SWAP1 JUMP JUMPDEST SWAP2 PUSH2 0x4734 JUMP JUMPDEST SWAP9 DUP10 SWAP6 SLOAD SWAP7 SLOAD PUSH1 0xFF SWAP1 PUSH1 0xA0 SHR AND SWAP1 JUMP JUMPDEST SWAP3 ADD PUSH2 0x364A JUMP JUMPDEST SWAP1 PUSH2 0x1531 DUP8 MLOAD SWAP3 DUP4 SWAP3 CALLER DUP5 PUSH2 0x3657 JUMP JUMPDEST DUP8 MLOAD PUSH4 0x53679D3 PUSH1 0xE1 SHL DUP2 MSTORE REVERT JUMPDEST POP DUP8 MLOAD PUSH4 0xF05F5BF PUSH1 0xE0 SHL DUP2 MSTORE REVERT JUMPDEST SWAP1 POP TIMESTAMP GT CODESIZE PUSH2 0x205D JUMP JUMPDEST POP DUP8 MLOAD PUSH4 0x34C749C7 PUSH1 0xE0 SHL DUP2 MSTORE REVERT JUMPDEST SWAP1 POP TIMESTAMP LT CODESIZE PUSH2 0x202B JUMP JUMPDEST DUP10 MLOAD PUSH4 0x67BC6699 PUSH1 0xE1 SHL DUP2 MSTORE DUP4 SWAP1 REVERT JUMPDEST DUP11 MLOAD PUSH4 0x69C40EBD PUSH1 0xE1 SHL DUP2 MSTORE DUP5 SWAP1 REVERT JUMPDEST POP DUP8 MLOAD PUSH4 0x74D3B8C1 PUSH1 0xE0 SHL DUP2 MSTORE REVERT JUMPDEST DUP6 MLOAD PUSH4 0xEE55C701 PUSH1 0xE0 SHL DUP2 MSTORE DUP6 SWAP1 REVERT JUMPDEST DUP6 MLOAD PUSH4 0x33DF5F99 PUSH1 0xE1 SHL DUP2 MSTORE DUP6 SWAP1 REVERT JUMPDEST CALLVALUE PUSH2 0x36E JUMPI PUSH1 0x60 CALLDATASIZE PUSH1 0x3 NOT ADD SLT PUSH2 0x36E JUMPI PUSH1 0x4 CALLDATALOAD PUSH1 0x1 PUSH1 0x1 PUSH1 0x40 SHL SUB PUSH1 0x24 CALLDATALOAD DUP2 DUP2 GT PUSH2 0x36E JUMPI PUSH2 0x21E1 SWAP1 CALLDATASIZE SWAP1 PUSH1 0x4 ADD PUSH2 0x177D JUMP JUMPDEST SWAP2 PUSH1 0x0 SWAP4 DUP1 DUP6 MSTORE PUSH1 0x7 PUSH1 0x20 MSTORE PUSH1 0xFF PUSH1 0x40 DUP7 KECCAK256 SLOAD AND ISZERO PUSH2 0x772 JUMPI DUP1 DUP6 MSTORE PUSH1 0x8 PUSH1 0x20 MSTORE PUSH1 0x40 DUP6 KECCAK256 SWAP3 DUP4 SLOAD PUSH1 0xFF DUP2 PUSH1 0xE0 SHR AND PUSH2 0xD08 JUMPI CALLER PUSH1 0x1 PUSH1 0x1 PUSH1 0xA0 SHL SUB SWAP1 SWAP2 AND SUB PUSH2 0xCF6 JUMPI PUSH2 0x224B SWAP5 PUSH2 0x2243 SWAP3 PUSH2 0x223D CALLER SWAP4 PUSH1 0x44 CALLDATALOAD SWAP4 CALLDATASIZE SWAP2 PUSH2 0xD35 JUMP JUMPDEST SWAP1 PUSH2 0x408B JUMP JUMPDEST TIMESTAMP AND SWAP1 PUSH2 0x3464 JUMP JUMPDEST DUP1 RETURN JUMPDEST CALLVALUE PUSH2 0x36E JUMPI PUSH1 0x60 CALLDATASIZE PUSH1 0x3 NOT ADD SLT PUSH2 0x36E JUMPI PUSH1 0x4 PUSH1 0x1 PUSH1 0x1 PUSH1 0x40 SHL SUB DUP2 CALLDATALOAD DUP2 DUP2 GT PUSH2 0x36E JUMPI PUSH2 0x227F SWAP1 CALLDATASIZE SWAP1 DUP5 ADD PUSH2 0x944 JUMP JUMPDEST PUSH1 0x24 CALLDATALOAD DUP3 DUP2 GT PUSH2 0x36E JUMPI PUSH2 0x2296 SWAP1 CALLDATASIZE SWAP1 DUP6 ADD PUSH2 0x944 JUMP JUMPDEST SWAP2 PUSH1 0x44 CALLDATALOAD SWAP1 DUP2 GT PUSH2 0x36E JUMPI PUSH2 0x22AE SWAP1 CALLDATASIZE SWAP1 DUP6 ADD PUSH2 0x18CE JUMP JUMPDEST SWAP3 PUSH2 0x22B7 PUSH2 0x3712 JUMP JUMPDEST DUP2 MLOAD DUP4 MLOAD DUP1 SWAP2 EQ SWAP1 DUP2 ISZERO SWAP2 PUSH2 0x2331 JUMPI JUMPDEST POP PUSH2 0x2322 JUMPI DUP2 MLOAD ISZERO PUSH2 0x2313 JUMPI POP PUSH1 0x0 JUMPDEST DUP2 MLOAD DUP2 LT ISZERO PUSH2 0xFB6 JUMPI DUP1 PUSH2 0x230D PUSH2 0x22F0 PUSH1 0x1 SWAP4 DUP6 PUSH2 0x2A24 JUMP JUMPDEST MLOAD PUSH2 0x22FB DUP4 DUP8 PUSH2 0x2A24 JUMP JUMPDEST MLOAD PUSH2 0x2306 DUP5 DUP10 PUSH2 0x2A24 JUMP JUMPDEST MLOAD SWAP2 PUSH2 0x3E0C JUMP JUMPDEST ADD PUSH2 0x22D7 JUMP JUMPDEST PUSH1 0x40 MLOAD PUSH4 0x80C98305 PUSH1 0xE0 SHL DUP2 MSTORE REVERT JUMPDEST PUSH1 0x40 MLOAD PUSH4 0x17D38EFF PUSH1 0xE1 SHL DUP2 MSTORE REVERT JUMPDEST SWAP1 POP DUP5 MLOAD EQ ISZERO CODESIZE PUSH2 0x22C7 JUMP JUMPDEST CALLVALUE PUSH2 0x36E JUMPI PUSH1 0x20 CALLDATASIZE PUSH1 0x3 NOT ADD SLT PUSH2 0x36E JUMPI PUSH1 0x4 CALLDATALOAD PUSH1 0x0 MSTORE PUSH1 0xF PUSH1 0x20 MSTORE PUSH1 0x20 PUSH1 0x40 PUSH1 0x0 KECCAK256 SLOAD PUSH1 0x40 MLOAD SWAP1 DUP2 MSTORE RETURN JUMPDEST CALLVALUE PUSH2 0x36E JUMPI PUSH1 0x60 CALLDATASIZE PUSH1 0x3 NOT ADD SLT PUSH2 0x36E JUMPI PUSH1 0x44 CALLDATALOAD PUSH1 0x1 PUSH1 0x1 PUSH1 0x40 SHL SUB DUP2 GT PUSH2 0x36E JUMPI PUSH2 0x239C PUSH2 0xFB6 SWAP2 CALLDATASIZE SWAP1 PUSH1 0x4 ADD PUSH2 0xF41 JUMP JUMPDEST PUSH2 0x23A4 PUSH2 0x3712 JUMP JUMPDEST PUSH1 0x24 CALLDATALOAD PUSH1 0x4 CALLDATALOAD PUSH2 0x3E0C JUMP JUMPDEST CALLVALUE PUSH2 0x36E JUMPI PUSH1 0x80 CALLDATASIZE PUSH1 0x3 NOT ADD SLT PUSH2 0x36E JUMPI PUSH2 0x23C8 PUSH2 0x358 JUMP JUMPDEST PUSH1 0x24 CALLDATALOAD PUSH2 0x23D3 PUSH2 0xF32 JUMP JUMPDEST SWAP2 PUSH1 0x64 CALLDATALOAD PUSH1 0x1 PUSH1 0x1 PUSH1 0x40 SHL SUB DUP2 GT PUSH2 0x36E JUMPI PUSH2 0x23F3 SWAP1 CALLDATASIZE SWAP1 PUSH1 0x4 ADD PUSH2 0xF41 JUMP JUMPDEST PUSH2 0x23FC DUP4 PUSH2 0x2A3D JUMP JUMPDEST SWAP4 PUSH1 0x1 PUSH1 0x1 PUSH1 0xA0 SHL SUB DUP1 DUP7 AND SWAP1 CALLER DUP3 SWAP1 SUB PUSH2 0x244D JUMPI JUMPDEST DUP5 AND SWAP1 DUP2 ISZERO PUSH2 0x1B5D JUMPI EQ PUSH2 0x1B4B JUMPI PUSH2 0x242D DUP3 DUP3 DUP7 DUP9 DUP8 PUSH2 0x487E JUMP JUMPDEST PUSH2 0x2433 JUMPI STOP JUMPDEST PUSH2 0xFB6 SWAP4 PUSH2 0x1B18 PUSH2 0x1B26 SWAP3 PUSH1 0x40 MLOAD SWAP6 DUP7 SWAP4 PUSH1 0x20 DUP6 ADD PUSH2 0x3615 JUMP JUMPDEST DUP5 DUP2 AND CALLER EQ PUSH2 0x2412 JUMPI PUSH1 0x40 MLOAD PUSH4 0x760B5ACD PUSH1 0xE0 SHL DUP2 MSTORE CALLER PUSH1 0x4 DUP3 ADD MSTORE PUSH1 0x1 PUSH1 0x1 PUSH1 0xA0 SHL SUB DUP9 AND PUSH1 0x24 DUP3 ADD MSTORE PUSH1 0x44 DUP2 ADD DUP8 SWAP1 MSTORE PUSH1 0x64 SWAP1 REVERT JUMPDEST CALLVALUE PUSH2 0x36E JUMPI PUSH1 0x0 CALLDATASIZE PUSH1 0x3 NOT ADD SLT PUSH2 0x36E JUMPI PUSH1 0x20 PUSH1 0xC SLOAD PUSH1 0x40 MLOAD SWAP1 DUP2 MSTORE RETURN JUMPDEST CALLVALUE PUSH2 0x36E JUMPI PUSH1 0x20 CALLDATASIZE PUSH1 0x3 NOT ADD SLT PUSH2 0x36E JUMPI PUSH1 0x4 CALLDATALOAD PUSH1 0x1 PUSH1 0x1 PUSH1 0x40 SHL SUB DUP2 GT PUSH2 0x36E JUMPI PUSH2 0x24D2 SWAP1 CALLDATASIZE SWAP1 PUSH1 0x4 ADD PUSH2 0x944 JUMP JUMPDEST PUSH2 0x24DC DUP2 MLOAD PUSH2 0x29C4 JUMP JUMPDEST SWAP1 PUSH1 0x0 JUMPDEST DUP2 MLOAD DUP2 LT ISZERO PUSH2 0x251B JUMPI DUP1 PUSH2 0x24FF PUSH2 0x24F9 PUSH1 0x1 SWAP4 DUP6 PUSH2 0x2A24 JUMP JUMPDEST MLOAD PUSH2 0x2ECD JUMP JUMPDEST PUSH2 0x2509 DUP3 DUP7 PUSH2 0x2A24 JUMP JUMPDEST MSTORE PUSH2 0x2514 DUP2 DUP6 PUSH2 0x2A24 JUMP JUMPDEST POP ADD PUSH2 0x24E0 JUMP JUMPDEST PUSH1 0x40 MLOAD DUP1 PUSH2 0x4B4 DUP6 DUP3 PUSH2 0x9A4 JUMP JUMPDEST CALLVALUE PUSH2 0x36E JUMPI PUSH1 0x80 CALLDATASIZE PUSH1 0x3 NOT ADD SLT PUSH2 0x36E JUMPI PUSH1 0x1 PUSH1 0x1 PUSH1 0x40 SHL SUB PUSH1 0x4 CALLDATALOAD DUP2 DUP2 GT PUSH2 0x36E JUMPI PUSH2 0x255A SWAP1 CALLDATASIZE SWAP1 PUSH1 0x4 ADD PUSH2 0x177D JUMP JUMPDEST PUSH2 0x2565 SWAP3 SWAP2 SWAP3 PUSH2 0x373 JUMP JUMPDEST SWAP2 PUSH1 0x44 CALLDATALOAD SWAP1 DUP2 GT PUSH2 0x36E JUMPI PUSH2 0x257E SWAP1 CALLDATASIZE SWAP1 PUSH1 0x4 ADD PUSH2 0x177D JUMP JUMPDEST SWAP3 SWAP1 SWAP3 CALLER PUSH1 0x0 MSTORE PUSH1 0x6 PUSH1 0x20 MSTORE PUSH1 0xFF PUSH1 0x40 PUSH1 0x0 KECCAK256 SLOAD AND ISZERO PUSH2 0x25C9 JUMPI PUSH2 0x25AD PUSH2 0xDB2 PUSH2 0x4B4 SWAP7 PUSH2 0x25B8 SWAP6 CALLDATASIZE SWAP2 PUSH2 0xD35 JUMP JUMPDEST SWAP4 PUSH1 0x64 CALLDATALOAD SWAP3 DUP6 PUSH2 0x3276 JUMP JUMPDEST POP PUSH1 0x40 MLOAD SWAP1 DUP2 MSTORE SWAP1 DUP2 SWAP1 PUSH1 0x20 DUP3 ADD SWAP1 JUMP JUMPDEST PUSH1 0x40 MLOAD PUSH4 0x6AAF4F1 PUSH1 0xE3 SHL DUP2 MSTORE PUSH1 0x4 SWAP1 REVERT JUMPDEST CALLVALUE PUSH2 0x36E JUMPI PUSH1 0x20 CALLDATASIZE PUSH1 0x3 NOT ADD SLT PUSH2 0x36E JUMPI PUSH2 0x25F4 PUSH2 0x358 JUMP JUMPDEST PUSH2 0x25FC PUSH2 0x3712 JUMP JUMPDEST PUSH1 0x1 PUSH1 0x1 PUSH1 0xA0 SHL SUB SWAP1 DUP2 AND DUP1 ISZERO PUSH2 0x264A JUMPI PUSH1 0x0 DUP1 SLOAD PUSH1 0x1 PUSH1 0x1 PUSH1 0xA0 SHL SUB NOT DUP2 AND DUP4 OR DUP3 SSTORE SWAP1 SWAP3 AND PUSH32 0x8BE0079C531659141344CD1FD0A4F28419497F9722A3DAAFE3B4186F6B6457E0 DUP4 DUP1 LOG3 DUP1 RETURN JUMPDEST PUSH1 0x40 MLOAD PUSH3 0x461BCD PUSH1 0xE5 SHL DUP2 MSTORE PUSH1 0x20 PUSH1 0x4 DUP3 ADD MSTORE PUSH1 0x26 PUSH1 0x24 DUP3 ADD MSTORE PUSH32 0x4F776E61626C653A206E6577206F776E657220697320746865207A65726F2061 PUSH1 0x44 DUP3 ADD MSTORE PUSH6 0x646472657373 PUSH1 0xD0 SHL PUSH1 0x64 DUP3 ADD MSTORE PUSH1 0x84 SWAP1 REVERT JUMPDEST PUSH1 0x1 PUSH1 0x1 PUSH1 0xA0 SHL SUB AND PUSH1 0x0 SWAP1 DUP2 MSTORE PUSH1 0x4 PUSH1 0x20 MSTORE PUSH1 0x40 SWAP1 KECCAK256 SWAP1 JUMP JUMPDEST CALLVALUE PUSH2 0x36E JUMPI PUSH1 0x20 CALLDATASIZE PUSH1 0x3 NOT ADD SLT PUSH2 0x36E JUMPI PUSH1 0x1 PUSH1 0x1 PUSH1 0xA0 SHL SUB PUSH2 0x26D9 PUSH2 0x358 JUMP JUMPDEST AND PUSH1 0x0 MSTORE PUSH1 0x6 PUSH1 0x20 MSTORE PUSH1 0x20 PUSH1 0xFF PUSH1 0x40 PUSH1 0x0 KECCAK256 SLOAD AND PUSH1 0x40 MLOAD SWAP1 ISZERO ISZERO DUP2 MSTORE RETURN JUMPDEST SWAP1 PUSH1 0x4 DUP3 LT ISZERO PUSH2 0x530 JUMPI MSTORE JUMP JUMPDEST CALLVALUE PUSH2 0x36E JUMPI PUSH1 0x20 CALLDATASIZE PUSH1 0x3 NOT ADD SLT PUSH2 0x36E JUMPI PUSH1 0x4 CALLDATALOAD PUSH1 0x0 MSTORE PUSH1 0x7 PUSH1 0x20 MSTORE PUSH1 0xA0 PUSH1 0x40 PUSH1 0x0 KECCAK256 PUSH1 0x1 DUP2 SLOAD SWAP2 PUSH1 0x1 PUSH1 0x1 PUSH1 0x40 SHL SUB SWAP2 DUP3 SWAP2 ADD SLOAD AND SWAP1 PUSH1 0x40 MLOAD SWAP3 PUSH1 0xFF DUP2 AND ISZERO ISZERO DUP5 MSTORE PUSH1 0x1 DUP1 DUP7 SHL SUB DUP2 PUSH1 0x8 SHR AND PUSH1 0x20 DUP6 ADD MSTORE PUSH2 0x276A PUSH1 0x40 DUP6 ADD PUSH1 0xFF DUP4 PUSH1 0xA8 SHR AND PUSH2 0x26F7 JUMP JUMPDEST PUSH1 0xB0 SHR AND PUSH1 0x60 DUP4 ADD MSTORE PUSH1 0x80 DUP3 ADD MSTORE RETURN JUMPDEST PUSH1 0x9 DUP3 LT ISZERO PUSH2 0x530 JUMPI MSTORE JUMP JUMPDEST PUSH1 0x8 DUP3 LT ISZERO PUSH2 0x530 JUMPI MSTORE JUMP JUMPDEST SWAP1 PUSH1 0x1 DUP3 DUP2 SHR SWAP3 AND DUP1 ISZERO PUSH2 0x27C2 JUMPI JUMPDEST PUSH1 0x20 DUP4 LT EQ PUSH2 0x27AC JUMPI JUMP JUMPDEST PUSH4 0x4E487B71 PUSH1 0xE0 SHL PUSH1 0x0 MSTORE PUSH1 0x22 PUSH1 0x4 MSTORE PUSH1 0x24 PUSH1 0x0 REVERT JUMPDEST SWAP2 PUSH1 0x7F AND SWAP2 PUSH2 0x27A1 JUMP JUMPDEST DUP1 SLOAD PUSH1 0x0 SWAP4 SWAP3 PUSH2 0x27DB DUP3 PUSH2 0x2792 JUMP JUMPDEST SWAP2 DUP3 DUP3 MSTORE PUSH1 0x20 SWAP4 PUSH1 0x1 SWAP2 PUSH1 0x1 DUP2 AND SWAP1 DUP2 PUSH1 0x0 EQ PUSH2 0x2843 JUMPI POP PUSH1 0x1 EQ PUSH2 0x2802 JUMPI JUMPDEST POP POP POP POP POP JUMP JUMPDEST SWAP1 SWAP4 SWAP5 SWAP6 POP PUSH1 0x0 SWAP3 SWAP2 SWAP3 MSTORE DUP4 PUSH1 0x0 KECCAK256 SWAP3 DUP5 PUSH1 0x0 SWAP5 JUMPDEST DUP4 DUP7 LT PUSH2 0x282F JUMPI POP POP POP POP ADD ADD SWAP1 CODESIZE DUP1 DUP1 DUP1 DUP1 PUSH2 0x27FB JUMP JUMPDEST DUP1 SLOAD DUP6 DUP8 ADD DUP4 ADD MSTORE SWAP5 ADD SWAP4 DUP6 SWAP1 DUP3 ADD PUSH2 0x2817 JUMP JUMPDEST PUSH1 0xFF NOT AND DUP7 DUP6 ADD MSTORE POP POP POP SWAP1 ISZERO ISZERO PUSH1 0x5 SHL ADD ADD SWAP2 POP CODESIZE DUP1 DUP1 DUP1 DUP1 PUSH2 0x27FB JUMP JUMPDEST SWAP1 PUSH2 0x5FE PUSH2 0x2876 SWAP3 PUSH1 0x40 MLOAD SWAP4 DUP5 DUP1 SWAP3 PUSH2 0x27CC JUMP JUMPDEST SUB DUP4 PUSH2 0x8A0 JUMP JUMPDEST SWAP1 PUSH2 0x5FE PUSH2 0x2992 PUSH1 0xA PUSH2 0x288E PUSH2 0x8E1 JUMP JUMPDEST SWAP5 PUSH2 0x28A3 PUSH2 0x289D DUP3 SLOAD PUSH1 0xFF AND SWAP1 JUMP JUMPDEST ISZERO ISZERO DUP8 MSTORE JUMP JUMPDEST PUSH1 0x1 DUP2 ADD SLOAD PUSH1 0x20 DUP8 ADD MSTORE PUSH1 0x2 DUP2 ADD SLOAD PUSH1 0x40 DUP8 ADD MSTORE PUSH1 0x3 DUP2 ADD SLOAD PUSH1 0x60 DUP8 ADD MSTORE PUSH2 0x2947 PUSH4 0xFFFFFFFF PUSH1 0x4 DUP4 ADD SLOAD PUSH2 0x28DE PUSH1 0xFF DUP3 AND PUSH1 0x80 DUP12 ADD PUSH2 0x277A JUMP JUMPDEST PUSH2 0x28F1 PUSH1 0xFF DUP3 PUSH1 0x8 SHR AND PUSH1 0xA0 DUP12 ADD PUSH2 0x2786 JUMP JUMPDEST PUSH1 0x10 DUP2 SWAP1 SHR PUSH1 0x1 PUSH1 0x1 PUSH1 0xA0 SHL SUB AND PUSH1 0xC0 DUP11 ADD MSTORE PUSH1 0xB0 SHR PUSH1 0x1 PUSH1 0x1 PUSH1 0x40 SHL SUB SWAP1 DUP2 AND PUSH1 0xE0 DUP11 ADD MSTORE PUSH1 0x5 DUP5 ADD SLOAD DUP1 DUP3 AND PUSH2 0x100 DUP12 ADD MSTORE PUSH1 0x40 DUP2 SWAP1 SHR SWAP1 SWAP2 AND PUSH2 0x120 DUP11 ADD MSTORE PUSH1 0x80 SHR AND PUSH2 0x140 DUP9 ADD SWAP1 PUSH4 0xFFFFFFFF AND SWAP1 MSTORE JUMP JUMPDEST PUSH2 0x2953 PUSH1 0x6 DUP3 ADD PUSH2 0x2862 JUMP JUMPDEST PUSH2 0x160 DUP8 ADD MSTORE PUSH1 0x7 DUP2 ADD SLOAD PUSH2 0x180 DUP8 ADD MSTORE PUSH2 0x297F PUSH2 0x2975 PUSH1 0x8 DUP4 ADD SLOAD PUSH1 0xFF AND SWAP1 JUMP JUMPDEST ISZERO ISZERO PUSH2 0x1A0 DUP9 ADD MSTORE JUMP JUMPDEST PUSH1 0x9 DUP2 ADD SLOAD PUSH2 0x1C0 DUP8 ADD MSTORE ADD SLOAD PUSH1 0xFF AND SWAP1 JUMP JUMPDEST ISZERO ISZERO PUSH2 0x1E0 DUP5 ADD MSTORE JUMP JUMPDEST SWAP1 PUSH1 0x4 DUP2 LT ISZERO PUSH2 0x530 JUMPI DUP2 SLOAD PUSH1 0xFF PUSH1 0xA8 SHL NOT AND PUSH1 0xA8 SWAP2 SWAP1 SWAP2 SHL PUSH1 0xFF PUSH1 0xA8 SHL AND OR SWAP1 SSTORE JUMP JUMPDEST SWAP1 SSTORE JUMP JUMPDEST SWAP1 PUSH2 0x29CE DUP3 PUSH2 0x92D JUMP JUMPDEST PUSH2 0x29DB PUSH1 0x40 MLOAD SWAP2 DUP3 PUSH2 0x8A0 JUMP JUMPDEST DUP3 DUP2 MSTORE DUP1 SWAP3 PUSH2 0x29EC PUSH1 0x1F NOT SWAP2 PUSH2 0x92D JUMP JUMPDEST ADD SWAP1 PUSH1 0x0 JUMPDEST DUP3 DUP2 LT PUSH2 0x29FD JUMPI POP POP POP JUMP JUMPDEST DUP1 PUSH1 0x60 PUSH1 0x20 DUP1 SWAP4 DUP6 ADD ADD MSTORE ADD PUSH2 0x29F1 JUMP JUMPDEST PUSH4 0x4E487B71 PUSH1 0xE0 SHL PUSH1 0x0 MSTORE PUSH1 0x32 PUSH1 0x4 MSTORE PUSH1 0x24 PUSH1 0x0 REVERT JUMPDEST DUP1 MLOAD DUP3 LT ISZERO PUSH2 0x2A38 JUMPI PUSH1 0x20 SWAP2 PUSH1 0x5 SHL ADD ADD SWAP1 JUMP JUMPDEST PUSH2 0x2A0E JUMP JUMPDEST PUSH1 0x0 DUP2 DUP2 MSTORE PUSH1 0x3 PUSH1 0x20 MSTORE PUSH1 0x40 SWAP1 KECCAK256 SLOAD PUSH1 0x1 PUSH1 0x1 PUSH1 0xA0 SHL SUB AND SWAP1 DUP2 ISZERO PUSH2 0xEFC JUMPI POP SWAP1 JUMP JUMPDEST PUSH1 0x40 MLOAD PUSH2 0x2A8A PUSH1 0x20 DUP3 DUP2 PUSH2 0x2A7D DUP2 DUP4 ADD SWAP7 DUP8 DUP2 MLOAD SWAP4 DUP5 SWAP3 ADD PUSH2 0x784 JUMP JUMPDEST DUP2 ADD SUB DUP1 DUP5 MSTORE ADD DUP3 PUSH2 0x8A0 JUMP JUMPDEST MLOAD SWAP1 KECCAK256 SWAP1 JUMP JUMPDEST PUSH1 0x2 DUP3 LT ISZERO PUSH2 0x530 JUMPI MSTORE JUMP JUMPDEST SWAP1 PUSH1 0x6 PUSH2 0x2AA7 PUSH2 0x8C1 JUMP JUMPDEST SWAP3 PUSH2 0x2ABC PUSH2 0x2AB6 DUP3 SLOAD PUSH1 0xFF AND SWAP1 JUMP JUMPDEST ISZERO ISZERO DUP6 MSTORE JUMP JUMPDEST PUSH1 0x1 DUP2 ADD SLOAD PUSH1 0x20 DUP6 ADD MSTORE PUSH1 0x2 DUP2 ADD SLOAD PUSH1 0x40 DUP6 ADD MSTORE PUSH1 0x3 DUP2 ADD SLOAD PUSH1 0x1 PUSH1 0x1 PUSH1 0xA0 SHL SUB AND PUSH1 0x60 DUP6 ADD MSTORE PUSH1 0x4 DUP2 ADD SLOAD PUSH1 0x1 PUSH1 0x1 PUSH1 0xA0 SHL SUB DUP2 AND PUSH1 0x80 DUP7 ADD MSTORE PUSH2 0x2B40 SWAP1 PUSH1 0x1 PUSH1 0x1 PUSH1 0x40 SHL SUB SWAP1 PUSH2 0x2B17 PUSH1 0xFF DUP3 PUSH1 0xA0 SHR AND PUSH1 0xA0 DUP10 ADD PUSH2 0x277A JUMP JUMPDEST PUSH2 0x2B2A PUSH1 0xFF DUP3 PUSH1 0xA8 SHR AND PUSH1 0xC0 DUP10 ADD PUSH2 0x2A90 JUMP JUMPDEST PUSH1 0xB0 SHR AND PUSH1 0xE0 DUP7 ADD SWAP1 PUSH1 0x1 PUSH1 0x1 PUSH1 0x40 SHL SUB AND SWAP1 MSTORE JUMP JUMPDEST PUSH2 0x2B68 PUSH2 0x2B57 PUSH1 0x5 DUP4 ADD SLOAD PUSH1 0x1 PUSH1 0x1 PUSH1 0x40 SHL SUB AND SWAP1 JUMP JUMPDEST PUSH1 0x1 PUSH1 0x1 PUSH1 0x40 SHL SUB AND PUSH2 0x100 DUP7 ADD MSTORE JUMP JUMPDEST ADD SLOAD PUSH2 0x120 DUP4 ADD MSTORE JUMP JUMPDEST PUSH2 0x2B89 PUSH2 0x2B8E SWAP2 PUSH1 0x0 MSTORE PUSH1 0xA PUSH1 0x20 MSTORE PUSH1 0x40 PUSH1 0x0 KECCAK256 SWAP1 JUMP JUMPDEST PUSH2 0x2A9C JUMP JUMPDEST PUSH1 0x20 DUP2 ADD MLOAD ISZERO PUSH2 0x2C8B JUMPI PUSH2 0x2BA5 PUSH2 0x11D3 DUP3 MLOAD ISZERO ISZERO SWAP1 JUMP JUMPDEST PUSH2 0x2C8B JUMPI PUSH1 0x40 DUP2 ADD PUSH2 0x2BCF PUSH2 0x11D3 PUSH2 0x2BC8 DUP4 MLOAD PUSH1 0x0 MSTORE PUSH1 0x7 PUSH1 0x20 MSTORE PUSH1 0x40 PUSH1 0x0 KECCAK256 SWAP1 JUMP JUMPDEST SLOAD PUSH1 0xFF AND SWAP1 JUMP JUMPDEST PUSH2 0x2C9B JUMPI PUSH2 0x2BE8 DUP2 MLOAD PUSH1 0x0 MSTORE PUSH1 0xF PUSH1 0x20 MSTORE PUSH1 0x40 PUSH1 0x0 KECCAK256 SWAP1 JUMP JUMPDEST SLOAD PUSH2 0x120 DUP4 ADD MLOAD SUB PUSH2 0x2C9B JUMPI PUSH2 0x2BFE SWAP1 MLOAD PUSH2 0x2A3D JUMP JUMPDEST PUSH1 0x60 DUP3 ADD MLOAD PUSH2 0x2C15 SWAP1 PUSH1 0x1 PUSH1 0x1 PUSH1 0xA0 SHL SUB AND PUSH2 0x2009 JUMP JUMPDEST PUSH1 0x1 PUSH1 0x1 PUSH1 0xA0 SHL SUB SWAP1 SWAP2 AND SUB PUSH2 0x2C8B JUMPI PUSH1 0x1 PUSH1 0x1 PUSH1 0x40 SHL SUB PUSH2 0x2C41 PUSH1 0xE0 DUP4 ADD MLOAD PUSH1 0x1 PUSH1 0x1 PUSH1 0x40 SHL SUB AND SWAP1 JUMP JUMPDEST AND DUP1 ISZERO ISZERO SWAP1 DUP2 PUSH2 0x2C91 JUMPI JUMPDEST POP PUSH2 0x2C8B JUMPI PUSH2 0x100 ADD MLOAD PUSH2 0x2C68 SWAP1 PUSH1 0x1 PUSH1 0x1 PUSH1 0x40 SHL SUB AND PUSH2 0x2047 JUMP JUMPDEST DUP1 ISZERO ISZERO SWAP1 DUP2 PUSH2 0x2C81 JUMPI JUMPDEST POP PUSH2 0x2C7C JUMPI PUSH1 0x1 SWAP1 JUMP JUMPDEST PUSH1 0x0 SWAP1 JUMP JUMPDEST SWAP1 POP TIMESTAMP GT CODESIZE PUSH2 0x2C72 JUMP JUMPDEST POP PUSH1 0x0 SWAP1 JUMP JUMPDEST SWAP1 POP TIMESTAMP LT CODESIZE PUSH2 0x2C4C JUMP JUMPDEST POP POP PUSH1 0x0 SWAP1 JUMP JUMPDEST SWAP1 SWAP3 SWAP4 SWAP2 PUSH2 0x2CB0 DUP2 CALLER PUSH2 0x3955 JUMP JUMPDEST ISZERO PUSH2 0x2E10 JUMPI PUSH2 0x2CBE DUP2 PUSH2 0x2A3D JUMP JUMPDEST PUSH1 0x1 PUSH1 0x1 PUSH1 0xA0 SHL SUB DUP2 DUP2 AND SWAP2 DUP5 DUP3 AND SWAP2 DUP3 DUP5 SUB PUSH2 0x2DF3 JUMPI DUP1 DUP9 AND SWAP4 DUP5 ISZERO PUSH2 0x2DE1 JUMPI PUSH2 0x2CE8 DUP7 PUSH2 0x2A3D JUMP JUMPDEST SWAP2 DUP3 AND SUB PUSH2 0x2DB1 JUMPI POP POP SWAP3 PUSH2 0x2DA7 DUP4 DUP1 PUSH2 0x5FE SWAP10 SWAP8 SWAP5 PUSH2 0x1B18 SWAP10 SWAP8 PUSH2 0x2D10 PUSH2 0x2DAC SWAP9 DUP8 PUSH2 0x4AF1 JUMP JUMPDEST PUSH2 0x2D22 DUP4 PUSH2 0x2D1D DUP9 PUSH2 0x269E JUMP JUMPDEST PUSH2 0x4F92 JUMP JUMPDEST POP PUSH2 0x2D35 DUP4 PUSH2 0x2D30 DUP12 PUSH2 0x269E JUMP JUMPDEST PUSH2 0x4E17 JUMP JUMPDEST POP PUSH2 0x2D53 DUP10 PUSH2 0x2D4E DUP6 PUSH1 0x0 MSTORE PUSH1 0x3 PUSH1 0x20 MSTORE PUSH1 0x40 PUSH1 0x0 KECCAK256 SWAP1 JUMP JUMPDEST PUSH2 0x3046 JUMP JUMPDEST PUSH1 0x40 MLOAD PUSH32 0xB333C813A7426A7A11E2B190CAD52C44119421594B47F6F32ACE6D8C7207B2BF SWAP1 DUP1 PUSH2 0x2D85 DUP11 DUP15 CALLER DUP5 PUSH2 0x3F17 JUMP JUMPDEST SUB SWAP1 LOG4 PUSH2 0x2D93 DUP2 DUP8 DUP6 PUSH2 0x4BC8 JUMP JUMPDEST PUSH1 0x40 MLOAD SWAP8 DUP9 SWAP5 DUP6 SWAP3 DUP9 DUP7 CALLER PUSH1 0x20 DUP8 ADD PUSH2 0x3F79 JUMP JUMPDEST PUSH2 0x4ECB JUMP JUMPDEST PUSH2 0x4D8B JUMP JUMPDEST PUSH1 0x40 MLOAD PUSH4 0x5A9C31D3 PUSH1 0xE0 SHL DUP2 MSTORE PUSH1 0x4 DUP2 ADD DUP7 SWAP1 MSTORE PUSH1 0x1 PUSH1 0x1 PUSH1 0xA0 SHL SUB SWAP3 DUP4 AND PUSH1 0x24 DUP3 ADD MSTORE SWAP2 AND PUSH1 0x44 DUP3 ADD MSTORE PUSH1 0x64 SWAP1 REVERT JUMPDEST PUSH1 0x40 MLOAD PUSH4 0x24ECEF4D PUSH1 0xE0 SHL DUP2 MSTORE PUSH1 0x4 SWAP1 REVERT JUMPDEST PUSH1 0x40 MLOAD PUSH4 0x2D938F51 PUSH1 0xE1 SHL DUP2 MSTORE DUP1 PUSH2 0x1B47 DUP9 DUP9 DUP7 PUSH1 0x4 DUP6 ADD PUSH2 0x35AC JUMP JUMPDEST PUSH1 0x44 SWAP1 PUSH1 0x40 MLOAD SWAP1 PUSH4 0x1294D2A9 PUSH1 0xE0 SHL DUP3 MSTORE PUSH1 0x4 DUP3 ADD MSTORE CALLER PUSH1 0x24 DUP3 ADD MSTORE REVERT JUMPDEST SWAP1 SWAP3 SWAP2 SWAP3 PUSH2 0x2E3B DUP2 PUSH2 0xD1A JUMP JUMPDEST SWAP2 PUSH2 0x2E49 PUSH1 0x40 MLOAD SWAP4 DUP5 PUSH2 0x8A0 JUMP JUMPDEST DUP3 SWAP5 DUP3 DUP5 MSTORE DUP3 DUP3 ADD GT PUSH2 0x36E JUMPI PUSH1 0x20 PUSH2 0x5FE SWAP4 ADD SWAP1 PUSH2 0x784 JUMP JUMPDEST PUSH1 0x40 MLOAD SWAP1 PUSH2 0x2E70 DUP3 PUSH2 0x86A JUMP JUMPDEST PUSH1 0x0 DUP3 MSTORE JUMP JUMPDEST SWAP1 DUP2 PUSH1 0x20 SWAP2 SUB SLT PUSH2 0x36E JUMPI MLOAD SWAP1 JUMP JUMPDEST SWAP1 PUSH1 0x40 MLOAD PUSH1 0x60 DUP2 ADD PUSH1 0x1 PUSH1 0x1 PUSH1 0x40 SHL SUB SWAP1 DUP3 DUP2 LT DUP3 DUP3 GT OR PUSH2 0x865 JUMPI PUSH1 0x40 SWAP2 PUSH1 0xFF SWAP2 DUP4 MSTORE DUP4 SWAP6 SLOAD SWAP1 PUSH1 0x1 DUP1 PUSH1 0xA0 SHL SUB DUP3 AND DUP6 MSTORE DUP2 PUSH1 0xA0 SHR AND PUSH1 0x20 DUP6 ADD MSTORE PUSH1 0xE0 SHR AND ISZERO ISZERO SWAP2 ADD MSTORE JUMP JUMPDEST PUSH1 0x0 MSTORE PUSH1 0x1 PUSH1 0x20 MSTORE PUSH2 0x2EEC PUSH2 0x7DD PUSH1 0x40 PUSH1 0x0 KECCAK256 PUSH1 0x40 MLOAD SWAP3 DUP4 DUP1 SWAP3 PUSH2 0x27CC JUMP JUMPDEST SUB DUP3 PUSH2 0x8A0 JUMP JUMPDEST SWAP1 CALLDATALOAD SWAP1 PUSH1 0x1E NOT DUP2 CALLDATASIZE SUB ADD DUP3 SLT ISZERO PUSH2 0x36E JUMPI ADD DUP1 CALLDATALOAD SWAP1 PUSH1 0x1 PUSH1 0x1 PUSH1 0x40 SHL SUB DUP3 GT PUSH2 0x36E JUMPI PUSH1 0x20 ADD SWAP2 DUP2 CALLDATASIZE SUB DUP4 SGT PUSH2 0x36E JUMPI JUMP JUMPDEST SWAP1 DUP3 LT ISZERO PUSH2 0x2A38 JUMPI PUSH2 0x2F3C SWAP2 PUSH1 0x5 SHL DUP2 ADD SWAP1 PUSH2 0x2EF3 JUMP JUMPDEST SWAP1 SWAP2 JUMP JUMPDEST SWAP1 DUP1 SWAP3 SWAP2 DUP3 CALLDATACOPY ADD PUSH1 0x0 DUP2 MSTORE SWAP1 JUMP JUMPDEST RETURNDATASIZE ISZERO PUSH2 0x2F79 JUMPI RETURNDATASIZE SWAP1 PUSH2 0x2F5F DUP3 PUSH2 0xD1A JUMP JUMPDEST SWAP2 PUSH2 0x2F6D PUSH1 0x40 MLOAD SWAP4 DUP5 PUSH2 0x8A0 JUMP JUMPDEST DUP3 MSTORE RETURNDATASIZE PUSH1 0x0 PUSH1 0x20 DUP5 ADD RETURNDATACOPY JUMP JUMPDEST PUSH1 0x60 SWAP1 JUMP JUMPDEST SWAP2 SWAP1 PUSH2 0x2F89 DUP2 PUSH2 0x29C4 JUMP JUMPDEST SWAP3 PUSH1 0x0 SWAP2 PUSH1 0x0 JUMPDEST DUP2 DUP2 LT PUSH2 0x2F9D JUMPI POP POP POP POP JUMP JUMPDEST DUP4 DUP1 PUSH2 0x2FAA DUP4 DUP6 DUP8 PUSH2 0x2F25 JUMP JUMPDEST PUSH1 0x40 SWAP4 SWAP2 PUSH2 0x2FBC DUP6 MLOAD DUP1 SWAP4 DUP2 SWAP4 PUSH2 0x2F40 JUMP JUMPDEST SUB SWAP1 ADDRESS GAS DELEGATECALL SWAP1 PUSH2 0x2FCA PUSH2 0x2F4E JUMP JUMPDEST SWAP2 ISZERO PUSH2 0x2FF1 JUMPI POP SWAP1 PUSH1 0x1 SWAP2 PUSH2 0x2FDF DUP3 DUP10 PUSH2 0x2A24 JUMP JUMPDEST MSTORE PUSH2 0x2FEA DUP2 DUP9 PUSH2 0x2A24 JUMP JUMPDEST POP ADD PUSH2 0x2F90 JUMP JUMPDEST DUP2 MLOAD SWAP2 SWAP3 SWAP2 ISZERO PUSH2 0x3003 JUMPI DUP3 MLOAD PUSH1 0x20 DUP5 ADD REVERT JUMPDEST MLOAD PUSH4 0x234EB819 PUSH1 0xE0 SHL DUP2 MSTORE PUSH1 0x4 DUP2 ADD SWAP2 SWAP1 SWAP2 MSTORE PUSH1 0x24 SWAP2 POP REVERT JUMPDEST PUSH4 0x4E487B71 PUSH1 0xE0 SHL PUSH1 0x0 MSTORE PUSH1 0x11 PUSH1 0x4 MSTORE PUSH1 0x24 PUSH1 0x0 REVERT JUMPDEST PUSH1 0x0 NOT DUP2 EQ PUSH2 0x3041 JUMPI PUSH1 0x1 ADD SWAP1 JUMP JUMPDEST PUSH2 0x301C JUMP JUMPDEST DUP1 SLOAD PUSH1 0x1 PUSH1 0x1 PUSH1 0xA0 SHL SUB NOT AND PUSH1 0x1 PUSH1 0x1 PUSH1 0xA0 SHL SUB SWAP1 SWAP3 AND SWAP2 SWAP1 SWAP2 OR SWAP1 SSTORE JUMP JUMPDEST SWAP1 PUSH1 0x9 DUP2 LT ISZERO PUSH2 0x530 JUMPI DUP2 SLOAD PUSH1 0xFF PUSH1 0xA0 SHL NOT AND PUSH1 0xA0 SWAP2 SWAP1 SWAP2 SHL PUSH1 0xFF PUSH1 0xA0 SHL AND OR SWAP1 SSTORE JUMP JUMPDEST SWAP1 PUSH1 0x2 DUP2 LT ISZERO PUSH2 0x530 JUMPI DUP2 SLOAD PUSH1 0xFF PUSH1 0xA8 SHL NOT AND PUSH1 0xA8 SWAP2 SWAP1 SWAP2 SHL PUSH1 0xFF PUSH1 0xA8 SHL AND OR SWAP1 SSTORE JUMP JUMPDEST DUP1 SLOAD PUSH8 0xFFFFFFFFFFFFFFFF PUSH1 0xB0 SHL NOT AND PUSH1 0xB0 SWAP3 SWAP1 SWAP3 SHL PUSH8 0xFFFFFFFFFFFFFFFF PUSH1 0xB0 SHL AND SWAP2 SWAP1 SWAP2 OR SWAP1 SSTORE JUMP JUMPDEST SWAP1 PUSH1 0x1 PUSH1 0x1 PUSH1 0x40 SHL SUB AND PUSH1 0x1 PUSH1 0x1 PUSH1 0x40 SHL SUB NOT DUP3 SLOAD AND OR SWAP1 SSTORE JUMP JUMPDEST SWAP1 PUSH2 0x120 PUSH1 0x6 SWAP2 PUSH2 0x3119 PUSH2 0x3107 DUP3 MLOAD ISZERO ISZERO SWAP1 JUMP JUMPDEST DUP6 SWAP1 PUSH1 0xFF DUP1 NOT DUP4 SLOAD AND SWAP2 ISZERO ISZERO AND OR SWAP1 SSTORE JUMP JUMPDEST PUSH1 0x20 DUP2 ADD MLOAD PUSH1 0x1 DUP6 ADD SSTORE PUSH1 0x40 DUP2 ADD MLOAD PUSH1 0x2 DUP6 ADD SSTORE PUSH1 0x60 DUP2 ADD MLOAD PUSH2 0x3148 SWAP1 PUSH1 0x1 PUSH1 0x1 PUSH1 0xA0 SHL SUB AND PUSH1 0x3 DUP7 ADD PUSH2 0x3046 JUMP JUMPDEST PUSH1 0x80 DUP2 ADD MLOAD PUSH2 0x31AB SWAP1 PUSH1 0x4 DUP7 ADD SWAP1 PUSH2 0x3169 SWAP1 PUSH1 0x1 PUSH1 0x1 PUSH1 0xA0 SHL SUB AND DUP3 PUSH2 0x3046 JUMP JUMPDEST PUSH2 0x3180 PUSH1 0xA0 DUP5 ADD MLOAD PUSH2 0x317A DUP2 PUSH2 0x526 JUMP JUMPDEST DUP3 PUSH2 0x3065 JUMP JUMPDEST PUSH2 0x3197 PUSH1 0xC0 DUP5 ADD MLOAD PUSH2 0x3191 DUP2 PUSH2 0x1595 JUMP JUMPDEST DUP3 PUSH2 0x3089 JUMP JUMPDEST PUSH1 0xE0 DUP4 ADD MLOAD PUSH1 0x1 PUSH1 0x1 PUSH1 0x40 SHL SUB AND SWAP1 PUSH2 0x30AD JUMP JUMPDEST PUSH2 0x31CC PUSH2 0x31C3 PUSH2 0x100 DUP4 ADD MLOAD PUSH1 0x1 PUSH1 0x1 PUSH1 0x40 SHL SUB AND SWAP1 JUMP JUMPDEST PUSH1 0x5 DUP7 ADD PUSH2 0x30D8 JUMP JUMPDEST ADD MLOAD SWAP2 ADD SSTORE JUMP JUMPDEST DUP1 SLOAD DUP3 LT ISZERO PUSH2 0x2A38 JUMPI PUSH1 0x0 MSTORE PUSH1 0x20 PUSH1 0x0 KECCAK256 ADD SWAP1 PUSH1 0x0 SWAP1 JUMP JUMPDEST SWAP2 PUSH2 0x29C0 SWAP2 DUP4 SLOAD SWAP1 PUSH1 0x3 SHL SWAP2 DUP3 SHL SWAP2 PUSH1 0x0 NOT SWAP1 SHL NOT AND OR SWAP1 JUMP JUMPDEST DUP1 SLOAD SWAP1 PUSH1 0x1 PUSH1 0x40 SHL DUP3 LT ISZERO PUSH2 0x865 JUMPI DUP2 PUSH2 0x3227 SWAP2 PUSH1 0x1 PUSH2 0x29C0 SWAP5 ADD DUP2 SSTORE PUSH2 0x31D3 JUMP JUMPDEST DUP2 SWAP4 SWAP2 SLOAD SWAP1 PUSH1 0x3 SHL SWAP2 DUP3 SHL SWAP2 PUSH1 0x0 NOT SWAP1 SHL NOT AND OR SWAP1 JUMP JUMPDEST PUSH1 0x1 PUSH1 0x1 PUSH1 0xA0 SHL SUB SWAP1 SWAP2 AND DUP2 MSTORE PUSH1 0x80 DUP2 ADD SWAP5 SWAP4 SWAP3 PUSH1 0x60 SWAP3 PUSH2 0x3272 SWAP2 SWAP1 PUSH2 0x3268 SWAP1 PUSH1 0x20 DUP6 ADD SWAP1 PUSH2 0x535 JUMP JUMPDEST PUSH1 0x40 DUP4 ADD SWAP1 PUSH2 0x159F JUMP JUMPDEST ADD MSTORE JUMP JUMPDEST SWAP4 SWAP3 SWAP1 SWAP3 PUSH1 0x0 SWAP3 CALLER DUP5 MSTORE PUSH1 0x6 PUSH1 0x20 MSTORE PUSH1 0x40 PUSH1 0xFF DUP2 DUP7 KECCAK256 SLOAD AND ISZERO PUSH2 0x33D3 JUMPI PUSH1 0x1 PUSH1 0x1 PUSH1 0xA0 SHL SUB DUP7 AND SWAP6 DUP7 ISZERO PUSH2 0x33C2 JUMPI PUSH2 0x32BB PUSH2 0x2BC8 DUP10 PUSH1 0x0 MSTORE PUSH1 0x7 PUSH1 0x20 MSTORE PUSH1 0x40 PUSH1 0x0 KECCAK256 SWAP1 JUMP JUMPDEST PUSH2 0x33B1 JUMPI SWAP2 PUSH2 0x3379 PUSH2 0x3382 SWAP3 PUSH2 0x32DF PUSH2 0x3388 SWAP8 SWAP7 SWAP6 DUP12 PUSH2 0x32D9 PUSH2 0x2E63 JUMP JUMPDEST SWAP2 PUSH2 0x3FB3 JUMP JUMPDEST DUP8 PUSH1 0x1 PUSH1 0x1 PUSH1 0x40 SHL SUB TIMESTAMP AND SWAP2 PUSH2 0x333E DUP13 PUSH2 0x3339 PUSH2 0x32FA PUSH2 0x901 JUMP JUMPDEST PUSH1 0x1 DUP2 MSTORE SWAP2 CALLER PUSH1 0x20 DUP5 ADD MSTORE DUP3 DUP6 ADD DUP7 SWAP1 MSTORE PUSH1 0x1 PUSH1 0x1 PUSH1 0x40 SHL SUB DUP8 AND PUSH1 0x60 DUP5 ADD MSTORE PUSH1 0x1 PUSH1 0x1 PUSH1 0x40 SHL SUB DUP8 AND PUSH1 0x80 DUP5 ADD MSTORE PUSH1 0x0 MSTORE PUSH1 0x7 PUSH1 0x20 MSTORE PUSH1 0x40 PUSH1 0x0 KECCAK256 SWAP1 JUMP JUMPDEST PUSH2 0x33E3 JUMP JUMPDEST PUSH2 0x335D PUSH2 0x3349 PUSH2 0x920 JUMP JUMPDEST CALLER DUP2 MSTORE SWAP4 PUSH1 0x1 PUSH1 0x1 PUSH1 0x40 SHL SUB AND PUSH1 0x20 DUP6 ADD MSTORE JUMP JUMPDEST DUP3 ADD MSTORE PUSH2 0x3374 DUP11 PUSH1 0x0 MSTORE PUSH1 0x8 PUSH1 0x20 MSTORE PUSH1 0x40 PUSH1 0x0 KECCAK256 SWAP1 JUMP JUMPDEST PUSH2 0x348F JUMP JUMPDEST CALLER SWAP4 CALLDATASIZE SWAP2 PUSH2 0xD35 JUMP JUMPDEST DUP7 PUSH2 0x408B JUMP JUMPDEST DUP3 PUSH32 0xC8B1BA5EAC5171DFC2289486E8ACDA47091BC825817BF2BA6DB22DFC5CDF5AAE CALLER SWAP3 DUP1 LOG4 SWAP1 JUMP JUMPDEST DUP2 MLOAD PUSH4 0x5BEBC7AD PUSH1 0xE1 SHL DUP2 MSTORE PUSH1 0x4 SWAP1 REVERT JUMPDEST DUP2 MLOAD PUSH4 0x8690BE27 PUSH1 0xE0 SHL DUP2 MSTORE PUSH1 0x4 SWAP1 REVERT JUMPDEST MLOAD PUSH4 0x6AAF4F1 PUSH1 0xE3 SHL DUP2 MSTORE PUSH1 0x4 SWAP1 REVERT JUMPDEST PUSH2 0x33FC DUP3 MLOAD ISZERO ISZERO DUP3 SWAP1 PUSH1 0xFF DUP1 NOT DUP4 SLOAD AND SWAP2 ISZERO ISZERO AND OR SWAP1 SSTORE JUMP JUMPDEST PUSH1 0x20 DUP3 ADD MLOAD DUP2 SLOAD PUSH2 0x100 PUSH1 0x1 PUSH1 0xA8 SHL SUB NOT AND PUSH1 0x8 SWAP2 SWAP1 SWAP2 SHL PUSH2 0x100 PUSH1 0x1 PUSH1 0xA8 SHL SUB AND OR DUP2 SSTORE PUSH1 0x40 DUP3 ADD MLOAD PUSH1 0x4 DUP2 LT ISZERO PUSH2 0x530 JUMPI PUSH2 0x5FE SWAP3 PUSH2 0x343F PUSH1 0x1 SWAP3 DUP5 PUSH2 0x299C JUMP JUMPDEST PUSH1 0x80 PUSH1 0x1 PUSH1 0x1 PUSH1 0x40 SHL SUB SWAP2 PUSH2 0x345A DUP4 PUSH1 0x60 DUP4 ADD MLOAD AND DUP7 PUSH2 0x30AD JUMP JUMPDEST ADD MLOAD AND SWAP2 ADD PUSH2 0x30D8 JUMP JUMPDEST DUP1 SLOAD PUSH8 0xFFFFFFFFFFFFFFFF PUSH1 0xA0 SHL NOT AND PUSH1 0xA0 SWAP3 SWAP1 SWAP3 SHL PUSH8 0xFFFFFFFFFFFFFFFF PUSH1 0xA0 SHL AND SWAP2 SWAP1 SWAP2 OR SWAP1 SSTORE JUMP JUMPDEST DUP2 MLOAD SWAP1 SWAP2 PUSH1 0x40 SWAP2 PUSH2 0x34A9 SWAP1 PUSH1 0x1 PUSH1 0x1 PUSH1 0xA0 SHL SUB AND DUP5 PUSH2 0x3046 JUMP JUMPDEST PUSH2 0x34C0 PUSH1 0x1 PUSH1 0x1 PUSH1 0x40 SHL SUB PUSH1 0x20 DUP4 ADD MLOAD AND DUP5 PUSH2 0x3464 JUMP JUMPDEST ADD MLOAD DUP2 SLOAD PUSH1 0xFF PUSH1 0xE0 SHL NOT AND SWAP1 ISZERO ISZERO PUSH1 0xE0 SHL PUSH1 0xFF PUSH1 0xE0 SHL AND OR SWAP1 SSTORE JUMP JUMPDEST SWAP5 SWAP4 SWAP1 SWAP2 SWAP3 DUP6 MLOAD SWAP4 DUP4 MLOAD DUP6 EQ DUP1 ISZERO SWAP1 PUSH2 0x35A1 JUMPI JUMPDEST DUP1 ISZERO PUSH2 0x3596 JUMPI JUMPDEST DUP1 ISZERO PUSH2 0x358B JUMPI JUMPDEST PUSH2 0x3579 JUMPI PUSH1 0x0 JUMPDEST DUP6 DUP2 LT PUSH2 0x3516 JUMPI POP POP POP POP POP POP SWAP1 POP JUMP JUMPDEST DUP1 PUSH2 0x3573 PUSH2 0x3536 PUSH2 0x3529 PUSH1 0x1 SWAP5 DUP13 PUSH2 0x2A24 JUMP JUMPDEST MLOAD PUSH1 0x1 PUSH1 0x1 PUSH1 0xA0 SHL SUB AND SWAP1 JUMP JUMPDEST PUSH2 0x3543 PUSH2 0x3529 DUP5 DUP11 PUSH2 0x2A24 JUMP JUMPDEST PUSH2 0x354D DUP5 DUP8 PUSH2 0x2A24 JUMP JUMPDEST MLOAD PUSH2 0x3561 PUSH2 0x355B DUP7 DUP11 PUSH2 0x2A24 JUMP JUMPDEST MLOAD ISZERO ISZERO SWAP1 JUMP JUMPDEST SWAP2 PUSH2 0x356C DUP7 DUP12 PUSH2 0x2A24 JUMP JUMPDEST MLOAD SWAP4 PUSH2 0x2CA2 JUMP JUMPDEST ADD PUSH2 0x3505 JUMP JUMPDEST PUSH1 0x40 MLOAD PUSH4 0x93A83119 PUSH1 0xE0 SHL DUP2 MSTORE PUSH1 0x4 SWAP1 REVERT JUMPDEST POP DUP3 MLOAD DUP6 EQ ISZERO PUSH2 0x34FE JUMP JUMPDEST POP DUP2 MLOAD DUP6 EQ ISZERO PUSH2 0x34F7 JUMP JUMPDEST POP DUP1 MLOAD DUP6 EQ ISZERO PUSH2 0x34F0 JUMP JUMPDEST PUSH1 0x1 PUSH1 0x1 PUSH1 0xA0 SHL SUB SWAP2 DUP3 AND DUP2 MSTORE PUSH1 0x20 DUP2 ADD SWAP3 SWAP1 SWAP3 MSTORE SWAP1 SWAP2 AND PUSH1 0x40 DUP3 ADD MSTORE PUSH1 0x60 ADD SWAP1 JUMP JUMPDEST PUSH1 0x1 PUSH1 0x1 PUSH1 0xA0 SHL SUB SWAP1 SWAP2 AND DUP2 MSTORE PUSH1 0x20 DUP2 ADD SWAP2 SWAP1 SWAP2 MSTORE PUSH1 0x40 ADD SWAP1 JUMP JUMPDEST PUSH2 0x7DD SWAP4 SWAP3 PUSH1 0x80 SWAP3 PUSH1 0x1 DUP1 PUSH1 0xA0 SHL SUB AND DUP3 MSTORE PUSH1 0x20 DUP3 ADD MSTORE PUSH1 0x1 PUSH1 0x40 DUP3 ADD MSTORE DUP2 PUSH1 0x60 DUP3 ADD MSTORE ADD SWAP1 PUSH2 0x7A7 JUMP JUMPDEST PUSH2 0x7DD SWAP4 SWAP3 PUSH1 0x80 SWAP3 PUSH1 0x1 DUP1 PUSH1 0xA0 SHL SUB AND DUP3 MSTORE PUSH1 0x20 DUP3 ADD MSTORE PUSH1 0x0 PUSH1 0x40 DUP3 ADD MSTORE DUP2 PUSH1 0x60 DUP3 ADD MSTORE ADD SWAP1 PUSH2 0x7A7 JUMP JUMPDEST CALLDATALOAD PUSH2 0x7DD DUP2 PUSH2 0x133D JUMP JUMPDEST CALLDATALOAD PUSH1 0x8 DUP2 LT ISZERO PUSH2 0x36E JUMPI SWAP1 JUMP JUMPDEST PUSH1 0x1 PUSH1 0x1 PUSH1 0xA0 SHL SUB SWAP1 SWAP2 AND DUP2 MSTORE PUSH1 0x60 DUP2 ADD SWAP4 SWAP3 PUSH2 0x5FE SWAP3 SWAP1 SWAP2 PUSH1 0x40 SWAP2 PUSH2 0x3681 SWAP1 PUSH1 0x20 DUP4 ADD SWAP1 PUSH2 0x535 JUMP JUMPDEST ADD SWAP1 PUSH2 0x54C JUMP JUMPDEST CALLVALUE ISZERO PUSH2 0x36A0 JUMPI PUSH1 0x40 MLOAD PUSH4 0x30FA4A21 PUSH1 0xE1 SHL DUP2 MSTORE PUSH1 0x4 SWAP1 REVERT JUMPDEST PUSH1 0x64 PUSH1 0x40 MLOAD PUSH4 0xE5099EE3 PUSH1 0xE0 SHL DUP2 MSTORE PUSH1 0x20 PUSH1 0x4 DUP3 ADD MSTORE PUSH1 0x4 PUSH1 0x24 DUP3 ADD MSTORE PUSH1 0x0 PUSH1 0x44 DUP3 ADD MSTORE REVERT JUMPDEST PUSH1 0x4 CALLDATASIZE LT PUSH2 0x36D7 JUMPI PUSH2 0x7DD SWAP1 PUSH2 0x493B JUMP JUMPDEST PUSH1 0x44 PUSH1 0x40 MLOAD DUP1 SWAP3 PUSH4 0xE5099EE3 PUSH1 0xE0 SHL DUP3 MSTORE PUSH1 0x20 PUSH1 0x4 DUP4 ADD MSTORE DUP1 PUSH1 0x24 DUP4 ADD MSTORE DUP1 PUSH1 0x0 DUP5 DUP5 ADD CALLDATACOPY PUSH1 0x0 DUP3 DUP3 ADD DUP5 ADD MSTORE PUSH1 0x1F ADD PUSH1 0x1F NOT AND DUP2 ADD SUB ADD SWAP1 REVERT JUMPDEST PUSH1 0x0 SLOAD PUSH1 0x1 PUSH1 0x1 PUSH1 0xA0 SHL SUB AND CALLER SUB PUSH2 0x3726 JUMPI JUMP JUMPDEST PUSH1 0x64 PUSH1 0x40 MLOAD PUSH3 0x461BCD PUSH1 0xE5 SHL DUP2 MSTORE PUSH1 0x20 PUSH1 0x4 DUP3 ADD MSTORE PUSH1 0x20 PUSH1 0x24 DUP3 ADD MSTORE PUSH32 0x4F776E61626C653A2063616C6C6572206973206E6F7420746865206F776E6572 PUSH1 0x44 DUP3 ADD MSTORE REVERT JUMPDEST PUSH2 0x37B1 PUSH2 0x37AC PUSH1 0x40 MLOAD PUSH10 0x6773C5A04A6D4300884B PUSH1 0xB1 SHL PUSH1 0x20 DUP3 ADD MSTORE PUSH1 0x0 PUSH1 0x2A DUP3 ADD MSTORE PUSH4 0x1FFC9A7 PUSH1 0xE0 SHL PUSH1 0x2C DUP3 ADD MSTORE PUSH1 0x20 DUP2 MSTORE PUSH2 0x37A7 DUP2 PUSH2 0x885 JUMP JUMPDEST PUSH2 0x4F2F JUMP JUMPDEST PUSH2 0x2ECD JUMP JUMPDEST DUP1 MLOAD PUSH1 0x14 DUP2 EQ ISZERO SWAP1 DUP2 PUSH2 0x3805 JUMPI JUMPDEST POP PUSH2 0x37E0 JUMPI PUSH2 0x37CD SWAP1 PUSH2 0x4A10 JUMP JUMPDEST PUSH1 0x60 SHR SWAP1 DUP2 ISZERO PUSH2 0x2C9B JUMPI PUSH2 0x7DD SWAP2 PUSH2 0x4AA2 JUMP JUMPDEST PUSH1 0x40 MLOAD PUSH4 0x42BFE79F PUSH1 0xE0 SHL DUP2 MSTORE PUSH1 0x20 PUSH1 0x4 DUP3 ADD MSTORE SWAP1 DUP2 SWAP1 PUSH2 0x1B47 SWAP1 PUSH1 0x24 DUP4 ADD SWAP1 PUSH2 0x7A7 JUMP JUMPDEST SWAP1 POP ISZERO ISZERO CODESIZE PUSH2 0x37BF JUMP JUMPDEST SWAP1 PUSH1 0x40 MLOAD SWAP2 PUSH1 0x20 DUP4 ADD MSTORE PUSH1 0x0 DUP1 MLOAD PUSH1 0x20 PUSH2 0x520F DUP4 CODECOPY DUP2 MLOAD SWAP2 MSTORE PUSH1 0x40 DUP4 ADD MSTORE PUSH1 0x40 DUP3 MSTORE PUSH2 0x5FE DUP3 PUSH2 0x84A JUMP JUMPDEST SWAP1 PUSH1 0x40 MLOAD SWAP2 PUSH1 0x20 DUP4 ADD MSTORE PUSH1 0x0 DUP1 MLOAD PUSH1 0x20 PUSH2 0x51EF DUP4 CODECOPY DUP2 MLOAD SWAP2 MSTORE PUSH1 0x40 DUP4 ADD MSTORE PUSH1 0x40 DUP3 MSTORE PUSH2 0x5FE DUP3 PUSH2 0x84A JUMP JUMPDEST SWAP1 PUSH1 0x40 MLOAD SWAP2 PUSH1 0x20 DUP4 ADD MSTORE PUSH1 0x0 DUP1 MLOAD PUSH1 0x20 PUSH2 0x522F DUP4 CODECOPY DUP2 MLOAD SWAP2 MSTORE PUSH1 0x40 DUP4 ADD MSTORE PUSH1 0x40 DUP3 MSTORE PUSH2 0x5FE DUP3 PUSH2 0x84A JUMP JUMPDEST SWAP2 SWAP1 PUSH1 0x40 MLOAD SWAP3 PUSH1 0x20 DUP5 ADD MSTORE PUSH1 0x40 DUP4 ADD MSTORE PUSH1 0x40 DUP3 MSTORE PUSH2 0x5FE DUP3 PUSH2 0x84A JUMP JUMPDEST PUSH1 0x40 MLOAD PUSH1 0x20 DUP2 ADD SWAP2 DUP3 MSTORE PUSH1 0x0 DUP1 MLOAD PUSH1 0x20 PUSH2 0x51EF DUP4 CODECOPY DUP2 MLOAD SWAP2 MSTORE PUSH1 0x40 DUP3 ADD MSTORE PUSH1 0x40 DUP2 MSTORE PUSH2 0x38D8 DUP2 PUSH2 0x84A JUMP JUMPDEST MLOAD SWAP1 KECCAK256 PUSH1 0x0 MSTORE PUSH1 0x1 PUSH1 0x20 MSTORE PUSH2 0x2EEC PUSH2 0x7DD PUSH1 0x40 PUSH1 0x0 KECCAK256 PUSH1 0x40 MLOAD SWAP3 DUP4 DUP1 SWAP3 PUSH2 0x27CC JUMP JUMPDEST PUSH1 0x40 MLOAD PUSH1 0x20 DUP2 ADD SWAP2 DUP3 MSTORE PUSH1 0x0 DUP1 MLOAD PUSH1 0x20 PUSH2 0x522F DUP4 CODECOPY DUP2 MLOAD SWAP2 MSTORE PUSH1 0x40 DUP3 ADD MSTORE PUSH1 0x40 DUP2 MSTORE PUSH2 0x38D8 DUP2 PUSH2 0x84A JUMP JUMPDEST SWAP1 PUSH2 0x392F SWAP2 PUSH2 0x3890 JUMP JUMPDEST PUSH1 0x20 DUP2 MLOAD SWAP2 ADD KECCAK256 PUSH1 0x0 MSTORE PUSH1 0x1 PUSH1 0x20 MSTORE PUSH2 0x2EEC PUSH2 0x7DD PUSH1 0x40 PUSH1 0x0 KECCAK256 PUSH1 0x40 MLOAD SWAP3 DUP4 DUP1 SWAP3 PUSH2 0x27CC JUMP JUMPDEST PUSH1 0x1 PUSH1 0x1 PUSH1 0xA0 SHL SUB DUP1 PUSH2 0x3967 DUP5 PUSH2 0x2A3D JUMP JUMPDEST AND SWAP2 AND SWAP1 DUP2 EQ SWAP2 DUP3 ISZERO PUSH2 0x3979 JUMPI POP POP SWAP1 JUMP JUMPDEST PUSH2 0x7DD SWAP3 POP PUSH1 0x0 MSTORE PUSH1 0x5 PUSH1 0x20 MSTORE PUSH1 0x40 PUSH1 0x0 KECCAK256 PUSH1 0x1 SWAP2 PUSH1 0x0 MSTORE ADD PUSH1 0x20 MSTORE PUSH1 0x40 PUSH1 0x0 KECCAK256 SLOAD ISZERO ISZERO SWAP1 JUMP JUMPDEST SWAP1 PUSH1 0x1F DUP2 GT PUSH2 0x39AE JUMPI POP POP POP JUMP JUMPDEST PUSH1 0x0 SWAP2 PUSH1 0x0 MSTORE PUSH1 0x20 PUSH1 0x0 KECCAK256 SWAP1 PUSH1 0x20 PUSH1 0x1F DUP6 ADD PUSH1 0x5 SHR DUP4 ADD SWAP5 LT PUSH2 0x39EC JUMPI JUMPDEST PUSH1 0x1F ADD PUSH1 0x5 SHR ADD SWAP2 JUMPDEST DUP3 DUP2 LT PUSH2 0x39E1 JUMPI POP POP POP JUMP JUMPDEST DUP2 DUP2 SSTORE PUSH1 0x1 ADD PUSH2 0x39D5 JUMP JUMPDEST SWAP1 SWAP3 POP DUP3 SWAP1 PUSH2 0x39CC JUMP JUMPDEST DUP2 PUSH1 0x1 SHL SWAP2 PUSH1 0x0 NOT SWAP1 PUSH1 0x3 SHL SHR NOT AND OR SWAP1 JUMP JUMPDEST SWAP2 SWAP1 SWAP2 DUP3 MLOAD PUSH1 0x1 PUSH1 0x1 PUSH1 0x40 SHL SUB DUP2 GT PUSH2 0x865 JUMPI PUSH2 0x3A30 DUP2 PUSH2 0x3A2A DUP5 SLOAD PUSH2 0x2792 JUMP JUMPDEST DUP5 PUSH2 0x39A0 JUMP JUMPDEST PUSH1 0x20 DUP1 PUSH1 0x1F DUP4 GT PUSH1 0x1 EQ PUSH2 0x3A61 JUMPI POP DUP2 SWAP1 PUSH2 0x29C0 SWAP4 SWAP5 SWAP6 PUSH1 0x0 SWAP3 PUSH2 0x3A56 JUMPI JUMPDEST POP POP PUSH2 0x39F6 JUMP JUMPDEST ADD MLOAD SWAP1 POP CODESIZE DUP1 PUSH2 0x3A4F JUMP JUMPDEST SWAP1 PUSH1 0x1F NOT DUP4 AND SWAP6 PUSH2 0x3A77 DUP6 PUSH1 0x0 MSTORE PUSH1 0x20 PUSH1 0x0 KECCAK256 SWAP1 JUMP JUMPDEST SWAP3 PUSH1 0x0 SWAP1 JUMPDEST DUP9 DUP3 LT PUSH2 0x3AB4 JUMPI POP POP DUP4 PUSH1 0x1 SWAP6 SWAP7 SWAP8 LT PUSH2 0x3A9B JUMPI JUMPDEST POP POP POP DUP2 SHL ADD SWAP1 SSTORE JUMP JUMPDEST ADD MLOAD PUSH1 0x0 NOT PUSH1 0xF8 DUP5 PUSH1 0x3 SHL AND SHR NOT AND SWAP1 SSTORE CODESIZE DUP1 DUP1 PUSH2 0x3A91 JUMP JUMPDEST DUP1 PUSH1 0x1 DUP6 SWAP7 DUP3 SWAP5 SWAP7 DUP7 ADD MLOAD DUP2 SSTORE ADD SWAP6 ADD SWAP4 ADD SWAP1 PUSH2 0x3A7C JUMP JUMPDEST SWAP1 PUSH2 0x3AD6 DUP3 PUSH2 0x380F JUMP JUMPDEST DUP1 MLOAD PUSH1 0x20 DUP1 SWAP3 ADD KECCAK256 PUSH1 0x0 MSTORE PUSH1 0x1 DUP1 PUSH1 0x20 MSTORE PUSH1 0x40 PUSH1 0x0 KECCAK256 SWAP2 DUP4 MLOAD SWAP2 PUSH1 0x1 PUSH1 0x1 PUSH1 0x40 SHL SUB DUP4 GT PUSH2 0x865 JUMPI PUSH2 0x3B12 DUP4 PUSH2 0x3B0C DUP7 SLOAD PUSH2 0x2792 JUMP JUMPDEST DUP7 PUSH2 0x39A0 JUMP JUMPDEST PUSH1 0x20 SWAP2 PUSH1 0x1F DUP5 GT PUSH1 0x1 EQ PUSH2 0x3B79 JUMPI POP POP SWAP3 PUSH1 0x0 DUP1 MLOAD PUSH1 0x20 PUSH2 0x51CF DUP4 CODECOPY DUP2 MLOAD SWAP2 MSTORE SWAP3 PUSH2 0x3B5A DUP4 PUSH2 0x3B69 SWAP5 PUSH1 0x0 DUP1 MLOAD PUSH1 0x20 PUSH2 0x520F DUP4 CODECOPY DUP2 MLOAD SWAP2 MSTORE SWAP9 SWAP8 PUSH1 0x0 SWAP2 PUSH2 0x3B6E JUMPI JUMPDEST POP PUSH2 0x39F6 JUMP JUMPDEST SWAP1 SSTORE JUMPDEST PUSH1 0x40 MLOAD SWAP2 DUP3 SWAP2 DUP3 PUSH2 0x7CC JUMP JUMPDEST SUB SWAP1 LOG3 JUMP JUMPDEST SWAP1 POP DUP5 ADD MLOAD CODESIZE PUSH2 0x3B54 JUMP JUMPDEST SWAP2 SWAP1 PUSH1 0x1F NOT DUP5 AND SWAP1 PUSH2 0x3B90 DUP7 PUSH1 0x0 MSTORE PUSH1 0x20 PUSH1 0x0 KECCAK256 SWAP1 JUMP JUMPDEST SWAP4 PUSH1 0x0 SWAP2 JUMPDEST DUP4 DUP4 LT PUSH2 0x3BF5 JUMPI POP POP POP DUP4 PUSH1 0x0 DUP1 MLOAD PUSH1 0x20 PUSH2 0x520F DUP4 CODECOPY DUP2 MLOAD SWAP2 MSTORE SWAP8 SWAP7 SWAP4 PUSH1 0x0 DUP1 MLOAD PUSH1 0x20 PUSH2 0x51CF DUP4 CODECOPY DUP2 MLOAD SWAP2 MSTORE SWAP7 SWAP4 PUSH2 0x3B69 SWAP7 PUSH1 0x1 SWAP5 LT PUSH2 0x3BDC JUMPI JUMPDEST POP POP DUP2 SHL ADD SWAP1 SSTORE PUSH2 0x3B5D JUMP JUMPDEST DUP6 ADD MLOAD PUSH1 0x0 NOT PUSH1 0xF8 DUP5 PUSH1 0x3 SHL AND SHR NOT AND SWAP1 SSTORE CODESIZE DUP1 PUSH2 0x3BD0 JUMP JUMPDEST DUP9 DUP6 ADD MLOAD DUP7 SSTORE SWAP5 DUP6 ADD SWAP5 SWAP4 DUP2 ADD SWAP4 SWAP2 DUP2 ADD SWAP2 PUSH2 0x3B95 JUMP JUMPDEST SWAP1 PUSH2 0x3C16 DUP3 PUSH2 0x3865 JUMP JUMPDEST DUP1 MLOAD PUSH1 0x20 DUP1 SWAP3 ADD KECCAK256 PUSH1 0x0 MSTORE PUSH1 0x1 DUP1 PUSH1 0x20 MSTORE PUSH1 0x40 PUSH1 0x0 KECCAK256 SWAP2 DUP4 MLOAD SWAP2 PUSH1 0x1 PUSH1 0x1 PUSH1 0x40 SHL SUB DUP4 GT PUSH2 0x865 JUMPI PUSH2 0x3C4C DUP4 PUSH2 0x3B0C DUP7 SLOAD PUSH2 0x2792 JUMP JUMPDEST PUSH1 0x20 SWAP2 PUSH1 0x1F DUP5 GT PUSH1 0x1 EQ PUSH2 0x3C93 JUMPI POP POP SWAP3 PUSH1 0x0 DUP1 MLOAD PUSH1 0x20 PUSH2 0x51CF DUP4 CODECOPY DUP2 MLOAD SWAP2 MSTORE SWAP3 PUSH2 0x3B5A DUP4 PUSH2 0x3B69 SWAP5 PUSH1 0x0 DUP1 MLOAD PUSH1 0x20 PUSH2 0x522F DUP4 CODECOPY DUP2 MLOAD SWAP2 MSTORE SWAP9 SWAP8 PUSH1 0x0 SWAP2 PUSH2 0x3B6E JUMPI POP PUSH2 0x39F6 JUMP JUMPDEST SWAP2 SWAP1 PUSH1 0x1F NOT DUP5 AND SWAP1 PUSH2 0x3CAA DUP7 PUSH1 0x0 MSTORE PUSH1 0x20 PUSH1 0x0 KECCAK256 SWAP1 JUMP JUMPDEST SWAP4 PUSH1 0x0 SWAP2 JUMPDEST DUP4 DUP4 LT PUSH2 0x3CF5 JUMPI POP POP POP DUP4 PUSH1 0x0 DUP1 MLOAD PUSH1 0x20 PUSH2 0x522F DUP4 CODECOPY DUP2 MLOAD SWAP2 MSTORE SWAP8 SWAP7 SWAP4 PUSH1 0x0 DUP1 MLOAD PUSH1 0x20 PUSH2 0x51CF DUP4 CODECOPY DUP2 MLOAD SWAP2 MSTORE SWAP7 SWAP4 PUSH2 0x3B69 SWAP7 PUSH1 0x1 SWAP5 LT PUSH2 0x3BDC JUMPI POP POP DUP2 SHL ADD SWAP1 SSTORE PUSH2 0x3B5D JUMP JUMPDEST DUP9 DUP6 ADD MLOAD DUP7 SSTORE SWAP5 DUP6 ADD SWAP5 SWAP4 DUP2 ADD SWAP4 SWAP2 DUP2 ADD SWAP2 PUSH2 0x3CAF JUMP JUMPDEST SWAP1 PUSH2 0x3D16 DUP3 PUSH2 0x380F JUMP JUMPDEST DUP1 MLOAD PUSH1 0x20 DUP1 SWAP3 ADD KECCAK256 PUSH1 0x0 MSTORE PUSH1 0x1 DUP1 PUSH1 0x20 MSTORE PUSH1 0x40 PUSH1 0x0 KECCAK256 SWAP2 DUP4 MLOAD SWAP2 PUSH1 0x1 PUSH1 0x1 PUSH1 0x40 SHL SUB DUP4 GT PUSH2 0x865 JUMPI PUSH2 0x3D4C DUP4 PUSH2 0x3B0C DUP7 SLOAD PUSH2 0x2792 JUMP JUMPDEST PUSH1 0x20 SWAP2 PUSH1 0x1F DUP5 GT PUSH1 0x1 EQ PUSH2 0x3D93 JUMPI POP POP SWAP3 PUSH1 0x0 DUP1 MLOAD PUSH1 0x20 PUSH2 0x51CF DUP4 CODECOPY DUP2 MLOAD SWAP2 MSTORE SWAP3 PUSH2 0x3B5A DUP4 PUSH2 0x3B69 SWAP5 PUSH1 0x0 DUP1 MLOAD PUSH1 0x20 PUSH2 0x520F DUP4 CODECOPY DUP2 MLOAD SWAP2 MSTORE SWAP9 SWAP8 PUSH1 0x0 SWAP2 PUSH2 0x3B6E JUMPI POP PUSH2 0x39F6 JUMP JUMPDEST SWAP2 SWAP1 PUSH1 0x1F NOT DUP5 AND SWAP1 PUSH2 0x3DAA DUP7 PUSH1 0x0 MSTORE PUSH1 0x20 PUSH1 0x0 KECCAK256 SWAP1 JUMP JUMPDEST SWAP4 PUSH1 0x0 SWAP2 JUMPDEST DUP4 DUP4 LT PUSH2 0x3DF5 JUMPI POP POP POP DUP4 PUSH1 0x0 DUP1 MLOAD PUSH1 0x20 PUSH2 0x520F DUP4 CODECOPY DUP2 MLOAD SWAP2 MSTORE SWAP8 SWAP7 SWAP4 PUSH1 0x0 DUP1 MLOAD PUSH1 0x20 PUSH2 0x51CF DUP4 CODECOPY DUP2 MLOAD SWAP2 MSTORE SWAP7 SWAP4 PUSH2 0x3B69 SWAP7 PUSH1 0x1 SWAP5 LT PUSH2 0x3BDC JUMPI POP POP DUP2 SHL ADD SWAP1 SSTORE PUSH2 0x3B5D JUMP JUMPDEST DUP9 DUP6 ADD MLOAD DUP7 SSTORE SWAP5 DUP6 ADD SWAP5 SWAP4 DUP2 ADD SWAP4 SWAP2 DUP2 ADD SWAP2 PUSH2 0x3DAF JUMP JUMPDEST SWAP1 SWAP2 PUSH2 0x3E18 DUP4 DUP4 PUSH2 0x3890 JUMP JUMPDEST DUP1 MLOAD PUSH1 0x20 DUP1 SWAP3 ADD KECCAK256 PUSH1 0x0 MSTORE PUSH1 0x1 DUP1 PUSH1 0x20 MSTORE PUSH1 0x40 PUSH1 0x0 KECCAK256 SWAP2 DUP4 MLOAD SWAP2 PUSH1 0x1 PUSH1 0x1 PUSH1 0x40 SHL SUB DUP4 GT PUSH2 0x865 JUMPI PUSH2 0x3E4E DUP4 PUSH2 0x3B0C DUP7 SLOAD PUSH2 0x2792 JUMP JUMPDEST PUSH1 0x20 SWAP2 PUSH1 0x1F DUP5 GT PUSH1 0x1 EQ PUSH2 0x3E85 JUMPI POP POP SWAP2 PUSH2 0x3B5A DUP3 PUSH1 0x0 DUP1 MLOAD PUSH1 0x20 PUSH2 0x51CF DUP4 CODECOPY DUP2 MLOAD SWAP2 MSTORE SWAP6 SWAP4 PUSH2 0x3B69 SWAP6 PUSH1 0x0 SWAP2 PUSH2 0x3B6E JUMPI POP PUSH2 0x39F6 JUMP JUMPDEST SWAP2 SWAP1 PUSH1 0x1F NOT DUP5 AND SWAP1 PUSH2 0x3E9C DUP7 PUSH1 0x0 MSTORE PUSH1 0x20 PUSH1 0x0 KECCAK256 SWAP1 JUMP JUMPDEST SWAP4 PUSH1 0x0 SWAP2 JUMPDEST DUP4 DUP4 LT PUSH2 0x3ED7 JUMPI POP POP POP SWAP3 PUSH2 0x3B69 SWAP5 SWAP3 PUSH1 0x1 SWAP3 DUP3 PUSH1 0x0 DUP1 MLOAD PUSH1 0x20 PUSH2 0x51CF DUP4 CODECOPY DUP2 MLOAD SWAP2 MSTORE SWAP9 SWAP7 LT PUSH2 0x3BDC JUMPI POP POP DUP2 SHL ADD SWAP1 SSTORE PUSH2 0x3B5D JUMP JUMPDEST DUP9 DUP6 ADD MLOAD DUP7 SSTORE SWAP5 DUP6 ADD SWAP5 SWAP4 DUP2 ADD SWAP4 SWAP2 DUP2 ADD SWAP2 PUSH2 0x3EA1 JUMP JUMPDEST PUSH1 0x1 PUSH1 0x1 PUSH1 0xA0 SHL SUB SWAP1 SWAP2 AND DUP2 MSTORE PUSH1 0x1 PUSH1 0x20 DUP3 ADD MSTORE PUSH1 0x60 PUSH1 0x40 DUP3 ADD DUP2 SWAP1 MSTORE PUSH2 0x7DD SWAP3 SWAP2 ADD SWAP1 PUSH2 0x7A7 JUMP JUMPDEST PUSH1 0x1 PUSH1 0x1 PUSH1 0xA0 SHL SUB SWAP1 SWAP2 AND DUP2 MSTORE SWAP1 ISZERO ISZERO PUSH1 0x20 DUP3 ADD MSTORE PUSH1 0x60 PUSH1 0x40 DUP3 ADD DUP2 SWAP1 MSTORE PUSH2 0x7DD SWAP3 SWAP2 ADD SWAP1 PUSH2 0x7A7 JUMP JUMPDEST PUSH1 0x1 PUSH1 0x1 PUSH1 0xA0 SHL SUB SWAP2 DUP3 AND DUP2 MSTORE PUSH1 0x0 PUSH1 0x20 DUP3 ADD MSTORE SWAP2 AND PUSH1 0x40 DUP3 ADD MSTORE PUSH1 0x60 DUP2 ADD SWAP2 SWAP1 SWAP2 MSTORE PUSH1 0xA0 PUSH1 0x80 DUP3 ADD DUP2 SWAP1 MSTORE PUSH2 0x7DD SWAP3 SWAP2 ADD SWAP1 PUSH2 0x7A7 JUMP JUMPDEST PUSH1 0x1 PUSH1 0x1 PUSH1 0xA0 SHL SUB SWAP2 DUP3 AND DUP2 MSTORE SWAP2 DUP2 AND PUSH1 0x20 DUP4 ADD MSTORE SWAP1 SWAP2 AND PUSH1 0x40 DUP3 ADD MSTORE PUSH1 0x60 DUP2 ADD SWAP2 SWAP1 SWAP2 MSTORE PUSH1 0xA0 PUSH1 0x80 DUP3 ADD DUP2 SWAP1 MSTORE PUSH2 0x7DD SWAP3 SWAP2 ADD SWAP1 PUSH2 0x7A7 JUMP JUMPDEST SWAP1 SWAP3 SWAP2 SWAP1 PUSH1 0x1 PUSH1 0x1 PUSH1 0xA0 SHL SUB DUP2 AND DUP1 ISZERO PUSH2 0x2DE1 JUMPI PUSH2 0x3FD0 DUP6 PUSH2 0x4AD4 JUMP JUMPDEST PUSH2 0x4072 JUMPI PUSH2 0x3FDD DUP6 PUSH2 0x4AD4 JUMP JUMPDEST PUSH2 0x4072 JUMPI DUP5 PUSH2 0x5FE SWAP5 SWAP6 PUSH2 0x406D SWAP3 PUSH2 0x3FFE PUSH2 0x3FF9 PUSH1 0x2 SLOAD PUSH2 0x3032 JUMP JUMPDEST PUSH1 0x2 SSTORE JUMP JUMPDEST PUSH2 0x400B DUP3 PUSH2 0x2D30 DUP8 PUSH2 0x269E JUMP JUMPDEST POP PUSH2 0x4024 DUP6 PUSH2 0x2D4E DUP5 PUSH1 0x0 MSTORE PUSH1 0x3 PUSH1 0x20 MSTORE PUSH1 0x40 PUSH1 0x0 KECCAK256 SWAP1 JUMP JUMPDEST PUSH1 0x0 PUSH32 0xB333C813A7426A7A11E2B190CAD52C44119421594B47F6F32ACE6D8C7207B2BF PUSH1 0x40 MLOAD DUP1 PUSH2 0x4056 DUP11 CALLER DUP4 PUSH2 0x3EEE JUMP JUMPDEST SUB SWAP1 LOG4 PUSH2 0x1B18 PUSH1 0x40 MLOAD SWAP5 DUP6 SWAP3 DUP6 CALLER PUSH1 0x20 DUP7 ADD PUSH2 0x3F41 JUMP JUMPDEST PUSH2 0x4D15 JUMP JUMPDEST PUSH1 0x40 MLOAD PUSH4 0x34C7B511 PUSH1 0xE0 SHL DUP2 MSTORE PUSH1 0x4 DUP2 ADD DUP7 SWAP1 MSTORE PUSH1 0x24 SWAP1 REVERT JUMPDEST SWAP2 SWAP1 SWAP3 PUSH1 0x40 DUP1 MLOAD PUSH1 0x20 DUP1 DUP1 DUP4 ADD MSTORE DUP2 PUSH2 0x40A6 DUP5 DUP3 ADD DUP10 PUSH2 0x7A7 JUMP JUMPDEST SUB PUSH2 0x40B9 PUSH1 0x1F NOT SWAP2 DUP3 DUP2 ADD DUP6 MSTORE DUP5 PUSH2 0x8A0 JUMP JUMPDEST PUSH2 0x40C2 DUP8 PUSH2 0x383A JUMP JUMPDEST DUP3 DUP2 MLOAD SWAP2 ADD KECCAK256 SWAP3 PUSH1 0x0 SWAP4 DUP5 MSTORE PUSH1 0x1 SWAP2 PUSH1 0x1 DUP5 MSTORE DUP6 DUP6 KECCAK256 SWAP1 DUP3 MLOAD SWAP1 PUSH1 0x1 PUSH1 0x1 PUSH1 0x40 SHL SUB DUP3 GT PUSH2 0x865 JUMPI DUP11 SWAP5 PUSH2 0x40FA DUP4 PUSH2 0x3B0C DUP7 SLOAD PUSH2 0x2792 JUMP JUMPDEST DUP7 SWAP2 PUSH1 0x1F DUP5 GT PUSH1 0x1 EQ PUSH2 0x41C7 JUMPI POP POP SWAP4 PUSH1 0x0 DUP1 MLOAD PUSH1 0x20 PUSH2 0x51CF DUP4 CODECOPY DUP2 MLOAD SWAP2 MSTORE PUSH2 0x4179 DUP9 SWAP6 PUSH32 0x12DAB994B8A0B3A65A7A61EDF404ECF300E5BE96EDD6F3FCAA76DC5E7C26EF08 SWAP13 SWAP12 SWAP11 SWAP9 SWAP6 PUSH2 0x416B DUP7 PUSH1 0x0 DUP1 MLOAD PUSH1 0x20 PUSH2 0x51EF DUP4 CODECOPY DUP2 MLOAD SWAP2 MSTORE SWAP8 PUSH2 0x41B0 SWAP12 PUSH2 0x3B69 SWAP15 SWAP2 PUSH2 0x3B6E JUMPI POP PUSH2 0x39F6 JUMP JUMPDEST SWAP1 SSTORE JUMPDEST DUP9 MLOAD SWAP2 DUP3 SWAP2 DUP3 PUSH2 0x7CC JUMP JUMPDEST SUB SWAP1 LOG3 PUSH2 0x4198 DUP5 MLOAD DUP9 DUP4 DUP3 ADD MSTORE DUP3 DUP2 MSTORE PUSH2 0x4192 DUP2 PUSH2 0x885 JUMP JUMPDEST DUP11 PUSH2 0x3C0C JUMP JUMPDEST DUP4 MLOAD SWAP2 DUP2 DUP4 ADD MSTORE DUP2 MSTORE PUSH2 0x41AA DUP2 PUSH2 0x885 JUMP JUMPDEST DUP8 PUSH2 0x3D0C JUMP JUMPDEST MLOAD PUSH1 0x1 PUSH1 0x1 PUSH1 0xA0 SHL SUB SWAP1 SWAP3 AND SWAP6 SWAP2 SWAP3 DUP4 SWAP3 DUP4 PUSH2 0x1DD4 JUMP JUMPDEST DUP4 SWAP3 SWAP2 SWAP3 AND PUSH2 0x41DB DUP6 PUSH1 0x0 MSTORE PUSH1 0x20 PUSH1 0x0 KECCAK256 SWAP1 JUMP JUMPDEST SWAP3 DUP10 SWAP1 JUMPDEST DUP3 DUP3 LT PUSH2 0x426A JUMPI POP POP PUSH2 0x3B69 SWAP9 SWAP6 PUSH32 0x12DAB994B8A0B3A65A7A61EDF404ECF300E5BE96EDD6F3FCAA76DC5E7C26EF08 SWAP13 SWAP12 SWAP11 SWAP9 SWAP6 PUSH1 0x1 DUP7 PUSH2 0x41B0 SWAP11 SWAP7 PUSH1 0x0 DUP1 MLOAD PUSH1 0x20 PUSH2 0x51CF DUP4 CODECOPY DUP2 MLOAD SWAP2 MSTORE SWAP7 PUSH1 0x0 DUP1 MLOAD PUSH1 0x20 PUSH2 0x51EF DUP4 CODECOPY DUP2 MLOAD SWAP2 MSTORE SWAP10 PUSH2 0x4179 SWAP8 LT PUSH2 0x4251 JUMPI JUMPDEST POP POP DUP2 SHL ADD SWAP1 SSTORE PUSH2 0x416E JUMP JUMPDEST DUP6 ADD MLOAD PUSH1 0x0 NOT PUSH1 0xF8 DUP5 PUSH1 0x3 SHL AND SHR NOT AND SWAP1 SSTORE CODESIZE DUP1 PUSH2 0x4245 JUMP JUMPDEST DUP8 DUP5 ADD MLOAD DUP6 SSTORE DUP15 SWAP9 POP SWAP4 DUP5 ADD SWAP4 SWAP3 DUP10 ADD SWAP3 SWAP1 DUP10 ADD SWAP1 PUSH2 0x41DF JUMP JUMPDEST SWAP1 PUSH32 0xF675E9361AF1C1664C1868CFA3EB97672D6B1A513AA5B81DEC34C9EE330E818D DUP3 EQ PUSH2 0x439E JUMPI PUSH32 0xDEBA1E292F8BA88238E10AB3C7F88BD4BE4FAC56CAD5194B6ECCEAF653468AF1 DUP3 SUB PUSH2 0x42E5 JUMPI PUSH1 0x40 MLOAD PUSH4 0x85C169BD PUSH1 0xE0 SHL DUP2 MSTORE PUSH1 0x4 SWAP1 REVERT JUMPDEST PUSH32 0x2F0A68AB07768E01943A599E73362A0E17A63A72E94DD2E384D2C1D4DB932756 DUP3 SUB PUSH2 0x431E JUMPI PUSH1 0x40 MLOAD PUSH4 0xECEAB67 PUSH1 0xE3 SHL DUP2 MSTORE PUSH1 0x4 SWAP1 REVERT JUMPDEST PUSH32 0xE0261FA95DB2EB3B5439BD033CDA66D56B96F92F243A8228FD87550ED7BDFDB3 DUP3 SUB PUSH2 0x4357 JUMPI PUSH1 0x40 MLOAD PUSH4 0x4EF6D7FB PUSH1 0xE0 SHL DUP2 MSTORE PUSH1 0x4 SWAP1 REVERT JUMPDEST PUSH2 0x4399 DUP2 PUSH2 0x3B5D PUSH32 0xECE574603820D07BC9B91F2A932BAADF4628AABCB8AFBA49776529C14A6104B2 SWAP4 PUSH2 0x4394 DUP7 PUSH1 0x0 MSTORE PUSH1 0x1 PUSH1 0x20 MSTORE PUSH1 0x40 PUSH1 0x0 KECCAK256 SWAP1 JUMP JUMPDEST PUSH2 0x3A09 JUMP JUMPDEST SUB SWAP1 LOG2 JUMP JUMPDEST PUSH1 0x40 MLOAD PUSH4 0x1B324005 PUSH1 0xE1 SHL DUP2 MSTORE PUSH1 0x4 SWAP1 REVERT JUMPDEST PUSH2 0x7DD SWAP2 PUSH1 0x1 PUSH1 0x1 PUSH1 0xA0 SHL SUB AND SWAP1 PUSH2 0x4E17 JUMP JUMPDEST SWAP3 SWAP2 SWAP1 PUSH1 0x1 PUSH1 0x1 PUSH1 0x40 SHL SUB DUP1 SWAP2 AND DUP1 ISZERO SWAP1 DUP2 ISZERO PUSH2 0x4476 JUMPI JUMPDEST POP PUSH2 0x4464 JUMPI TIMESTAMP SWAP2 AND GT PUSH2 0x4452 JUMPI DUP1 PUSH2 0x43F1 JUMPI POP POP JUMP JUMPDEST PUSH2 0x440B PUSH2 0x11D3 PUSH2 0x2BC8 DUP4 PUSH1 0x0 MSTORE PUSH1 0xD PUSH1 0x20 MSTORE PUSH1 0x40 PUSH1 0x0 KECCAK256 SWAP1 JUMP JUMPDEST PUSH2 0x4440 JUMPI PUSH2 0x4425 PUSH1 0x2 SWAP2 PUSH1 0x0 MSTORE PUSH1 0xD PUSH1 0x20 MSTORE PUSH1 0x40 PUSH1 0x0 KECCAK256 SWAP1 JUMP JUMPDEST ADD SLOAD SUB PUSH2 0x442E JUMPI JUMP JUMPDEST PUSH1 0x40 MLOAD PUSH4 0xD1426E7F PUSH1 0xE0 SHL DUP2 MSTORE PUSH1 0x4 SWAP1 REVERT JUMPDEST PUSH1 0x40 MLOAD PUSH4 0x51274CB PUSH1 0xE0 SHL DUP2 MSTORE PUSH1 0x4 SWAP1 REVERT JUMPDEST PUSH1 0x40 MLOAD PUSH4 0x5F1F141 PUSH1 0xE3 SHL DUP2 MSTORE PUSH1 0x4 SWAP1 REVERT JUMPDEST PUSH1 0x40 MLOAD PUSH4 0x4D4AE4D3 PUSH1 0xE0 SHL DUP2 MSTORE PUSH1 0x4 SWAP1 REVERT JUMPDEST SWAP1 POP DUP2 DUP4 AND LT CODESIZE PUSH2 0x43DB JUMP JUMPDEST PUSH1 0xFF PUSH1 0x4 DUP3 ADD SLOAD PUSH1 0xA8 SHR AND PUSH1 0x2 DUP2 LT ISZERO PUSH2 0x530 JUMPI ISZERO PUSH2 0x449E JUMPI POP JUMP JUMPDEST DUP1 SLOAD PUSH1 0xFF NOT AND SWAP1 SSTORE JUMP JUMPDEST CALLDATALOAD PUSH4 0xFFFFFFFF DUP2 AND DUP2 SUB PUSH2 0x36E JUMPI SWAP1 JUMP JUMPDEST SWAP1 PUSH1 0x9 DUP2 LT ISZERO PUSH2 0x530 JUMPI PUSH1 0xFF DUP1 NOT DUP4 SLOAD AND SWAP2 AND OR SWAP1 SSTORE JUMP JUMPDEST SWAP1 PUSH1 0x8 DUP2 LT ISZERO PUSH2 0x530 JUMPI PUSH2 0xFF00 DUP3 SLOAD SWAP2 PUSH1 0x8 SHL AND SWAP1 PUSH2 0xFF00 NOT AND OR SWAP1 SSTORE JUMP JUMPDEST SWAP2 SWAP1 SWAP2 DUP3 MLOAD PUSH1 0x1 PUSH1 0x1 PUSH1 0x40 SHL SUB DUP2 GT PUSH2 0x865 JUMPI PUSH2 0x4511 DUP2 PUSH2 0x3A2A DUP5 SLOAD PUSH2 0x2792 JUMP JUMPDEST PUSH1 0x20 DUP1 PUSH1 0x1F DUP4 GT PUSH1 0x1 EQ PUSH2 0x4536 JUMPI POP DUP2 SWAP1 PUSH2 0x29C0 SWAP4 SWAP5 SWAP6 PUSH1 0x0 SWAP3 PUSH2 0x3A56 JUMPI POP POP PUSH2 0x39F6 JUMP JUMPDEST SWAP1 PUSH1 0x1F NOT DUP4 AND SWAP6 PUSH2 0x454C DUP6 PUSH1 0x0 MSTORE PUSH1 0x20 PUSH1 0x0 KECCAK256 SWAP1 JUMP JUMPDEST SWAP3 PUSH1 0x0 SWAP1 JUMPDEST DUP9 DUP3 LT PUSH2 0x456F JUMPI POP POP DUP4 PUSH1 0x1 SWAP6 SWAP7 SWAP8 LT PUSH2 0x3A9B JUMPI POP POP POP DUP2 SHL ADD SWAP1 SSTORE JUMP JUMPDEST DUP1 PUSH1 0x1 DUP6 SWAP7 DUP3 SWAP5 SWAP7 DUP7 ADD MLOAD DUP2 SSTORE ADD SWAP6 ADD SWAP4 ADD SWAP1 PUSH2 0x4551 JUMP JUMPDEST PUSH1 0xA PUSH2 0x4721 PUSH2 0x1E0 PUSH2 0x5FE SWAP5 PUSH2 0x45B2 PUSH2 0x45A0 DUP3 MLOAD ISZERO ISZERO SWAP1 JUMP JUMPDEST DUP7 SWAP1 PUSH1 0xFF DUP1 NOT DUP4 SLOAD AND SWAP2 ISZERO ISZERO AND OR SWAP1 SSTORE JUMP JUMPDEST PUSH1 0x20 DUP2 ADD MLOAD PUSH1 0x1 DUP7 ADD SSTORE PUSH1 0x40 DUP2 ADD MLOAD PUSH1 0x2 DUP7 ADD SSTORE PUSH1 0x60 DUP2 ADD MLOAD PUSH1 0x3 DUP7 ADD SSTORE PUSH2 0x463B PUSH1 0x4 DUP7 ADD PUSH2 0x45EE PUSH1 0x80 DUP5 ADD MLOAD PUSH2 0x45E8 DUP2 PUSH2 0x526 JUMP JUMPDEST DUP3 PUSH2 0x44B9 JUMP JUMPDEST PUSH2 0x4605 PUSH1 0xA0 DUP5 ADD MLOAD PUSH2 0x45FF DUP2 PUSH2 0x542 JUMP JUMPDEST DUP3 PUSH2 0x44D1 JUMP JUMPDEST PUSH1 0xC0 DUP4 ADD MLOAD PUSH2 0x3197 SWAP1 PUSH1 0x1 PUSH1 0x1 PUSH1 0xA0 SHL SUB AND DUP3 SLOAD PUSH3 0x10000 PUSH1 0x1 PUSH1 0xB0 SHL SUB NOT AND PUSH1 0x10 SWAP2 SWAP1 SWAP2 SHL PUSH3 0x10000 PUSH1 0x1 PUSH1 0xB0 SHL SUB AND OR DUP3 SSTORE JUMP JUMPDEST PUSH2 0x46CC PUSH1 0x5 DUP7 ADD PUSH2 0x4660 PUSH2 0x465A PUSH2 0x100 DUP6 ADD MLOAD PUSH1 0x1 PUSH1 0x1 PUSH1 0x40 SHL SUB AND SWAP1 JUMP JUMPDEST DUP3 PUSH2 0x30D8 JUMP JUMPDEST PUSH2 0x46A0 PUSH2 0x4678 PUSH2 0x120 DUP6 ADD MLOAD PUSH1 0x1 PUSH1 0x1 PUSH1 0x40 SHL SUB AND SWAP1 JUMP JUMPDEST DUP3 SLOAD PUSH8 0xFFFFFFFFFFFFFFFF PUSH1 0x40 SHL NOT AND PUSH1 0x40 SWAP2 SWAP1 SWAP2 SHL PUSH8 0xFFFFFFFFFFFFFFFF PUSH1 0x40 SHL AND OR DUP3 SSTORE JUMP JUMPDEST PUSH2 0x140 DUP4 ADD MLOAD PUSH4 0xFFFFFFFF AND DUP2 SLOAD PUSH4 0xFFFFFFFF PUSH1 0x80 SHL NOT AND PUSH1 0x80 SWAP2 SWAP1 SWAP2 SHL PUSH4 0xFFFFFFFF PUSH1 0x80 SHL AND OR SWAP1 SSTORE JUMP JUMPDEST PUSH2 0x46DE PUSH2 0x160 DUP3 ADD MLOAD PUSH1 0x6 DUP8 ADD PUSH2 0x44F0 JUMP JUMPDEST PUSH2 0x180 DUP2 ADD MLOAD PUSH1 0x7 DUP7 ADD SSTORE PUSH2 0x470F PUSH2 0x46FA PUSH2 0x1A0 DUP4 ADD MLOAD ISZERO ISZERO SWAP1 JUMP JUMPDEST PUSH1 0x8 DUP8 ADD SWAP1 PUSH1 0xFF DUP1 NOT DUP4 SLOAD AND SWAP2 ISZERO ISZERO AND OR SWAP1 SSTORE JUMP JUMPDEST PUSH2 0x1C0 DUP2 ADD MLOAD PUSH1 0x9 DUP7 ADD SSTORE ADD MLOAD ISZERO ISZERO SWAP1 JUMP JUMPDEST SWAP2 ADD SWAP1 PUSH1 0xFF DUP1 NOT DUP4 SLOAD AND SWAP2 ISZERO ISZERO AND OR SWAP1 SSTORE JUMP JUMPDEST SWAP2 SWAP3 SWAP5 SWAP4 PUSH1 0xC SLOAD SWAP4 PUSH2 0x4745 DUP6 PUSH2 0x3032 JUMP JUMPDEST PUSH1 0xC SSTORE DUP5 SWAP7 PUSH1 0xA0 DUP4 ADD PUSH2 0x4757 SWAP1 PUSH2 0x364A JUMP JUMPDEST SWAP1 PUSH2 0x4761 DUP5 PUSH2 0x3640 JUMP JUMPDEST PUSH2 0x476D PUSH1 0x20 DUP7 ADD PUSH2 0x3640 JUMP JUMPDEST SWAP1 PUSH2 0x477A PUSH1 0x40 DUP8 ADD PUSH2 0x44A8 JUMP JUMPDEST SWAP3 PUSH2 0x4788 PUSH1 0x60 DUP9 ADD DUP9 PUSH2 0x2EF3 JUMP JUMPDEST SWAP6 SWAP1 SWAP7 PUSH2 0x4793 PUSH2 0x8E1 JUMP JUMPDEST PUSH1 0x1 DUP2 MSTORE SWAP10 DUP13 PUSH1 0x20 DUP13 ADD MSTORE DUP12 PUSH1 0x40 DUP13 ADD MSTORE PUSH1 0x60 DUP12 ADD MSTORE PUSH1 0x80 DUP11 ADD SWAP1 PUSH2 0x47B7 SWAP2 PUSH2 0x277A JUMP JUMPDEST PUSH2 0x47C4 SWAP1 PUSH1 0xA0 DUP11 ADD PUSH2 0x2786 JUMP JUMPDEST PUSH1 0x1 PUSH1 0x1 PUSH1 0xA0 SHL SUB AND PUSH1 0xC0 DUP9 ADD MSTORE PUSH1 0x1 PUSH1 0x1 PUSH1 0x40 SHL SUB TIMESTAMP AND PUSH1 0xE0 DUP9 ADD MSTORE PUSH1 0x1 PUSH1 0x1 PUSH1 0x40 SHL SUB AND PUSH2 0x100 DUP8 ADD MSTORE PUSH1 0x1 PUSH1 0x1 PUSH1 0x40 SHL SUB AND PUSH2 0x120 DUP7 ADD MSTORE PUSH4 0xFFFFFFFF AND PUSH2 0x140 DUP6 ADD MSTORE CALLDATASIZE SWAP1 PUSH2 0x4816 SWAP3 PUSH2 0xD35 JUMP JUMPDEST PUSH2 0x160 DUP4 ADD MSTORE PUSH1 0x80 DUP2 ADD CALLDATALOAD PUSH2 0x180 DUP4 ADD MSTORE PUSH1 0x1 PUSH2 0x1A0 DUP4 ADD MSTORE PUSH1 0xC0 ADD CALLDATALOAD PUSH2 0x1C0 DUP3 ADD MSTORE PUSH2 0x1E0 DUP2 ADD PUSH1 0x0 SWAP1 MSTORE PUSH2 0x4856 DUP4 PUSH1 0x0 MSTORE PUSH1 0xD PUSH1 0x20 MSTORE PUSH1 0x40 PUSH1 0x0 KECCAK256 SWAP1 JUMP JUMPDEST SWAP1 PUSH2 0x4860 SWAP2 PUSH2 0x4587 JUMP JUMPDEST PUSH2 0x4874 SWAP1 PUSH1 0x0 MSTORE PUSH1 0xE PUSH1 0x20 MSTORE PUSH1 0x40 PUSH1 0x0 KECCAK256 SWAP1 JUMP JUMPDEST SWAP1 PUSH2 0x5FE SWAP2 PUSH2 0x3205 JUMP JUMPDEST SWAP2 SWAP4 SWAP3 DUP5 PUSH1 0x0 MSTORE PUSH1 0x5 PUSH1 0x20 MSTORE PUSH1 0x40 PUSH1 0x0 KECCAK256 SWAP3 PUSH1 0x1 DUP1 PUSH1 0xA0 SHL SUB SWAP1 PUSH2 0x48A5 DUP3 DUP3 AND DUP1 SWAP7 PUSH2 0x4F92 JUMP JUMPDEST ISZERO PUSH2 0x48F4 JUMPI POP SWAP1 PUSH2 0x48EF PUSH32 0xC78CD419D6136F9F1C1C6AEC1D3FAE098CFFAF8BC86314A8F2685E32FE574E3C SWAP4 SWAP3 PUSH1 0x40 MLOAD SWAP4 DUP5 SWAP4 ISZERO ISZERO DUP5 MSTORE PUSH1 0x40 PUSH1 0x20 DUP6 ADD MSTORE AND SWAP6 PUSH1 0x40 DUP4 ADD SWAP1 PUSH2 0x7A7 JUMP JUMPDEST SUB SWAP1 LOG4 JUMP JUMPDEST PUSH1 0x40 MLOAD PUSH4 0x12A8C6A3 PUSH1 0xE2 SHL DUP2 MSTORE SWAP1 DUP2 SWAP1 PUSH2 0x1B47 SWAP1 DUP10 SWAP1 PUSH1 0x4 DUP5 ADD PUSH2 0x35CF JUMP JUMPDEST SWAP1 PUSH1 0x34 SWAP4 SWAP2 DUP2 PUSH1 0x0 DUP3 CALLDATACOPY PUSH1 0x60 SWAP4 SWAP1 SWAP4 SHL PUSH1 0x1 PUSH1 0x1 PUSH1 0x60 SHL SUB NOT AND SWAP3 ADD SWAP2 DUP3 MSTORE PUSH1 0x14 DUP3 ADD MSTORE ADD SWAP1 JUMP JUMPDEST PUSH4 0xFFFFFFFF PUSH1 0xE0 SHL PUSH1 0x0 CALLDATALOAD AND SWAP1 PUSH2 0x497E PUSH2 0x37AC PUSH1 0x40 MLOAD PUSH10 0x6773C5A04A6D4300884B PUSH1 0xB1 SHL PUSH1 0x20 DUP3 ADD MSTORE PUSH1 0x0 PUSH1 0x2A DUP3 ADD MSTORE DUP5 PUSH1 0x2C DUP3 ADD MSTORE PUSH1 0x20 DUP2 MSTORE PUSH2 0x37A7 DUP2 PUSH2 0x885 JUMP JUMPDEST DUP1 MLOAD PUSH1 0x14 DUP2 EQ ISZERO SWAP1 DUP2 PUSH2 0x4A06 JUMPI JUMPDEST POP PUSH2 0x37E0 JUMPI PUSH2 0x499A SWAP1 PUSH2 0x4A10 JUMP JUMPDEST PUSH1 0x60 SHR SWAP2 DUP3 ISZERO PUSH2 0x49E2 JUMPI POP PUSH1 0x0 SWAP2 DUP3 SWAP2 PUSH1 0x40 MLOAD PUSH2 0x49C3 DUP2 PUSH2 0xCB9 PUSH1 0x20 DUP3 ADD SWAP5 CALLVALUE SWAP1 CALLER SWAP1 DUP8 PUSH2 0x4913 JUMP JUMPDEST MLOAD SWAP2 CALLVALUE SWAP1 GAS CALL PUSH2 0x49D1 PUSH2 0x2F4E JUMP JUMPDEST SWAP1 ISZERO PUSH2 0x49DA JUMPI SWAP1 JUMP JUMPDEST PUSH1 0x20 DUP2 MLOAD SWAP2 ADD REVERT JUMPDEST PUSH1 0x40 MLOAD PUSH4 0xBB370B2B PUSH1 0xE0 SHL DUP2 MSTORE PUSH1 0x1 PUSH1 0x1 PUSH1 0xE0 SHL SUB NOT SWAP2 SWAP1 SWAP2 AND PUSH1 0x4 DUP3 ADD MSTORE PUSH1 0x24 SWAP1 REVERT JUMPDEST SWAP1 POP ISZERO ISZERO CODESIZE PUSH2 0x498C JUMP JUMPDEST DUP1 MLOAD PUSH1 0x20 SWAP1 SWAP2 ADD MLOAD PUSH1 0x1 PUSH1 0x1 PUSH1 0x60 SHL SUB NOT DUP1 DUP3 AND SWAP4 SWAP3 SWAP1 SWAP2 SWAP1 PUSH1 0x14 DUP2 LT PUSH2 0x4A36 JUMPI POP POP POP JUMP JUMPDEST PUSH1 0x14 SUB PUSH1 0x3 SHL DUP3 SWAP1 SHL AND AND SWAP2 POP JUMP JUMPDEST PUSH1 0x0 PUSH1 0x20 SWAP2 PUSH1 0x40 MLOAD DUP4 DUP2 ADD SWAP1 PUSH4 0x1FFC9A7 PUSH1 0xE0 SHL DUP3 MSTORE PUSH4 0x1AED5A85 PUSH1 0xE2 SHL PUSH1 0x24 DUP3 ADD MSTORE PUSH1 0x24 DUP2 MSTORE PUSH2 0x4A75 DUP2 PUSH2 0x84A JUMP JUMPDEST MLOAD SWAP2 PUSH2 0x7530 STATICCALL PUSH1 0x0 MLOAD RETURNDATASIZE DUP3 PUSH2 0x4A96 JUMPI JUMPDEST POP DUP2 PUSH2 0x4A8F JUMPI POP SWAP1 JUMP JUMPDEST SWAP1 POP ISZERO ISZERO SWAP1 JUMP JUMPDEST PUSH1 0x20 GT ISZERO SWAP2 POP CODESIZE PUSH2 0x4A85 JUMP JUMPDEST PUSH1 0x0 SWAP1 PUSH1 0x20 SWAP3 PUSH1 0x40 MLOAD DUP5 DUP2 ADD SWAP2 PUSH4 0x1FFC9A7 PUSH1 0xE0 SHL DUP4 MSTORE PUSH4 0xFFFFFFFF PUSH1 0xE0 SHL AND PUSH1 0x24 DUP3 ADD MSTORE PUSH1 0x24 DUP2 MSTORE PUSH2 0x4A75 DUP2 PUSH2 0x84A JUMP JUMPDEST PUSH1 0x0 SWAP1 DUP2 MSTORE PUSH1 0x3 PUSH1 0x20 MSTORE PUSH1 0x40 SWAP1 KECCAK256 SLOAD PUSH1 0x1 PUSH1 0x1 PUSH1 0xA0 SHL SUB AND ISZERO ISZERO SWAP1 JUMP JUMPDEST SWAP1 PUSH1 0x0 SWAP1 DUP1 DUP3 MSTORE PUSH1 0x5 SWAP2 PUSH1 0x20 SWAP4 PUSH1 0x5 PUSH1 0x20 MSTORE PUSH1 0x40 SWAP2 DUP3 DUP2 KECCAK256 SWAP5 DUP6 SLOAD SWAP6 DUP3 JUMPDEST DUP8 DUP2 LT PUSH2 0x4B21 JUMPI POP POP POP POP POP POP POP POP POP JUMP JUMPDEST DUP2 SLOAD ISZERO PUSH2 0x2A38 JUMPI DUP2 DUP5 MSTORE DUP9 DUP5 KECCAK256 SLOAD DUP7 MLOAD PUSH1 0x1 PUSH1 0x1 PUSH1 0xA0 SHL SUB SWAP2 DUP3 AND SWAP2 PUSH2 0x4B46 DUP3 PUSH2 0x86A JUMP JUMPDEST DUP7 DUP3 MSTORE DUP10 DUP8 MSTORE DUP6 DUP13 MSTORE PUSH2 0x4B5B DUP4 DUP11 DUP10 KECCAK256 PUSH2 0x4F92 JUMP JUMPDEST ISZERO PUSH2 0x4BAD JUMPI PUSH1 0x1 SWAP4 SWAP3 PUSH32 0xC78CD419D6136F9F1C1C6AEC1D3FAE098CFFAF8BC86314A8F2685E32FE574E3C DUP14 DUP10 PUSH2 0x4BA4 DUP15 SWAP7 DUP15 SWAP7 DUP15 DUP9 DUP1 MLOAD SWAP7 DUP8 SWAP7 DUP8 MSTORE DUP7 ADD MSTORE AND SWAP7 DUP4 ADD SWAP1 PUSH2 0x7A7 JUMP JUMPDEST SUB SWAP1 LOG4 ADD PUSH2 0x4B0F JUMP JUMPDEST DUP9 MLOAD PUSH4 0x12A8C6A3 PUSH1 0xE2 SHL DUP2 MSTORE DUP1 PUSH2 0x1B47 DUP13 DUP7 PUSH1 0x4 DUP5 ADD PUSH2 0x35CF JUMP JUMPDEST PUSH1 0x1 PUSH1 0x1 PUSH1 0xA0 SHL SUB DUP2 DUP2 AND DUP1 ISZERO SWAP1 DUP2 ISZERO PUSH2 0x4C90 JUMPI JUMPDEST POP PUSH2 0x4C8A JUMPI DUP3 AND ISZERO PUSH2 0x4C85 JUMPI DUP3 PUSH1 0x0 MSTORE PUSH1 0x7 PUSH1 0x20 MSTORE PUSH2 0x4C0C PUSH1 0x1 PUSH1 0x1 PUSH1 0x40 SHL SUB TIMESTAMP AND PUSH1 0x1 PUSH1 0x40 PUSH1 0x0 KECCAK256 ADD PUSH2 0x30D8 JUMP JUMPDEST PUSH2 0x4C20 DUP4 PUSH1 0x0 MSTORE PUSH1 0xF PUSH1 0x20 MSTORE PUSH1 0x40 PUSH1 0x0 KECCAK256 SWAP1 JUMP JUMPDEST SWAP3 DUP4 SLOAD PUSH1 0x1 DUP2 ADD DUP1 SWAP2 GT PUSH2 0x3041 JUMPI PUSH2 0x5FE SWAP5 SSTORE DUP1 PUSH32 0x68A9605AF782A78794BF10267DBE75939AE6FEC1FE3A7B7DD51C4924F4575859 PUSH2 0x4C7D PUSH2 0x4C6C DUP4 PUSH1 0x0 MSTORE PUSH1 0xF PUSH1 0x20 MSTORE PUSH1 0x40 PUSH1 0x0 KECCAK256 SWAP1 JUMP JUMPDEST SLOAD PUSH1 0x40 MLOAD SWAP1 DUP2 MSTORE SWAP1 DUP2 SWAP1 PUSH1 0x20 DUP3 ADD SWAP1 JUMP JUMPDEST SUB SWAP1 LOG2 PUSH2 0x5047 JUMP JUMPDEST POP POP POP JUMP JUMPDEST POP POP POP POP JUMP JUMPDEST SWAP1 POP DUP2 DUP5 AND EQ CODESIZE PUSH2 0x4BDD JUMP JUMPDEST PUSH1 0x20 DUP2 DUP4 SUB SLT PUSH2 0x36E JUMPI DUP1 MLOAD SWAP1 PUSH1 0x1 PUSH1 0x1 PUSH1 0x40 SHL SUB DUP3 GT PUSH2 0x36E JUMPI ADD SWAP1 DUP1 PUSH1 0x1F DUP4 ADD SLT ISZERO PUSH2 0x36E JUMPI DUP2 MLOAD PUSH2 0x7DD SWAP3 PUSH1 0x20 ADD PUSH2 0x2E2E JUMP JUMPDEST SWAP1 PUSH1 0x40 PUSH2 0x7DD SWAP3 PUSH32 0xB084A55EBF70FD3C06FD755269DAC2212C4D3F0F4D09079780BFA50C1B2984D DUP2 MSTORE DUP2 PUSH1 0x20 DUP3 ADD MSTORE ADD SWAP1 PUSH2 0x7A7 JUMP JUMPDEST PUSH1 0x40 MLOAD RETURNDATASIZE PUSH1 0x0 DUP3 RETURNDATACOPY RETURNDATASIZE SWAP1 REVERT JUMPDEST PUSH2 0x4D1E DUP2 PUSH2 0x4A45 JUMP JUMPDEST ISZERO PUSH2 0x4D87 JUMPI PUSH1 0x40 MLOAD PUSH4 0x1AED5A85 PUSH1 0xE2 SHL DUP2 MSTORE SWAP2 PUSH1 0x0 SWAP2 DUP4 SWAP2 DUP3 SWAP1 DUP5 SWAP1 DUP3 SWAP1 PUSH2 0x4D49 SWAP1 PUSH1 0x4 DUP4 ADD PUSH2 0x4CD2 JUMP JUMPDEST SUB SWAP3 PUSH1 0x1 PUSH1 0x1 PUSH1 0xA0 SHL SUB AND GAS CALL DUP1 ISZERO PUSH2 0x4D82 JUMPI PUSH2 0x4D63 JUMPI POP JUMP JUMPDEST PUSH2 0x4D7F SWAP1 RETURNDATASIZE DUP1 PUSH1 0x0 DUP4 RETURNDATACOPY PUSH2 0x4D77 DUP2 DUP4 PUSH2 0x8A0 JUMP JUMPDEST DUP2 ADD SWAP1 PUSH2 0x4C9C JUMP JUMPDEST POP JUMP JUMPDEST PUSH2 0x4D09 JUMP JUMPDEST POP POP JUMP JUMPDEST SWAP2 SWAP1 PUSH2 0x4D96 DUP4 PUSH2 0x4A45 JUMP JUMPDEST ISZERO PUSH2 0x4DC0 JUMPI POP PUSH2 0x4D49 PUSH1 0x0 SWAP3 DUP4 SWAP3 PUSH1 0x40 MLOAD SWAP5 DUP6 DUP1 SWAP5 DUP2 SWAP4 PUSH4 0x1AED5A85 PUSH1 0xE2 SHL DUP4 MSTORE PUSH1 0x4 DUP4 ADD PUSH2 0x4CD2 JUMP JUMPDEST SWAP1 POP ISZERO PUSH2 0x4DCA JUMPI POP JUMP JUMPDEST DUP1 EXTCODESIZE ISZERO PUSH2 0x4DF4 JUMPI PUSH1 0x40 MLOAD PUSH4 0x4349776D PUSH1 0xE0 SHL DUP2 MSTORE PUSH1 0x1 PUSH1 0x1 PUSH1 0xA0 SHL SUB SWAP2 SWAP1 SWAP2 AND PUSH1 0x4 DUP3 ADD MSTORE PUSH1 0x24 SWAP1 REVERT JUMPDEST PUSH1 0x40 MLOAD PUSH4 0x3173137 PUSH1 0xE0 SHL DUP2 MSTORE PUSH1 0x1 PUSH1 0x1 PUSH1 0xA0 SHL SUB SWAP2 SWAP1 SWAP2 AND PUSH1 0x4 DUP3 ADD MSTORE PUSH1 0x24 SWAP1 REVERT JUMPDEST PUSH1 0x0 DUP3 DUP2 MSTORE PUSH1 0x1 DUP3 ADD PUSH1 0x20 MSTORE PUSH1 0x40 SWAP1 KECCAK256 SLOAD PUSH2 0x2C9B JUMPI DUP1 SLOAD SWAP1 PUSH1 0x1 PUSH1 0x40 SHL DUP3 LT ISZERO PUSH2 0x865 JUMPI DUP3 PUSH2 0x4E50 PUSH2 0x3227 DUP5 PUSH1 0x1 DUP1 SWAP7 ADD DUP6 SSTORE DUP5 PUSH2 0x31D3 JUMP JUMPDEST SWAP1 SSTORE DUP1 SLOAD SWAP3 PUSH1 0x0 MSTORE ADD PUSH1 0x20 MSTORE PUSH1 0x40 PUSH1 0x0 KECCAK256 SSTORE PUSH1 0x1 SWAP1 JUMP JUMPDEST PUSH2 0x4E70 DUP2 PUSH2 0x4A45 JUMP JUMPDEST PUSH2 0x4E78 JUMPI POP POP JUMP JUMPDEST PUSH2 0x4D49 PUSH1 0x0 SWAP3 SWAP2 DUP4 SWAP3 PUSH1 0x40 MLOAD SWAP5 DUP6 DUP1 SWAP5 DUP2 SWAP4 PUSH4 0x1AED5A85 PUSH1 0xE2 SHL DUP4 MSTORE PUSH32 0x8A1C15A8799F71B547E08E2BCB2E85257E81B0A07EEE2CE6712549EEF1F00970 PUSH1 0x4 DUP5 ADD MSTORE PUSH1 0x40 PUSH1 0x24 DUP5 ADD MSTORE PUSH1 0x44 DUP4 ADD SWAP1 PUSH2 0x7A7 JUMP JUMPDEST PUSH2 0x4ED4 DUP2 PUSH2 0x4A45 JUMP JUMPDEST PUSH2 0x4EDC JUMPI POP POP JUMP JUMPDEST PUSH2 0x4D49 PUSH1 0x0 SWAP3 SWAP2 DUP4 SWAP3 PUSH1 0x40 MLOAD SWAP5 DUP6 DUP1 SWAP5 DUP2 SWAP4 PUSH4 0x1AED5A85 PUSH1 0xE2 SHL DUP4 MSTORE PUSH32 0xB23EAE7E6D1564B295B4C3E3BE402D9A2F0776C57BDF365903496F6FA481AB00 PUSH1 0x4 DUP5 ADD MSTORE PUSH1 0x40 PUSH1 0x24 DUP5 ADD MSTORE PUSH1 0x44 DUP4 ADD SWAP1 PUSH2 0x7A7 JUMP JUMPDEST PUSH1 0x20 DUP2 MLOAD SWAP2 ADD MLOAD SWAP1 PUSH1 0x20 DUP2 LT PUSH2 0x4F43 JUMPI POP SWAP1 JUMP JUMPDEST PUSH1 0x0 NOT SWAP1 PUSH1 0x20 SUB PUSH1 0x3 SHL SHL AND SWAP1 JUMP JUMPDEST DUP1 SLOAD SWAP1 DUP2 ISZERO PUSH2 0x4F7C JUMPI PUSH1 0x0 NOT SWAP2 DUP3 ADD SWAP2 PUSH2 0x4F6C DUP4 DUP4 PUSH2 0x31D3 JUMP JUMPDEST SWAP1 SWAP2 DUP3 SLOAD SWAP2 PUSH1 0x3 SHL SHL NOT AND SWAP1 SSTORE SSTORE JUMP JUMPDEST PUSH4 0x4E487B71 PUSH1 0xE0 SHL PUSH1 0x0 MSTORE PUSH1 0x31 PUSH1 0x4 MSTORE PUSH1 0x24 PUSH1 0x0 REVERT JUMPDEST PUSH1 0x1 DUP2 ADD SWAP2 DUP1 PUSH1 0x0 MSTORE DUP3 PUSH1 0x20 MSTORE PUSH1 0x40 PUSH1 0x0 KECCAK256 SLOAD SWAP3 DUP4 ISZERO ISZERO PUSH1 0x0 EQ PUSH2 0x503E JUMPI PUSH1 0x0 NOT SWAP3 DUP5 DUP5 ADD SWAP1 DUP6 DUP3 GT PUSH2 0x3041 JUMPI DUP1 SLOAD SWAP5 DUP6 ADD SWAP5 DUP6 GT PUSH2 0x3041 JUMPI PUSH1 0x0 SWAP6 DUP6 DUP4 PUSH2 0x4FE6 SWAP5 PUSH2 0x4FF5 SWAP9 SUB PUSH2 0x4FFB JUMPI JUMPDEST POP POP POP PUSH2 0x4F52 JUMP JUMPDEST SWAP1 PUSH1 0x0 MSTORE PUSH1 0x20 MSTORE PUSH1 0x40 PUSH1 0x0 KECCAK256 SWAP1 JUMP JUMPDEST SSTORE PUSH1 0x1 SWAP1 JUMP JUMPDEST PUSH2 0x5025 PUSH2 0x501F SWAP2 PUSH2 0x500F PUSH2 0x5035 SWAP5 DUP8 PUSH2 0x31D3 JUMP JUMPDEST SWAP1 SLOAD SWAP1 PUSH1 0x3 SHL SHR SWAP3 DUP4 SWAP2 DUP8 PUSH2 0x31D3 JUMP JUMPDEST SWAP1 PUSH2 0x31EB JUMP JUMPDEST DUP6 SWAP1 PUSH1 0x0 MSTORE PUSH1 0x20 MSTORE PUSH1 0x40 PUSH1 0x0 KECCAK256 SWAP1 JUMP JUMPDEST SSTORE CODESIZE DUP1 DUP1 PUSH2 0x4FDE JUMP JUMPDEST POP POP POP POP PUSH1 0x0 SWAP1 JUMP JUMPDEST SWAP1 PUSH32 0xB0E61A071C1F78B584CAF7677CC3EC1C59622CABD30507B0AA47086483762FF5 PUSH2 0x48EF PUSH1 0x1 PUSH1 0x1 PUSH1 0x40 SHL SUB TIMESTAMP AND SWAP3 PUSH1 0xC SLOAD SWAP4 PUSH2 0x508C PUSH2 0x5087 DUP7 PUSH2 0x3032 JUMP JUMPDEST PUSH1 0xC SSTORE JUMP JUMPDEST PUSH2 0x5153 PUSH2 0x5097 PUSH2 0x8E1 JUMP JUMPDEST PUSH1 0x1 DUP2 MSTORE DUP7 PUSH1 0x20 DUP3 ADD MSTORE DUP8 PUSH1 0x40 DUP3 ADD MSTORE PUSH2 0x50FB PUSH1 0x0 SWAP4 DUP5 PUSH1 0x60 DUP5 ADD MSTORE PUSH2 0x50C0 PUSH1 0x80 DUP5 ADD PUSH1 0x8 SWAP1 MSTORE JUMP JUMPDEST DUP5 PUSH1 0xA0 DUP5 ADD MSTORE DUP5 PUSH1 0xC0 DUP5 ADD MSTORE PUSH2 0x50E2 DUP2 PUSH1 0xE0 DUP6 ADD SWAP1 PUSH1 0x1 PUSH1 0x1 PUSH1 0x40 SHL SUB AND SWAP1 MSTORE JUMP JUMPDEST PUSH1 0x1 PUSH1 0x1 PUSH1 0x40 SHL SUB AND PUSH2 0x100 DUP4 ADD DUP2 SWAP1 MSTORE PUSH2 0x120 DUP4 ADD MSTORE JUMP JUMPDEST DUP3 PUSH2 0x140 DUP3 ADD MSTORE PUSH2 0x510A PUSH2 0x2E63 JUMP JUMPDEST PUSH2 0x160 DUP3 ADD MSTORE DUP3 PUSH2 0x180 DUP3 ADD MSTORE PUSH2 0x5125 PUSH2 0x1A0 DUP3 ADD PUSH1 0x1 SWAP1 MSTORE JUMP JUMPDEST DUP3 PUSH2 0x1C0 DUP3 ADD MSTORE PUSH2 0x513A PUSH2 0x1E0 DUP3 ADD PUSH1 0x1 SWAP1 MSTORE JUMP JUMPDEST PUSH2 0x514E DUP8 PUSH1 0x0 MSTORE PUSH1 0xD PUSH1 0x20 MSTORE PUSH1 0x40 PUSH1 0x0 KECCAK256 SWAP1 JUMP JUMPDEST PUSH2 0x4587 JUMP JUMPDEST PUSH2 0x516B DUP6 PUSH2 0x1507 DUP9 PUSH1 0x0 MSTORE PUSH1 0xE PUSH1 0x20 MSTORE PUSH1 0x40 PUSH1 0x0 KECCAK256 SWAP1 JUMP JUMPDEST DUP6 DUP6 PUSH32 0xED3CACD729477D0F36A74C7ACFF952351130177A2DADC2566ADDBC94BDEA9CBD PUSH1 0x40 MLOAD DUP1 PUSH2 0x51AE DUP2 SWAP1 PUSH1 0x0 PUSH1 0x40 PUSH1 0x60 DUP5 ADD SWAP4 DUP3 DUP2 MSTORE PUSH1 0x8 PUSH1 0x20 DUP3 ADD MSTORE ADD MSTORE JUMP JUMPDEST SUB SWAP1 LOG4 PUSH1 0x40 MLOAD PUSH1 0x1 PUSH1 0x1 PUSH1 0xA0 SHL SUB SWAP7 DUP8 AND DUP2 MSTORE SWAP6 AND SWAP5 SWAP1 DUP2 SWAP1 PUSH1 0x20 DUP3 ADD SWAP1 JUMP INVALID 0xA6 0xE4 0x25 0x1F DUP6 PUSH0 PUSH22 0x545FE414F120DB91C76B88DEF14D120969E5BB2D3F0 TSTORE 0xEB 0xBB BLOBBASEFEE JUMPI MSTORE8 SDIV DUP1 GASPRICE 0xE2 MCOPY TLOAD SWAP8 LOG3 BLOBBASEFEE PUSH23 0x9C64AA4ADEE9A001D3E057D35A7015CA2D1BADDE95A134 NOT TIMESTAMP PUSH7 0x8B37DFF0E3CC61 MUL TSTORE 0xD7 0x4E SUB 0xD6 LOG0 0xFB SLOAD 0xC8 0xE8 PUSH24 0xDF964DCB87934CAF511A2EC83BA577D4EF5A0F72CF12C552 0x4B 0xA5 0xE0 CREATE 0xFB 0xBA XOR SWAP5 0xB9 PUSH1 0x79 0xEC 0xF9 0xB5 LOG2 PUSH5 0x6970667358 0x22 SLT KECCAK256 SWAP4 0x1E 0xE5 0xB8 0xE9 STATICCALL SWAP15 EXTCODECOPY EXP SWAP15 0xAB CALL PUSH11 0x5355565B7ECA1F6B466D2F SWAP16 BLOBHASH PUSH5 0x8DADFE3805 PUSH5 0x736F6C6343 STOP ADDMOD XOR STOP CALLER 0xDE 0xBA 0x1E 0x29 0x2F DUP12 0xA8 DUP3 CODESIZE 0xE1 EXP 0xB3 0xC7 0xF8 DUP12 0xD4 0xBE 0x4F 0xAC JUMP 0xCA 0xD5 NOT 0x4B PUSH15 0xCCEAF653468AF1E0261FA95DB2EB3B SLOAD CODECOPY 0xBD SUB EXTCODECOPY 0xDA PUSH7 0xD56B96F92F243A DUP3 0x28 REVERT DUP8 SSTORE 0xE 0xD7 0xBD REVERT 0xB3 0x2F EXP PUSH9 0xAB07768E01943A599E PUSH20 0x362A0E17A63A72E94DD2E384D2C1D4DB932756EC 0xE5 PUSH21 0x603820D07BC9B91F2A932BAADF4628AABCB8AFBA49 PUSH24 0x6529C14A6104B20000000000000000000000000000000000 "},"methodIdentifiers":{"ORIGIN_METADATA_FROZEN_KEY()":"b226bb65","ORIGIN_METADATA_HASH_KEY()":"550598d5","ORIGIN_METADATA_URI_KEY()":"3b514ea2","authorizeIssuer(address)":"436693d5","authorizeOperator(address,bytes32,bytes)":"86a10ddd","authorizedIssuers(address)":"f731fa0f","balanceOf(address)":"70a08231","batchCalls(bytes[])":"6963d438","computeTokenIdFromVIN(string)":"3f0f9a97","createServiceRecord(uint256,(uint64,uint64,uint32,string,bytes32,uint8,uint256))":"bd17cf0a","freezeOriginMetadata(bytes32)":"3c5e4df9","getAuthorization(uint256)":"7651d1c6","getAuthorizationIdsByVehicle(bytes32)":"260c2ff0","getCurrentOwner(bytes32)":"3aea18cc","getData(bytes32)":"54f6127f","getDataBatch(bytes32[])":"dedff9c6","getDataBatchForTokenIds(bytes32[],bytes32[])":"1d26fce6","getDataForTokenId(bytes32,bytes32)":"16e023b3","getOperatorsOf(bytes32)":"49a6078d","getOriginMetadata(bytes32)":"52ac4732","getRecordContent(uint256)":"baa93ec9","getRecordHeader(uint256)":"07e47832","getRecordIdsByVehicle(bytes32)":"9613ded2","grantWriteAuthorization(bytes32,address,uint8,uint8,uint64,uint64)":"739319cc","isAuthorizationCurrentlyUsable(uint256)":"4bf07b16","isOperatorFor(address,bytes32)":"2a3654a4","mintVehiclePassport(bytes32,address,string,bytes32)":"7b7babba","mintVehiclePassportFromVIN(string,address,string,bytes32)":"e20c3236","nextAuthorizationId()":"2ce6b459","nextRecordId()":"dbde207d","originMetadataControls(bytes32)":"0096ed68","owner()":"8da5cb5b","passports(bytes32)":"fb51ed4e","renounceOwnership()":"715018a6","revokeIssuer(address)":"00629679","revokeOperator(address,bytes32,bool,bytes)":"db8c9663","revokeWriteAuthorization(uint256)":"5fe20ec8","setData(bytes32,bytes)":"7f23690c","setDataBatch(bytes32[],bytes[])":"97902421","setDataBatchForTokenIds(bytes32[],bytes32[],bytes[])":"be9f0e6f","setDataForTokenId(bytes32,bytes32,bytes)":"d6c1407c","setPassportStatus(bytes32,uint8)":"09b1b0e1","supportsInterface(bytes4)":"01ffc9a7","tokenIdsOf(address)":"a3b261f2","tokenOwnerOf(bytes32)":"217b2270","totalSupply()":"18160ddd","transfer(address,address,bytes32,bool,bytes)":"511b6952","transferBatch(address[],address[],bytes32[],bool[],bytes[])":"7e87632c","transferOwnership(address)":"f2fde38b","updateOriginMetadata(bytes32,string,bytes32)":"bd2c0f65","vehicleAuthorizationEpoch(bytes32)":"cdabaf83"}}}}}