{
  "_format": "hh-sol-artifact-1",
  "contractName": "ERC725Y",
  "sourceName": "@erc725/smart-contracts-v8/contracts/ERC725Y.sol",
  "abi": [
    {
      "inputs": [
        {
          "internalType": "address",
          "name": "initialOwner",
          "type": "address"
        }
      ],
      "stateMutability": "payable",
      "type": "constructor"
    },
    {
      "inputs": [],
      "name": "ERC725Y_DataKeysValuesEmptyArray",
      "type": "error"
    },
    {
      "inputs": [],
      "name": "ERC725Y_DataKeysValuesLengthMismatch",
      "type": "error"
    },
    {
      "inputs": [],
      "name": "ERC725Y_MsgValueDisallowed",
      "type": "error"
    },
    {
      "inputs": [],
      "name": "OwnableCannotSetZeroAddressAsOwner",
      "type": "error"
    },
    {
      "anonymous": false,
      "inputs": [
        {
          "indexed": true,
          "internalType": "bytes32",
          "name": "dataKey",
          "type": "bytes32"
        },
        {
          "indexed": false,
          "internalType": "bytes",
          "name": "dataValue",
          "type": "bytes"
        }
      ],
      "name": "DataChanged",
      "type": "event"
    },
    {
      "anonymous": false,
      "inputs": [
        {
          "indexed": true,
          "internalType": "address",
          "name": "previousOwner",
          "type": "address"
        },
        {
          "indexed": true,
          "internalType": "address",
          "name": "newOwner",
          "type": "address"
        }
      ],
      "name": "OwnershipTransferred",
      "type": "event"
    },
    {
      "inputs": [
        {
          "internalType": "bytes32",
          "name": "dataKey",
          "type": "bytes32"
        }
      ],
      "name": "getData",
      "outputs": [
        {
          "internalType": "bytes",
          "name": "dataValue",
          "type": "bytes"
        }
      ],
      "stateMutability": "view",
      "type": "function"
    },
    {
      "inputs": [
        {
          "internalType": "bytes32[]",
          "name": "dataKeys",
          "type": "bytes32[]"
        }
      ],
      "name": "getDataBatch",
      "outputs": [
        {
          "internalType": "bytes[]",
          "name": "dataValues",
          "type": "bytes[]"
        }
      ],
      "stateMutability": "view",
      "type": "function"
    },
    {
      "inputs": [],
      "name": "owner",
      "outputs": [
        {
          "internalType": "address",
          "name": "",
          "type": "address"
        }
      ],
      "stateMutability": "view",
      "type": "function"
    },
    {
      "inputs": [],
      "name": "renounceOwnership",
      "outputs": [],
      "stateMutability": "nonpayable",
      "type": "function"
    },
    {
      "inputs": [
        {
          "internalType": "bytes32",
          "name": "dataKey",
          "type": "bytes32"
        },
        {
          "internalType": "bytes",
          "name": "dataValue",
          "type": "bytes"
        }
      ],
      "name": "setData",
      "outputs": [],
      "stateMutability": "payable",
      "type": "function"
    },
    {
      "inputs": [
        {
          "internalType": "bytes32[]",
          "name": "dataKeys",
          "type": "bytes32[]"
        },
        {
          "internalType": "bytes[]",
          "name": "dataValues",
          "type": "bytes[]"
        }
      ],
      "name": "setDataBatch",
      "outputs": [],
      "stateMutability": "payable",
      "type": "function"
    },
    {
      "inputs": [
        {
          "internalType": "bytes4",
          "name": "interfaceId",
          "type": "bytes4"
        }
      ],
      "name": "supportsInterface",
      "outputs": [
        {
          "internalType": "bool",
          "name": "",
          "type": "bool"
        }
      ],
      "stateMutability": "view",
      "type": "function"
    },
    {
      "inputs": [
        {
          "internalType": "address",
          "name": "newOwner",
          "type": "address"
        }
      ],
      "name": "transferOwnership",
      "outputs": [],
      "stateMutability": "nonpayable",
      "type": "function"
    }
  ],
  "bytecode": "0x6080601f610a5f38819003918201601f19168301916001600160401b038311848410176100885780849260209460405283398101031261008357516001600160a01b038116808203610083576100543361009e565b15610071576100629061009e565b60405161097990816100e68239f35b6040516306b620db60e21b8152600490fd5b600080fd5b634e487b7160e01b600052604160045260246000fd5b600080546001600160a01b039283166001600160a01b03198216811783559216907f8be0079c531659141344cd1fd0a4f28419497f9722a3daafe3b4186f6b6457e09080a356fe608060408181526004908136101561001657600080fd5b600092833560e01c90816301ffc9a7146104b35750806354f6127f1461047b578063715018a61461041e5780637f23690c146103c65780638da5cb5b1461039e5780639790242114610261578063dedff9c6146101485763f2fde38b1461007c57600080fd5b34610144576020366003190112610144576001600160a01b03823581811693919290849003610140576100ad610766565b83156100ee57505082546001600160a01b0319811683178455167f8be0079c531659141344cd1fd0a4f28419497f9722a3daafe3b4186f6b6457e08380a380f35b906020608492519162461bcd60e51b8352820152602660248201527f4f776e61626c653a206e6577206f776e657220697320746865207a65726f206160448201526564647265737360d01b6064820152fd5b8480fd5b8280fd5b5091903461025d57602090816003193601126101445780356001600160401b0381116102595761017a913691016105f0565b9283519161019f61018a846105d9565b9361019784519586610547565b8085526105d9565b601f190181855b82811061024957505050835b85518110156101ed57806101d16101cb60019389610702565b51610650565b6101db8287610702565b526101e68186610702565b50016101b2565b50828483519280840190808552835180925280868601968360051b870101940192955b82871061021d5785850386f35b909192938280610239600193603f198a82030186528851610507565b9601920196019592919092610210565b60608282880101520182906101a6565b8380fd5b5080fd5b5080839160031936011261025d576001600160401b039280358481116102595761028e90369083016105f0565b91602480359580871161039a573660238801121561039a57868401356102b3816105d9565b976102c08551998a610547565b818952602093602460208b019360051b830101933685116103965760248301935b85851061036c57505050505050506102f7610766565b3461035f57825185510361035257825115610345575050815b8151811015610341578061033b61032960019385610702565b516103348388610702565b51906107be565b01610310565b8280f35b516397da5f9560e01b8152fd5b51633bcc897960e01b8152fd5b5163f36ba73760e01b8152fd5b8435828111610392578791610387839286369189010161057e565b8152019401936102e1565b8b80fd5b8980fd5b8580fd5b83823461025d578160031936011261025d57905490516001600160a01b039091168152602090f35b5080839160031936011261025d576024356001600160401b038111610144576103f2903690850161057e565b906103fb610766565b3461040f575061040c9192356107be565b80f35b5163f36ba73760e01b81528390fd5b8334610478578060031936011261047857610437610766565b80546001600160a01b03198116825581906001600160a01b03167f8be0079c531659141344cd1fd0a4f28419497f9722a3daafe3b4186f6b6457e08280a380f35b80fd5b508234610478576020366003190112610478575061049c6104af9235610650565b9051918291602083526020830190610507565b0390f35b84908434610144576020366003190112610144573563ffffffff60e01b811680910361014457602092506318a6a9a560e21b81149081156104f6575b5015158152f35b6301ffc9a760e01b149050836104ef565b919082519283825260005b848110610533575050826000602080949584010152601f8019910116010190565b602081830181015184830182015201610512565b90601f801991011681019081106001600160401b0382111761056857604052565b634e487b7160e01b600052604160045260246000fd5b81601f820112156105d4578035906001600160401b03821161056857604051926105b2601f8401601f191660200185610547565b828452602083830101116105d457816000926020809301838601378301015290565b600080fd5b6001600160401b0381116105685760051b60200190565b9080601f830112156105d457602090823561060a816105d9565b936106186040519586610547565b81855260208086019260051b8201019283116105d457602001905b828210610641575050505090565b81358152908301908301610633565b60009081526001602090600182526040832092604051938492828254926106768461072c565b80875293600181169081156106de57506001146106a1575b5050505061069e92500382610547565b90565b815285812095935091905b8183106106c657505061069e93508201013880808061068e565b855487840185015294850194869450918301916106ac565b935050505061069e94925060ff191682840152151560051b8201013880808061068e565b80518210156107165760209160051b010190565b634e487b7160e01b600052603260045260246000fd5b90600182811c9216801561075c575b602083101461074657565b634e487b7160e01b600052602260045260246000fd5b91607f169161073b565b6000546001600160a01b0316330361077a57565b606460405162461bcd60e51b815260206004820152602060248201527f4f776e61626c653a2063616c6c6572206973206e6f7420746865206f776e65726044820152fd5b919091600092818452600160209080825260408620908351906001600160401b03821161092f576107ef835461072c565b601f81116108e9575b508397601f83116001146108695782917fece574603820d07bc9b91f2a932baadf4628aabcb8afba49776529c14a6104b297989983929361085e575b501b916000199060031b1c19161790555b610859604051928284938452830190610507565b0390a2565b870151925038610834565b97601f929192198216848a52858a20995b8181106108d4575090827fece574603820d07bc9b91f2a932baadf4628aabcb8afba49776529c14a6104b298999a92106108bb575b5050811b019055610845565b86015160001960f88460031b161c1916905538806108af565b878301518b559984019991860191860161087a565b838952848920601f840160051c810191868510610925575b601f0160051c019082905b82811061091a5750506107f8565b8a815501829061090c565b9091508190610901565b634e487b7160e01b88526041600452602488fdfea264697066735822122043556f736412ac82d9aa12dc9944f41ca0df6719158eb18a3fdd21b1be2d9d8064736f6c63430008180033",
  "linkReferences": {},
  "deployedLinkReferences": {}
}