{
  "_format": "hh-sol-artifact-1",
  "contractName": "VehiclePassportRegistry",
  "sourceName": "contracts_vehicle/VehiclePassport.sol",
  "abi": [
    {
      "inputs": [
        {
          "internalType": "address",
          "name": "chainIntegrateOwner",
          "type": "address"
        }
      ],
      "stateMutability": "nonpayable",
      "type": "constructor"
    },
    {
      "inputs": [],
      "name": "AuthorizationExpired",
      "type": "error"
    },
    {
      "inputs": [],
      "name": "AuthorizationInactive",
      "type": "error"
    },
    {
      "inputs": [],
      "name": "AuthorizationNotFound",
      "type": "error"
    },
    {
      "inputs": [],
      "name": "AuthorizationNotStarted",
      "type": "error"
    },
    {
      "inputs": [],
      "name": "AuthorizationOwnerMismatch",
      "type": "error"
    },
    {
      "inputs": [],
      "name": "AuthorizationWrongEpoch",
      "type": "error"
    },
    {
      "inputs": [],
      "name": "AuthorizationWrongOperator",
      "type": "error"
    },
    {
      "inputs": [],
      "name": "ERC725Y_DataKeysValuesEmptyArray",
      "type": "error"
    },
    {
      "inputs": [],
      "name": "ERC725Y_DataKeysValuesLengthMismatch",
      "type": "error"
    },
    {
      "inputs": [],
      "name": "ERC725Y_MsgValueDisallowed",
      "type": "error"
    },
    {
      "inputs": [
        {
          "internalType": "bytes",
          "name": "storedData",
          "type": "bytes"
        }
      ],
      "name": "InvalidExtensionAddress",
      "type": "error"
    },
    {
      "inputs": [],
      "name": "InvalidFirstOwner",
      "type": "error"
    },
    {
      "inputs": [
        {
          "internalType": "bytes",
          "name": "data",
          "type": "bytes"
        }
      ],
      "name": "InvalidFunctionSelector",
      "type": "error"
    },
    {
      "inputs": [],
      "name": "InvalidIssuer",
      "type": "error"
    },
    {
      "inputs": [],
      "name": "InvalidOperator",
      "type": "error"
    },
    {
      "inputs": [],
      "name": "InvalidValidityRange",
      "type": "error"
    },
    {
      "inputs": [],
      "name": "InvalidWorkDates",
      "type": "error"
    },
    {
      "inputs": [],
      "name": "LSP4TokenNameNotEditable",
      "type": "error"
    },
    {
      "inputs": [],
      "name": "LSP4TokenSymbolNotEditable",
      "type": "error"
    },
    {
      "inputs": [],
      "name": "LSP4TokenTypeNotEditable",
      "type": "error"
    },
    {
      "inputs": [
        {
          "internalType": "uint256",
          "name": "callIndex",
          "type": "uint256"
        }
      ],
      "name": "LSP8BatchCallFailed",
      "type": "error"
    },
    {
      "inputs": [],
      "name": "LSP8CannotSendToAddressZero",
      "type": "error"
    },
    {
      "inputs": [],
      "name": "LSP8CannotUseAddressZeroAsOperator",
      "type": "error"
    },
    {
      "inputs": [],
      "name": "LSP8InvalidTransferBatch",
      "type": "error"
    },
    {
      "inputs": [
        {
          "internalType": "bytes32",
          "name": "tokenId",
          "type": "bytes32"
        }
      ],
      "name": "LSP8NonExistentTokenId",
      "type": "error"
    },
    {
      "inputs": [
        {
          "internalType": "address",
          "name": "operator",
          "type": "address"
        },
        {
          "internalType": "bytes32",
          "name": "tokenId",
          "type": "bytes32"
        }
      ],
      "name": "LSP8NonExistingOperator",
      "type": "error"
    },
    {
      "inputs": [
        {
          "internalType": "bytes32",
          "name": "tokenId",
          "type": "bytes32"
        },
        {
          "internalType": "address",
          "name": "caller",
          "type": "address"
        }
      ],
      "name": "LSP8NotTokenOperator",
      "type": "error"
    },
    {
      "inputs": [
        {
          "internalType": "address",
          "name": "tokenOwner",
          "type": "address"
        },
        {
          "internalType": "bytes32",
          "name": "tokenId",
          "type": "bytes32"
        },
        {
          "internalType": "address",
          "name": "caller",
          "type": "address"
        }
      ],
      "name": "LSP8NotTokenOwner",
      "type": "error"
    },
    {
      "inputs": [
        {
          "internalType": "address",
          "name": "tokenReceiver",
          "type": "address"
        }
      ],
      "name": "LSP8NotifyTokenReceiverContractMissingLSP1Interface",
      "type": "error"
    },
    {
      "inputs": [
        {
          "internalType": "address",
          "name": "tokenReceiver",
          "type": "address"
        }
      ],
      "name": "LSP8NotifyTokenReceiverIsEOA",
      "type": "error"
    },
    {
      "inputs": [
        {
          "internalType": "address",
          "name": "operator",
          "type": "address"
        },
        {
          "internalType": "bytes32",
          "name": "tokenId",
          "type": "bytes32"
        }
      ],
      "name": "LSP8OperatorAlreadyAuthorized",
      "type": "error"
    },
    {
      "inputs": [
        {
          "internalType": "address",
          "name": "caller",
          "type": "address"
        },
        {
          "internalType": "address",
          "name": "tokenOwner",
          "type": "address"
        },
        {
          "internalType": "bytes32",
          "name": "tokenId",
          "type": "bytes32"
        }
      ],
      "name": "LSP8RevokeOperatorNotAuthorized",
      "type": "error"
    },
    {
      "inputs": [],
      "name": "LSP8TokenContractCannotHoldValue",
      "type": "error"
    },
    {
      "inputs": [
        {
          "internalType": "bytes32",
          "name": "tokenId",
          "type": "bytes32"
        }
      ],
      "name": "LSP8TokenIdAlreadyMinted",
      "type": "error"
    },
    {
      "inputs": [],
      "name": "LSP8TokenIdFormatNotEditable",
      "type": "error"
    },
    {
      "inputs": [],
      "name": "LSP8TokenIdsDataEmptyArray",
      "type": "error"
    },
    {
      "inputs": [],
      "name": "LSP8TokenIdsDataLengthMismatch",
      "type": "error"
    },
    {
      "inputs": [],
      "name": "LSP8TokenOwnerCannotBeOperator",
      "type": "error"
    },
    {
      "inputs": [
        {
          "internalType": "bytes32",
          "name": "tokenId",
          "type": "bytes32"
        },
        {
          "internalType": "address",
          "name": "oldOwner",
          "type": "address"
        },
        {
          "internalType": "address",
          "name": "newOwner",
          "type": "address"
        }
      ],
      "name": "LSP8TokenOwnerChanged",
      "type": "error"
    },
    {
      "inputs": [
        {
          "internalType": "bytes4",
          "name": "functionSelector",
          "type": "bytes4"
        }
      ],
      "name": "NoExtensionFoundForFunctionSelector",
      "type": "error"
    },
    {
      "inputs": [],
      "name": "NotAuthorizedIssuer",
      "type": "error"
    },
    {
      "inputs": [],
      "name": "NotTokenOwner",
      "type": "error"
    },
    {
      "inputs": [],
      "name": "OriginMetadataAlreadyFrozen",
      "type": "error"
    },
    {
      "inputs": [],
      "name": "OriginMetadataNotWritableByCaller",
      "type": "error"
    },
    {
      "inputs": [],
      "name": "OwnableCannotSetZeroAddressAsOwner",
      "type": "error"
    },
    {
      "inputs": [],
      "name": "OwnershipTransferManualRecordForbidden",
      "type": "error"
    },
    {
      "inputs": [],
      "name": "PassportAlreadyExists",
      "type": "error"
    },
    {
      "inputs": [],
      "name": "PassportDoesNotExist",
      "type": "error"
    },
    {
      "inputs": [],
      "name": "SupersededRecordNotFound",
      "type": "error"
    },
    {
      "inputs": [],
      "name": "SupersededRecordWrongVehicle",
      "type": "error"
    },
    {
      "inputs": [],
      "name": "WorkCompletionInFuture",
      "type": "error"
    },
    {
      "anonymous": false,
      "inputs": [
        {
          "indexed": true,
          "internalType": "bytes32",
          "name": "dataKey",
          "type": "bytes32"
        },
        {
          "indexed": false,
          "internalType": "bytes",
          "name": "dataValue",
          "type": "bytes"
        }
      ],
      "name": "DataChanged",
      "type": "event"
    },
    {
      "anonymous": false,
      "inputs": [
        {
          "indexed": true,
          "internalType": "address",
          "name": "issuer",
          "type": "address"
        }
      ],
      "name": "IssuerAuthorized",
      "type": "event"
    },
    {
      "anonymous": false,
      "inputs": [
        {
          "indexed": true,
          "internalType": "address",
          "name": "issuer",
          "type": "address"
        }
      ],
      "name": "IssuerRevoked",
      "type": "event"
    },
    {
      "anonymous": false,
      "inputs": [
        {
          "indexed": true,
          "internalType": "address",
          "name": "operator",
          "type": "address"
        },
        {
          "indexed": true,
          "internalType": "address",
          "name": "tokenOwner",
          "type": "address"
        },
        {
          "indexed": true,
          "internalType": "bytes32",
          "name": "tokenId",
          "type": "bytes32"
        },
        {
          "indexed": false,
          "internalType": "bytes",
          "name": "operatorNotificationData",
          "type": "bytes"
        }
      ],
      "name": "OperatorAuthorizationChanged",
      "type": "event"
    },
    {
      "anonymous": false,
      "inputs": [
        {
          "indexed": true,
          "internalType": "address",
          "name": "operator",
          "type": "address"
        },
        {
          "indexed": true,
          "internalType": "address",
          "name": "tokenOwner",
          "type": "address"
        },
        {
          "indexed": true,
          "internalType": "bytes32",
          "name": "tokenId",
          "type": "bytes32"
        },
        {
          "indexed": false,
          "internalType": "bool",
          "name": "notified",
          "type": "bool"
        },
        {
          "indexed": false,
          "internalType": "bytes",
          "name": "operatorNotificationData",
          "type": "bytes"
        }
      ],
      "name": "OperatorRevoked",
      "type": "event"
    },
    {
      "anonymous": false,
      "inputs": [
        {
          "indexed": true,
          "internalType": "bytes32",
          "name": "tokenId",
          "type": "bytes32"
        },
        {
          "indexed": true,
          "internalType": "address",
          "name": "writer",
          "type": "address"
        }
      ],
      "name": "OriginMetadataFrozen",
      "type": "event"
    },
    {
      "anonymous": false,
      "inputs": [
        {
          "indexed": true,
          "internalType": "bytes32",
          "name": "tokenId",
          "type": "bytes32"
        },
        {
          "indexed": true,
          "internalType": "address",
          "name": "writer",
          "type": "address"
        },
        {
          "indexed": false,
          "internalType": "string",
          "name": "metadataURI",
          "type": "string"
        },
        {
          "indexed": false,
          "internalType": "bytes32",
          "name": "metadataHash",
          "type": "bytes32"
        }
      ],
      "name": "OriginMetadataUpdated",
      "type": "event"
    },
    {
      "anonymous": false,
      "inputs": [
        {
          "indexed": true,
          "internalType": "uint256",
          "name": "recordId",
          "type": "uint256"
        },
        {
          "indexed": true,
          "internalType": "bytes32",
          "name": "tokenId",
          "type": "bytes32"
        },
        {
          "indexed": true,
          "internalType": "address",
          "name": "from",
          "type": "address"
        },
        {
          "indexed": false,
          "internalType": "address",
          "name": "to",
          "type": "address"
        }
      ],
      "name": "OwnershipTransferRecordCreated",
      "type": "event"
    },
    {
      "anonymous": false,
      "inputs": [
        {
          "indexed": true,
          "internalType": "address",
          "name": "previousOwner",
          "type": "address"
        },
        {
          "indexed": true,
          "internalType": "address",
          "name": "newOwner",
          "type": "address"
        }
      ],
      "name": "OwnershipTransferred",
      "type": "event"
    },
    {
      "anonymous": false,
      "inputs": [
        {
          "indexed": true,
          "internalType": "bytes32",
          "name": "tokenId",
          "type": "bytes32"
        },
        {
          "indexed": false,
          "internalType": "enum VehiclePassportRegistry.PassportStatus",
          "name": "newStatus",
          "type": "uint8"
        }
      ],
      "name": "PassportStatusUpdated",
      "type": "event"
    },
    {
      "anonymous": false,
      "inputs": [
        {
          "indexed": true,
          "internalType": "uint256",
          "name": "recordId",
          "type": "uint256"
        },
        {
          "indexed": true,
          "internalType": "bytes32",
          "name": "tokenId",
          "type": "bytes32"
        },
        {
          "indexed": true,
          "internalType": "uint256",
          "name": "authorizationId",
          "type": "uint256"
        },
        {
          "indexed": false,
          "internalType": "address",
          "name": "writer",
          "type": "address"
        },
        {
          "indexed": false,
          "internalType": "enum VehiclePassportRegistry.RecordCategory",
          "name": "category",
          "type": "uint8"
        },
        {
          "indexed": false,
          "internalType": "enum VehiclePassportRegistry.RecordCause",
          "name": "cause",
          "type": "uint8"
        }
      ],
      "name": "ServiceRecordCreated",
      "type": "event"
    },
    {
      "anonymous": false,
      "inputs": [
        {
          "indexed": true,
          "internalType": "bytes32",
          "name": "tokenId",
          "type": "bytes32"
        },
        {
          "indexed": true,
          "internalType": "bytes32",
          "name": "dataKey",
          "type": "bytes32"
        },
        {
          "indexed": false,
          "internalType": "bytes",
          "name": "dataValue",
          "type": "bytes"
        }
      ],
      "name": "TokenIdDataChanged",
      "type": "event"
    },
    {
      "anonymous": false,
      "inputs": [
        {
          "indexed": false,
          "internalType": "address",
          "name": "operator",
          "type": "address"
        },
        {
          "indexed": true,
          "internalType": "address",
          "name": "from",
          "type": "address"
        },
        {
          "indexed": true,
          "internalType": "address",
          "name": "to",
          "type": "address"
        },
        {
          "indexed": true,
          "internalType": "bytes32",
          "name": "tokenId",
          "type": "bytes32"
        },
        {
          "indexed": false,
          "internalType": "bool",
          "name": "force",
          "type": "bool"
        },
        {
          "indexed": false,
          "internalType": "bytes",
          "name": "data",
          "type": "bytes"
        }
      ],
      "name": "Transfer",
      "type": "event"
    },
    {
      "anonymous": false,
      "inputs": [
        {
          "indexed": true,
          "internalType": "bytes32",
          "name": "tokenId",
          "type": "bytes32"
        },
        {
          "indexed": false,
          "internalType": "uint256",
          "name": "newEpoch",
          "type": "uint256"
        }
      ],
      "name": "VehicleAuthorizationEpochIncremented",
      "type": "event"
    },
    {
      "anonymous": false,
      "inputs": [
        {
          "indexed": true,
          "internalType": "bytes32",
          "name": "tokenId",
          "type": "bytes32"
        },
        {
          "indexed": true,
          "internalType": "address",
          "name": "issuer",
          "type": "address"
        },
        {
          "indexed": true,
          "internalType": "address",
          "name": "firstOwner",
          "type": "address"
        }
      ],
      "name": "VehiclePassportMinted",
      "type": "event"
    },
    {
      "anonymous": false,
      "inputs": [
        {
          "indexed": true,
          "internalType": "uint256",
          "name": "authorizationId",
          "type": "uint256"
        },
        {
          "indexed": true,
          "internalType": "bytes32",
          "name": "tokenId",
          "type": "bytes32"
        },
        {
          "indexed": true,
          "internalType": "address",
          "name": "grantedBy",
          "type": "address"
        },
        {
          "indexed": false,
          "internalType": "address",
          "name": "operator",
          "type": "address"
        },
        {
          "indexed": false,
          "internalType": "enum VehiclePassportRegistry.RecordCategory",
          "name": "category",
          "type": "uint8"
        },
        {
          "indexed": false,
          "internalType": "enum VehiclePassportRegistry.AuthorizationMode",
          "name": "mode",
          "type": "uint8"
        },
        {
          "indexed": false,
          "internalType": "uint256",
          "name": "epoch",
          "type": "uint256"
        }
      ],
      "name": "WriteAuthorizationGranted",
      "type": "event"
    },
    {
      "anonymous": false,
      "inputs": [
        {
          "indexed": true,
          "internalType": "uint256",
          "name": "authorizationId",
          "type": "uint256"
        },
        {
          "indexed": true,
          "internalType": "bytes32",
          "name": "tokenId",
          "type": "bytes32"
        },
        {
          "indexed": true,
          "internalType": "address",
          "name": "revokedBy",
          "type": "address"
        }
      ],
      "name": "WriteAuthorizationRevoked",
      "type": "event"
    },
    {
      "stateMutability": "payable",
      "type": "fallback"
    },
    {
      "inputs": [],
      "name": "ORIGIN_METADATA_FROZEN_KEY",
      "outputs": [
        {
          "internalType": "bytes32",
          "name": "",
          "type": "bytes32"
        }
      ],
      "stateMutability": "view",
      "type": "function"
    },
    {
      "inputs": [],
      "name": "ORIGIN_METADATA_HASH_KEY",
      "outputs": [
        {
          "internalType": "bytes32",
          "name": "",
          "type": "bytes32"
        }
      ],
      "stateMutability": "view",
      "type": "function"
    },
    {
      "inputs": [],
      "name": "ORIGIN_METADATA_URI_KEY",
      "outputs": [
        {
          "internalType": "bytes32",
          "name": "",
          "type": "bytes32"
        }
      ],
      "stateMutability": "view",
      "type": "function"
    },
    {
      "inputs": [
        {
          "internalType": "address",
          "name": "issuer",
          "type": "address"
        }
      ],
      "name": "authorizeIssuer",
      "outputs": [],
      "stateMutability": "nonpayable",
      "type": "function"
    },
    {
      "inputs": [
        {
          "internalType": "address",
          "name": "operator",
          "type": "address"
        },
        {
          "internalType": "bytes32",
          "name": "tokenId",
          "type": "bytes32"
        },
        {
          "internalType": "bytes",
          "name": "operatorNotificationData",
          "type": "bytes"
        }
      ],
      "name": "authorizeOperator",
      "outputs": [],
      "stateMutability": "nonpayable",
      "type": "function"
    },
    {
      "inputs": [
        {
          "internalType": "address",
          "name": "",
          "type": "address"
        }
      ],
      "name": "authorizedIssuers",
      "outputs": [
        {
          "internalType": "bool",
          "name": "",
          "type": "bool"
        }
      ],
      "stateMutability": "view",
      "type": "function"
    },
    {
      "inputs": [
        {
          "internalType": "address",
          "name": "tokenOwner",
          "type": "address"
        }
      ],
      "name": "balanceOf",
      "outputs": [
        {
          "internalType": "uint256",
          "name": "",
          "type": "uint256"
        }
      ],
      "stateMutability": "view",
      "type": "function"
    },
    {
      "inputs": [
        {
          "internalType": "bytes[]",
          "name": "data",
          "type": "bytes[]"
        }
      ],
      "name": "batchCalls",
      "outputs": [
        {
          "internalType": "bytes[]",
          "name": "results",
          "type": "bytes[]"
        }
      ],
      "stateMutability": "nonpayable",
      "type": "function"
    },
    {
      "inputs": [
        {
          "internalType": "string",
          "name": "normalizedVIN",
          "type": "string"
        }
      ],
      "name": "computeTokenIdFromVIN",
      "outputs": [
        {
          "internalType": "bytes32",
          "name": "",
          "type": "bytes32"
        }
      ],
      "stateMutability": "pure",
      "type": "function"
    },
    {
      "inputs": [
        {
          "internalType": "uint256",
          "name": "authorizationId",
          "type": "uint256"
        },
        {
          "components": [
            {
              "internalType": "uint64",
              "name": "workStartedAt",
              "type": "uint64"
            },
            {
              "internalType": "uint64",
              "name": "workCompletedAt",
              "type": "uint64"
            },
            {
              "internalType": "uint32",
              "name": "odometerKm",
              "type": "uint32"
            },
            {
              "internalType": "string",
              "name": "recordURI",
              "type": "string"
            },
            {
              "internalType": "bytes32",
              "name": "recordHash",
              "type": "bytes32"
            },
            {
              "internalType": "enum VehiclePassportRegistry.RecordCause",
              "name": "cause",
              "type": "uint8"
            },
            {
              "internalType": "uint256",
              "name": "supersedesRecordId",
              "type": "uint256"
            }
          ],
          "internalType": "struct VehiclePassportRegistry.CreateServiceRecordInput",
          "name": "input",
          "type": "tuple"
        }
      ],
      "name": "createServiceRecord",
      "outputs": [
        {
          "internalType": "uint256",
          "name": "recordId",
          "type": "uint256"
        }
      ],
      "stateMutability": "nonpayable",
      "type": "function"
    },
    {
      "inputs": [
        {
          "internalType": "bytes32",
          "name": "tokenId",
          "type": "bytes32"
        }
      ],
      "name": "freezeOriginMetadata",
      "outputs": [],
      "stateMutability": "nonpayable",
      "type": "function"
    },
    {
      "inputs": [
        {
          "internalType": "uint256",
          "name": "authorizationId",
          "type": "uint256"
        }
      ],
      "name": "getAuthorization",
      "outputs": [
        {
          "internalType": "bool",
          "name": "active",
          "type": "bool"
        },
        {
          "internalType": "uint256",
          "name": "authId",
          "type": "uint256"
        },
        {
          "internalType": "bytes32",
          "name": "tokenId",
          "type": "bytes32"
        },
        {
          "internalType": "address",
          "name": "grantedBy",
          "type": "address"
        },
        {
          "internalType": "address",
          "name": "operator",
          "type": "address"
        },
        {
          "internalType": "enum VehiclePassportRegistry.RecordCategory",
          "name": "category",
          "type": "uint8"
        },
        {
          "internalType": "enum VehiclePassportRegistry.AuthorizationMode",
          "name": "mode",
          "type": "uint8"
        },
        {
          "internalType": "uint64",
          "name": "validFrom",
          "type": "uint64"
        },
        {
          "internalType": "uint64",
          "name": "validUntil",
          "type": "uint64"
        },
        {
          "internalType": "uint256",
          "name": "epoch",
          "type": "uint256"
        }
      ],
      "stateMutability": "view",
      "type": "function"
    },
    {
      "inputs": [
        {
          "internalType": "bytes32",
          "name": "tokenId",
          "type": "bytes32"
        }
      ],
      "name": "getAuthorizationIdsByVehicle",
      "outputs": [
        {
          "internalType": "uint256[]",
          "name": "",
          "type": "uint256[]"
        }
      ],
      "stateMutability": "view",
      "type": "function"
    },
    {
      "inputs": [
        {
          "internalType": "bytes32",
          "name": "tokenId",
          "type": "bytes32"
        }
      ],
      "name": "getCurrentOwner",
      "outputs": [
        {
          "internalType": "address",
          "name": "",
          "type": "address"
        }
      ],
      "stateMutability": "view",
      "type": "function"
    },
    {
      "inputs": [
        {
          "internalType": "bytes32",
          "name": "dataKey",
          "type": "bytes32"
        }
      ],
      "name": "getData",
      "outputs": [
        {
          "internalType": "bytes",
          "name": "dataValue",
          "type": "bytes"
        }
      ],
      "stateMutability": "view",
      "type": "function"
    },
    {
      "inputs": [
        {
          "internalType": "bytes32[]",
          "name": "dataKeys",
          "type": "bytes32[]"
        }
      ],
      "name": "getDataBatch",
      "outputs": [
        {
          "internalType": "bytes[]",
          "name": "dataValues",
          "type": "bytes[]"
        }
      ],
      "stateMutability": "view",
      "type": "function"
    },
    {
      "inputs": [
        {
          "internalType": "bytes32[]",
          "name": "tokenIds",
          "type": "bytes32[]"
        },
        {
          "internalType": "bytes32[]",
          "name": "dataKeys",
          "type": "bytes32[]"
        }
      ],
      "name": "getDataBatchForTokenIds",
      "outputs": [
        {
          "internalType": "bytes[]",
          "name": "dataValues",
          "type": "bytes[]"
        }
      ],
      "stateMutability": "view",
      "type": "function"
    },
    {
      "inputs": [
        {
          "internalType": "bytes32",
          "name": "tokenId",
          "type": "bytes32"
        },
        {
          "internalType": "bytes32",
          "name": "dataKey",
          "type": "bytes32"
        }
      ],
      "name": "getDataForTokenId",
      "outputs": [
        {
          "internalType": "bytes",
          "name": "dataValue",
          "type": "bytes"
        }
      ],
      "stateMutability": "view",
      "type": "function"
    },
    {
      "inputs": [
        {
          "internalType": "bytes32",
          "name": "tokenId",
          "type": "bytes32"
        }
      ],
      "name": "getOperatorsOf",
      "outputs": [
        {
          "internalType": "address[]",
          "name": "",
          "type": "address[]"
        }
      ],
      "stateMutability": "view",
      "type": "function"
    },
    {
      "inputs": [
        {
          "internalType": "bytes32",
          "name": "tokenId",
          "type": "bytes32"
        }
      ],
      "name": "getOriginMetadata",
      "outputs": [
        {
          "internalType": "string",
          "name": "metadataURI",
          "type": "string"
        },
        {
          "internalType": "bytes32",
          "name": "metadataHash",
          "type": "bytes32"
        },
        {
          "internalType": "bool",
          "name": "frozen",
          "type": "bool"
        },
        {
          "internalType": "address",
          "name": "writtenBy",
          "type": "address"
        },
        {
          "internalType": "uint64",
          "name": "updatedAt",
          "type": "uint64"
        }
      ],
      "stateMutability": "view",
      "type": "function"
    },
    {
      "inputs": [
        {
          "internalType": "uint256",
          "name": "recordId",
          "type": "uint256"
        }
      ],
      "name": "getRecordContent",
      "outputs": [
        {
          "internalType": "string",
          "name": "recordURI",
          "type": "string"
        },
        {
          "internalType": "bytes32",
          "name": "recordHash",
          "type": "bytes32"
        }
      ],
      "stateMutability": "view",
      "type": "function"
    },
    {
      "inputs": [
        {
          "internalType": "uint256",
          "name": "recordId",
          "type": "uint256"
        }
      ],
      "name": "getRecordHeader",
      "outputs": [
        {
          "internalType": "bool",
          "name": "exists",
          "type": "bool"
        },
        {
          "internalType": "uint256",
          "name": "id",
          "type": "uint256"
        },
        {
          "internalType": "bytes32",
          "name": "tokenId",
          "type": "bytes32"
        },
        {
          "internalType": "uint256",
          "name": "authorizationId",
          "type": "uint256"
        },
        {
          "internalType": "enum VehiclePassportRegistry.RecordCategory",
          "name": "category",
          "type": "uint8"
        },
        {
          "internalType": "enum VehiclePassportRegistry.RecordCause",
          "name": "cause",
          "type": "uint8"
        },
        {
          "internalType": "address",
          "name": "writer",
          "type": "address"
        },
        {
          "internalType": "uint64",
          "name": "createdAt",
          "type": "uint64"
        },
        {
          "internalType": "uint64",
          "name": "workStartedAt",
          "type": "uint64"
        },
        {
          "internalType": "uint64",
          "name": "workCompletedAt",
          "type": "uint64"
        },
        {
          "internalType": "uint32",
          "name": "odometerKm",
          "type": "uint32"
        },
        {
          "internalType": "bool",
          "name": "frozen",
          "type": "bool"
        },
        {
          "internalType": "uint256",
          "name": "supersedesRecordId",
          "type": "uint256"
        },
        {
          "internalType": "bool",
          "name": "systemGenerated",
          "type": "bool"
        }
      ],
      "stateMutability": "view",
      "type": "function"
    },
    {
      "inputs": [
        {
          "internalType": "bytes32",
          "name": "tokenId",
          "type": "bytes32"
        }
      ],
      "name": "getRecordIdsByVehicle",
      "outputs": [
        {
          "internalType": "uint256[]",
          "name": "",
          "type": "uint256[]"
        }
      ],
      "stateMutability": "view",
      "type": "function"
    },
    {
      "inputs": [
        {
          "internalType": "bytes32",
          "name": "tokenId",
          "type": "bytes32"
        },
        {
          "internalType": "address",
          "name": "operator",
          "type": "address"
        },
        {
          "internalType": "enum VehiclePassportRegistry.RecordCategory",
          "name": "category",
          "type": "uint8"
        },
        {
          "internalType": "enum VehiclePassportRegistry.AuthorizationMode",
          "name": "mode",
          "type": "uint8"
        },
        {
          "internalType": "uint64",
          "name": "validFrom",
          "type": "uint64"
        },
        {
          "internalType": "uint64",
          "name": "validUntil",
          "type": "uint64"
        }
      ],
      "name": "grantWriteAuthorization",
      "outputs": [
        {
          "internalType": "uint256",
          "name": "authorizationId",
          "type": "uint256"
        }
      ],
      "stateMutability": "nonpayable",
      "type": "function"
    },
    {
      "inputs": [
        {
          "internalType": "uint256",
          "name": "authorizationId",
          "type": "uint256"
        }
      ],
      "name": "isAuthorizationCurrentlyUsable",
      "outputs": [
        {
          "internalType": "bool",
          "name": "",
          "type": "bool"
        }
      ],
      "stateMutability": "view",
      "type": "function"
    },
    {
      "inputs": [
        {
          "internalType": "address",
          "name": "operator",
          "type": "address"
        },
        {
          "internalType": "bytes32",
          "name": "tokenId",
          "type": "bytes32"
        }
      ],
      "name": "isOperatorFor",
      "outputs": [
        {
          "internalType": "bool",
          "name": "",
          "type": "bool"
        }
      ],
      "stateMutability": "view",
      "type": "function"
    },
    {
      "inputs": [
        {
          "internalType": "bytes32",
          "name": "tokenId",
          "type": "bytes32"
        },
        {
          "internalType": "address",
          "name": "firstOwner",
          "type": "address"
        },
        {
          "internalType": "string",
          "name": "originMetadataURI",
          "type": "string"
        },
        {
          "internalType": "bytes32",
          "name": "originMetadataHash",
          "type": "bytes32"
        }
      ],
      "name": "mintVehiclePassport",
      "outputs": [
        {
          "internalType": "bytes32",
          "name": "",
          "type": "bytes32"
        }
      ],
      "stateMutability": "nonpayable",
      "type": "function"
    },
    {
      "inputs": [
        {
          "internalType": "string",
          "name": "normalizedVIN",
          "type": "string"
        },
        {
          "internalType": "address",
          "name": "firstOwner",
          "type": "address"
        },
        {
          "internalType": "string",
          "name": "originMetadataURI",
          "type": "string"
        },
        {
          "internalType": "bytes32",
          "name": "originMetadataHash",
          "type": "bytes32"
        }
      ],
      "name": "mintVehiclePassportFromVIN",
      "outputs": [
        {
          "internalType": "bytes32",
          "name": "tokenId",
          "type": "bytes32"
        }
      ],
      "stateMutability": "nonpayable",
      "type": "function"
    },
    {
      "inputs": [],
      "name": "nextAuthorizationId",
      "outputs": [
        {
          "internalType": "uint256",
          "name": "",
          "type": "uint256"
        }
      ],
      "stateMutability": "view",
      "type": "function"
    },
    {
      "inputs": [],
      "name": "nextRecordId",
      "outputs": [
        {
          "internalType": "uint256",
          "name": "",
          "type": "uint256"
        }
      ],
      "stateMutability": "view",
      "type": "function"
    },
    {
      "inputs": [
        {
          "internalType": "bytes32",
          "name": "",
          "type": "bytes32"
        }
      ],
      "name": "originMetadataControls",
      "outputs": [
        {
          "internalType": "address",
          "name": "writtenBy",
          "type": "address"
        },
        {
          "internalType": "uint64",
          "name": "updatedAt",
          "type": "uint64"
        },
        {
          "internalType": "bool",
          "name": "frozen",
          "type": "bool"
        }
      ],
      "stateMutability": "view",
      "type": "function"
    },
    {
      "inputs": [],
      "name": "owner",
      "outputs": [
        {
          "internalType": "address",
          "name": "",
          "type": "address"
        }
      ],
      "stateMutability": "view",
      "type": "function"
    },
    {
      "inputs": [
        {
          "internalType": "bytes32",
          "name": "",
          "type": "bytes32"
        }
      ],
      "name": "passports",
      "outputs": [
        {
          "internalType": "bool",
          "name": "exists",
          "type": "bool"
        },
        {
          "internalType": "address",
          "name": "issuer",
          "type": "address"
        },
        {
          "internalType": "enum VehiclePassportRegistry.PassportStatus",
          "name": "status",
          "type": "uint8"
        },
        {
          "internalType": "uint64",
          "name": "createdAt",
          "type": "uint64"
        },
        {
          "internalType": "uint64",
          "name": "lastOwnershipChangeAt",
          "type": "uint64"
        }
      ],
      "stateMutability": "view",
      "type": "function"
    },
    {
      "inputs": [],
      "name": "renounceOwnership",
      "outputs": [],
      "stateMutability": "nonpayable",
      "type": "function"
    },
    {
      "inputs": [
        {
          "internalType": "address",
          "name": "issuer",
          "type": "address"
        }
      ],
      "name": "revokeIssuer",
      "outputs": [],
      "stateMutability": "nonpayable",
      "type": "function"
    },
    {
      "inputs": [
        {
          "internalType": "address",
          "name": "operator",
          "type": "address"
        },
        {
          "internalType": "bytes32",
          "name": "tokenId",
          "type": "bytes32"
        },
        {
          "internalType": "bool",
          "name": "notify",
          "type": "bool"
        },
        {
          "internalType": "bytes",
          "name": "operatorNotificationData",
          "type": "bytes"
        }
      ],
      "name": "revokeOperator",
      "outputs": [],
      "stateMutability": "nonpayable",
      "type": "function"
    },
    {
      "inputs": [
        {
          "internalType": "uint256",
          "name": "authorizationId",
          "type": "uint256"
        }
      ],
      "name": "revokeWriteAuthorization",
      "outputs": [],
      "stateMutability": "nonpayable",
      "type": "function"
    },
    {
      "inputs": [
        {
          "internalType": "bytes32",
          "name": "dataKey",
          "type": "bytes32"
        },
        {
          "internalType": "bytes",
          "name": "dataValue",
          "type": "bytes"
        }
      ],
      "name": "setData",
      "outputs": [],
      "stateMutability": "payable",
      "type": "function"
    },
    {
      "inputs": [
        {
          "internalType": "bytes32[]",
          "name": "dataKeys",
          "type": "bytes32[]"
        },
        {
          "internalType": "bytes[]",
          "name": "dataValues",
          "type": "bytes[]"
        }
      ],
      "name": "setDataBatch",
      "outputs": [],
      "stateMutability": "payable",
      "type": "function"
    },
    {
      "inputs": [
        {
          "internalType": "bytes32[]",
          "name": "tokenIds",
          "type": "bytes32[]"
        },
        {
          "internalType": "bytes32[]",
          "name": "dataKeys",
          "type": "bytes32[]"
        },
        {
          "internalType": "bytes[]",
          "name": "dataValues",
          "type": "bytes[]"
        }
      ],
      "name": "setDataBatchForTokenIds",
      "outputs": [],
      "stateMutability": "nonpayable",
      "type": "function"
    },
    {
      "inputs": [
        {
          "internalType": "bytes32",
          "name": "tokenId",
          "type": "bytes32"
        },
        {
          "internalType": "bytes32",
          "name": "dataKey",
          "type": "bytes32"
        },
        {
          "internalType": "bytes",
          "name": "dataValue",
          "type": "bytes"
        }
      ],
      "name": "setDataForTokenId",
      "outputs": [],
      "stateMutability": "nonpayable",
      "type": "function"
    },
    {
      "inputs": [
        {
          "internalType": "bytes32",
          "name": "tokenId",
          "type": "bytes32"
        },
        {
          "internalType": "enum VehiclePassportRegistry.PassportStatus",
          "name": "newStatus",
          "type": "uint8"
        }
      ],
      "name": "setPassportStatus",
      "outputs": [],
      "stateMutability": "nonpayable",
      "type": "function"
    },
    {
      "inputs": [
        {
          "internalType": "bytes4",
          "name": "interfaceId",
          "type": "bytes4"
        }
      ],
      "name": "supportsInterface",
      "outputs": [
        {
          "internalType": "bool",
          "name": "",
          "type": "bool"
        }
      ],
      "stateMutability": "view",
      "type": "function"
    },
    {
      "inputs": [
        {
          "internalType": "address",
          "name": "tokenOwner",
          "type": "address"
        }
      ],
      "name": "tokenIdsOf",
      "outputs": [
        {
          "internalType": "bytes32[]",
          "name": "",
          "type": "bytes32[]"
        }
      ],
      "stateMutability": "view",
      "type": "function"
    },
    {
      "inputs": [
        {
          "internalType": "bytes32",
          "name": "tokenId",
          "type": "bytes32"
        }
      ],
      "name": "tokenOwnerOf",
      "outputs": [
        {
          "internalType": "address",
          "name": "",
          "type": "address"
        }
      ],
      "stateMutability": "view",
      "type": "function"
    },
    {
      "inputs": [],
      "name": "totalSupply",
      "outputs": [
        {
          "internalType": "uint256",
          "name": "",
          "type": "uint256"
        }
      ],
      "stateMutability": "view",
      "type": "function"
    },
    {
      "inputs": [
        {
          "internalType": "address",
          "name": "from",
          "type": "address"
        },
        {
          "internalType": "address",
          "name": "to",
          "type": "address"
        },
        {
          "internalType": "bytes32",
          "name": "tokenId",
          "type": "bytes32"
        },
        {
          "internalType": "bool",
          "name": "force",
          "type": "bool"
        },
        {
          "internalType": "bytes",
          "name": "data",
          "type": "bytes"
        }
      ],
      "name": "transfer",
      "outputs": [],
      "stateMutability": "nonpayable",
      "type": "function"
    },
    {
      "inputs": [
        {
          "internalType": "address[]",
          "name": "from",
          "type": "address[]"
        },
        {
          "internalType": "address[]",
          "name": "to",
          "type": "address[]"
        },
        {
          "internalType": "bytes32[]",
          "name": "tokenId",
          "type": "bytes32[]"
        },
        {
          "internalType": "bool[]",
          "name": "force",
          "type": "bool[]"
        },
        {
          "internalType": "bytes[]",
          "name": "data",
          "type": "bytes[]"
        }
      ],
      "name": "transferBatch",
      "outputs": [],
      "stateMutability": "nonpayable",
      "type": "function"
    },
    {
      "inputs": [
        {
          "internalType": "address",
          "name": "newOwner",
          "type": "address"
        }
      ],
      "name": "transferOwnership",
      "outputs": [],
      "stateMutability": "nonpayable",
      "type": "function"
    },
    {
      "inputs": [
        {
          "internalType": "bytes32",
          "name": "tokenId",
          "type": "bytes32"
        },
        {
          "internalType": "string",
          "name": "newMetadataURI",
          "type": "string"
        },
        {
          "internalType": "bytes32",
          "name": "newMetadataHash",
          "type": "bytes32"
        }
      ],
      "name": "updateOriginMetadata",
      "outputs": [],
      "stateMutability": "nonpayable",
      "type": "function"
    },
    {
      "inputs": [
        {
          "internalType": "bytes32",
          "name": "",
          "type": "bytes32"
        }
      ],
      "name": "vehicleAuthorizationEpoch",
      "outputs": [
        {
          "internalType": "uint256",
          "name": "",
          "type": "uint256"
        }
      ],
      "stateMutability": "view",
      "type": "function"
    },
    {
      "stateMutability": "payable",
      "type": "receive"
    }
  ],
  "bytecode": "0x6080346200098057601f62005d3838819003918201601f19168301916001600160401b0383118484101762000630578084926020946040528339810103126200098057516001600160a01b038116808203620009805760405191620000648362000985565b601083526f15995a1a58db194814185cdcdc1bdc9d60821b602084015260405191620000908362000985565b6005835264565041535360d81b6020840152620000ad33620009ec565b156200096e57620000be90620009ec565b604051620000cc8162000985565b60048152632936598960e21b60208201527feafec4d89fa9619884b60000a4d96624a38f7ac2d8d9a604ecf07c12c77e480c908160005260016020526040600020815160018060401b03811162000630578154600181811c9116801562000963575b60208210146200060f57601f811162000916575b506020601f8211600114620008af57918160008051602062005d188339815191529492620001949460009162000536575b508160011b916000199060031b1c19161790555b60405191829182620009a1565b0390a260008051602062005cb883398151915260005260016020528151917f2a367ae1ac46d529739aa27ac74856f860e70af05d3642d18ba60fd5d32a069a6001600160401b03841162000630578054600181811c91168015620008a4575b60208210146200060f57601f81116200085b575b50602093601f8111600114620007e4579162000269918360008051602062005d188339815191529460008051602062005cb883398151915296976000916200053657508160011b916000199060031b1c191617905560405191829182620009a1565b0390a260008051602062005cf8833981519152600052600160205280517f83b322886c7b7e25779e5d38e06e005c9e7aba1e1267ce9210cf24e31833535a906001600160401b03811162000630578154600181811c91168015620007d9575b60208210146200060f57601f81116200078c575b506020601f821160011462000715579260008051602062005d1883398151915292826200033c9360008051602062005cf8833981519152966000916200053657508160011b916000199060031b1c191617905560405191829182620009a1565b0390a26040516002602082015260208152620003588162000985565b60008051602062005cd8833981519152600052600160205280517ff73b01b344a9bb3b96525b0cb731f6b14cde20ce6cecea8459266944490b411f906001600160401b03811162000630578154600181811c911680156200070a575b60208210146200060f57601f8111620006bd575b506020601f821160011462000646579260008051602062005d188339815191529282620004289360008051602062005cd8833981519152966000916200053657508160011b916000199060031b1c191617905560405191829182620009a1565b0390a26040516004602082015260208152620004448162000985565b7ff675e9361af1c1664c1868cfa3eb97672d6b1a513aa5b81dec34c9ee330e818d600081905260016020528151917f01f5eb934e794ddcc86b89a579078013860f8fe92140885511742594f219ad0b6001600160401b03841162000630578054600181811c9116801562000625575b60208210146200060f57601f8111620005c2575b50602093601f81116001146200054257908162000519939260008051602062005d1883398151915295966000916200053657508160011b916000199060031b1c191617905560405191829182620009a1565b0390a260016009556001600c55604051615284908162000a348239f35b90508301513862000173565b601f1981168260005260206000209060005b818110620005a957509160019160008051602062005d1883398151915296978262000519979695106200058f575b5050811b01905562000187565b85015160001960f88460031b161c19169055388062000582565b8588015183556020978801976001909301920162000554565b816000526020600020601f860160051c8101916020871062000604575b601f0160051c01905b818110620005f75750620004c7565b60008155600101620005e8565b9091508190620005df565b634e487b7160e01b600052602260045260246000fd5b90607f1690620004b3565b634e487b7160e01b600052604160045260246000fd5b8260005260206000209060005b601f1984168110620006a457509260018360008051602062005cd8833981519152969360008051602062005d18833981519152966200042896601f198116106200058f575050811b01905562000187565b9091602060018192858901518155019301910162000653565b826000526020600020601f830160051c81019160208410620006ff575b601f0160051c01905b818110620006f25750620003c8565b60008155600101620006e3565b9091508190620006da565b90607f1690620003b4565b8260005260206000209060005b601f19841681106200077357509260018360008051602062005cf8833981519152969360008051602062005d18833981519152966200033c96601f198116106200058f575050811b01905562000187565b9091602060018192858901518155019301910162000722565b826000526020600020601f830160051c81019160208410620007ce575b601f0160051c01905b818110620007c15750620002dc565b60008155600101620007b2565b9091508190620007a9565b90607f1690620002c8565b81600052602060002060005b601f198316811062000842575091600182620002699460008051602062005cb8833981519152979860008051602062005d188339815191529795601f198116106200058f575050811b01905562000187565b84870151825560209687019660019092019101620007f0565b816000526020600020601f860160051c8101602087106200089c575b601f830160051c820181106200088f57505062000207565b6000815560010162000877565b508062000877565b90607f1690620001f3565b8260005260206000209060005b601f1984168110620008fd57508262000194949260019260008051602062005d188339815191529795601f198116106200058f575050811b01905562000187565b90916020600181928589015181550193019101620008bc565b826000526020600020601f830160051c8101916020841062000958575b601f0160051c01905b8181106200094b575062000142565b600081556001016200093c565b909150819062000933565b90607f16906200012e565b6040516306b620db60e21b8152600490fd5b600080fd5b604081019081106001600160401b038211176200063057604052565b6020808252825181830181905290939260005b828110620009d757505060409293506000838284010152601f8019910116010190565b818101860151848201604001528501620009b4565b600080546001600160a01b039283166001600160a01b03198216811783559216907f8be0079c531659141344cd1fd0a4f28419497f9722a3daafe3b4186f6b6457e09080a356fe6080604052600436101561002a575b36156100255761001d366136c6565b602081519101f35b613688565b60003560e01c80626296791461035357806296ed681461034e57806301ffc9a71461034957806307e478321461034457806309b1b0e11461033f57806316e023b31461033a57806318160ddd146103355780631d26fce614610330578063217b22701461031c578063260c2ff01461032b5780632a3654a4146103265780632ce6b459146103215780633aea18cc1461031c5780633b514ea2146103175780633c5e4df9146103125780633f0f9a971461030d578063436693d51461030857806349a6078d146103035780634bf07b16146102fe578063511b6952146102f957806352ac4732146102f457806354f6127f146102ef578063550598d5146102ea5780635fe20ec8146102e55780636963d438146102e057806370a08231146102db578063715018a6146102d6578063739319cc146102d15780637651d1c6146102cc5780637b7babba146102c75780637e87632c146102c25780637f23690c146102bd57806386a10ddd146102b85780638da5cb5b146102b35780639613ded2146102ae57806397902421146102a9578063a3b261f2146102a4578063b226bb651461029f578063baa93ec91461029a578063bd17cf0a14610295578063bd2c0f6514610290578063be9f0e6f1461028b578063cdabaf8314610286578063d6c1407c14610281578063db8c96631461027c578063dbde207d14610277578063dedff9c614610272578063e20c32361461026d578063f2fde38b14610268578063f731fa0f146102635763fb51ed4e0361000e57612704565b6126b8565b6125db565b612529565b6124a2565b612484565b6123af565b612369565b61233d565b61224e565b6121ad565b611f47565b611df0565b611dab565b611d24565b611c24565b611bb7565b611b8e565b611a3c565b6119e6565b61194d565b6117aa565b611619565b61134e565b6112e2565b6112a8565b611243565b611173565b61114a565b61112b565b610ffc565b610f5c565b610f14565b610e75565b610dbf565b610d6c565b610c2e565b610c05565b610ad1565b610be7565b610bb6565b610b3d565b610a08565b610816565b6107e0565b6106e8565b610600565b61045d565b610409565b610389565b600435906001600160a01b038216820361036e57565b600080fd5b602435906001600160a01b038216820361036e57565b3461036e57602036600319011261036e576103a2610358565b6103aa613712565b6001600160a01b031680156103f7576000818152600660205260408120805460ff19169055907f95a4c2ae425bb769549aa1a911911ff57c17ae811ae8c8962d0b9746fcb153978280a280f35b604051635edff10b60e11b8152600490fd5b3461036e57602036600319011261036e576004356000526008602052606060406000205460ff6040519160018060a01b03811683526001600160401b038160a01c16602084015260e01c1615156040820152f35b3461036e57602036600319011261036e576004356001600160e01b0319811680820361036e576104b491631d138b8360e11b82149182156104c8575b5081156104b8575b5060405190151581529081906020820190565b0390f35b6104c2915061376a565b386104a1565b90915063a918fa6b60e01b81149081156104e5575b509038610499565b6318a6a9a560e21b8114915081156104ff575b50386104dd565b6301ffc9a760e01b149050386104f8565b634e487b7160e01b600052602160045260246000fd5b6009111561053057565b610510565b9060098210156105305752565b6008111561053057565b9060088210156105305752565b9b99979593919e9d9c9a98969492909e6101c08d019f15158d5260208d015260408c015260608b015260808a0161058f91610535565b60a0890161059c9161054c565b6001600160a01b031660c08801526001600160401b031660e08701526001600160401b03166101008601526001600160401b031661012085015263ffffffff1661014084015215156101608301526101808201526101a0016105fe9115159052565b565b3461036e57602036600319011261036e5761062f61062a600435600052600d602052604060002090565b61287d565b805115156104b46020830151926040810151906060810151608082015161065581610526565b60a083015161066381610542565b60c08401516001600160a01b031660e08501516001600160401b03166101008601516001600160401b0316916106a46101208801516001600160401b031690565b936106b761014089015163ffffffff1690565b956106c66101a08a0151151590565b976106db6101e06101c08c01519b0151151590565b9a6040519e8f9e8f610559565b3461036e57604036600319011261036e5760043560243590600482101561036e57610711613712565b600091818352600760205260ff604084205416156107725760207f551db307dc86cb870468f304dd1a7709022989ee71af181e69cfc314307f3ed19183855260078252610761816040872061299c565b61076e60405180926126f7565ba280f35b604051634ded8ea560e01b8152600490fd5b60005b8381106107975750506000910152565b8181015183820152602001610787565b906020916107c081518092818552858086019101610784565b601f01601f1916010190565b9060206107dd9281815201906107a7565b90565b3461036e57604036600319011261036e576104b4610802602435600435613925565b6040519182916020835260208301906107a7565b3461036e57600036600319011261036e576020600254604051908152f35b634e487b7160e01b600052604160045260246000fd5b606081019081106001600160401b0382111761086557604052565b610834565b602081019081106001600160401b0382111761086557604052565b604081019081106001600160401b0382111761086557604052565b90601f801991011681019081106001600160401b0382111761086557604052565b6040519061014082018281106001600160401b0382111761086557604052565b6040519061020082018281106001600160401b0382111761086557604052565b6040519060a082018281106001600160401b0382111761086557604052565b604051906105fe8261084a565b6001600160401b0381116108655760051b60200190565b9080601f8301121561036e57602090823561095e8161092d565b9361096c60405195866108a0565b81855260208086019260051b82010192831161036e57602001905b828210610995575050505090565b81358152908301908301610987565b6020808201906020835283518092526040830192602060408460051b8301019501936000915b8483106109da5750505050505090565b90919293949584806109f8600193603f198682030187528a516107a7565b98019301930191949392906109ca565b3461036e57604036600319011261036e576001600160401b0360043581811161036e57610a39903690600401610944565b9060243590811161036e57610a52903690600401610944565b908051825103610abf57610a6681516129c4565b9160005b8251811015610ab15780610a95610a8360019386612a24565b51610a8e8386612a24565b5190613925565b610a9f8287612a24565b52610aaa8186612a24565b5001610a6a565b604051806104b486826109a4565b6040516317d38eff60e11b8152600490fd5b3461036e57602036600319011261036e576020610aef600435612a3d565b6040516001600160a01b039091168152f35b602090602060408183019282815285518094520193019160005b828110610b29575050505090565b835185529381019392810192600101610b1b565b3461036e5760208060031936011261036e57600435600052600b6020526040600020906040519081602084549182815201936000526020600020916000905b828210610b9f576104b485610b93818903826108a0565b60405191829182610b01565b835486529485019460019384019390910190610b7c565b3461036e57604036600319011261036e576020610bdd610bd4610358565b60243590613955565b6040519015158152f35b3461036e57600036600319011261036e576020600954604051908152f35b3461036e57600036600319011261036e5760206040516000805160206151ef8339815191528152f35b3461036e57602036600319011261036e57600435600090808252600760205260ff6040832054161561077257610c6e816000526008602052604060002090565b805460ff8160e01c16610d0857336001600160a01b0390911603610cf657805460ff60e01b1916600160e01b179055610ccd604051610cc781610cb960208201906001602083019252565b03601f1981018352826108a0565b82613acc565b33907f06fee831d841e6ffb21192ddcaf3c97100890eb9ddc88e5a56ef875b936de8998380a380f35b604051631c42cdd560e01b8152600490fd5b604051633e181f1760e21b8152600490fd5b6001600160401b03811161086557601f01601f191660200190565b929192610d4182610d1a565b91610d4f60405193846108a0565b82948184528183011161036e578281602093846000960137010152565b3461036e57602036600319011261036e576004356001600160401b03811161036e573660238201121561036e57610db7610db26020923690602481600401359101610d35565b612a60565b604051908152f35b3461036e57602036600319011261036e57610dd8610358565b610de0613712565b6001600160a01b031680156103f7576000818152600660205260408120805460ff19166001179055907f8b4006ca14f23d4e7aa8d120d1ab7c3761d650eefac1a5d6732dbea94b54ea248280a280f35b602090602060408183019282815285518094520193019160005b828110610e58575050505090565b83516001600160a01b031685529381019392810192600101610e4a565b3461036e5760208060031936011261036e57600435610e9381614ad4565b15610efc5760005260056020526040600020906040519081602084549182815201936000526020600020916000905b828210610ee5576104b485610ed9818903826108a0565b60405191829182610e30565b835486529485019460019384019390910190610ec2565b60249060405190635747cd1b60e11b82526004820152fd5b3461036e57602036600319011261036e576020610bdd600435612b72565b60443590811515820361036e57565b9080601f8301121561036e578160206107dd93359101610d35565b3461036e5760a036600319011261036e57610f75610358565b610f7d610373565b606435801515810361036e57608435926001600160401b03841161036e57610fac610fb6943690600401610f41565b9260443591612ca2565b005b93608093610fd96001600160401b039498979360a0885260a08801906107a7565b6020870198909852151560408601526001600160a01b0316606085015216910152565b3461036e5760208060031936011261036e576004359061101b826138ad565b90611025836138fa565b91805160009080156000146110d4575050506104b490611043612e63565b925b81815180156000146110ac5750505061107261106d6000956000526008602052604060002090565b612e85565b61109f6110826040830151151590565b82519093906001600160a01b03169201516001600160401b031690565b9160405195869586610fb8565b828261106d936110c3936110729601019101612e76565b956000526008602052604060002090565b82019183818185019403126111275783810151906001600160401b03821161112357019082603f83011215611120575082918160406104b49561111a9401519101612e2e565b92611045565b80fd5b8280fd5b5080fd5b3461036e57602036600319011261036e576104b4610802600435612ecd565b3461036e57600036600319011261036e57602060405160008051602061522f8339815191528152f35b3461036e57602036600319011261036e5760043561119b81600052600a602052604060002090565b6001810154156112315760028101906111b48254612a3d565b336001600160a01b039091160361121f576111d76111d3825460ff1690565b1590565b61120d57805460ff191690555433917fa5e591f0c7a2373156e02a51536ca76339bf6592f17cc08f23ebb2fff551751c600080a4005b60405163ee55c70160e01b8152600490fd5b6040516359dc379f60e01b8152600490fd5b6040516333df5f9960e11b8152600490fd5b3461036e57602036600319011261036e576001600160401b0360043581811161036e573660238201121561036e57806004013591821161036e573660248360051b8301011161036e576104b491602461129c9201612f7e565b604051918291826109a4565b3461036e57602036600319011261036e576001600160a01b036112c9610358565b1660005260046020526020604060002054604051908152f35b3461036e57600080600319360112611120576112fc613712565b80546001600160a01b03198116825581906001600160a01b03167f8be0079c531659141344cd1fd0a4f28419497f9722a3daafe3b4186f6b6457e08280a380f35b6001600160401b0381160361036e57565b3461036e5760c036600319011261036e57600480359061136c610373565b91604435600981101561036e57606435600281101561036e57608435916113928361133d565b60a4359261139f8461133d565b84600052600760205260409560ff87600020541615611587576113c186612a3d565b6001600160a01b039033908216036115785788161561156a576001600160401b03808616801515918261155e575b5050611550576113fe83610526565b60088314611542576104b46114d0888a89897f678bbd520571967a4d735b038cc5ce8f971a4d6bc165e9d619dfb051668968148a8a6114ef878c6009549a8b9761144f61144a8a613032565b600955565b6114bf6114668b600052600f602052604060002090565b54938b6114716108c1565b6001815296602088018d90528701523360608701526001600160a01b038d1660808701526114a28860a0880161277a565b6114af8960c08801612a90565b6001600160401b031660e0860152565b6001600160401b0316610100840152565b6101208201526114ea86600052600a602052604060002090565b6130f3565b61150c8461150787600052600b602052604060002090565b613205565b61153161152386600052600f602052604060002090565b54885193849333998561323e565b0390a4519081529081906020820190565b865163053679d360e11b8152fd5b86516304fd87e960e31b8152fd5b841611905038806113ef565b865163ccea9e6f60e01b8152fd5b5086516359dc379f60e01b8152fd5b8651634ded8ea560e01b8152fd5b6002111561053057565b9060028210156105305752565b9692936101209896919b9a99956115fe956115f4946101408b019e15158b5260208b015260408a015260018060a01b0380921660608a015216608088015260a0870190610535565b60c085019061159f565b6001600160401b0380921660e0840152166101008201520152565b3461036e57602036600319011261036e57600435600052600a60205260406000206116426108c1565b90805461164f9060ff1690565b1515825260018101546020830190815260028201546040840190815260038301549092906001600160a01b03166001600160a01b0316606085019081529360048201546001600160a01b03811660808301908152929060a083018160a01c60ff166116ba908261277a565b60c08401908260a81c60ff166116d09083612a90565b60e085019260b01c6001600160401b03166116f49084906001600160401b03169052565b60058401546001600160401b03166001600160401b0316610100860190815293600601546101208601908152945115159651975198516001600160a01b031695516001600160a01b031690519161174a83610526565b519261175584611595565b516001600160401b031693516001600160401b0316945195604051998a996104b4998b6115ac565b9181601f8401121561036e578235916001600160401b03831161036e576020838186019501011161036e57565b3461036e57608036600319011261036e576117c3610373565b6044356001600160401b03811161036e576020916117e8610db792369060040161177d565b9060643592600435613276565b9080601f8301121561036e57602090823561180f8161092d565b9361181d60405195866108a0565b81855260208086019260051b82010192831161036e57602001905b828210611846575050505090565b81356001600160a01b038116810361036e578152908301908301611838565b9080601f8301121561036e57602090823561187f8161092d565b9361188d60405195866108a0565b81855260208086019260051b82010192831161036e57602001905b8282106118b6575050505090565b8135801515810361036e5781529083019083016118a8565b81601f8201121561036e578035916020916118e88461092d565b936118f660405195866108a0565b808552838086019160051b8301019280841161036e57848301915b8483106119215750505050505090565b82356001600160401b03811161036e57869161194284848094890101610f41565b815201920191611911565b3461036e5760a036600319011261036e5760046001600160401b03813581811161036e5761197e90369084016117f5565b9060243581811161036e5761199690369085016117f5565b60443582811161036e576119ad9036908601610944565b9060643583811161036e576119c59036908701611865565b9260843590811161036e57610fb6956119e0913691016118ce565b936134dc565b604036600319011261036e576024356001600160401b03811161036e57611a11903690600401610f41565b611a19613712565b34611a2a57610fb690600435614284565b60405163f36ba73760e01b8152600490fd5b3461036e57606036600319011261036e57611a55610358565b602435906044356001600160401b03811161036e57611a78903690600401610f41565b90611a8283612a3d565b6001600160a01b0381811691338303611b6f575082168015611b5d57808214611b4b57611ac56111d384611ac0886000526005602052604060002090565b6143b0565b611b2b579380611b2692610fb6967f1b1b58aa2ec0cec2228b2d37124556d41f5a1f7b12f089171f896cc23667121560405180611b028a826107cc565b0390a4611b1860405194859233602085016135ea565b03601f1981018452836108a0565b614e67565b6040516314ec4d6d60e31b815280611b478786600484016135cf565b0390fd5b6040516344fed6b160e11b8152600490fd5b604051639577b8b360e01b8152600490fd5b85611b47604051928392632d938f5160e11b84523391600485016135ac565b3461036e57600036600319011261036e576000546040516001600160a01b039091168152602090f35b3461036e5760208060031936011261036e57600435600052600e6020526040600020906040519081602084549182815201936000526020600020916000905b828210611c0d576104b485610b93818903826108a0565b835486529485019460019384019390910190611bf6565b604036600319011261036e5760046001600160401b03813581811161036e57611c509036908401610944565b9060243590811161036e57611c6890369084016118ce565b91611c71613712565b34611cd9578151835103611cca57815115611cbb575060005b8151811015610fb65780611cb5611ca360019385612a24565b51611cae8387612a24565b5190614284565b01611c8a565b6040516397da5f9560e01b8152fd5b604051633bcc897960e01b8152fd5b60405163f36ba73760e01b8152fd5b602090602060408183019282815285518094520193019160005b828110611d10575050505090565b835185529381019392810192600101611d02565b3461036e5760208060031936011261036e576001600160a01b03611d46610358565b1660005260046020526040600020906040519081602084549182815201936000526020600020916000905b828210611d94576104b485611d88818903826108a0565b60405191829182611ce8565b835486529485019460019384019390910190611d71565b3461036e57600036600319011261036e57602060405160008051602061520f8339815191528152f35b929190611deb6020916040865260408601906107a7565b930152565b3461036e57602036600319011261036e57600435600052600d6020526040600020611e196108e1565b611e2d611e27835460ff1690565b15158252565b600182015460208201526002820154604082015260038201546060820152611ed163ffffffff6004840154611e6860ff82166080860161277a565b611e7b60ff8260081c1660a08601612786565b601081901c6001600160a01b031660c085015260b01c6001600160401b0390811660e08501526005850154808216610100860152604081901c90911661012085015260801c1661014083019063ffffffff169052565b611f34611ee060068401612862565b9161016081019283526101e0611f2d600a6007870154966101808501978852611f1a611f10600883015460ff1690565b15156101a0870152565b60098101546101c0860152015460ff1690565b1515910152565b519051906104b460405192839283611dd4565b3461036e576003196040368201811361036e5760048035926024356001600160401b039182821161036e5760e082850191833603011261036e5785600052600a6020528460002060018101541561219d57611fa66111d3825460ff1690565b61218d57808501805490956001600160a01b0391338382160361217e576002840196875493611fdf85600052600f602052604060002090565b5460068701540361216e57611ff385612a3d565b6003870154909190612015906001600160a01b03165b6001600160a01b031690565b91160361215e578160b01c168015159081612154575b506121455761205361204760058601546001600160401b031690565b6001600160401b031690565b801515908161213b575b5061212c5760ff60089160a01c1661207481610526565b1461211e5750879361210e60a46120f7866120dd6104b49c9a976120d87fed3cacd729477d0f36a74c7acff952351130177a2dadc2566addbc94bdea9cbd986120c06121079f9c613640565b6120cc60248b01613640565b9060c48b0135926143c3565b614482565b865433908a6120f18b5460ff9060a01c1690565b91614734565b98899554965460ff9060a01c1690565b920161364a565b9061153187519283923384613657565b875163053679d360e11b8152fd5b508751630f05f5bf60e01b8152fd5b905042113861205d565b5087516334c749c760e01b8152fd5b905042103861202b565b89516367bc669960e11b81528390fd5b8a516369c40ebd60e11b81528490fd5b5087516374d3b8c160e01b8152fd5b855163ee55c70160e01b81528590fd5b85516333df5f9960e11b81528590fd5b3461036e57606036600319011261036e576004356001600160401b0360243581811161036e576121e190369060040161177d565b91600093808552600760205260ff604086205416156107725780855260086020526040852092835460ff8160e01c16610d0857336001600160a01b0390911603610cf65761224b946122439261223d3393604435933691610d35565b9061408b565b421690613464565b80f35b3461036e57606036600319011261036e5760046001600160401b03813581811161036e5761227f9036908401610944565b60243582811161036e576122969036908501610944565b9160443590811161036e576122ae90369085016118ce565b926122b7613712565b8151835180911490811591612331575b5061232257815115612313575060005b8151811015610fb6578061230d6122f060019385612a24565b516122fb8387612a24565b516123068489612a24565b5191613e0c565b016122d7565b6040516380c9830560e01b8152fd5b6040516317d38eff60e11b8152fd5b905084511415386122c7565b3461036e57602036600319011261036e57600435600052600f6020526020604060002054604051908152f35b3461036e57606036600319011261036e576044356001600160401b03811161036e5761239c610fb6913690600401610f41565b6123a4613712565b602435600435613e0c565b3461036e57608036600319011261036e576123c8610358565b6024356123d3610f32565b916064356001600160401b03811161036e576123f3903690600401610f41565b6123fc83612a3d565b936001600160a01b03808616903382900361244d575b8416908115611b5d5714611b4b5761242d828286888761487e565b61243357005b610fb693611b18611b269260405195869360208501613615565b84811633146124125760405163760b5acd60e01b81523360048201526001600160a01b038816602482015260448101879052606490fd5b3461036e57600036600319011261036e576020600c54604051908152f35b3461036e57602036600319011261036e576004356001600160401b03811161036e576124d2903690600401610944565b6124dc81516129c4565b9060005b815181101561251b57806124ff6124f960019385612a24565b51612ecd565b6125098286612a24565b526125148185612a24565b50016124e0565b604051806104b485826109a4565b3461036e57608036600319011261036e576001600160401b0360043581811161036e5761255a90369060040161177d565b612565929192610373565b9160443590811161036e5761257e90369060040161177d565b92909233600052600660205260ff60406000205416156125c9576125ad610db26104b4966125b8953691610d35565b936064359285613276565b506040519081529081906020820190565b6040516306aaf4f160e31b8152600490fd5b3461036e57602036600319011261036e576125f4610358565b6125fc613712565b6001600160a01b03908116801561264a57600080546001600160a01b03198116831782559092167f8be0079c531659141344cd1fd0a4f28419497f9722a3daafe3b4186f6b6457e08380a380f35b60405162461bcd60e51b815260206004820152602660248201527f4f776e61626c653a206e6577206f776e657220697320746865207a65726f206160448201526564647265737360d01b6064820152608490fd5b6001600160a01b0316600090815260046020526040902090565b3461036e57602036600319011261036e576001600160a01b036126d9610358565b166000526006602052602060ff604060002054166040519015158152f35b9060048210156105305752565b3461036e57602036600319011261036e57600435600052600760205260a0604060002060018154916001600160401b03918291015416906040519260ff811615158452600180861b038160081c16602085015261276a6040850160ff8360a81c166126f7565b60b01c1660608301526080820152f35b60098210156105305752565b60088210156105305752565b90600182811c921680156127c2575b60208310146127ac57565b634e487b7160e01b600052602260045260246000fd5b91607f16916127a1565b8054600093926127db82612792565b918282526020936001916001811690816000146128435750600114612802575b5050505050565b90939495506000929192528360002092846000945b83861061282f575050505001019038808080806127fb565b805485870183015294019385908201612817565b60ff19168685015250505090151560051b0101915038808080806127fb565b906105fe61287692604051938480926127cc565b03836108a0565b906105fe612992600a61288e6108e1565b946128a361289d825460ff1690565b15158752565b60018101546020870152600281015460408701526003810154606087015261294763ffffffff60048301546128de60ff821660808b0161277a565b6128f160ff8260081c1660a08b01612786565b601081901c6001600160a01b031660c08a015260b01c6001600160401b0390811660e08a015260058401548082166101008b0152604081901c9091166101208a015260801c1661014088019063ffffffff169052565b61295360068201612862565b610160870152600781015461018087015261297f612975600883015460ff1690565b15156101a0880152565b60098101546101c0870152015460ff1690565b15156101e0840152565b90600481101561053057815460ff60a81b191660a89190911b60ff60a81b16179055565b9055565b906129ce8261092d565b6129db60405191826108a0565b82815280926129ec601f199161092d565b019060005b8281106129fd57505050565b8060606020809385010152016129f1565b634e487b7160e01b600052603260045260246000fd5b8051821015612a385760209160051b010190565b612a0e565b6000818152600360205260409020546001600160a01b0316908115610efc575090565b604051612a8a60208281612a7d8183019687815193849201610784565b81010380845201826108a0565b51902090565b60028210156105305752565b906006612aa76108c1565b92612abc612ab6825460ff1690565b15158552565b600181015460208501526002810154604085015260038101546001600160a01b0316606085015260048101546001600160a01b0381166080860152612b40906001600160401b0390612b1760ff8260a01c1660a0890161277a565b612b2a60ff8260a81c1660c08901612a90565b60b01c1660e08601906001600160401b03169052565b612b68612b5760058301546001600160401b031690565b6001600160401b0316610100860152565b0154610120830152565b612b89612b8e91600052600a602052604060002090565b612a9c565b602081015115612c8b57612ba56111d38251151590565b612c8b5760408101612bcf6111d3612bc883516000526007602052604060002090565b5460ff1690565b612c9b57612be88151600052600f602052604060002090565b5461012083015103612c9b57612bfe9051612a3d565b6060820151612c15906001600160a01b0316612009565b6001600160a01b0390911603612c8b576001600160401b03612c4160e08301516001600160401b031690565b168015159081612c91575b50612c8b576101000151612c68906001600160401b0316612047565b8015159081612c81575b50612c7c57600190565b600090565b9050421138612c72565b50600090565b9050421038612c4c565b5050600090565b90929391612cb08133613955565b15612e1057612cbe81612a3d565b6001600160a01b038181169184821691828403612df357808816938415612de157612ce886612a3d565b91821603612db157505092612da783806105fe999794611b189997612d10612dac9887614af1565b612d2283612d1d8861269e565b614f92565b50612d3583612d308b61269e565b614e17565b50612d5389612d4e856000526003602052604060002090565b613046565b6040517fb333c813a7426a7a11e2b190cad52c44119421594b47f6f32ace6d8c7207b2bf9080612d858a8e3384613f17565b0390a4612d93818785614bc8565b604051978894859288863360208701613f79565b614ecb565b614d8b565b604051635a9c31d360e01b8152600481018690526001600160a01b03928316602482015291166044820152606490fd5b6040516324ecef4d60e01b8152600490fd5b604051632d938f5160e11b815280611b47888886600485016135ac565b60449060405190631294d2a960e01b82526004820152336024820152fd5b90929192612e3b81610d1a565b91612e4960405193846108a0565b82948284528282011161036e5760206105fe930190610784565b60405190612e708261086a565b60008252565b9081602091031261036e575190565b90604051606081016001600160401b0390828110828211176108655760409160ff9183528395549060018060a01b03821685528160a01c16602085015260e01c161515910152565b6000526001602052612eec6107dd6040600020604051928380926127cc565b03826108a0565b903590601e198136030182121561036e57018035906001600160401b03821161036e5760200191813603831361036e57565b90821015612a3857612f3c9160051b810190612ef3565b9091565b908092918237016000815290565b3d15612f79573d90612f5f82610d1a565b91612f6d60405193846108a0565b82523d6000602084013e565b606090565b9190612f89816129c4565b9260009160005b818110612f9d5750505050565b8380612faa838587612f25565b60409391612fbc855180938193612f40565b0390305af490612fca612f4e565b9115612ff1575090600191612fdf8289612a24565b52612fea8188612a24565b5001612f90565b81519192911561300357825160208401fd5b5163234eb81960e01b8152600481019190915260249150fd5b634e487b7160e01b600052601160045260246000fd5b60001981146130415760010190565b61301c565b80546001600160a01b0319166001600160a01b03909216919091179055565b90600981101561053057815460ff60a01b191660a09190911b60ff60a01b16179055565b90600281101561053057815460ff60a81b191660a89190911b60ff60a81b16179055565b805467ffffffffffffffff60b01b191660b09290921b67ffffffffffffffff60b01b16919091179055565b906001600160401b03166001600160401b0319825416179055565b906101206006916131196131078251151590565b859060ff801983541691151516179055565b60208101516001850155604081015160028501556060810151613148906001600160a01b031660038601613046565b60808101516131ab906004860190613169906001600160a01b031682613046565b61318060a084015161317a81610526565b82613065565b61319760c084015161319181611595565b82613089565b60e08301516001600160401b0316906130ad565b6131cc6131c36101008301516001600160401b031690565b600586016130d8565b0151910155565b8054821015612a385760005260206000200190600090565b916129c09183549060031b91821b91600019901b19161790565b805490600160401b82101561086557816132279160016129c0940181556131d3565b819391549060031b91821b91600019901b19161790565b6001600160a01b039091168152608081019493926060926132729190613268906020850190610535565b604083019061159f565b0152565b939290926000923384526006602052604060ff8186205416156133d3576001600160a01b0386169586156133c2576132bb612bc8896000526007602052604060002090565b6133b15791613379613382926132df6133889796958b6132d9612e63565b91613fb3565b876001600160401b0342169161333e8c6133396132fa610901565b60018152913360208401528285018690526001600160401b03871660608401526001600160401b03871660808401526000526007602052604060002090565b6133e3565b61335d613349610920565b338152936001600160401b03166020850152565b8201526133748a6000526008602052604060002090565b61348f565b33933691610d35565b8661408b565b827fc8b1ba5eac5171dfc2289486e8acda47091bc825817bf2ba6db22dfc5cdf5aae339280a490565b8151635bebc7ad60e11b8152600490fd5b8151638690be2760e01b8152600490fd5b516306aaf4f160e31b8152600490fd5b6133fc82511515829060ff801983541691151516179055565b60208201518154610100600160a81b03191660089190911b610100600160a81b031617815560408201516004811015610530576105fe9261343f6001928461299c565b60806001600160401b039161345a83606083015116866130ad565b01511691016130d8565b805467ffffffffffffffff60a01b191660a09290921b67ffffffffffffffff60a01b16919091179055565b815190916040916134a9906001600160a01b031684613046565b6134c06001600160401b0360208301511684613464565b0151815460ff60e01b191690151560e01b60ff60e01b16179055565b9493909192855193835185148015906135a1575b8015613596575b801561358b575b6135795760005b858110613516575050505050509050565b806135736135366135296001948c612a24565b516001600160a01b031690565b613543613529848a612a24565b61354d8487612a24565b5161356161355b868a612a24565b51151590565b9161356c868b612a24565b5193612ca2565b01613505565b6040516393a8311960e01b8152600490fd5b5082518514156134fe565b5081518514156134f7565b5080518514156134f0565b6001600160a01b0391821681526020810192909252909116604082015260600190565b6001600160a01b039091168152602081019190915260400190565b6107dd939260809260018060a01b0316825260208201526001604082015281606082015201906107a7565b6107dd939260809260018060a01b0316825260208201526000604082015281606082015201906107a7565b356107dd8161133d565b35600881101561036e5790565b6001600160a01b0390911681526060810193926105fe929091604091613681906020830190610535565b019061054c565b34156136a0576040516330fa4a2160e11b8152600490fd5b606460405163e5099ee360e01b8152602060048201526004602482015260006044820152fd5b600436106136d7576107dd9061493b565b6044604051809263e5099ee360e01b825260206004830152806024830152806000848401376000828201840152601f01601f19168101030190fd5b6000546001600160a01b0316330361372657565b606460405162461bcd60e51b815260206004820152602060248201527f4f776e61626c653a2063616c6c6572206973206e6f7420746865206f776e65726044820152fd5b6137b16137ac604051696773c5a04a6d4300884b60b11b60208201526000602a8201526301ffc9a760e01b602c820152602081526137a781610885565b614f2f565b612ecd565b805160148114159081613805575b506137e0576137cd90614a10565b60601c908115612c9b576107dd91614aa2565b6040516342bfe79f60e01b815260206004820152908190611b479060248301906107a7565b90501515386137bf565b9060405191602083015260008051602061520f8339815191526040830152604082526105fe8261084a565b906040519160208301526000805160206151ef8339815191526040830152604082526105fe8261084a565b9060405191602083015260008051602061522f8339815191526040830152604082526105fe8261084a565b91906040519260208401526040830152604082526105fe8261084a565b604051602081019182526000805160206151ef8339815191526040820152604081526138d88161084a565b5190206000526001602052612eec6107dd6040600020604051928380926127cc565b6040516020810191825260008051602061522f8339815191526040820152604081526138d88161084a565b9061392f91613890565b602081519101206000526001602052612eec6107dd6040600020604051928380926127cc565b6001600160a01b038061396784612a3d565b16911690811491821561397957505090565b6107dd92506000526005602052604060002060019160005201602052604060002054151590565b90601f81116139ae57505050565b6000916000526020600020906020601f850160051c830194106139ec575b601f0160051c01915b8281106139e157505050565b8181556001016139d5565b90925082906139cc565b8160011b916000199060031b1c19161790565b91909182516001600160401b03811161086557613a3081613a2a8454612792565b846139a0565b602080601f8311600114613a61575081906129c0939495600092613a56575b50506139f6565b015190503880613a4f565b90601f19831695613a7785600052602060002090565b926000905b888210613ab457505083600195969710613a9b575b505050811b019055565b015160001960f88460031b161c19169055388080613a91565b80600185968294968601518155019501930190613a7c565b90613ad68261380f565b80516020809201206000526001806020526040600020918351916001600160401b03831161086557613b1283613b0c8654612792565b866139a0565b602091601f8411600114613b79575050926000805160206151cf83398151915292613b5a83613b699460008051602061520f8339815191529897600091613b6e575b506139f6565b90555b604051918291826107cc565b0390a3565b905084015138613b54565b9190601f19841690613b9086600052602060002090565b936000915b838310613bf5575050508360008051602061520f8339815191529796936000805160206151cf8339815191529693613b699660019410613bdc575b5050811b019055613b5d565b85015160001960f88460031b161c191690553880613bd0565b888501518655948501949381019391810191613b95565b90613c1682613865565b80516020809201206000526001806020526040600020918351916001600160401b03831161086557613c4c83613b0c8654612792565b602091601f8411600114613c93575050926000805160206151cf83398151915292613b5a83613b699460008051602061522f8339815191529897600091613b6e57506139f6565b9190601f19841690613caa86600052602060002090565b936000915b838310613cf5575050508360008051602061522f8339815191529796936000805160206151cf8339815191529693613b699660019410613bdc575050811b019055613b5d565b888501518655948501949381019391810191613caf565b90613d168261380f565b80516020809201206000526001806020526040600020918351916001600160401b03831161086557613d4c83613b0c8654612792565b602091601f8411600114613d93575050926000805160206151cf83398151915292613b5a83613b699460008051602061520f8339815191529897600091613b6e57506139f6565b9190601f19841690613daa86600052602060002090565b936000915b838310613df5575050508360008051602061520f8339815191529796936000805160206151cf8339815191529693613b699660019410613bdc575050811b019055613b5d565b888501518655948501949381019391810191613daf565b9091613e188383613890565b80516020809201206000526001806020526040600020918351916001600160401b03831161086557613e4e83613b0c8654612792565b602091601f8411600114613e8557505091613b5a826000805160206151cf8339815191529593613b6995600091613b6e57506139f6565b9190601f19841690613e9c86600052602060002090565b936000915b838310613ed75750505092613b699492600192826000805160206151cf833981519152989610613bdc575050811b019055613b5d565b888501518655948501949381019391810191613ea1565b6001600160a01b039091168152600160208201526060604082018190526107dd929101906107a7565b6001600160a01b03909116815290151560208201526060604082018190526107dd929101906107a7565b6001600160a01b0391821681526000602082015291166040820152606081019190915260a0608082018190526107dd929101906107a7565b6001600160a01b03918216815291811660208301529091166040820152606081019190915260a0608082018190526107dd929101906107a7565b909291906001600160a01b0381168015612de157613fd085614ad4565b61407257613fdd85614ad4565b61407257846105fe949561406d92613ffe613ff9600254613032565b600255565b61400b82612d308761269e565b5061402485612d4e846000526003602052604060002090565b60007fb333c813a7426a7a11e2b190cad52c44119421594b47f6f32ace6d8c7207b2bf604051806140568a3383613eee565b0390a4611b18604051948592853360208601613f41565b614d15565b6040516334c7b51160e01b815260048101869052602490fd5b9190926040805160208080830152816140a6848201896107a7565b036140b9601f19918281018552846108a0565b6140c28761383a565b82815191012092600093845260019160018452858520908251906001600160401b038211610865578a946140fa83613b0c8654612792565b8691601f84116001146141c7575050936000805160206151cf83398151915261417988957f12dab994b8a0b3a65a7a61edf404ecf300e5be96edd6f3fcaa76dc5e7c26ef089c9b9a989561416b866000805160206151ef833981519152976141b09b613b699e91613b6e57506139f6565b90555b8851918291826107cc565b0390a36141988451888382015282815261419281610885565b8a613c0c565b8351918183015281526141aa81610885565b87613d0c565b516001600160a01b03909216959192839283611dd4565b83929192166141db85600052602060002090565b9289905b82821061426a575050613b6998957f12dab994b8a0b3a65a7a61edf404ecf300e5be96edd6f3fcaa76dc5e7c26ef089c9b9a98956001866141b09a966000805160206151cf833981519152966000805160206151ef833981519152996141799710614251575b5050811b01905561416e565b85015160001960f88460031b161c191690553880614245565b8784015185558e98509384019392890192908901906141df565b907ff675e9361af1c1664c1868cfa3eb97672d6b1a513aa5b81dec34c9ee330e818d821461439e577fdeba1e292f8ba88238e10ab3c7f88bd4be4fac56cad5194b6ecceaf653468af182036142e5576040516385c169bd60e01b8152600490fd5b7f2f0a68ab07768e01943a599e73362a0e17a63a72e94dd2e384d2c1d4db932756820361431e57604051630eceab6760e31b8152600490fd5b7fe0261fa95db2eb3b5439bd033cda66d56b96f92f243a8228fd87550ed7bdfdb3820361435757604051634ef6d7fb60e01b8152600490fd5b61439981613b5d7fece574603820d07bc9b91f2a932baadf4628aabcb8afba49776529c14a6104b293614394866000526001602052604060002090565b613a09565b0390a2565b604051631b32400560e11b8152600490fd5b6107dd916001600160a01b031690614e17565b9291906001600160401b038091168015908115614476575b50614464574291161161445257806143f1575050565b61440b6111d3612bc883600052600d602052604060002090565b61444057614425600291600052600d602052604060002090565b01540361442e57565b60405163d1426e7f60e01b8152600490fd5b60405163051274cb60e01b8152600490fd5b6040516305f1f14160e31b8152600490fd5b604051634d4ae4d360e01b8152600490fd5b905081831610386143db565b60ff600482015460a81c166002811015610530571561449e5750565b805460ff19169055565b3563ffffffff8116810361036e5790565b9060098110156105305760ff80198354169116179055565b9060088110156105305761ff0082549160081b169061ff001916179055565b91909182516001600160401b0381116108655761451181613a2a8454612792565b602080601f8311600114614536575081906129c0939495600092613a565750506139f6565b90601f1983169561454c85600052602060002090565b926000905b88821061456f57505083600195969710613a9b57505050811b019055565b80600185968294968601518155019501930190614551565b600a6147216101e06105fe946145b26145a08251151590565b869060ff801983541691151516179055565b60208101516001860155604081015160028601556060810151600386015561463b600486016145ee60808401516145e881610526565b826144b9565b61460560a08401516145ff81610542565b826144d1565b60c0830151613197906001600160a01b0316825462010000600160b01b03191660109190911b62010000600160b01b0316178255565b6146cc6005860161466061465a6101008501516001600160401b031690565b826130d8565b6146a06146786101208501516001600160401b031690565b825467ffffffffffffffff60401b191660409190911b67ffffffffffffffff60401b16178255565b61014083015163ffffffff16815463ffffffff60801b191660809190911b63ffffffff60801b16179055565b6146de610160820151600687016144f0565b610180810151600786015561470f6146fa6101a0830151151590565b600887019060ff801983541691151516179055565b6101c081015160098601550151151590565b91019060ff801983541691151516179055565b91929493600c549361474585613032565b600c55849660a083016147579061364a565b9061476184613640565b61476d60208601613640565b9061477a604087016144a8565b926147886060880188612ef3565b9590966147936108e1565b60018152998c60208c01528b60408c015260608b015260808a01906147b79161277a565b6147c49060a08a01612786565b6001600160a01b031660c08801526001600160401b03421660e08801526001600160401b03166101008701526001600160401b031661012086015263ffffffff16610140850152369061481692610d35565b610160830152608081013561018083015260016101a083015260c001356101c08201526101e081016000905261485683600052600d602052604060002090565b9061486091614587565b61487490600052600e602052604060002090565b906105fe91613205565b91939284600052600560205260406000209260018060a01b03906148a58282168096614f92565b156148f45750906148ef7fc78cd419d6136f9f1c1c6aec1d3fae098cffaf8bc86314a8f2685e32fe574e3c93926040519384931515845260406020850152169560408301906107a7565b0390a4565b6040516312a8c6a360e21b8152908190611b47908990600484016135cf565b9060349391816000823760609390931b6001600160601b031916920191825260148201520190565b63ffffffff60e01b600035169061497e6137ac604051696773c5a04a6d4300884b60b11b60208201526000602a82015284602c820152602081526137a781610885565b805160148114159081614a06575b506137e05761499a90614a10565b60601c9182156149e2575060009182916040516149c381610cb960208201943490339087614913565b519134905af16149d1612f4e565b90156149da5790565b602081519101fd5b60405163bb370b2b60e01b81526001600160e01b0319919091166004820152602490fd5b905015153861498c565b80516020909101516001600160601b0319808216939290919060148110614a3657505050565b60140360031b82901b16169150565b6000602091604051838101906301ffc9a760e01b8252631aed5a8560e21b602482015260248152614a758161084a565b5191617530fa6000513d82614a96575b5081614a8f575090565b9050151590565b60201115915038614a85565b600090602092604051848101916301ffc9a760e01b835263ffffffff60e01b16602482015260248152614a758161084a565b6000908152600360205260409020546001600160a01b0316151590565b90600090808252600591602093600560205260409182812094855495825b878110614b2157505050505050505050565b815415612a38578184528884205486516001600160a01b0391821691614b468261086a565b868252898752858c52614b5b838a8920614f92565b15614bad57600193927fc78cd419d6136f9f1c1c6aec1d3fae098cffaf8bc86314a8f2685e32fe574e3c8d89614ba48e968e968e888051968796875286015216968301906107a7565b0390a401614b0f565b88516312a8c6a360e21b815280611b478c86600484016135cf565b6001600160a01b038181168015908115614c90575b50614c8a57821615614c8557826000526007602052614c0c6001600160401b03421660016040600020016130d8565b614c2083600052600f602052604060002090565b92835460018101809111613041576105fe9455807f68a9605af782a78794bf10267dbe75939ae6fec1fe3a7b7dd51c4924f4575859614c7d614c6c83600052600f602052604060002090565b546040519081529081906020820190565b0390a2615047565b505050565b50505050565b90508184161438614bdd565b60208183031261036e578051906001600160401b03821161036e57019080601f8301121561036e5781516107dd92602001612e2e565b9060406107dd927f0b084a55ebf70fd3c06fd755269dac2212c4d3f0f4d09079780bfa50c1b2984d815281602082015201906107a7565b6040513d6000823e3d90fd5b614d1e81614a45565b15614d8757604051631aed5a8560e21b8152916000918391829084908290614d499060048301614cd2565b03926001600160a01b03165af18015614d8257614d635750565b614d7f903d806000833e614d7781836108a0565b810190614c9c565b50565b614d09565b5050565b9190614d9683614a45565b15614dc05750614d496000928392604051948580948193631aed5a8560e21b835260048301614cd2565b905015614dca5750565b803b15614df457604051634349776d60e01b81526001600160a01b03919091166004820152602490fd5b604051630317313760e01b81526001600160a01b03919091166004820152602490fd5b6000828152600182016020526040902054612c9b57805490600160401b8210156108655782614e506132278460018096018555846131d3565b905580549260005201602052604060002055600190565b614e7081614a45565b614e78575050565b614d49600092918392604051948580948193631aed5a8560e21b83527f8a1c15a8799f71b547e08e2bcb2e85257e81b0a07eee2ce6712549eef1f0097060048401526040602484015260448301906107a7565b614ed481614a45565b614edc575050565b614d49600092918392604051948580948193631aed5a8560e21b83527fb23eae7e6d1564b295b4c3e3be402d9a2f0776c57bdf365903496f6fa481ab0060048401526040602484015260448301906107a7565b602081519101519060208110614f43575090565b6000199060200360031b1b1690565b8054908115614f7c5760001991820191614f6c83836131d3565b909182549160031b1b1916905555565b634e487b7160e01b600052603160045260246000fd5b600181019180600052826020526040600020549283151560001461503e576000199284840190858211613041578054948501948511613041576000958583614fe694614ff59803614ffb575b505050614f52565b90600052602052604060002090565b55600190565b61502561501f9161500f61503594876131d3565b90549060031b1c928391876131d3565b906131eb565b8590600052602052604060002090565b55388080614fde565b50505050600090565b907fb0e61a071c1f78b584caf7677cc3ec1c59622cabd30507b0aa47086483762ff56148ef6001600160401b03421692600c549361508c61508786613032565b600c55565b6151536150976108e1565b600181528660208201528760408201526150fb6000938460608401526150c06080840160089052565b8460a08401528460c08401526150e28160e08501906001600160401b03169052565b6001600160401b03166101008301819052610120830152565b8261014082015261510a612e63565b610160820152826101808201526151256101a0820160019052565b826101c082015261513a6101e0820160019052565b61514e87600052600d602052604060002090565b614587565b61516b8561150788600052600e602052604060002090565b85857fed3cacd729477d0f36a74c7acff952351130177a2dadc2566addbc94bdea9cbd604051806151ae8190600060406060840193828152600860208201520152565b0390a46040516001600160a01b039687168152951694908190602082019056fea6e4251f855f750545fe414f120db91c76b88def14d120969e5bb2d3f05debbb4a575305803ae25e5c97a34a769c64aa4adee9a001d3e057d35a7015ca2d1badde95a1341942668b37dff0e3cc61025dd74e03d6a0fb54c8e877df964dcb87934caf511a2ec83ba577d4ef5a0f72cf12c5524ba5e0f0fbba1894b96079ecf9b5a2646970667358221220931ee5b8e9fa9e3c0a9eabf16a5355565b7eca1f6b466d2f9f49648dadfe380564736f6c63430008180033deba1e292f8ba88238e10ab3c7f88bd4be4fac56cad5194b6ecceaf653468af1e0261fa95db2eb3b5439bd033cda66d56b96f92f243a8228fd87550ed7bdfdb32f0a68ab07768e01943a599e73362a0e17a63a72e94dd2e384d2c1d4db932756ece574603820d07bc9b91f2a932baadf4628aabcb8afba49776529c14a6104b2",
  "linkReferences": {},
  "deployedLinkReferences": {}
}